:020000040800F2
:10000000780B002005010008553A0008392E000839
:10001000513A0008050C00081943000800000000D0
:100020000000000000000000000000008D3C0008FF
:10003000490E000800000000573A0008A93C0008DB
:100040001F0100081F0100081F0100081F01000810
:100050001F0100081F0100081F0100081F01000800
:100060001F0100081F0100081F0100081F010008F0
:100070001F0100081F0100081F0100081F010008E0
:100080001F0100081F0100081F0100081F010008D0
:100090001F0100081F0100081F0100081F010008C0
:1000A0001F0100081F0100081F0100081F010008B0
:1000B000713D0008813D0008913D00081F010008C6
:1000C0001F0100081F0100081F0100081F01000890
:1000D0001F010008094300081F0100081F01000854
:1000E0001F0100081F0100081F010008DFF810D0E1
:1000F00000F052FC00480047F94E0008AFF30080C2
:10010000780B00200648804706480047FEE7FEE7D8
:10011000FEE7FEE7FEE7FEE7FEE7FEE7FEE7FEE7B7
:10012000193D0008ED000008202A04DB203A21FADE
:1001300002F00021704721FA02F3D040C2F1200200
:10014000914008431946704740EA01039B0703D0DA
:1001500009E008C9121F08C0042AFAD203E011F806
:10016000013B00F8013B521EF9D27047D2B201E0C8
:1001700000F8012B491EFBD270470022F6E710B5AC
:1001800013460A4604461946FFF7F0FF204610BD05
:10019000421C10F8011B0029FBD1801A7047F0B4F3
:1001A00080EA0102D40F4200B2EB410F02D20246B4
:1001B000084611464A0042D0C30DDDB2C1F3C75212
:1001C000AD1A202D35DAC1F3160141F4000204B155
:1001D0005242C5F1200602FA06F12A411044B3EB5F
:1001E000D05F23D0C4B1012DA0EBC35009DCF0BC1B
:1001F0004FF0004202EAC352DBB200F5000000F00B
:1002000010BB400000F1807000EBC350A0F1807083
:1002100040EAD170490009E0490841EAC071A0EB09
:10022000C35000F50000400800EBC350F0BC00F0E4
:10023000EFBA6142012202EB4101001BF6E7F0BC7C
:10024000704781F00041AAE780F00040A7E780EA0C
:10025000010210B502F00043400022D04A001FD036
:10026000010E01EB1261C0F35600C2F3560240F4D6
:10027000000042F40002A0FB022000047F391404B5
:1002800000D0401C50EA124001D44000491EC2B2C6
:100290000C0604EBD010401C4008802A02D003E07A
:1002A000002010BD20F00100002900DA00201843D2
:1002B00010BD30B480EA010202F0004530F0004287
:1002C00021F0004013D090B1C30DD40DC2F316013C
:1002D000C0F31600E41A41F4000140F400027D343A
:1002E000914201D3641C00E04900002C02DA30BCCA
:1002F000002070474FF400000023914201D3891A77
:10030000034340084FEA4101F7D151B1914202D174
:100310004FF0004105E002D24FF0010101E06FF023
:10032000010103EBC450284430BC00F071BA2DE940
:10033000FE4F804681EA0300C00F0C46009021F07A
:10034000004123F00045B8EB0200A94105D2404628
:10035000214690461C460B46024623F000401043BF
:1003600047D0270DC7F30A00C3F30A510290401A81
:10037000019040286BDAC3F3130040F4801B00980F
:10038000924620B10023D2EB030A63EB0B0B0198DA
:100390005946C0F14002504600F019FA06460D4693
:1003A00050465946019A00F021FA10EB08006141CD
:1003B000002487EA115284EAE7731A4340D0009A76
:1003C00062B3019A012A4FEA075215DC001B61EB68
:1003D00002014FF0004202EA0752CDE90042001C40
:1003E00041F5801132462B4600F058FA03B0BDE8C3
:1003F000F08F40462146F9E7001B61EB0201001C2B
:1004000041F5801300185B412018A2F5001747EB57
:10041000030140EAD570B6196D4111E06D084FEA4D
:10042000360645EAC0754FEA0752001B61EB020130
:10043000001C41F5801149084FEA30000019514174
:1004400032462B4603B0BDE8F04F00F018BA0098D2
:10045000012240000023D0EB020263EBE07300981E
:1004600021464FEAE074B8EB000061EB0401E9E7D4
:1004700083F000435BE781F0004158E72DE9FE4F30
:1004800081EA030404F0004421F0004100944FF09D
:10049000000B23F0004350EA01045ED052EA03044B
:1004A0005BD0C3F30A54C1F30A552C44A4F2F334CD
:1004B0000194A0FB0254C1F3130141F48011C3F372
:1004C000130343F4801301FB024400FB034E840A30
:1004D000970A44EA815447EA8357A4FB07680295C8
:1004E0008D0A05FB07854FEA932C04FB0C54270566
:1004F000029D4FEA065847EA1637B5EB08056EEB42
:10050000070C870E920E47EA811742EA8312A7FB77
:100510000201B6EB0B0164EB00042B0D43EA0C3334
:100520005E1844EB1C50DA465146E7FB0201C5F366
:1005300013044FEA0B3343EA14534FEA0432019C8D
:1005400043EA0603A4F10C040294009CCDE900B434
:1005500000F0A4F903B0BDE8F08F00200146F9E7F0
:100560002DE9F04D81EA030404F0004B21F0004531
:1005700014464FF0000A23F0004150EA050220D053
:1005800054EA01021DD0C5F30A570246C5F313030E
:10059000C1F31300C1F30A5640F4801543F48013ED
:1005A000A7EB0608101BD64608F2FD3873EB0500D2
:1005B00002D308F1010801E092185B41B8F1000F85
:1005C00003DA00200146BDE8F08D00204FF48011D1
:1005D000064684460EE0171B73EB050705D3121B76
:1005E00063EB050306434CEA010C49084FEA30006F
:1005F00092185B4150EA0107EDD152EA030012D094
:1006000082EA040083EA0501084305D0101BAB41D0
:1006100006D20122002306E000224FF0004302E050
:100620006FF0010253101AEB06004CEB085110EB6F
:100630000A0041EB0B01BDE8F04D00F020B9C10FFD
:1006400080EAE0700844CA079623002100F0E9B868
:1006500096230022114600F0E4B80EB540F2334173
:1006600002910021CDE900110A460B4600F016F96F
:1006700003B000BD20F00040C10DC0F3160040F4EF
:1006800000007F2901DA00207047962903DCC1F1C0
:100690009601C8407047963988407047C1F30A52A6
:1006A00010B5C1F3130140F2FF3341F480119A42B7
:1006B00001DA002010BD40F233439A42A2F23342E5
:1006C00003DC5242FFF730FD10BD904010BD00F03A
:1006D000004230F000400AD0C10D01F56071C0F356
:1006E000160042EA0151C20840071143704700203A
:1006F0000146704701F0004330B421F0004150EA58
:10070000010206D00A0DA2F56072C1F31301002A9E
:1007100002DC30BC00207047440F44EAC104C10031
:10072000E01830BC00EBC25000F072B8002801DBCA
:10073000C0F10040002901DBC1F10041884270474F
:1007400030B50B46014600202022012409E021FAA1
:1007500002F59D4205D303FA02F5491B04FA02F59E
:100760002844151EA2F10102F1DC30BD2DE9F05F35
:100770000546002092469B46884606468146402410
:100780001BE02846414647462246FFF7CDFC53462C
:100790005A46C01A914110D311461846224600F01D
:1007A00016F82D1A67EB01084F462246012000215A
:1007B00000F00DF817EB00094E41201EA4F10104D2
:1007C000DFDC484631462A464346BDE8F09F202AF2
:1007D00004DB203A00FA02F1002070479140C2F198
:1007E000200320FA03F3194390407047202A06DBC8
:1007F000CB17203A41FA02F043EAE07306E041FAEF
:1008000002F3D040C2F120029140084319467047DC
:100810000029A8BF7047401C490008BF20F0010014
:10082000704710B4B0FA80FC00FA0CF050EA0104F2
:1008300004BF10BC704749B1CCF1200421FA04F484
:1008400011FA0CF118BF012121430843A3EB0C015D
:10085000CB1D4FEA00614FEA102042BF002010BCC0
:10086000704700EBC35010440029A4BF10BC704770
:10087000401C490008BF20F0010010BC704710B5B3
:10088000141E73F1000408DA401C41F100019218B3
:100890005B411A4301D120F0010010BD2DE9F04D5C
:1008A00092469B4611B1B1FA81F202E0B0FA80F2B1
:1008B00020329046FFF78BFF04460F4640EA0A00BD
:1008C00041EA0B0153465A46084313D0114653EAF6
:1008D000010019D0C8F140025046FFF725FC05463B
:1008E0000E46504659464246FFF771FF084305D071
:1008F000012004E020463946BDE8F08D0020054384
:1009000046EAE0762C4337430A986305E40AA0EBF5
:1009100008000022FD0A44EA47540A3002D50020AC
:100920000146E9E7010510196941DDE908450019AB
:100930006941BDE8F04DA2E7C1F30A52C1F31301CA
:1009400040F2FF3341F480119A4202DA002001465E
:10095000704740F233439A42A2F2334202DC5242E1
:10096000FFF7E2BBFFF733BF30B5041E71F100049F
:1009700004DB4FF00044404264EB0101141E73F1AC
:10098000000405DB1C464FF00043524263EB0403B6
:10099000994208BF904230BD064C074D06E0E06822
:1009A00040F0010394E8070098471034AC42F6D3B6
:1009B000FFF7A0FBC87D0008E87D000810B500F037
:1009C000E7F8462000F0B4F8012000F0B1F800F09C
:1009D000FFF810BD1FB50020019002200390800297
:1009E00000906946154800F01BFB01229102134854
:1009F00000F0B8FC052004F04FF94FF400610F48F7
:100A000000F09EFC012802D10D49087002E0002090
:100A10000B49087000224FF48061084800F0A2FCE6
:100A2000052004F039F9012001906946034800F0DF
:100A3000F7FA0348007804B010BD0000000C014034
:100A40004C0000207FB50024002001904FF400608E
:100A500000900220039069461A4800F0E1FA012252
:100A6000D102184800F07EFC00251FE06006040E4D
:100A700001229102134800F075FC052004F00CF9E6
:100A80004FF400610F4800F05BFC012801D1012602
:100A900000E00026344300224FF48061094800F052
:100AA00061FC052004F0F8F8681CC5B2082DDDDBF8
:100AB000012001906946034800F0B2FA204604B0D4
:100AC00070BD0000000C01401FB504464FF44060AB
:100AD000009001200190022003906946134800F025
:100AE0009FFA012C05D10122D102104800F03AFCF6
:100AF00008E034B900224FF400610C4800F032FCE9
:100B000000E01FBD01229102084800F02BFC0520E7
:100B100004F0C2F800224FF48061044800F022FC87
:100B2000052004F0B9F800BFEBE70000000C01401D
:100B300070B50446002523E004F0800028B10122AE
:100B4000D102124800F00EFC05E000224FF40061D3
:100B50000E4800F007FC6006040E012291020B48CB
:100B600000F000FC052004F097F800224FF48061AB
:100B7000064800F0F7FB052004F08EF8681CC5B2AB
:100B8000082DD9DBFFF726FF70BD0000000C0140E7
:100B900010B50122D1020D4800F0E4FB01229102C0
:100BA0000A4800F0DFFB052004F070F800224FF443
:100BB0000061064800F0D6FB052004F067F800222B
:100BC0004FF48061014800F0CDFB10BD000C0140E6
:100BD00010B500224FF40061094800F0C3FB012268
:100BE0009102074800F0BEFB052004F055F80122F1
:100BF000D102034800F0B6FB052004F04DF810BD0B
:100C0000000C014000BFFEE710B5002400F052F8D0
:100C100004E0601CC4B20E2004F032F801210F4839
:100C200000F08EFB08B1642CF3DB642C01DB0120A7
:100C300010BD002404E0601CC4B20E2004F020F8B3
:100C40000121064800F07CFB08B9642CF3DB642C1E
:100C500001DB0120ECE70020EAE70000000C014086
:100C600000B585B00020019002900390049000BF71
:100C70000E48806940F008000C4988610846806988
:100C800000F00800009000BF00BF0120019002901A
:100C9000032004900120039001A9054800F0C0F949
:100CA00000F0A4F8FFF7B0FF05B000BD001002404F
:100CB000000C014000B585B0002001900290039027
:100CC000049000BF0C48806940F004000A49886124
:100CD0000846806900F00400009000BF00BF0120BA
:100CE0000190002002900120039001A9034800F028
:100CF00097F905B000BD000000100240000C014053
:100D00001FB50020009001900290039001200090F8
:100D10000190032003906946014800F081F91FBD4E
:100D2000000C014010B5002404E0601CC4B20E2089
:100D300003F0A6FF0121104800F002FB08B16E2C61
:100D4000F3DB002404E0601CC4B20E2003F098FF23
:100D50000121094800F0F4FA08B96E2CF3DB4FF4D6
:100D6000107003F08DFF0121034800F0E9FA08B18B
:100D7000012010BD0020FCE7000C014070B50024EC
:100D8000002506E06006040EFFF7CCFF0443681C54
:100D9000C5B2082DF6DB204670BD7CB5054600F0D7
:100DA00025F8FFF731FFE0B9002405E0FFF7E6FF83
:100DB0000DF80400601CC4B2052CF7DB9DF80000A0
:100DC0009DF8011008449DF8021008449DF8031096
:100DD00008449DF80410884205D19DF80000287051
:100DE00001E001207CBD0020FCE7000010B5FFF70A
:100DF00087FF00220121084800F0B4FA142000F017
:100E0000FBF801221146044800F0ACFA4FF4587088
:100E100003F036FF10BD0000000C01401FB500209C
:100E20000090019002900390022000900120019018
:100E300003200390012002906946024800F0F0F878
:100E40001FBD0000000C01407047002107E042F682
:100E5000E06100BF0A1EA1F1010399B2FAD1021E9E
:100E6000A0F1010398B2F2D1704700001FB5002035
:100E70000090019002900390C0200090012001900A
:100E80000290032003906946014800F0C9F81FBD95
:100E9000000C0140704700002DE9F047012002F0EE
:100EA000F6FE102002F0F3FE0A2000F0A5F804F090
:100EB000C9FD0D480478407800EB042084B2204638
:100EC000FFF7C6FB8246FFF702FC07464FF03332BE
:100ED000064BFFF745FB0546FFF7E0FB1FFA80F9DD
:100EE0004846BDE8F08700004D0000203333F33F53
:100EF0000146002291F82100022808D004208863CE
:100F000000BF002081F8200000BF01207047086862
:100F1000006820F00E000B6818600868006820F078
:100F200001000B68186091F8403001209840CB6BAD
:100F30005860012081F8210000BF002081F82000C6
:100F400000BF1046E2E7000070B50446002594F8A3
:100F50002100022803D00420A063012548E0206876
:100F6000006820F00E00216808602068006820F00A
:100F70000100216808601F492068884201D10120D2
:100F800026E01C4914312068884201D110201FE05E
:100F9000184928312068884201D1801518E0154988
:100FA0003C312068884201D1801411E01149503150
:100FB0002068884202D14FF4803009E00D49643145
:100FC0002068884202D14FF4801001E04FF0807019
:100FD000084908394860012084F8210000BF00203A
:100FE00084F8200000BF606B10B12046616B884719
:100FF000284670BD0800024070B5044600F0B8F9FC
:1010000006462546681C10B104480078054400BF18
:1010100000F0AEF9801BA842FAD370BD4400002056
:101020002DE9F8470346002294466EE14FF001088F
:1010300008FA02F4D1F8008008EA0400A0427DD149
:10104000DFF8DCA2D1F80480A8EB0A09D0453AD039
:1010500014DCB8F1030F50D009DCB8F1000F31D027
:10106000B8F1010F1CD0B8F1020F49D120E0B8F15E
:10107000110F18D0B8F1120F42D11EE0B9F5881F38
:1010800025D006DCB9F5803F20D0B9F5801F37D1D7
:101090001AE0B9F5001F18D0B9F5041F30D117E0D8
:1010A000D1F80CC02DE0D1F80C8008F1040C28E038
:1010B000D1F80C8008F1080C23E0D1F80C8008F17D
:1010C0000C0C1EE000BF00BF00BF00BF00BF00BF90
:1010D000D1F80880B8F1000F02D14FF0040C0BE0FA
:1010E000D1F80880B8F1010F03D14FF0080C1C6152
:1010F00002E04FF0080C5C6103E04FF0000C00E0F0
:1011000000BF00BFFF2801D8984601E003F10408A2
:101110004646FF2802D84FEA820803E0A2F10808F9
:101120004FEA88084746D6F800804FF00F0909FAC1
:1011300007F928EA09080CFA07F900E088E048EA0C
:101140000908C6F80080D1F8048008F08058B8F18A
:10115000805F7DD100BFDFF8CC81D8F8188048F0DF
:101160000108DFF8C091C9F81880C846D8F818807F
:1011700008F00108CDF8008000BF00BF4FEAB93881
:101180004FEA920958F829504FEA82784FEA1879C5
:101190004FF00F0808FA09F825EA0805DFF88881FA
:1011A000434502D14FF0000816E0DFF88081434547
:1011B00002D14FF001080FE0DFF87481434502D1FE
:1011C0004FF0020808E0DFF86C81434502D14FF090
:1011D000030801E04FF004084FEA82794FEA1979D9
:1011E00008FA09F848EA0505DFF84C814FEA920948
:1011F00048F82950D1F8048008F48018B8F5801F09
:101200000AD1DFF83881D8F8008048EA0008DFF812
:101210002C91C9F8008009E0DFF82081D8F800801F
:1012200028EA0008DFF81491C9F80080D1F804809A
:1012300008F40018B8F5001F10D1DFF8008108F19C
:101240000408D8F8008048EA0008DFF8F09000E0D1
:101250005AE009F10409C9F800800DE0DFF8DC80EC
:1012600008F10408D8F8008028EA0008DFF8CC90DC
:1012700009F10409C9F80080D1F8048008F40038A5
:10128000B8F5003F0ED1DFF8B480A8F10408D8F813
:10129000008048EA0008DFF8A490A9F10409C9F821
:1012A00000800DE0DFF89480A8F10408D8F80080F1
:1012B00028EA0008DFF88490A9F10409C9F8008041
:1012C000D1F8048008F48038B8F5803F0ED1DFF8FB
:1012D0006C80A8F10808D8F8008048EA0008DFF818
:1012E0005C90A9F10809C9F800800DE0DFF84C8096
:1012F000A8F10808D8F8008028EA0008DFF83C9038
:10130000A9F10809C9F80080521CD1F8008028FA18
:1013100002F8B8F1000F7FF489AEBDE8F88700004D
:10132000000011100010024000080140000C0140B4
:101330000010014000140140080001400804014071
:10134000024693680B400BB1012000E0002070477B
:1013500010B5C26821EA020302EA010443EA044329
:10136000036110BD0AB1016101E00B040361704724
:1013700001480068704700003C00002070B504463A
:101380000CB9012070BD94F83D0028B9002084F804
:101390003C00204600F0DAF8242084F83D00206864
:1013A000006820F00100216808602068006840F4AF
:1013B0000040216808602068006820F4004021682F
:1013C000086000F0C9FA05465C496068884206D8A2
:1013D0005B48854201D2012007E0002005E0594822
:1013E000854201D2012000E00020012800D1C9E798
:1013F0005548B5FBF0F62068406820F03F003043C8
:10140000216848604D496068884201D8701C07E037
:101410004FF4967070434FF47A71B0FBF1F0401CBA
:101420002168096A21F03F010843216808624349A5
:101430006068884214D8681E61684900B0FBF1F00A
:10144000401CC0F30B00042801D204203DE0681EBC
:1014500061684900B0FBF1F0401CC0F30B0034E0C0
:10146000A06838B9681E616801EB4101B0FBF1F07A
:10147000401C0AE0681E616801EBC10202EB011129
:10148000B0FBF1F0401C40F48040C0F30B0008B901
:1014900001201AE0A06848B9681E616801EB4101AB
:1014A000B0FBF1F0401CC0F30B000CE0681E61685B
:1014B00001EBC10202EB0111B0FBF1F0401CC0F3E3
:1014C0000B0040F4804040F400402168C9694CF6AC
:1014D000FF72914308432168C861D4E907010843BA
:1014E0002168096821F0C001084321680860D4E937
:1014F000031008432168896848F2FF32914308438A
:1015000021688860D4E9050108432168C96821F091
:10151000FF0108432168C8602068006840F00100AE
:101520002168086000202064202084F83D0000200D
:10153000206384F83E0000BF24E70000A08601007D
:1015400080841E0000093D0040420F0010B586B0A7
:101550000446002002900390049005902B492068D7
:10156000884225D100BF2A48806940F008002849F8
:1015700088610846806900F00800019000BF00BF44
:10158000C0200290122003900320059002A9214858
:10159000FFF746FD00BF1E48C06940F400101C491B
:1015A000C8610846C06900F40010019000BF2AE03D
:1015B00019492068884226D100BF1548806940F04B
:1015C0000800134988610846806900F0080001900E
:1015D00000BF00BF4FF44060029012200390032030
:1015E000059002A90B48FFF71BFD00BF0848C06922
:1015F00040F480000649C8610846C06900F48000D4
:10160000019000BF00BF06B010BD000000540040B4
:1016100000100240000C01400058004003480068E0
:101620000349097808440149086070473C000020DC
:101630004400002010B50848006840F0100006493A
:101640000860032000F0A8F8002000F007F800F080
:101650002BF8002010BD00000020024070B50446A9
:101660000E4800784FF47A71B1FBF0F00C4909682C
:10167000B1FBF0F5284600F079FD08B1012070BDFE
:10168000102C07D200222146501E00F047F80548D2
:10169000046001E00120F2E70020F0E744000020B0
:1016A000480000204000002008B500BF11488069B4
:1016B00040F001000F4988610846806900F0010090
:1016C000009000BF00BF00BF0846C06940F08050D6
:1016D000C8610846C06900F08050009000BF00BF9C
:1016E00000BF0549486820F0E06040F000704860A5
:1016F00000BF08BD0010024000000140014608463E
:10170000002809DB00F01F0301229A4043099B00D7
:1017100003F1E023C3F8002100BF70472DE9F05F1B
:1017200080460D461646002702F02EFE0746394633
:101730002A46334601F00700C0F1070ABAF1040F48
:1017400002D94FF0040A01E0C0F1070AD14600F1C6
:10175000040ABAF1070F02D24FF0000A01E0A0F12B
:10176000030AD4464FF0010A0AFA09FAAAF1010A5B
:101770000AEA020A0AFA0CFA4FF0010B0BFA0CFB08
:10178000ABF1010B0BEA030B4AEA0B04214640467E
:1017900002F002FEBDE8F09F00BF00F00702064B1A
:1017A00019684FF6FF031940044B0B4343EA02212B
:1017B000014B196000BF70470CED00E00000FA0516
:1017C00070B504460D460CB9012070BD5A4800683A
:1017D00000F00700A8420ED25748006820F007002A
:1017E0002843554908600846006800F00700A842F1
:1017F00001D00120E9E7207800F0020002281DD185
:10180000207800F00400042805D14C48406840F4DA
:10181000E0604A494860207800F00800082805D1B7
:101820004648406840F46050444948604348406836
:1018300020F0F000A168084340494860207800F09B
:10184000010078B36068012806D13C48006800F4C4
:10185000003090B90120B8E76068022806D1374807
:10186000006800F0007040B90120AEE7334800681E
:1018700000F0020008B90120A7E73048406820F0D6
:101880000300616808432D494860FFF771FD064673
:1018900009E0FFF76DFD801B41F28831884202D9D3
:1018A000032092E707E02548406800F00C006168DB
:1018B000B0EB810FEDD12048006800F00700A8428E
:1018C0000ED91D48006820F0070028431A49086017
:1018D0000846006800F00700A84201D0012074E724
:1018E000207800F00400042807D11448406820F450
:1018F000E060E168084311494860207800F0080082
:10190000082808D10D48406820F46050216940EA59
:10191000C1000A49486000F03FF808494968C1F32E
:101920000311074A515CC840064908600648006830
:10193000FFF794FE002048E700200240001002401C
:101940005A5B000848000020400000200148006861
:10195000704700004800002000B5FFF7F7FF04497A
:101960004968C1F30221034A515CC84000BD000030
:10197000001002406A5B000800B5FFF7E7FF04496A
:101980004968C1F3C221034A515CC84000BD000050
:10199000001002406A5B000870B50021002200249C
:1019A00000230020134D696801F00C05F5B1042DEA
:1019B00002D0082D19D101E00F4819E00F4DC1F3F5
:1019C0008346AB5D01F4803555B10A4D6D68C5F3B2
:1019D00040450B4E725D084D5D43B5FBF2F402E0ED
:1019E000084D03FB05F4204602E000BF024800BF9B
:1019F00000BF70BD0010024000127A00485B000872
:101A0000585B000800093D00F8B504460CB90120F8
:101A1000F8BD207800F00100002878D0F848406830
:101A200000F00C0004280CD0F548406800F00C00D1
:101A3000082811D1F248406800F48030B0F5803FAA
:101A40000AD1EF48006800F4003000285FD06068D9
:101A500000285CD10120DBE700BF6068B0F5803F63
:101A600006D1E748006840F48030E549086028E086
:101A7000606858B9E248006820F48030E0490860A6
:101A80000846006820F4802008601AE06068B0F51D
:101A9000A02F0BD1DA48006840F48020D8490860B4
:101AA0000846006840F4803008600AE0D4480068C6
:101AB00020F48030D24908600846006820F4802075
:101AC000086000BF606888B1FFF752FC054606E079
:101AD000FFF74EFC401B642801D9032098E7C84853
:101AE000006800F400300028F2D010E0FFF740FC5E
:101AF000054606E0FFF73CFC401B642801D90320A3
:101B000086E7BF48006800F400300028F2D1207852
:101B100000F00200022857D1B948406800F00C00DC
:101B200050B1B748406800F00C00082818D1B448FC
:101B3000406800F4803098B9B148006800F00200B5
:101B400020B12069012801D0012061E7AC4800687C
:101B500020F0F800616940EAC100A949086033E05B
:101B60002069E8B10120A7490860FFF701FC05469C
:101B700006E0FFF7FDFB401B022801D9032047E7E1
:101B80009F48006800F002000028F2D09C480068DE
:101B900020F0F800616940EAC1009949086013E04B
:101BA000002098490860FFF7E3FB054606E0FFF7D1
:101BB000DFFB401B022801D9032029E79048006879
:101BC00000F002000028F2D1207800F00800082878
:101BD0002DD1A069B8B101208B490860FFF7C8FB7F
:101BE000054606E0FFF7C4FB401B022801D903208D
:101BF0000EE78348406A00F002000028F2D001207E
:101C000001F02AFF13E000207F490860FFF7B0FBD6
:101C1000054606E0FFF7ACFB401B022801D9032074
:101C2000F6E67748406A00F002000028F2D12078FA
:101C300000F00400042873D100277148C06900F047
:101C4000805070B900BF6E48C06940F080506C4948
:101C5000C8610846C06900F08050009000BF00BF16
:101C600001276A48006800F48070B0B967480068CE
:101C700040F4807065490860FFF77AFB054606E08E
:101C8000FFF776FB401B642801D90320C0E65F48BC
:101C9000006800F480700028F2D000BFE0680128DE
:101CA00006D15748006A40F001005549086227E014
:101CB000E06858B95248006A20F0010050490862B3
:101CC0000846006A20F00400086219E0E068052870
:101CD0000BD14B48006A40F00400494908620846AD
:101CE000006A40F0010008620AE04548006A20F0FE
:101CF0000100434908620846006A20F004000862B7
:101D000000BFE068A0B1FFF733FB054609E0FFF72D
:101D10002FFB401B41F28831884202D9032077E62D
:101D200022E03748006A00F002000028EFD012E0FD
:101D3000FFF71EFB054608E0FFF71AFB401B41F2C8
:101D40008831884201D9032062E62D48006A00F0FC
:101D500002000028F0D1012F05D12948C06920F0E8
:101D600080502749C86100BFE069C8B32448406873
:101D700000F00C00082860D0E069022848D100205B
:101D800020490866FFF7F4FA054606E0FFF7F0FA87
:101D9000401B022801D903203AE61948006800F0E8
:101DA00000700028F2D1206AB0F5803F07D11448B6
:101DB000406820F40030A168084311494860D4E924
:101DC000080108430E49496821F4741108430C497D
:101DD000486001200B490866FFF7CAFA054607E08C
:101DE0003DE0FFF7C5FA401B022801D903200FE6AA
:101DF0000348006800F000700028F2D02FE00000D7
:101E00000010024000004242800442420070004044
:101E1000002014490866FFF7ABFA054606E0FFF715
:101E2000A7FA401B022801D90320F1E50E480068FB
:101E300000F000700028F2D111E0E069012800D123
:101E4000E6E50948466806F48031206A814204D1FB
:101E500006F47011606A814201D00120D8E50020AB
:101E6000D6E50000000042420010024010B50446D2
:101E70000CB9012010BD606A38B96068B0F5827F86
:101E800000D105E00021E16102E0002121616161F2
:101E90000021A16294F8510028B9002084F8500074
:101EA000204600F043F8022084F8510020680068C2
:101EB00020F0400021680860A08800F48270218929
:101EC00001F404410843A18901F400610843217C25
:101ED00001F002010843217D01F001010843218B3B
:101EE00001F400710843217F01F0380108432021EB
:101EF000095D01F080010843218D01F40051084380
:101F0000216808600421A06901EA10402168486046
:101F10002068C06920F400602168C8610020606505
:101F2000012084F851000020A4E7000010B586B01D
:101F300004460020029003900490059019492068FF
:101F400088422DD100BF1848806940F4805016495E
:101F500088610846806900F48050019000BF00BF8E
:101F600000BF0846806940F0040088610846806927
:101F700000F00400019000BF00BFA02002900220EA
:101F800003900320059002A90848FFF749F8402074
:101F9000029000200390049002A90448FFF740F843
:101FA00006B010BD003001400010024000080140A2
:101FB0002DE9F84F0446884616461D464FF0000AA4
:101FC00000BF94F85000012802D10220BDE8F88F2C
:101FD000012084F8500000BFFFF7CAF90746B14658
:101FE00094F85100012802D04FF0020AB7E0B8F18E
:101FF000000F00D016B94FF0010AB0E0032084F8BA
:10200000510000206065C4F83080A686E686A06393
:10201000A087E08760642064A068B0F5004F0BD112
:102020002068006820F0400021680860206800688F
:1020300040F48040216808602068006800F040009B
:10204000402805D02068006840F040002168086002
:10205000E068B0F5006F32D1606810B1B9F1010FDE
:1020600009D1206B00882168C860206B801C206328
:10207000E08E401EE0861EE02068806800F00200CE
:1020800002280AD1206B00882168C860206B801C60
:102090002063E08E401EE0860DE0FFF769F9C01B6B
:1020A000A84201D3681C00B92DB94FF0030A0120E2
:1020B00084F8510053E0E08E0028DDD131E0606803
:1020C00010B1B9F1010F09D1206B007821680873B4
:1020D000206B401C2063E08E401EE0861EE02068DE
:1020E000806800F0020002280AD1206B0078216885
:1020F0000873206B401C2063E08E401EE0860DE0DC
:10210000FFF736F9C01BA84201D3681C00B92DB9EE
:102110004FF0030A012084F8510020E0E08E0028EF
:10212000DDD13A462946204601F030FD08B1202095
:102130006065A06850B900BF002000902068C068AA
:10214000009020688068009000BF00BF606D10B1F3
:102150004FF0010A02E0012084F8510000BF00BFE7
:10216000002084F8500000BF50462FE770B50446A9
:102170002546681EB0F1807F01D301200FE0681E64
:102180004FF0E02148610F214FF0FF3002F004F9D9
:1021900000204FF0E021886107200861002070BD19
:1021A0007047704730B502460B4600BF92F83C00BE
:1021B000012801D1022030BD012082F83C0000BF7F
:1021C000022082F83D00106844681068816824F09D
:1021D00070041868044310684460104D1068A842E9
:1021E0000BD01068B0F1804F07D00D4D1068A84299
:1021F00003D00C4D1068A84205D121F08001586829
:10220000014310688160012082F83D0000BF00207A
:1022100082F83C0000BF00BFCDE70000002C014069
:10222000000400400008004010B504460CB901202D
:1022300010BD94F83D0028B9002084F83C002046E9
:1022400000F026F8022084F83D00211D206801F0EE
:10225000A7FD012084F8460000BF84F83E0001215C
:102260003F200155402001554120015500BF00BFCE
:10227000012084F8420043200155442001554520A7
:10228000015500BF012084F83D000020D0E7000088
:1022900038B504462068B0F1804F16D100BF2648FB
:1022A000C06940F001002449C8610846C06900F0D7
:1022B0000100009000BF00BF002201211C20FFF799
:1022C0002DFA1C20FFF71AFA34E01C4920688842D6
:1022D00016D100BF1848C06940F002001649C86115
:1022E0000846C06900F00200009000BF00BF002255
:1022F00001211D20FFF712FA1D20FFF7FFF919E059
:102300000F492068884215D100BF0B48C06940F0D2
:1023100004000949C8610846C06900F00400009043
:1023200000BF00BF002203211E20FFF7F7F91E2087
:10233000FFF7E4F938BD000000100240000400403F
:1023400000080040014691F83D00012801D001201D
:102350007047022081F83D000868C06840F0010025
:102360000B68D860124B086898420BD00868B0F12F
:10237000804F07D00F4B0868984203D00E4B086877
:1023800098420CD10868806800F00702062A0CD039
:102390000868006840F001000B68186005E00868F4
:1023A000006840F001000B6818600020D0E70000D2
:1023B000002C014000040040000800402DE9F041DD
:1023C00004460D46002700BF94F83C00012802D1C6
:1023D0000220BDE8F081012084F83C0000BF02200B
:1023E00084F83D002068866826F0770626F47F464C
:1023F000206886602868502833D00CDC202850D014
:1024000004DC00284BD0102851D149E0302849D0B5
:1024100040284CD139E060282DD0702807D0B0F585
:10242000805F03D0B0F5005F41D10DE041E0D5E918
:1024300002136A68206801F0EDFC2068866846F0A7
:1024400077062068866034E0D5E902136A68206860
:1024500001F0E0FC2068806840F4804021688860DA
:1024600027E0EA686968206801F0E8FC50212068EC
:1024700001F0DBFC1DE0EA686968206801F0F1FC0E
:102480006021206801F0D1FC13E0EA6869682068E7
:1024900001F0D4FC4021206801F0C7FC09E000BF36
:1024A00000BF00BF2968206801F0BFFC01E00127E0
:1024B00000BF00BF012084F83D0000BF002084F869
:1024C0003C0000BF384684E7704710B504462068DA
:1024D0000069C0F34000D8B12068C068C0F3400074
:1024E000B0B16FF0020021680861012020772068F8
:1024F000806900F0030018B12046FFF7E5FF05E012
:10250000204600F0ADF8204600F0ABF80020207720
:1025100020680069C0F38000D8B12068C068C0F3AB
:102520008000B0B16FF004002168086102202077BC
:102530002068806900F4407018B12046FFF7C4FF9E
:1025400005E0204600F08CF8204600F08AF80020D4
:10255000207720680069C0F3C000D8B12068C06847
:10256000C0F3C000B0B16FF008002168086104201A
:1025700020772068C06900F0030018B12046FFF7FB
:10258000A3FF05E0204600F06BF8204600F069F854
:102590000020207720680069C0F30010D8B12068BF
:1025A000C068C0F30010B0B16FF01000216808617E
:1025B000082020772068C06900F4407018B12046D8
:1025C000FFF782FF05E0204600F04AF8204600F0C1
:1025D00048F8002020772068006900F0010058B119
:1025E0002068C06800F0010030B16FF00100216880
:1025F0000861204600F036F820680069C0F3C0107A
:1026000058B12068C068C0F3C01030B16FF08000CE
:10261000216808612046FFF7C3FD20680069C0F308
:10262000801058B12068C068C0F3801030B16FF0DE
:10263000400021680861204600F034F920680069F4
:10264000C0F3401058B12068C068C0F3401030B1EA
:102650006FF02000216808612046FFF7A2FD10BD41
:10266000704770472DE9FC4782467448824504D183
:1026700073480088401C72490880724882457CD1AA
:1026800071480078022803D101037048FEF760FE0C
:102690006F480078401CC0B26D4908700328EED125
:1026A00000200870FEF764FE6A4988606A48007876
:1026B000B0B16A48FEF771FB68480078FDF7C8FFC3
:1026C000674908606748007850B164480078FDF7B2
:1026D000BFFF04462146644800F006FF60490860D9
:1026E000FEF746FE5B498968401A5A498860FEF742
:1026F0003FFE5849C8605D480078D0B102F005FB44
:102700008046FDF7AAFF06460022594BFDF728FF39
:102710000446FDF7EFFF574908605248007840B182
:1027200008460168544800F061FC5348006851496C
:102730000860FEF71DFE4749C968401A4549C86050
:10274000FEF716FE434908614C480078A0B1FEF739
:10275000A3FB4B4908804348007868B108460088CD
:10276000FDF776FF05462946464800F0FFFE044681
:10277000FDF780FF4249088000E02BE0FEF7F8FDFE
:1027800034490969401A334908613C48007828B146
:102790003648007810B13048007818B901202A492D
:1027A000087017E038492E480068FDF7BFFF0AD3CC
:1027B00033480088B0F57A7F05DC34492D4800683D
:1027C000FDF7B4FF03D202201F49087002E0002089
:1027D0001D4908702E4882452DD11B4800780128DC
:1027E00003D141031948FEF7B3FD2A480078401C85
:1027F000C0B22849087002281DD100200870104876
:102800000088FDF72AFF0022234BCDE90001FDF7E8
:1028100035FE06460022214BFDF7A2FE04460022AB
:102820001D4BFDF728FE8046FDF764FF1C4908603C
:10283000002003490880BDE8FC870000E406002072
:102840002A0000209C0600202500002000100140E6
:1028500024000020040200200E00002000000020C0
:102860000400002026000020500000200F0000205F
:1028700000003040080000201C0100201000002053
:102880000C0000203801002000008C420000D841DC
:1028900054060020230000200000594000408F40D3
:1028A0002C00002070477047704700002DE9F84F5A
:1028B0000446206805682068C668206847694FF0AC
:1028C0000009CA4605F00F09B9F1000F0AD105F059
:1028D000200038B106F0200020B1204601F0C8FBEE
:1028E000BDE8F88FB9F1000F7BD007F0010018B9EF
:1028F00006F49070002874D005F0010030B106F4A1
:10290000807018B1606C40F00100606405F0040054
:1029100030B107F0010018B1606C40F00200606453
:1029200005F0020030B107F0010018B1606C40F012
:102930000400606405F0080048B106F0200010B9FA
:1029400007F0010018B1606C40F008006064606C32
:10295000002845D005F0200028B106F0200010B175
:10296000204601F085FB20684069C0F3801A606C46
:1029700000F0080010B9BAF1000F2CD0204601F089
:1029800031FB2068406900F0400000B300BF00BF89
:102990002168143151E8001F21F0400021681431F2
:1029A00041E80002002AF3D100BFE06B50B1774844
:1029B000E16B4863E06BFEF7C7FA88B1E06B416BEF
:1029C00088470DE02046FFF76FFF09E009E0204649
:1029D000FFF76AFF04E02046FFF766FF002060640F
:1029E0007EE7206B012877D105F01000002873D016
:1029F00006F010000028FAD000BF002000902068E8
:102A00000068009020684068009000BF00BF206808
:102A1000406900F0400000285FD0E06B006840682B
:102A20001FFA80F8B8F1000F55D0A08D404552DD57
:102A3000A4F82E80E06B8069202843D000BF00BF3F
:102A400021680C3151E8001F21F4807021680C319D
:102A500041E80002002AF3D100BF00BF00BF216897
:102A6000143151E8001F21F001002168143141E8C0
:102A70000002002AF3D100BF00BF00BF216814315B
:102A800051E8001F21F040002168143141E80002A4
:102A9000002AF3D100BF202084F8420000202063E8
:102AA00000BF00BF21680C3151E8001F21F0100069
:102AB00021680C3141E80002002AF3D100BFE06B2D
:102AC000FEF716FA02206063A08DE28D801A81B2B3
:102AD0002046FFF7E8FE03E742E0A08DE18D401AB3
:102AE0001FFA80F8E08DD0B3B8F1000F37D000BFE7
:102AF00000BF21680C3151E8001F21F4907021685B
:102B00000C3141E80002002AF3D100BF00BF00BF32
:102B10002168143151E8001F21F0010021681431AF
:102B200041E80002002AF3D100BF202084F84200CF
:102B30000020206300BF00BF21680C3151E8001F56
:102B400021F0100021680C3141E80002002AF3D185
:102B500000BF0220606341462046FFF7A4FEBFE6A7
:102B600005F0800030B106F0800018B1204601F079
:102B70009BFBB5E605F0400030B106F0400018B10F
:102B8000204601F065FAABE600BFA9E6D13F000898
:102B900010B504460CB9012010BDA06900B100E0D9
:102BA00000BF94F8410028B9002084F84000204676
:102BB00000F02AF8242084F841002068C06820F43E
:102BC00000502168C860204601F0D0FA20680069F2
:102BD00020F49040216808612068406920F02A00B4
:102BE000216848612068C06840F400502168C860CE
:102BF00000206064202084F8410084F84200002016
:102C0000606300BFC8E7000010B586B0044600202E
:102C100002900390049005901E492068884236D1A6
:102C200000BF1D48806940F480401B498861084608
:102C3000806900F48040019000BF00BF00BF0846DB
:102C4000806940F0040088610846806900F0040053
:102C5000019000BF00BF481502900220039003209E
:102C6000059002A90D48FEF7DBF94FF48060029051
:102C700000200390049002A90848FEF7D1F9002231
:102C800002212520FEF74AFD2520FEF737FD06B07C
:102C900010BD000000380140001002400008014053
:102CA00070B504460D46164694F8420020280BD114
:102CB00005B10EB9012070BD0020206332462946BF
:102CC000204601F0D1FAF6E70220F4E710B50446F9
:102CD0001E48008800F4004088BB1C48008800F4AF
:102CE000804070B11A4800780A2806D11748008839
:102CF00040F400401549088021E000201349088075
:102D00001DE0134800780D2806D11048008840F4D3
:102D100080400E49088012E00D4800780B49098870
:102D2000C1F30D010B4A505408480088401C074964
:102D3000088008460088C72801DD0020088001229D
:102D400003490548FFF7ACFF10BD0000320000202A
:102D5000300000208C0200202C07002010B5034614
:102D600093F84100202813D101B10AB9012010BD08
:102D700019629A84DA8400205864212083F8410083
:102D80001868C06840F080001C68E0600020EEE732
:102D90000220ECE72DE9F04104460025002600273B
:102DA0002048844201D0BDE8F08172B6A18C1E4A51
:102DB00012888818C11700EBD1514912A0EB4121AC
:102DC000194A11801948008811460988884215D08F
:102DD000104607881548008811460988884206DD94
:102DE0001248008811460988401A86B204E00E484D
:102DF0000088C0F5007086B2012502E000200C4971
:102E0000087062B65DB10B48C11932460548FFF73C
:102E1000A5FF20B172B600200549087062B600BF58
:102E2000C1E700002C0700203800002036000020F9
:102E30003A0000205403002000BFFEE770B50825CB
:102E4000002400F063FE13E06006040E002000F092
:102E500041FE052001F01AFF052001F017FF0120B7
:102E600000F038FE052001F011FF00F047FE04439A
:102E7000281EA5F10101CDB2E6D100F02BFE052000
:102E800001F004FF00F06CFE204670BD10B500207C
:102E900000F052FE052001F0F9FE052001F0F6FEDB
:102EA000012000F017FE052001F0F0FE002000F0E8
:102EB00011FE052001F0EAFE10BD70B5044608259C
:102EC00017E0002000F006FE052001F0DFFE04F010
:102ED000800000F031FE052001F0D8FE6006040EEF
:102EE000052001F0D3FE012000F0F4FD052001F0E3
:102EF000CDFE281EA5F10101CDB2E2D100F0EAFD20
:102F0000052001F0C3FE70BD10B5012000F014FED5
:102F1000052001F0BBFE052001F0B8FE012000F005
:102F2000D9FD052001F0B2FE002000F0D3FD052000
:102F300001F0ACFE10BD10B5012000F0FDFD052034
:102F400001F0A4FE012000F0C5FD052001F09EFE69
:102F5000002000F0F1FD052001F098FE002000F0B7
:102F6000B9FD052001F092FE10BD10B5002000F063
:102F7000B1FD052001F08AFE002000F0DDFD0520F6
:102F800001F084FE012000F0A5FD052001F07EFE89
:102F9000012000F0D1FD052001F078FE10BD10B534
:102FA000052400F0B3FD052001F070FE012000F0C3
:102FB00091FD052001F06AFE0BE0601E84B2052041
:102FC00001F064FE2CB900F0CBFDFFF7CEFF01202D
:102FD00010BD00F093FD0028EFD100F07BFD05202F
:102FE00001F054FE00F0BCFD0020F1E72DE9F047B0
:102FF00004460D4621686069FDF729F92060616883
:103000006069FDF724F907466169FDF720F9064676
:10301000A168FDF7C4F860606168A069FDF717F961
:103020008146A169FDF713F90746E168FDF7B7F896
:103030000646A1696068FDF70AF980463146FDF74A
:1030400038F920612168A069FDF701F98046294619
:10305000FDF7FAF807462169FDF7F9F806462168F9
:10306000FDF79DF82060A1692069FDF7F0F807469B
:103070004FF07E51FDF7E8F806466168FDF7E7F886
:103080006060BDE8F08770B504AC70CC0160426050
:103090008360C4604561866170BD2DE9F0410446DE
:1030A0000D4616461F462A2000F0F4F9611C88B22E
:1030B00000F0E1F9711C88B200F0DDF92B2000F07E
:1030C000E9F9A91C88B200F0D6F9B91C88B200F061
:1030D000D2F92C2000F0DEF9BDE8F08170B504468D
:1030E0000D4616462B46224629462046FFF7D5FFB9
:1030F000304600F0C0F970BD2DE9F04706460F4696
:1031000014461D46DDF820A0681E83B2601E82B200
:1031100039463046FFF7C1FFB8460EE0B14606E03B
:10312000504600F0A8F909F101001FFA80F9A14505
:10313000F6DB08F101001FFA80F8A845EEDBBDE8D8
:10314000F087000010B5002204217C48FEF70AF940
:103150006420FDF751FF012204217848FEF702F9AF
:103160006420FDF749FF012202217448FEF7FAF8B6
:103170006420FDF741FF112000F08CF97820FDF765
:103180003BFFB12000F086F9022000F07DF93520E8
:1031900000F07AF9362000F077F9B22000F07AF9E1
:1031A000022000F071F9352000F06EF9362000F0B1
:1031B0006BF9B32000F06EF9022000F065F93520BC
:1031C00000F062F9362000F05FF9022000F05CF9AF
:1031D000352000F059F9362000F056F9B42000F0FF
:1031E00059F9032000F050F9C02000F053F9A22053
:1031F00000F04AF9022000F047F9842000F044F979
:10320000C12000F047F9C52000F03EF9C22000F0CF
:1032100041F90D2000F038F9002000F035F9C32005
:1032200000F038F98D2000F02FF92A2000F02CF959
:10323000C42000F02FF98D2000F026F9EE2000F0D8
:1032400023F9C52000F026F90A2000F01DF93620E8
:1032500000F020F9782000F017F9E02000F01AF9CA
:10326000122000F011F91C2000F00EF9102000F0DF
:103270000BF9182000F008F9332000F005F92C2094
:1032800000F002F9252000F0FFF8282000F0FCF8FB
:10329000282000F0F9F8272000F0F6F82F2000F0A1
:1032A000F3F83C2000F0F0F8002000F0EDF80320E7
:1032B00000F0EAF8032000F0E7F8102000F0E4F84E
:1032C000E12000F0E7F8122000F0DEF81C2000F00A
:1032D000DBF8102000F0D8F8182000F0D5F82D20E9
:1032E00000F0D2F8282000F0CFF8232000F0CCF82E
:1032F000282000F0C9F8282000F0C6F8262000F0A9
:10330000C3F82F2000F0C0F83B2000F0BDF80020EB
:1033100000F0BAF8032000F0B7F8032000F0B4F88A
:10332000102000F0B1F83A2000F0B4F8052000F0C9
:10333000ABF8292000F0AEF810BD000000080140F5
:103340002DE9FF4F83B005468A461746119CAB46D0
:10335000204604EBD071C1F347063046F11706EB67
:103360005171C910614389B20191A7F12000C7B220
:103370000AEB0400401E83B2A819401E82B25146D7
:103380002846FFF78AFE4FF000094AE0102C06D1CC
:10339000264800EB071010F8090002900BE0202CE3
:1033A00006D1234800EB871010F80900029002E0D4
:1033B00007B0BDE8F08F4FF000082AE0129868B916
:1033C000012000FA08F00299084018B1069800F0B0
:1033D00052F81AE0109800F04EF816E0012000FABA
:1033E00008F00299084020B151462846069AFFF796
:1033F00075FE681C85B2A5EB0B00B04205D15D4699
:103400000AF101001FFA80FA06E008F1010000F05D
:10341000FF08B8F1080FD1DB00BF09F101001FFA66
:1034200080F901988145B1DB00BFC1E7725B0008FC
:10343000626100082DE9FE4F06460F461446984685
:10344000DDE90D5ADDF8309010E0CDE9015ACDF8F4
:1034500000902278434639463046FFF771FF2846F0
:1034600005EBD07106EB61018EB2641C2078002858
:10347000EBD1BDE8FE8F10B50446201200F01CF819
:10348000E0B200F019F810BD10B50446204600F077
:1034900013F810BD10B50446002208210548FDF7B9
:1034A00061FF204600F008F8012208210148FDF7DD
:1034B00059FF10BD0008014001B500221021084845
:1034C000FDF750FF4FF47A73012269460548FEF775
:1034D0006FFD012210210248FDF744FF08BD0000E6
:1034E00000080140FC0500202DE9F04104460D468E
:1034F000D4F8C800322808DA54F8C81F2068401CE5
:1035000044F8C80944F821500BE0012005E054F8C4
:103510002020411E44F82120401C3228F7DBC4F84B
:10352000C4500027002606E054F826103846FCF761
:1035300036FE0746761CD4F8C800B042F4DCD4F856
:10354000C800FDF77CF8064631463846FCF7B1FE68
:10355000BDE8F081002103E0002240F82120491C51
:103560003229F9DB0021C0F8C81070472DE9F04F6F
:10357000B7B004468946D4F8C800322808DA54F8AF
:10358000C81F2068401C44F8C80944F821900BE08B
:10359000012005E054F82020411E44F82120401C61
:1035A0003228F7DBC4F8C490002005E054F820105E
:1035B00004AA42F82010401CD4F8C8108142F5DC5F
:1035C00004AED4F8C8504FF0010817E056F828A010
:1035D000A8F1010705E056F82710781C46F82010DE
:1035E0007F1E002F05DB56F827005146FDF79EF899
:1035F000F1D3781C46F820A008F10108A845E5DBC6
:10360000284605EBD0714910A5EB4101F1B9AA4656
:1036100005EBDA72521056F82210AB4605EBDB725E
:103620005210521E56F82200FCF7B9FD0190FDF72A
:103630004EF8074600224FF08043FCF791FFCDE99A
:103640000201FDF757F837B0BDE8F08F294605EBCA
:10365000D170401056F82000F5E7002103E0002269
:1036600040F82120491C3229F9DB0021C0F8C8109C
:103670007047000000B585B00020019002900390D3
:10368000049000BF4848806940F0100046498861B6
:103690000846806900F01000009000BF00BF00BF26
:1036A0000846806940F0200088610846806900F083
:1036B0002000009000BF00BF00BF0846806940F0B6
:1036C000040088610846806900F00400009000BF93
:1036D00000BF00BF0846806940F0080088610846C6
:1036E000806900F00800009000BF00BF0122510374
:1036F0002E48FDF737FE01221E212D48FDF732FE30
:10370000012203212B48FDF72DFE00224FF44671C4
:103710002848FDF727FE4FF4005001900120029049
:10372000002003900220049001A92048FDF778FCB6
:103730004FF440400190002002900220039001A924
:103740001A48FDF76DFC40F6010001900020029040
:103750000220039001A91648FDF762FC1E2001908B
:1037600001200290002003900320049001A910483A
:10377000FDF756FC032001900120029003900320E6
:10378000049001A90B48FDF74BFC4FF446700190E3
:1037900001200290002003900220049001A9054816
:1037A000FDF73EFC05B000BD0010024000100140D6
:1037B00000080140000C014010B50B480B4908609F
:1037C0000B484860002109488160C1604FF4804186
:1037D0000161002141618161C1610162FDF7CEFD9E
:1037E00008B1FDF757FB10BD005400405405002000
:1037F000A086010010B50B480B4908600B484860D3
:10380000002109488160C1604FF4804101610021BD
:1038100041618161C1610162FDF7B0FD08B1FDF751
:1038200039FB10BD00580040A8050020A08601000B
:1038300000B585B00020019002900390049000BF75
:103840001D48806940F004001B4988610846806972
:1038500000F00400009000BF00BF01221E211748A5
:10386000FDF780FD1E2001900120029000200390B2
:103870000320049001A91148FDF7D2FB104811491B
:1038800008604FF48270486000210E488160C1607A
:10389000016141614FF4007181610821C161002122
:1038A0000162416281620A21C162FEF7DFFA08B15A
:1038B000FDF7F0FA05B000BD00100240000801401D
:1038C00000300140FC05002000B587B000200390C7
:1038D000049005900690019002904FF080401549A9
:1038E000086041F61F40486000211248816041F2A3
:1038F0008731C1600021016180218161FEF794FC64
:1039000008B1FDF7C7FA4FF48050039003A90948A6
:10391000FEF754FD08B1FDF7BDFA002001900290BA
:1039200001A90448FEF73EFC08B1FDF7B3FA07B061
:1039300000BD00005406002000B587B000200390B1
:103940000490059006900190029015481549086072
:1039500041F61F40486000211248816040F2E73183
:10396000C1600021016180218161FEF75DFC08B129
:10397000FDF790FA4FF48050039003A90948FEF731
:103980001DFD08B1FDF786FA00200190029001A903
:103990000448FEF707FC08B1FDF77CFA07B000BD4C
:1039A000000400409C06002000B587B00020039072
:1039B0000490059006900190029015481549086002
:1039C0004720486000211348816040F2E731C16020
:1039D0000021016180218161FEF726FC08B1FDF71D
:1039E00059FA4FF48050039003A90A48FEF7E6FC09
:1039F00008B1FDF74FFA00200190029001A9054897
:103A0000FEF7D0FB08B1FDF745FA07B000BD000096
:103A100000080040E406002010B50B480B49086080
:103A20004FF416504860002108488160C160016170
:103A30000C21416100218161C161FFF7A9F808B142
:103A4000FDF728FA10BD0000003801402C070020C7
:103A500000BFFEE77047704708B508490968C90804
:103A60004FF47A72B1FBF2F14143009100BF00BF05
:103A700000994A1E00920029F9D108BD4800002093
:103A800070B504460E461546FFF755FAA020FFF71D
:103A900014FAFFF784FAF0B2FFF70FFAFFF77FFA94
:103AA000FFF749FAA120FFF708FAFFF778FA09E0D3
:103AB000FFF7C4F904F8010B15B1FFF7E7F901E0CE
:103AC000FFF722FA281EA5F10101CDB2F0D1FFF7D0
:103AD0004CFA70BD30B10849096841F04001064A0E
:103AE000116007E00449091D096841F04001024ADC
:103AF000121D116070470000100C014010B58021AC
:103B00000148FDF71DFC10BD000C01401FB5002051
:103B1000009001900290039080200090002001907E
:103B2000012002900320039069460248FDF778FACD
:103B30001FBD0000000C014030B10849096841F088
:103B40008001064A116007E00449091D096841F037
:103B50008001024A121D116070470000100C0140E4
:103B60001FB50020009001900290039080200090EB
:103B70001120019000200290032003906946024822
:103B8000FDF74EFA1FBD0000000C0140F8B50446D9
:103B90000D4616462B46002280212046009600F056
:103BA00009F828B1606D40F0200060650320F8BD81
:103BB0000020FCE72DE9F84F04460D4690461E46CE
:103BC000DDF82890FDF7D4FBA0EB0900371AFDF7CC
:103BD000CFFB82462C480068C0F3CB30784300907E
:103BE00045E0701C002842D0FDF7C2FBA0EB0A00A4
:103BF000B84200D2A7BB2068406820F0E0002168EE
:103C000048606068B0F5827F0DD1A068B0F5004FC4
:103C100003D0A068B0F5806F05D12068006820F05F
:103C2000400021680860A06AB0F5005F0DD100BFB8
:103C30002068006820F4005021680860206800684F
:103C400040F400502168086000BF012084F8510052
:103C500000BF002084F8500000BF0320BDE8F88FAB
:103C6000FFE7009800B900270098401E00902068E8
:103C700080682840A84201D1012000E00020404592
:103C8000AFD10020EAE7000048000020704710B5DF
:103C90000446FCF77DFF4620FCF74AFF2046FCF770
:103CA00047FFFCF795FF10BD10B5FDF7B7FC10BD41
:103CB00000B58FB0282105A8FCF75FFA14216846EB
:103CC000FCF75BFA012005900004069000200790A5
:103CD0000120099002200C90C1030D914FF4E011D6
:103CE0000E9105A8FDF790FE08B1FDF7D3F80F205F
:103CF000009002200190002002904FF48060039019
:103D00000020049002216846FDF75AFD08B1FDF736
:103D1000C1F80FB000BD00001148006840F001007C
:103D20000F490860084640680E4908400C49486041
:103D3000084600680C4908400949086008460068C0
:103D400020F4802008600846406820F4FE004860A7
:103D50004FF41F008860C8030449086070470000E2
:103D6000001002400000FFF8FFFFF6FE08ED00E043
:103D700010B50248FEF7A9FB10BD00005406002054
:103D800010B50248FEF7A1FB10BD00009C06002004
:103D900010B50248FEF799FB10BD0000E4060020B4
:103DA00010B50268184B984208D0B0F1804F05D08A
:103DB000164B984202D0164B984203D122F0700263
:103DC0004B681A43104B984208D0B0F1804F05D091
:103DD0000E4B984202D00E4B984203D122F440720F
:103DE000CB681A4322F080034C6943EA0402026064
:103DF0008B68C3620B688362034B984201D10B69E5
:103E000003630123436110BD002C01400004004006
:103E10000008004030B50C46816821F47F4142EA39
:103E2000032525432943816030BD0A46816821F07E
:103E3000700142F0070319438160704730B50B46AB
:103E40001446026A056A25F001050562816921F0C0
:103E5000F00141EA041122F00A021A438161026270
:103E600030BD30B50B461446026A056A25F01005D0
:103E70000562816921F4704141EA043122F0A00217
:103E800042EA03128161026230BD00002DE9F05F59
:103E900006460C464FF00009CA46CB4606B10CB99F
:103EA000BDE8F09F72B645480088454909888842B8
:103EB00005DB4248008842490988401A06E040482C
:103EC00000883E490988401AC0F500701FFA80F842
:103ED00040F2FF10A0EB080087B2BC4200DD3C4678
:103EE0009CB336480088C0F5007085B2A54200DD5D
:103EF00025463449314A128888182A463146FCF74B
:103F000023F92E4909884819C11700EBD1514912EC
:103F1000A0EB4121294A1180AC4216DD621B7119C8
:103F2000284BDFF898C0BCF800C003EB0C00FCF78E
:103F30000BF9611B214A12888818C11700EBD15177
:103F40004912A0EB41211D4A11801F48007808BB8F
:103F50001A4800881A49098888421BD001201A494A
:103F600008701748B0F800B0144800881449098850
:103F7000884207DD1148008811490988401A1FFA54
:103F800080FA05E00E480088C0F500701FFA80FA3C
:103F90004FF0010962B6B9F1000F0CD0094800EBEF
:103FA0000B0152460948FEF7D9FE20B172B6002037
:103FB0000549087062B600BF72E7000036000020B5
:103FC00038000020540300203A0000202C07002075
:103FD00070B505466C6A0020E085E0842046FEF757
:103FE00063FC70BD00BF00BF02680C3252E8002FB6
:103FF00022F4907102680C3242E80013002BF3D1D6
:1040000000BF00BF00BF0268143252E8002F22F048
:1040100001010268143242E80013002BF3D100BF03
:10402000016B01290ED100BF00BF02680C3252E8BB
:10403000002F22F0100102680C3242E80013002B1E
:10404000F3D100BF202180F84210002101637047A6
:1040500010B504462068C06820F040002168C860A0
:10406000202084F841002046FEF794FE002010BD79
:10407000F8B5044694F84200222875D1A068B0F53E
:10408000805F0CD1206950B90025A66A206840687D
:10409000C0F308003080A06A801CA06215E0A56A09
:1040A0000026A068B0F5805F03D0A06828B9206919
:1040B00018B920684068287004E02068406800F063
:1040C0007F002870A06A401CA062E08D401E80B274
:1040D000E085002846D12068C06820F020002168D3
:1040E000C8602068C06820F480702168C8602068BB
:1040F000406920F0010021684861202084F84200D6
:1041000000206063206B012826D10020206300BFBF
:1041100000BF21680C3151E8001F21F01000216818
:104120000C3141E80002002AF3D100BF206800688A
:1041300000F0100010280AD100BF00200090206875
:104140000068009020684068009000BF00BFA18D0B
:104150002046FEF7A8FB02E02046FEF7B7FD002050
:10416000F8BD01E00020FBE70220F9E770B5044646
:104170002168096921F44051E26811432268116104
:104180002269A1681143626941EA02052168C96890
:1041900041F20C62914329432268D1602168496948
:1041A00021F44071A2691143226851612D4A2168AE
:1041B000914202D1FDF7E0FB01E0FDF7CDFB00EB02
:1041C000C00101EB001162689200B1FBF2F100EB5B
:1041D000C00202EB001263689B00B2FBF3F264239F
:1041E000B2FBF3F202EBC20303EB0212A1EB82017A
:1041F000322202EB01116422B1FBF2F101F0F00175
:1042000000EBC00202EB001263689B00B2FBF3F20A
:104210006423B2FBF3F201EB021200EBC00101EBED
:10422000001163689B00B1FBF3F100EBC00303EBEB
:1042300000136668B600B3FBF6F36426B3FBF6F32F
:1042400003EBC30606EB0313A1EB8301322303EB5D
:1042500001116423B1FBF3F101F00F011144226855
:10426000916070BD0038014010B5034699629A858F
:10427000DA8500205864222083F84200186928B1AA
:104280001868C06840F480701C68E0601868406975
:1042900040F001001C6860611868C06840F02000B0
:1042A0001C68E060002010BD014691F84100212803
:1042B00028D18868B0F5805F0BD1086948B90A6ACF
:1042C0001088C0F308000B685860086A801C0862F8
:1042D00005E00B6A581C086218780B685860C88C97
:1042E000401E80B2C88458B90868C06820F08000B9
:1042F0000B68D8600868C06840F040000B68D86060
:10430000002070470220FCE710B50248FEF7CEFA05
:1043100010BD00002C07002000BFFEE770B504466A
:104320000D461646FEF707FEA020FEF7C6FDFEF777
:1043300036FEE8B2FEF7C1FDFEF731FE05E014F8E7
:10434000010BFEF7BAFDFEF72AFE301EA6F10101B1
:10435000CEB2F4D1FEF709FE322000F097FC70BD1A
:104360000FB4084B10B504A902AA039800F0FAF89C
:10437000044602A9002000F078FC204610BC5DF83D
:1043800014FB00006B4C000802480068C0F30220D8
:10439000704700000CED00E010B5002804DB0A07B0
:1043A000130E054A135406E00A07140E034A00F0E0
:1043B0000F031B1FD45410BD00E400E018ED00E013
:1043C00002E008C8121F08C1002AFAD170477047DE
:1043D000002001E001C1121F002AFBD1704700003C
:1043E0002DE9FF5F82B00021DDE90430020DDDF828
:1043F00040B0034318D044F61050A2F2FF324243BB
:104400001514119801281FD0A5EB0B00401C5FEA82
:10441000000A4FF000064E4FDFF83891B046504684
:1044200015D5CAF1000413E0119801244AA301280C
:1044300001D16FEA0B010298119AC0E90031C0E97D
:10444000024206B0BDE8F09FCBF10000DFE7044672
:104450000021404A491842EB0450CDE9001012E017
:10446000E00707D032463B4640464946FCF706F88F
:104470008046894632463B4610461946FBF7FEFF0A
:1044800006460F466410002CEAD1DDE90401DDE99F
:104490000023BAF1000F06DAFBF7F0FF42464B4665
:1044A000FBF7ECFF05E0FCF75BF842464B46FCF7F8
:1044B00057F804460E460022284BFCF755FA03D85D
:1044C0004FF0FF30014607E00022254B20463146E1
:1044D000FBF72DFFFCF730FA102409E0002C0ADB73
:1044E0000A220023FCF742F9039B30321A55641E5E
:1044F00050EA0102F2D1641C039AC4F1110314447E
:10450000119A012A03D0012208430DD10AE0084381
:1045100004D000204FF0110B119072E7A3EB0B05B4
:104520006D1E0DE05B4504DD4FF0000205F1010555
:1045300004E003DA4FF00002A5F10105002AECD0F7
:1045400002981199C0E90231C0E9004579E70000FD
:10455000000014400000F03F300000000000F04375
:104560000000E03F2DE9FF4F95B09A468846064689
:104570000025EEE1252877D100242746F94A0121BC
:10458000039400E0044316F8013F203B01FA03F0D6
:104590001042F7D130782A2811D06FF02F033078ED
:1045A000A0F13002092A16D8039A44F0020402EB63
:1045B000820203EB42021044761C0390EFE758F8A6
:1045C000042B0392002A03DA504244F4005403906F
:1045D00044F00204761C30782E2816D116F8010F0C
:1045E00044F004042A280DD06FF02F023078A0F197
:1045F0003003092B09D807EB870302EB4303C718E5
:10460000761CF3E758F8047B761C30786C280FD0C2
:1046100006DC4C2817D068280DD06A2814D104E095
:10462000742810D07A280FD10DE044F400140AE069
:1046300044F4801401E044F440147278824202D1C0
:1046400004F58014761C761C307866280BD013DCB9
:10465000582877D009DC002875D04528F6D04628A0
:10466000F4D047281AD193E118E0632835D06428A4
:1046700079D0652812D18BE1702873D008DC6728C7
:10468000F1D069286FD06E280DD06F2806D1ACE02C
:1046900073282CD0752874D0782853D05246179997
:1046A00090476D1C54E1C4F30250022809D003283E
:1046B0000DD0D8F8001004280DD00D6008F10408C2
:1046C00046E1D8F80010EA17C1E90052F6E7D8F839
:1046D00000100D80F2E70D70F0E718F8041B8DF85C
:1046E000001000208DF80100EB46012003E058F88F
:1046F00004BB4FF0FF3061074FF0000102D40DE022
:1047000009F101018946B9420FDA8145F8DB1BF84E
:1047100009100029F4D108E009F10101894681421C
:10472000FADB1BF809100029F6D103985346A0EBD9
:10473000090721463846179A00F080FA284400EB12
:10474000090507E044E008E10DE01BF8010B5246C3
:1047500017999047B9F10109F7D2534621463846D7
:10476000179AF2E039E00A21C4F302524FF0000B2D
:104770000091022A06D058F8040BC117032A09D069
:104780000AE023E008F1070020F00702F2E8020146
:10479000904605E000B2C117042A01D140B2C1170A
:1047A000002906DA0A460021404261EB02012D226F
:1047B00002E0220504D52B228DF80420012203E01B
:1047C000E20701D02022F7E7914657E00A2100E0F6
:1047D00010214FF0000B00910BE010214FF0000B67
:1047E00044F004040827009103E008204FF0000B78
:1047F0000090C4F30252022A05D058F8040B00219D
:10480000032A08D008E008F1070020F00702F2E8C8
:104810000201904603E080B2042A00D1C0B24FF0FA
:10482000000922072AD53278702A07D0DDF800C0A7
:104830008CF0100C5CEA0B0C05D00EE040228DF8D9
:104840000420012208E050EA010306D030238DF84D
:1048500004308DF8052002229146009B83F0080366
:1048600053EA0B030AD150EA010201D1620705D5D0
:1048700030228DF804204FF001097F1E3278582A2B
:1048800004D039A20C920CAA02920BE03BA2F9E7E9
:104890005B46009AFBF76AFF0C9B9B5C029A521ED8
:1048A0000292137050EA0102F2D1029804A9081A88
:1048B00000F1200B600702D524F4803400E00127CA
:1048C0005F4502DDA7EB0B0000E0002000EB0B01D1
:1048D000009003984944401A0390E00306D45346DD
:1048E0002146179A039800F0A9F90544002706E02D
:1048F00001A85246C05D179990476D1C7F1C4F451B
:10490000F6DBE0030CD553462146179A039800F0D6
:1049100095F9054404E030205246179990476D1CE4
:104920000099481E00900029F5DC08E002980299E1
:1049300052460078491C0291179990476D1CBBF1B3
:104940000001ABF1010BF1DC5BE100F065F905441E
:10495000761C307800287FF40DAE19B02846BDE8EB
:10496000F08F0000092801003031323334353637FA
:1049700038396162636465660000000030313233AB
:10498000343536373839414243444546000000004B
:10499000600700D4062708F1070020F00700F0E8C0
:1049A0000223804603F0004C5FEA0C0001D097A080
:1049B00009E0200501D596A005E0E00701D095A00B
:1049C00001E0AFF24C001390307823F000436528EB
:1049D0000CD006DC452809D046281DD047287FD1B9
:1049E0003BE0662818D067287AD136E00021112FE5
:1049F00001DB112000E0781CCDE9000104A90CA81E
:104A0000FFF7EEFCDDE90D010C9A4FF0000B07F10A
:104A10000109109200914EE04FF000400097CDE95F
:104A2000011004A90CA8FFF7DBFCDDE90D020C9BCB
:104A30000F994FF0000B91461093009211B9791C19
:104A400000EB0109B7EB090003D4C0F1FF3B07F10C
:104A50000109A9EB0700019042E0012F00DA0127CC
:104A60000021112F01DD112000E03846CDE90001C1
:104A700004A90CA8FFF7B4FCDDE90D010C9A009124
:104A80004FF0000BB946109221070FD4009A4A4507
:104A900003DA914601E0A9F10109B9F1010F05DD41
:104AA000109AA9F10101515C3029F4D0B84202DA20
:104AB00010F1040F03DA0121CDE9011010E0002804
:104AC00003DC8344A9EB000102E0411C494500DD01
:104AD0008946A0EB0B00401C01904FF00040029073
:104AE000200705D40198484502DB4FF0FF300190C4
:104AF00000208DF84B0002980DF14B07B0F1004FEC
:104B000025D002200C902B200D90029800280CDA62
:104B1000404202902D200D9007E00A210298FBF7F9
:104B20000FFE3031029007F8011D0C99481E0C90C1
:104B30000029F2DC02980028EFD1791E0D98087048
:104B4000307800F0200040F0450007F8020D11A871
:104B5000C01BC01D02901398007800B1012000EB2B
:104B60000901019801EBE071029801440398401A91
:104B7000401E0390E00306D453462146179A03983B
:104B800000F05CF805441398007818B15246179964
:104B900090476D1CE00323D553462146179A03988E
:104BA00000F04CF805441BE0BBF1000F07DB009858
:104BB000584504DD1098179910F80B0001E017997B
:104BC00030205246904701980BF1010B401E05F131
:104BD0000105019004D12E205246179990476D1C73
:104BE000B9F10001A9F10109DEDC05E017F8010BBC
:104BF0005246179990476D1C0299481E0290002951
:104C0000F4DC53462146179A03989EE62D000000D7
:104C10002B000000200000002DE9F0410446002593
:104C20001E461746880404D405E039462020B047C4
:104C30006D1C641EF9D52846BDE8F0812DE9F041D0
:104C4000044600251E469046C80301D5302700E0E3
:104C50002027880404D505E041463846B0476D1C3E
:104C6000641EF9D52846BDE8F0810A68531C0B6024
:104C70001070704700BF011EA0F10100FBD170470A
:104C800000BF011EA0F10100FBD17047002100E030
:104C9000491C8142FCD3704731E000BF00BF00BF18
:104CA00000BF00BF00BF00BF00BF00BF00BF00BF0C
:104CB00000BF00BF00BF00BF00BF00BF00BF00BFFC
:104CC00000BF00BF00BF00BF00BF00BF00BF00BFEC
:104CD00000BF00BF00BF00BF00BF00BF00BF00BFDC
:104CE00000BF00BF00BF00BF00BF00BF00BF00BFCC
:104CF00000BF00BF00BF00BF00BF00BF00BF011E5C
:104D0000A0F1010290B2C8D1704770B500F0F6FE74
:104D1000CC2000F0E0FE442000F0DDFE4FF4A07057
:104D2000FFF7A8FF00F0EAFECC2000F0D4FEBE2082
:104D300000F0D1FE00F0CAFE044600F0C7FE0546B2
:104D400044EA052070BD000010B5002401220821AE
:104D50006648FCF707FB002210216448FCF702FBC1
:104D600000224FF480716148FCF7FCFA00224FF4F6
:104D700000715E48FCF7F6FA4FF400615C48FCF7FE
:104D8000DFFA08B1012415E04FF480415948FCF7DF
:104D9000D7FA08B105240DE04FF400415548FCF75F
:104DA000CFFA08B1092405E001215148FCF7C8FAFF
:104DB00000B10D24002208214C48FCF7D3FA01224F
:104DC00010214A48FCF7CEFA00224FF48071474880
:104DD000FCF7C8FA00224FF400714448FCF7C2FA0D
:104DE0004FF400614248FCF7ABFA08B1022415E029
:104DF0004FF480413F48FCF7A3FA08B106240DE0C8
:104E00004FF400413B48FCF79BFA08B10A2405E047
:104E100001213748FCF794FA00B10E240022082142
:104E20003248FCF79FFA002210213048FCF79AFA2A
:104E3000012211022D48FCF795FA00224FF400716F
:104E40002A48FCF78FFA4FF400612948FCF778FAFA
:104E500008B1032415E04FF480412648FCF770FAAE
:104E600008B107240DE04FF400412248FCF768FA2E
:104E700008B10B2405E001211D48FCF761FA00B1DF
:104E80000F24002208211948FCF76CFA0022102197
:104E90001648FCF767FA00224FF480711348FCF7BC
:104EA00061FA012251021148FCF75CFA4FF40061EB
:104EB0000F48FCF745FA08B1042415E04FF480418F
:104EC0000C48FCF73DFA08B108240DE04FF400410E
:104ED0000848FCF735FA08B10C2405E00121044824
:104EE000FCF72EFA00B11024204610BD000C014042
:104EF00000080140001001408EB0FCF79BFBFEF75C
:104F0000D7FEFCF735FAF8490860FEF791FCFEF78A
:104F100019F94FF6FF7080231A46002100900846C9
:104F2000FEF7EAF8002010214FF6FF720346CDE9A4
:104F300000210290EDA20146FEF77CFAFEF79AFBF3
:104F4000FEF73AFCFEF768FDFEF754FCFEF770FC36
:104F5000FEF7BAFCFEF7F0FCFEF726FDE748FEF789
:104F6000F9FAE748FEF779FB4FF07E50E54ACDE9C4
:104F70000020E54B0246E5490290E548FEF783F83C
:104F80000122E449E448FDF78BFEE4A1EA48FFF77B
:104F9000E7F9E948FBF7FCF880B201460D90E648D6
:104FA000FEF774FFFBF73AFFFBF708FDFBF75EFF28
:104FB000FBF756FEFCF7DCF9CB490968401ACA49F1
:104FC0000860002010214FF6FF724FF47843CDE9BE
:104FD00000210290D9A21221FEF72CFA0020102104
:104FE0004FF6FF720346CDE900210290D7A224219B
:104FF000FEF720FAFCF7BCF9BB49486001220A2100
:10500000D648FFF78BF93220FBF7F6FF01220A2181
:10501000D348FEF735FD11E001220A21D048FEF702
:105020002FFD002010214FF6FF724FF47843CDE999
:1050300000210290CBA23621FEF7FCF9C848007887
:10504000C64909788842E7D1002010214FF6FF7247
:105050004FF47843CDE900210290C6A23621FEF735
:10506000E9F96CE0C6480078D0B9C648FBF795FE70
:10507000C4480078002810DD0120C14908700020D4
:1050800010214FF6FF724FF47843CDE900210290D2
:10509000BDA26C21FEF7CEF902E00020B8490870ED
:1050A000BC48007830BBFFF730FE0990FBF7D5FA1B
:1050B0000022B94BCDE90A01FBF752FACDE90C0108
:1050C000FBF718FBB5490860B549B4480068FBF721
:1050D0002DFB10D20120AF490870002010214FF69F
:1050E000FF724FF47843CDE900210290ADA2482130
:1050F000FEF7A0F902E00020A6490870AC4800784D
:10510000E8B9FBF7C9FEAB4908800846008842F2BF
:105110001071884210DA0120A54908700020102182
:105120004FF6FF724FF47843CDE900210290A2A21E
:105130005A21FEF77FF902E000209D49087090484F
:10514000007800288ED09348007800288AD09848AC
:105150000078002886D001220B219A48FEF790FCA7
:105160009848007880F001009649087001220B21D0
:105170009448FFF7D3F8934800780D9000EBD07077
:1051800041100D98A0EB410070B1002010214FF4A8
:1051900078424FF6FF73CDE9002102908AA25A218E
:1051A0006020FEF747F90DE0002010214FF478420F
:1051B0004FF6FF73CDE90021029085A25A216020AD
:1051C000FEF738F9FCF7D4F847494968401A4649D0
:1051D0004860002010214FF6FF724FF47843CDE96C
:1051E000002102907CA27E21FEF724F93E4840680F
:1051F0000D903D4800680C9002467BA14E480D9BE7
:10520000FFF7AEF84C48FAF7C3FF80B201460D90A5
:105210004948FEF73BFE40F2DC50FBF7EDFE7D48CF
:10522000FDF790F87C48FDF78DF87C48FDF78AF88B
:10523000FCF79EF87A4908607A4908607A49086064
:105240004FF6FF7080231A46002100900846FDF7B4
:1052500053FFAFE3FCF78CF872490968401A6428E1
:105260003FD9FCF785F86F490860FFF76DFD6F497E
:1052700008706F480078097848406C490978084000
:105280006C49087069480078694908706948007875
:10529000112827D2DFE800F0DE0910171ED2D3D480
:1052A000D5D6D7DADBDCD8D9DD006348007880F0CA
:1052B000010061490870CEE03D48007880F00100AF
:1052C0003B490870C7E03348007880F0010031495D
:1052D0000870C0E02A48007880F001002849087072
:1052E000B9E0B9E0B6E0000004020020537973741D
:1052F000656D20496E69742E2E2E0000500000202E
:1053000038010020CDCCCC3D6666663F0000C84128
:105310001C010020300000202C070020E4B8B2E57A
:105320008FA3E8BF9EE68EA5E68890E58A9FEFBC36
:10533000815C720A000000002C0200205379737413
:10534000656D20496E6974204F4B21004D6F6420BC
:1053500053656C66746573742E2E2E002700002032
:1053600028000020454550524F4D204572726F7203
:1053700021000000454550524F4D204F4B21000069
:105380000E000020000000204448543131204F4BD3
:10539000210000000F000020000030400800002025
:1053A0000000204144533138423230204F4B21001D
:1053B000100000200C000020424831373530204FCB
:1053C0004B210000340000205445535400000000DD
:1053D000555345520000000053656C667465737444
:1053E000204F4B2100000000426F6F742054696D04
:1053F00065202D3E20496E69743A256C756D7320C9
:1054000053656C66746573743A256C756D730D0A1B
:1054100000000000540600209C060020E406002046
:105420001C00002018000020140000202000002094
:1054300022000020210000202600002000BF00BF25
:1054400000BF00BF07E006E005E004E003E002E083
:1054500001E000E000BF00BFFBF78AFFF8490968E0
:10546000401AB0F5967F7CD9FBF782FFF4490860BB
:10547000084600680D90F34800780C9000EBD0705F
:1054800041100C98A0EB410000286BD0EE4800685A
:105490004FF47A71B0FBF1F00246ECA10C90ED48AC
:1054A000FEF75EFF002010214FF6FF724FF47843A5
:1054B000CDE900210290E74A0146FDF7BBFFE6482F
:1054C0000078012804D1E5A1E248FEF749FF03E096
:1054D000E4A1E048FEF744FF002110224FF6FF70E0
:1054E0004FF47843CDE901210090DA4A5020FDF7CE
:1054F000A1FFDE4840690090DC4840680C90DB4822
:1055000000680B900246DAA1D2480C9BFEF728FFF8
:10551000002010214FF6FF724FF47843CDE90021AF
:105520000290CC4A1221FDF785FFD0480069009017
:10553000CE48C0680C90CD4880680B900246CCA144
:10554000C4480C9BFEF70CFF002110204FF6FF72A1
:105550004FF47843CDE900200291BE4A2421002077
:1055600001E0FCE062E0FDF765FFC5480068FBF77D
:10557000AEF802460B46CDE90A01C2A1B548FEF7D6
:10558000EFFE002010214FF6FF724FF47843CDE973
:1055900000210290AF4A3621FDF74CFFBD4800784C
:1055A00060B1BD480068FBF792F802460B46CDE9B2
:1055B0000A01BAA1A748FEF7D3FE06E0BAA1A548A2
:1055C000FEF7CEFE0020B4490860002010214FF6FF
:1055D000FF721F23CDE9002102909E4A5A21FDF758
:1055E00029FFB348007860B1B2480068FBF76FF854
:1055F00002460B46CDE90A01AFA19648FEF7B0FE80
:1056000006E0B0A19348FEF7ABFE0020A949086070
:10561000002010214FF6FF721F23CDE900210290D8
:105620008C4A5A214020FDF705FF45E09948007853
:1056300060B199480068FBF74AF802460B46CDE98D
:105640000A0196A18348FEF78BFE06E096A18148E9
:10565000FEF786FE002190480160002010214FF6E1
:10566000FF721F23CDE9002102907A4A1221FDF733
:10567000E1FE8F48007860B18E480068FBF727F89C
:1056800002460B46CDE90A018BA17248FEF768FE7F
:1056900006E08CA16F48FEF763FE0021854801609B
:1056A000002010214FF6FF721F23CDE90021029048
:1056B000684A3621FDF7BEFE8448007830B1844840
:1056C000028884A16348FEF74BFE06E083A161488F
:1056D000FEF746FE00207E4908807D480088642849
:1056E0000CDA7B48008848B14FF6FF7050238022C7
:1056F0006C2100904020FDF7FFFC1DE074480088FD
:10570000B0F57A7F09DA4FF6FF70502380226C21C2
:1057100000904820FDF7F0FC0EE06D48008842F252
:105720001071884208DA4FF6FF70502380226C21F6
:1057300000901846FDF7E0FC002010214FF6FF72A4
:105740001F23CDE900210290424A6C21FDF772FE31
:10575000FBF70EFE0D99401A4449486100BFFBF764
:1057600007FE60490968401AB0F5FA7F35D9FBF7A2
:10577000FFFD5C49086042480068FAF7A8FFCDE9E0
:105780000C014C480068FAF7A2FFCDE90A01424833
:105790000068FAF79CFFCDE90801DDE90C01CDE9CD
:1057A0000601324840692C490978494A1288CDE9F6
:1057B00002210490DDE90A01CDE900014AA1254852
:1057C000DDE90823FEF7CCFD2248FAF7E1FC80B2C0
:1057D00001460D901F48FEF759FB5248008800F41F
:1057E000004000282BD000200D900C900B904E48CC
:1057F00040783D2822D14C48C078F8B94A48807892
:10580000302803D048488078312817D1464800789E
:105810000C90454880780B900C98482802D11D4880
:105820000D9089E00C98542802D121480D9083E016
:105830000C984C287BD125480D907DE0A4E0B8E081
:1058400014000020340000203C0000205550543A41
:10585000256473002C02002026000020463A59657A
:1058600073000000463A4E6F200000000402002042
:10587000543A2532642D2532642D2532640000000F
:105880002C0000204350553A2530352E3266252510
:10589000000000000E00002004000020483A2534DB
:1058A0002E31662525000000483A4572726F72005D
:1058B0000F00002008000020543A25352E326643A0
:1058C00000000000543A4572726F72001000002010
:1058D0000C0000204C3A25644C7800004C3A45728C
:1058E000726F72001C000020483A25342E31662564
:1058F0002520543A25352E326643204C3A25644CF7
:105900007820463A2564204374726C3A256C756D94
:1059100073204350553A2530352E326625250D0A21
:1059200000000000320000208C020020FFE70C98ED
:10593000462801D120480D900D98B8B10B98312818
:1059400001D1012100E000210D9801701BA11F4829
:10595000DDE90B32FEF704FD1C48FAF719FC80B2B2
:1059600001460A901948FEF791FA1AE018A1174863
:10597000FEF7F6FC1548FAF70BFC80B201460A90D8
:105980001248FEF783FA0CE011A11048FEF7E8FC7C
:105990000E48FAF7FDFB80B201460A900B48FEF76D
:1059A00075FA002111480180C8211148FAF7E5FB7A
:1059B00000BF30BF4EE4000026000020434D4420CD
:1059C0004F4B3A2025633D25630D0A002C02002031
:1059D000434D44204552523A2075736520482F5458
:1059E0002F4C2F463D302F310D0A00003200002091
:1059F0008C0200201FB500200090019002900390BF
:105A00000220009000200190029069460148FBF7B7
:105A100007FB1FBD000C01401FB500200090019046
:105A20000290039002200090012001900320039037
:105A30000020029069460248FBF7F2FA1FBD000001
:105A4000000C014010B5FBF7A3F84720FBF770F8F6
:105A500000240EE0FAF7F6FF0A490855032C03D19B
:105A60000120FBF731F802E00020FBF72DF8601C65
:105A7000C4B2032CEEDBFBF7ABF80120FBF7E5F932
:105A800010BD00004D00002010B50446FFF7C4FF14
:105A9000002202210C48FBF765FC1020FFF7EAF812
:105AA0000CB1FFF7A7FF9020FFF7E4F802210648AA
:105AB000FBF746FC00B900244FF43470FFF7DAF826
:105AC000FFF798FF204610BD000C014010B5FF20E5
:105AD00000F001F810BD70B50446082600BF04F0C0
