:020000040800F2
:100000004808002005010008A93800088F2C0008C6
:10001000A5380008E50B00087D400008000000003E
:10002000000000000000000000000000E13A0008AD
:10003000290E000800000000AB380008FD3A000857
:100040001F0100081F0100081F0100081F01000810
:100050001F0100081F0100081F0100081F01000800
:100060001F0100081F0100081F0100081F010008F0
:100070001F0100081F0100081F0100081F010008E0
:100080001F0100081F0100081F0100081F010008D0
:100090001F0100081F0100081F0100081F010008C0
:1000A0001F0100081F0100081F0100081F010008B0
:1000B000C53B0008D53B0008E53B00081F010008D0
:1000C0001F0100081F0100081F0100081F01000890
:1000D0001F0100086D4000081F0100081F010008F3
:1000E0001F0100081F0100081F010008DFF810D0E1
:1000F00000F020FC004800475D4C0008AFF3008092
:10010000480800200648804706480047FEE7FEE70B
:10011000FEE7FEE7FEE7FEE7FEE7FEE7FEE7FEE7B7
:100120006D3B0008ED000008202A04DB203A21FA8C
:1001300002F00021704721FA02F3D040C2F1200200
:100140009140084319467047D2B201E000F8012BF4
:10015000491EFBD270470022F6E710B513460A4647
:1001600004461946FFF7F0FF204610BD421C10F868
:10017000011B0029FBD1801A7047F0B480EA01020C
:10018000D40F4200B2EB410F02D20246084611469C
:100190004A0042D0C30DDDB2C1F3C752AD1A202DC3
:1001A00035DAC1F3160141F4000204B15242C5F13F
:1001B000200602FA06F12A411044B3EBD05F23D0A7
:1001C000C4B1012DA0EBC35009DCF0BC4FF00042DC
:1001D00002EAC352DBB200F5000000F0D7B94000DC
:1001E00000F1807000EBC350A0F1807040EAD17044
:1001F000490009E0490841EAC071A0EBC35000F58D
:100200000000400800EBC350F0BC00F0B6B96142FA
:10021000012202EB4101001BF6E7F0BC704781F0C0
:100220000041AAE780F00040A7E780EA010210B58C
:1002300002F00043400022D04A001FD0010E01EB23
:100240001261C0F35600C2F3560240F4000042F4BB
:100250000002A0FB022000047F39140400D0401CDF
:1002600050EA124001D44000491EC2B20C0604EB11
:10027000D010401C4008802A02D003E0002010BDAE
:1002800020F00100002900DA0020184310BD30B42E
:1002900080EA010202F0004530F0004221F0004007
:1002A00013D090B1C30DD40DC2F31601C0F31600E4
:1002B000E41A41F4000140F400027D34914201D37C
:1002C000641C00E04900002C02DA30BC00207047BA
:1002D0004FF400000023914201D3891A03434008E0
:1002E0004FEA4101F7D151B1914202D14FF00041A3
:1002F00005E002D24FF0010101E06FF0010103EBD4
:10030000C450284430BC00F038B92DE9F04D81EAE2
:10031000030404F0004B21F0004514464FF0000A9E
:1003200023F0004150EA050220D054EA01021DD01A
:10033000C5F30A570246C5F31303C1F31300C1F313
:100340000A5640F4801543F48013A7EB0608101BEF
:10035000D64608F2FD3873EB050002D308F1010818
:1003600001E092185B41B8F1000F03DA002001466A
:10037000BDE8F08D00204FF48011064684460EE063
:10038000171B73EB050705D3121B63EB050306432D
:100390004CEA010C49084FEA300092185B4150EAE0
:1003A0000107EDD152EA030012D082EA040083EA89
:1003B0000501084305D0101BAB4106D201220023E2
:1003C00006E000224FF0004302E06FF001025310FC
:1003D0001AEB06004CEB085110EB0A0041EB0B0145
:1003E000BDE8F04D00F000B9C10F80EAE0700844AC
:1003F000CA079623002100F0C9B8962300221146AF
:1004000000F0C4B80EB540F2334102910021CDE9AD
:1004100000110A460B4600F0F6F803B000BD20F0CC
:100420000040C10DC0F3160040F400007F2901DA3E
:1004300000207047962903DCC1F19601C84070473F
:10044000963988407047C1F30A5210B5C1F31301C1
:1004500040F2FF3341F480119A4201DA002010BDCE
:1004600040F233439A42A2F2334203DC5242FFF796
:100470005BFE10BD904010BD00F0004230F0004027
:100480000AD0C10D01F56071C0F3160042EA0151B6
:10049000C20840071143704700200146704701F031
:1004A000004330B421F0004150EA010206D00A0DA9
:1004B000A2F56072C1F31301002A02DC30BC0020F7
:1004C0007047440F44EAC104C100E01830BC00EB9F
:1004D000C25000F052B80000002801DBC0F100401B
:1004E000002901DBC1F100418842704730B50B465D
:1004F000014600202022012409E021FA02F59D4254
:1005000005D303FA02F5491B04FA02F52844151E27
:10051000A2F10102F1DC30BD2DE9F05F05460020BB
:1005200092469B4688460646814640241BE0284664
:10053000414647462246FFF7F7FD53465A46C01A42
:10054000914110D311461846224600F005FA2D1AA3
:1005500067EB01084F4622460120002100F0FCF91C
:1005600017EB00094E41201EA4F10104DFDC4846D0
:1005700031462A464346BDE8F09F0029A8BF704790
:10058000401C490008BF20F00100704710B4B0FAC9
:1005900080FC00FA0CF050EA010404BF10BC704764
:1005A00049B1CCF1200421FA04F411FA0CF118BF7E
:1005B000012121430843A3EB0C01CB1D4FEA00614D
:1005C0004FEA102042BF002010BC704700EBC35020
:1005D00010440029A4BF10BC7047401C490008BF4C
:1005E00020F0010010BC704710B5141E73F1000418
:1005F00008DA401C41F1000192185B411A4301D115
:1006000020F0010010BD2DE9F04D92469B4611B13E
:10061000B1FA81F202E0B0FA80F22032904600F0A6
:100620009BF904460F4640EA0A0041EA0B01534693
:100630005A46084313D0114653EA010019D0C8F1B5
:1006400040025046FFF770FD05460E46504659469B
:10065000424600F081F9084305D0012004E020461D
:100660003946BDE8F08D0020054346EAE0762C438C
:1006700037430A986305E40AA0EB08000022FD0A4C
:1006800044EA47540A3002D500200146E9E7010553
:1006900010196941DDE9084500196941BDE8F04DCF
:1006A000A2E72DE9FE4F804681EA0300C00F0C4609
:1006B000009021F0004123F00045B8EB0200A94171
:1006C00005D24046214690461C460B46024623F082
:1006D0000040104347D0270DC7F30A00C3F30A5167
:1006E0000290401A019040286BDAC3F3130040F4E3
:1006F000801B0098924620B10023D2EB030A63EBE3
:100700000B0B01985946C0F14002504600F024F905
:1007100006460D4650465946019A00F02CF910EB5A
:1007200008006141002487EA115284EAE7731A4302
:1007300040D0009A62B3019A012A4FEA075215DCB1
:10074000001B61EB02014FF0004202EA0752CDE9C3
:100750000042001C41F5801132462B46FFF753FF43
:1007600003B0BDE8F08F40462146F9E7001B61EB7E
:100770000201001C41F5801300185B412018A2F50E
:10078000001747EB030140EAD570B6196D4111E03F
:100790006D084FEA360645EAC0754FEA0752001B5E
:1007A00061EB0201001C41F5801149084FEA30005D
:1007B0000019514132462B4603B0BDE8F04FFFF718
:1007C00013BF0098012240000023D0EB020263EB2C
:1007D000E073009821464FEAE074B8EB000061EB4B
:1007E0000401E9E783F000435BE781F0004158E74B
:1007F0002DE9FE4F81EA030404F0004421F000419A
:1008000000944FF0000B23F0004350EA01045ED047
:1008100052EA03045BD0C3F30A54C1F30A552C44D3
:10082000A4F2F3340194A0FB0254C1F3130141F488
:100830008011C3F3130343F4801301FB024400FB54
:10084000034E840A970A44EA815447EA8357A4FB7B
:10085000076802958D0A05FB07854FEA932C04FB78
:100860000C542705029D4FEA065847EA1637B5EBA8
:1008700008056EEB070C870E920E47EA811742EAD5
:100880008312A7FB0201B6EB0B0164EB00042B0DF6
:1008900043EA0C335E1844EB1C50DA465146E7FB42
:1008A0000201C5F313044FEA0B3343EA14534FEA32
:1008B0000432019C43EA0603A4F10C040294009C58
:1008C000CDE900B4FFF79FFE03B0BDE8F08F002034
:1008D0000146F9E7C1F30A52C1F3130140F2FF33B5
:1008E00041F480119A4202DA00200146704740F23A
:1008F00033439A42A2F2334202DC5242FFF714BC65
:1009000000F02AB830B5041E71F1000404DB4FF08A
:100910000044404264EB0101141E73F1000405DB46
:100920001C464FF00043524263EB0403994208BF58
:10093000904230BD064C074D06E0E06840F00103F0
:1009400094E8070098471034AC42F6D3FFF7D2FB87
:100950000478000824780008202A04DB203A00FAF2
:1009600002F1002070479140C2F1200320FA03F306
:10097000194390407047202A06DBCB17203A41FAF2
:1009800002F043EAE07306E041FA02F3D040C2F11C
:100990002002914008431946704710B500F0E8F86E
:1009A000462000F0B5F8012000F0B2F800F000F9A0
:1009B00010BD00001FB500200190022003908002AE
:1009C00000906946154800F01BFB01229102134874
:1009D00000F0B8FC052004F011F84FF400610F4856
:1009E00000F09EFC012802D10D49087002E00020B1
:1009F0000B49087000224FF48061084800F0A2FC07
:100A0000052003F0FBFF012001906946034800F038
:100A1000F7FA0348007804B010BD0000000C014054
:100A2000380000207FB50024002001904FF40060C2
:100A300000900220039069461A4800F0E1FA012272
:100A4000D102184800F07EFC00251FE06006040E6D
:100A500001229102134800F075FC052003F0CEFF3F
:100A60004FF400610F4800F05BFC012801D1012622
:100A700000E00026344300224FF48061094800F072
:100A800061FC052003F0BAFF681CC5B2082DDDDB50
:100A9000012001906946034800F0B2FA204604B0F4
:100AA00070BD0000000C01401FB504464FF44060CB
:100AB000009001200190022003906946134800F045
:100AC0009FFA012C05D10122D102104800F03AFC16
:100AD00008E034B900224FF400610C4800F032FC09
:100AE00000E01FBD01229102084800F02BFC052008
:100AF00003F084FF00224FF48061044800F022FCE0
:100B0000052003F07BFF00BFEBE70000000C014075
:100B100070B50446002523E004F0800028B10122CE
:100B2000D102124800F00EFC05E000224FF40061F3
:100B30000E4800F007FC6006040E012291020B48EB
:100B400000F000FC052003F059FF00224FF4806103
:100B5000064800F0F7FB052003F050FF681CC5B203
:100B6000082DD9DBFFF726FF70BD0000000C014007
:100B700010B50122D1020D4800F0E4FB01229102E0
:100B80000A4800F0DFFB052003F032FF00224FF49B
:100B90000061064800F0D6FB052003F029FF002283
:100BA0004FF48061014800F0CDFB10BD000C014006
:100BB00010B500224FF40061094800F0C3FB012288
:100BC0009102074800F0BEFB052003F017FF012249
:100BD000D102034800F0B6FB052003F00FFF10BD63
:100BE000000C014000BFFEE710B5002400F052F8F1
:100BF00004E0601CC4B20E2003F0F4FE01210F4893
:100C000000F08EFB08B1642CF3DB642C01DB0120C7
:100C100010BD002404E0601CC4B20E2003F0E2FE0C
:100C20000121064800F07CFB08B9642CF3DB642C3E
:100C300001DB0120ECE70020EAE70000000C0140A6
:100C400000B585B00020019002900390049000BF91
:100C50000E48806940F008000C49886108468069A8
:100C600000F00800009000BF00BF0120019002903A
:100C7000032004900120039001A9054800F0C0F969
:100C800000F0A4F8FFF7B0FF05B000BD001002406F
:100C9000000C014000B585B0002001900290039047
:100CA000049000BF0C48806940F004000A49886144
:100CB0000846806900F00400009000BF00BF0120DA
:100CC0000190002002900120039001A9034800F048
:100CD00097F905B000BD000000100240000C014073
:100CE0001FB5002000900190029003900120009019
:100CF0000190032003906946014800F081F91FBD6F
:100D0000000C014010B5002404E0601CC4B20E20A9
:100D100003F068FE0121104800F002FB08B16E2CC0
:100D2000F3DB002404E0601CC4B20E2003F05AFE82
:100D30000121094800F0F4FA08B96E2CF3DB4FF4F6
:100D4000107003F04FFE0121034800F0E9FA08B1EA
:100D5000012010BD0020FCE7000C014070B500240C
:100D6000002506E06006040EFFF7CCFF0443681C74
:100D7000C5B2082DF6DB204670BD7CB5054600F0F7
:100D800025F8FFF731FFE0B9002405E0FFF7E6FFA3
:100D90000DF80400601CC4B2052CF7DB9DF80000C0
:100DA0009DF8011008449DF8021008449DF80310B6
:100DB00008449DF80410884205D19DF80000287071
:100DC00001E001207CBD0020FCE7000010B5FFF72A
:100DD00087FF00220121084800F0B4FA142000F037
:100DE000FBF801221146044800F0ACFA4FF45870A9
:100DF00003F0F8FD10BD0000000C01401FB50020FD
:100E00000090019002900390022000900120019038
:100E100003200390012002906946024800F0F0F898
:100E20001FBD0000000C01407047002107E042F6A2
:100E3000E06100BF0A1EA1F1010399B2FAD1021EBE
:100E4000A0F1010398B2F2D1704700001FB5002055
:100E50000090019002900390C0200090012001902A
:100E60000290032003906946014800F0C9F81FBDB5
:100E7000000C0140704700002DE9F047012002F00E
:100E800030FE102002F02DFE0A2000F0A5F804F03C
:100E9000F7FA0D480478407800EB042084B220462D
:100EA000FFF7ABFA8246FFF7E7FA07464FF0333217
:100EB000064BFFF72AFA0546FFF7C5FA1FFA80F935
:100EC0004846BDE8F0870000390000203333F33F87
:100ED0000146002291F82100022808D004208863EE
:100EE00000BF002081F8200000BF01207047086883
:100EF000006820F00E000B6818600868006820F099
:100F000001000B68186091F8403001209840CB6BCD
:100F10005860012081F8210000BF002081F82000E6
:100F200000BF1046E2E7000070B50446002594F8C3
:100F30002100022803D00420A063012548E0206896
:100F4000006820F00E00216808602068006820F02A
:100F50000100216808601F492068884201D10120F2
:100F600026E01C4914312068884201D110201FE07E
:100F7000184928312068884201D1801518E01549A8
:100F80003C312068884201D1801411E01149503170
:100F90002068884202D14FF4803009E00D49643165
:100FA0002068884202D14FF4801001E04FF0807039
:100FB000084908394860012084F8210000BF00205A
:100FC00084F8200000BF606B10B12046616B884739
:100FD000284670BD0800024070B5044600F0B8F91C
:100FE00006462546681C10B104480078054400BF39
:100FF00000F0AEF9801BA842FAD370BD300000208B
:101000002DE9F8470346002294466EE14FF00108AF
:1010100008FA02F4D1F8008008EA0400A0427DD169
:10102000DFF8DCA2D1F80480A8EB0A09D0453AD059
:1010300014DCB8F1030F50D009DCB8F1000F31D047
:10104000B8F1010F1CD0B8F1020F49D120E0B8F17E
:10105000110F18D0B8F1120F42D11EE0B9F5881F58
:1010600025D006DCB9F5803F20D0B9F5801F37D1F7
:101070001AE0B9F5001F18D0B9F5041F30D117E0F8
:10108000D1F80CC02DE0D1F80C8008F1040C28E058
:10109000D1F80C8008F1080C23E0D1F80C8008F19D
:1010A0000C0C1EE000BF00BF00BF00BF00BF00BFB0
:1010B000D1F80880B8F1000F02D14FF0040C0BE01A
:1010C000D1F80880B8F1010F03D14FF0080C1C6172
:1010D00002E04FF0080C5C6103E04FF0000C00E010
:1010E00000BF00BFFF2801D8984601E003F10408C3
:1010F0004646FF2802D84FEA820803E0A2F108081A
:101100004FEA88084746D6F800804FF00F0909FAE1
:1011100007F928EA09080CFA07F900E088E048EA2C
:101120000908C6F80080D1F8048008F08058B8F1AA
:10113000805F7DD100BFDFF8CC81D8F8188048F0FF
:101140000108DFF8C091C9F81880C846D8F818809F
:1011500008F00108CDF8008000BF00BF4FEAB938A1
:101160004FEA920958F829504FEA82784FEA1879E5
:101170004FF00F0808FA09F825EA0805DFF888811A
:10118000434502D14FF0000816E0DFF88081434567
:1011900002D14FF001080FE0DFF87481434502D11E
:1011A0004FF0020808E0DFF86C81434502D14FF0B0
:1011B000030801E04FF004084FEA82794FEA1979F9
:1011C00008FA09F848EA0505DFF84C814FEA920968
:1011D00048F82950D1F8048008F48018B8F5801F29
:1011E0000AD1DFF83881D8F8008048EA0008DFF833
:1011F0002C91C9F8008009E0DFF82081D8F8008040
:1012000028EA0008DFF81491C9F80080D1F80480BA
:1012100008F40018B8F5001F10D1DFF8008108F1BC
:101220000408D8F8008048EA0008DFF8F09000E0F1
:101230005AE009F10409C9F800800DE0DFF8DC800C
:1012400008F10408D8F8008028EA0008DFF8CC90FC
:1012500009F10409C9F80080D1F8048008F40038C5
:10126000B8F5003F0ED1DFF8B480A8F10408D8F833
:10127000008048EA0008DFF8A490A9F10409C9F841
:1012800000800DE0DFF89480A8F10408D8F8008011
:1012900028EA0008DFF88490A9F10409C9F8008061
:1012A000D1F8048008F48038B8F5803F0ED1DFF81B
:1012B0006C80A8F10808D8F8008048EA0008DFF838
:1012C0005C90A9F10809C9F800800DE0DFF84C80B6
:1012D000A8F10808D8F8008028EA0008DFF83C9058
:1012E000A9F10809C9F80080521CD1F8008028FA39
:1012F00002F8B8F1000F7FF489AEBDE8F88700006E
:10130000000011100010024000080140000C0140D4
:101310000010014000140140080001400804014091
:10132000024693680B400BB1012000E0002070479B
:1013300010B5C26821EA020302EA010443EA044349
:10134000036110BD0AB1016101E00B040361704744
:1013500001480068704700002800002070B504466E
:101360000CB9012070BD94F83D0028B9002084F824
:101370003C00204600F0DAF8242084F83D00206884
:10138000006820F00100216808602068006840F4CF
:101390000040216808602068006820F4004021684F
:1013A000086000F0C9FA05465C496068884206D8C2
:1013B0005B48854201D2012007E0002005E0594842
:1013C000854201D2012000E00020012800D1C9E7B8
:1013D0005548B5FBF0F62068406820F03F003043E8
:1013E000216848604D496068884201D8701C07E058
:1013F0004FF4967070434FF47A71B0FBF1F0401CDB
:101400002168096A21F03F010843216808624349C5
:101410006068884214D8681E61684900B0FBF1F02A
:10142000401CC0F30B00042801D204203DE0681EDC
:1014300061684900B0FBF1F0401CC0F30B0034E0E0
:10144000A06838B9681E616801EB4101B0FBF1F09A
:10145000401C0AE0681E616801EBC10202EB011149
:10146000B0FBF1F0401C40F48040C0F30B0008B921
:1014700001201AE0A06848B9681E616801EB4101CB
:10148000B0FBF1F0401CC0F30B000CE0681E61687B
:1014900001EBC10202EB0111B0FBF1F0401CC0F303
:1014A0000B0040F4804040F400402168C9694CF6CC
:1014B000FF72914308432168C861D4E907010843DA
:1014C0002168096821F0C001084321680860D4E957
:1014D000031008432168896848F2FF3291430843AA
:1014E00021688860D4E9050108432168C96821F0B2
:1014F000FF0108432168C8602068006840F00100CF
:101500002168086000202064202084F83D0000202D
:10151000206384F83E0000BF24E70000A08601009D
:1015200080841E0000093D0040420F0010B586B0C7
:101530000446002002900390049005902B492068F7
:10154000884225D100BF2A48806940F00800284918
:1015500088610846806900F00800019000BF00BF64
:10156000C0200290122003900320059002A9214878
:10157000FFF746FD00BF1E48C06940F400101C493B
:10158000C8610846C06900F40010019000BF2AE05D
:1015900019492068884226D100BF1548806940F06B
:1015A0000800134988610846806900F0080001902E
:1015B00000BF00BF4FF44060029012200390032050
:1015C000059002A90B48FFF71BFD00BF0848C06942
:1015D00040F480000649C8610846C06900F48000F4
:1015E000019000BF00BF06B010BD000000540040D5
:1015F00000100240000C0140005800400348006801
:101600000349097808440149086070472800002010
:101610003000002010B50848006840F0100006496E
:101620000860032000F0A8F8002000F007F800F0A0
:101630002BF8002010BD00000020024070B50446C9
:101640000E4800784FF47A71B1FBF0F00C4909684C
:10165000B1FBF0F5284600F079FD08B1012070BD1E
:10166000102C07D200222146501E00F047F80548F2
:10167000046001E00120F2E70020F0E730000020E4
:10168000340000202C00002008B500BF11488069FC
:1016900040F001000F4988610846806900F00100B0
:1016A000009000BF00BF00BF0846C06940F08050F6
:1016B000C8610846C06900F08050009000BF00BFBC
:1016C00000BF0549486820F0E06040F000704860C5
:1016D00000BF08BD0010024000000140014608465E
:1016E000002809DB00F01F0301229A4043099B00F8
:1016F00003F1E023C3F8002100BF70472DE9F05F3C
:1017000080460D461646002702F0F0FC0746394693
:101710002A46334601F00700C0F1070ABAF1040F68
:1017200002D94FF0040A01E0C0F1070AD14600F1E6
:10173000040ABAF1070F02D24FF0000A01E0A0F14B
:10174000030AD4464FF0010A0AFA09FAAAF1010A7B
:101750000AEA020A0AFA0CFA4FF0010B0BFA0CFB28
:10176000ABF1010B0BEA030B4AEA0B04214640469E
:1017700002F0C4FCBDE8F09F00BF00F00702064B7A
:1017800019684FF6FF031940044B0B4343EA02214B
:10179000014B196000BF70470CED00E00000FA0536
:1017A00070B504460D460CB9012070BD5A4800685A
:1017B00000F00700A8420ED25748006820F007004A
:1017C0002843554908600846006800F00700A84211
:1017D00001D00120E9E7207800F0020002281DD1A5
:1017E000207800F00400042805D14C48406840F4FB
:1017F000E0604A494860207800F00800082805D1D8
:101800004648406840F46050444948604348406856
:1018100020F0F000A168084340494860207800F0BB
:10182000010078B36068012806D13C48006800F4E4
:10183000003090B90120B8E76068022806D1374827
:10184000006800F0007040B90120AEE7334800683E
:1018500000F0020008B90120A7E73048406820F0F6
:101860000300616808432D494860FFF771FD064693
:1018700009E0FFF76DFD801B41F28831884202D9F3
:10188000032092E707E02548406800F00C006168FB
:10189000B0EB810FEDD12048006800F00700A842AE
:1018A0000ED91D48006820F0070028431A49086037
:1018B0000846006800F00700A84201D0012074E744
:1018C000207800F00400042807D11448406820F470
:1018D000E060E168084311494860207800F00800A2
:1018E000082808D10D48406820F46050216940EA7A
:1018F000C1000A49486000F03FF808494968C1F34F
:101900000311074A515CC840064908600648006850
:10191000FFF794FE002048E700200240001002403C
:1019200096550008340000202C0000200148006873
:10193000704700003400002000B5FFF7F7FF0449AE
:101940004968C1F30221034A515CC84000BD000050
:1019500000100240A655000800B5FFF7E7FF044954
:101960004968C1F3C221034A515CC84000BD000070
:1019700000100240A655000870B500210022002486
:1019800000230020134D696801F00C05F5B1042D0A
:1019900002D0082D19D101E00F4819E00F4DC1F315
:1019A0008346AB5D01F4803555B10A4D6D68C5F3D2
:1019B00040450B4E725D084D5D43B5FBF2F402E00D
:1019C000084D03FB05F4204602E000BF024800BFBB
:1019D00000BF70BD0010024000127A00845500085C
:1019E0009455000800093D00F8B504460CB90120E3
:1019F000F8BD207800F00100002878D0F848406851
:101A000000F00C0004280CD0F548406800F00C00F1
:101A1000082811D1F248406800F48030B0F5803FCA
:101A20000AD1EF48006800F4003000285FD06068F9
:101A300000285CD10120DBE700BF6068B0F5803F83
:101A400006D1E748006840F48030E549086028E0A6
:101A5000606858B9E248006820F48030E0490860C6
:101A60000846006820F4802008601AE06068B0F53D
:101A7000A02F0BD1DA48006840F48020D8490860D4
:101A80000846006840F4803008600AE0D4480068E6
:101A900020F48030D24908600846006820F4802095
:101AA000086000BF606888B1FFF752FC054606E099
:101AB000FFF74EFC401B642801D9032098E7C84873
:101AC000006800F400300028F2D010E0FFF740FC7E
:101AD000054606E0FFF73CFC401B642801D90320C3
:101AE00086E7BF48006800F400300028F2D1207873
:101AF00000F00200022857D1B948406800F00C00FD
:101B000050B1B748406800F00C00082818D1B4481C
:101B1000406800F4803098B9B148006800F00200D5
:101B200020B12069012801D0012061E7AC4800689C
:101B300020F0F800616940EAC100A949086033E07B
:101B40002069E8B10120A7490860FFF701FC0546BC
:101B500006E0FFF7FDFB401B022801D9032047E701
:101B60009F48006800F002000028F2D09C480068FE
:101B700020F0F800616940EAC1009949086013E06B
:101B8000002098490860FFF7E3FB054606E0FFF7F1
:101B9000DFFB401B022801D9032029E79048006899
:101BA00000F002000028F2D1207800F00800082898
:101BB0002DD1A069B8B101208B490860FFF7C8FB9F
:101BC000054606E0FFF7C4FB401B022801D90320AD
:101BD0000EE78348406A00F002000028F2D001209E
:101BE00001F064FE13E000207F490860FFF7B0FBBE
:101BF000054606E0FFF7ACFB401B022801D9032095
:101C0000F6E67748406A00F002000028F2D120781A
:101C100000F00400042873D100277148C06900F067
:101C2000805070B900BF6E48C06940F080506C4968
:101C3000C8610846C06900F08050009000BF00BF36
:101C400001276A48006800F48070B0B967480068EE
:101C500040F4807065490860FFF77AFB054606E0AE
:101C6000FFF776FB401B642801D90320C0E65F48DC
:101C7000006800F480700028F2D000BFE0680128FE
:101C800006D15748006A40F001005549086227E034
:101C9000E06858B95248006A20F0010050490862D3
:101CA0000846006A20F00400086219E0E068052890
:101CB0000BD14B48006A40F00400494908620846CD
:101CC000006A40F0010008620AE04548006A20F01E
:101CD0000100434908620846006A20F004000862D7
:101CE00000BFE068A0B1FFF733FB054609E0FFF74E
:101CF0002FFB401B41F28831884202D9032077E64E
:101D000022E03748006A00F002000028EFD012E01D
:101D1000FFF71EFB054608E0FFF71AFB401B41F2E8
:101D20008831884201D9032062E62D48006A00F01C
:101D300002000028F0D1012F05D12948C06920F008
:101D400080502749C86100BFE069C8B32448406893
:101D500000F00C00082860D0E069022848D100207B
:101D600020490866FFF7F4FA054606E0FFF7F0FAA7
:101D7000401B022801D903203AE61948006800F008
:101D800000700028F2D1206AB0F5803F07D11448D6
:101D9000406820F40030A168084311494860D4E944
:101DA000080108430E49496821F4741108430C499D
:101DB000486001200B490866FFF7CAFA054607E0AC
:101DC0003DE0FFF7C5FA401B022801D903200FE6CA
:101DD0000348006800F000700028F2D02FE00000F7
:101DE0000010024000004242800442420070004065
:101DF000002014490866FFF7ABFA054606E0FFF736
:101E0000A7FA401B022801D90320F1E50E4800681B
:101E100000F000700028F2D111E0E069012800D143
:101E2000E6E50948466806F48031206A814204D11B
:101E300006F47011606A814201D00120D8E50020CB
:101E4000D6E50000000042420010024010B50446F2
:101E50000CB9012010BD606A38B96068B0F5827FA6
:101E600000D105E00021E16102E000212161616112
:101E70000021A16294F8510028B9002084F8500094
:101E8000204600F043F8022084F8510020680068E2
:101E900020F0400021680860A08800F48270218949
:101EA00001F404410843A18901F400610843217C45
:101EB00001F002010843217D01F001010843218B5B
:101EC00001F400710843217F01F03801084320210B
:101ED000095D01F080010843218D01F400510843A0
:101EE000216808600421A06901EA10402168486067
:101EF0002068C06920F400602168C8610020606526
:101F0000012084F851000020A4E7000010B586B03D
:101F1000044600200290039004900590194920681F
:101F200088422DD100BF1848806940F4805016497E
:101F300088610846806900F48050019000BF00BFAE
:101F400000BF0846806940F0040088610846806947
:101F500000F00400019000BF00BFA020029002200A
:101F600003900320059002A90848FFF749F8402094
:101F7000029000200390049002A90448FFF740F863
:101F800006B010BD003001400010024000080140C2
:101F90002DE9F84F0446884616461D464FF0000AC4
:101FA00000BF94F85000012802D10220BDE8F88F4C
:101FB000012084F8500000BFFFF7CAF90746B14678
:101FC00094F85100012802D04FF0020AB7E0B8F1AE
:101FD000000F00D016B94FF0010AB0E0032084F8DA
:101FE000510000206065C4F83080A686E686A063B4
:101FF000A087E08760642064A068B0F5004F0BD133
:102000002068006820F040002168086020680068AF
:1020100040F48040216808602068006800F04000BB
:10202000402805D02068006840F040002168086022
:10203000E068B0F5006F32D1606810B1B9F1010FFE
:1020400009D1206B00882168C860206B801C206348
:10205000E08E401EE0861EE02068806800F00200EE
:1020600002280AD1206B00882168C860206B801C80
:102070002063E08E401EE0860DE0FFF769F9C01B8B
:10208000A84201D3681C00B92DB94FF0030A012002
:1020900084F8510053E0E08E0028DDD131E0606823
:1020A00010B1B9F1010F09D1206B007821680873D4
:1020B000206B401C2063E08E401EE0861EE02068FE
:1020C000806800F0020002280AD1206B00782168A5
:1020D0000873206B401C2063E08E401EE0860DE0FC
:1020E000FFF736F9C01BA84201D3681C00B92DB90F
:1020F0004FF0030A012084F8510020E0E08E002810
:10210000DDD13A462946204601F06AFC08B120207C
:102110006065A06850B900BF002000902068C068CA
:10212000009020688068009000BF00BF606D10B113
:102130004FF0010A02E0012084F8510000BF00BF07
:10214000002084F8500000BF50462FE770B50446C9
:102150002546681EB0F1807F01D301200FE0681E84
:102160004FF0E02148610F214FF0FF3001F0C6FF32
:1021700000204FF0E021886107200861002070BD39
:102180007047704730B502460B4600BF92F83C00DE
:10219000012801D1022030BD012082F83C0000BF9F
:1021A000022082F83D00106844681068816824F0BD
:1021B00070041868044310684460104D1068A84209
:1021C0000BD01068B0F1804F07D00D4D1068A842B9
:1021D00003D00C4D1068A84205D121F08001586849
:1021E000014310688160012082F83D0000BF00209B
:1021F00082F83C0000BF00BFCDE70000002C01408A
:10220000000400400008004010B504460CB901204D
:1022100010BD94F83D0028B9002084F83C00204609
:1022200000F026F8022084F83D00211D206801F00E
:10223000E1FC012084F8460000BF84F83E00012143
:102240003F200155402001554120015500BF00BFEE
:10225000012084F8420043200155442001554520C7
:10226000015500BF012084F83D000020D0E70000A8
:1022700038B504462068B0F1804F16D100BF26481B
:10228000C06940F001002449C8610846C06900F0F7
:102290000100009000BF00BF002201211C20FFF7B9
:1022A0002DFA1C20FFF71AFA34E01C4920688842F6
:1022B00016D100BF1848C06940F002001649C86135
:1022C0000846C06900F00200009000BF00BF002275
:1022D00001211D20FFF712FA1D20FFF7FFF919E079
:1022E0000F492068884215D100BF0B48C06940F0F3
:1022F00004000949C8610846C06900F00400009064
:1023000000BF00BF002203211E20FFF7F7F91E20A7
:10231000FFF7E4F938BD000000100240000400405F
:1023200000080040014691F83D00012801D001203D
:102330007047022081F83D000868C06840F0010045
:102340000B68D860124B086898420BD00868B0F14F
:10235000804F07D00F4B0868984203D00E4B086897
:1023600098420CD10868806800F00702062A0CD059
:102370000868006840F001000B68186005E0086814
:10238000006840F001000B6818600020D0E70000F2
:10239000002C014000040040000800402DE9F041FD
:1023A00004460D46002700BF94F83C00012802D1E6
:1023B0000220BDE8F081012084F83C0000BF02202B
:1023C00084F83D002068866826F0770626F47F466C
:1023D000206886602868502833D00CDC202850D034
:1023E00004DC00284BD0102851D149E0302849D0D6
:1023F00040284CD139E060282DD0702807D0B0F5A6
:10240000805F03D0B0F5005F41D10DE041E0D5E938
:1024100002136A68206801F027FC2068866846F08D
:1024200077062068866034E0D5E902136A68206880
:1024300001F01AFC2068806840F4804021688860C0
:1024400027E0EA686968206801F022FC50212068D2
:1024500001F015FC1DE0EA686968206801F02BFCBA
:102460006021206801F00BFC13E0EA6869682068CD
:1024700001F00EFC4021206801F001FC09E000BFE2
:1024800000BF00BF2968206801F0F9FB01E00127C7
:1024900000BF00BF012084F83D0000BF002084F889
:1024A0003C0000BF384684E7704710B504462068FA
:1024B0000069C0F34000D8B12068C068C0F3400094
:1024C000B0B16FF002002168086101202077206818
:1024D000806900F0030018B12046FFF7E5FF05E032
:1024E000204600F0ADF8204600F0ABF80020207741
:1024F00020680069C0F38000D8B12068C068C0F3CC
:102500008000B0B16FF004002168086102202077DC
:102510002068806900F4407018B12046FFF7C4FFBE
:1025200005E0204600F08CF8204600F08AF80020F4
:10253000207720680069C0F3C000D8B12068C06867
:10254000C0F3C000B0B16FF008002168086104203A
:1025500020772068C06900F0030018B12046FFF71B
:10256000A3FF05E0204600F06BF8204600F069F874
:102570000020207720680069C0F30010D8B12068DF
:10258000C068C0F30010B0B16FF01000216808619E
:10259000082020772068C06900F4407018B12046F8
:1025A000FFF782FF05E0204600F04AF8204600F0E1
:1025B00048F8002020772068006900F0010058B139
:1025C0002068C06800F0010030B16FF001002168A0
:1025D0000861204600F036F820680069C0F3C0109A
:1025E00058B12068C068C0F3C01030B16FF08000EF
:1025F000216808612046FFF7C3FD20680069C0F329
:10260000801058B12068C068C0F3801030B16FF0FE
:10261000400021680861204600F0E0F82068006969
:10262000C0F3401058B12068C068C0F3401030B10A
:102630006FF02000216808612046FFF7A2FD10BD61
:10264000704770472DE9F0470446504884426DD1E9
:102650004F480078022803D101034E48FEF768FE78
:102660004D480078401CC0B24B490870032876D111
:102670000020087049480078B0B14948FEF77DFB5A
:1026800047480078FDF7B9FE46490860464800789B
:1026900050B143480078FDF7B0FE0546294643484F
:1026A00000F04CFE3F49086041480078D0B102F08C
:1026B000DEF98146FDF7A6FE074600223D4BFDF7F9
:1026C00024FE0546FDF7EBFE3B49086036480078DE
:1026D00040B108460168394800F0B3FB374800684C
:1026E0003549086036480078A0B1FEF7C5FB35498A
:1026F00008802D48007868B108460088FDF77DFE07
:1027000006463146304800F05BFE0546FDF787FE81
:102710002C4908802A48007828B12548007810B153
:102720001E48007818B901201949087017E0274998
:102730001C480068FDF7D0FE0AD322480088B0F597
:102740007A7F05DC22491C480068FDF7C5FE03D2EC
:1027500002200F49087002E000200D4908701D4852
:10276000844211D10A480078012803D14103094865
:10277000FEF7DEFD18480078401CC0B2164908700C
:10278000022801D100200870BDE8F0876C0300200A
:102790002100002000100140200000200E00002039
:1027A0000000002004000020220000203C00002047
:1027B0000F00002000003040080000200801002029
:1027C000100000200C0000202401002000008C429A
:1027D0000000D841240300201F00002070477047EC
:1027E000704700002DE9F84F04462068056820680E
:1027F000C668206847694FF00009CA4605F00F090E
:10280000B9F1000F0AD105F0200038B106F0200020
:1028100020B1204601F0B3FABDE8F88FB9F1000FFE
:102820007BD007F0010018B906F49070002874D02E
:1028300005F0010030B106F4807018B1606C40F012
:102840000100606405F0040030B107F0010018B128
:10285000606C40F00200606405F0020030B107F0E7
:10286000010018B1606C40F00400606405F00800DD
:1028700048B106F0200010B907F0010018B1606CF3
:1028800040F008006064606C002845D005F020002E
:1028900028B106F0200010B1204601F070FA20683F
:1028A0004069C0F3801A606C00F0080010B9BAF1FA
:1028B000000F2CD0204601F01CFA2068406900F07F
:1028C000400000B300BF00BF2168143151E8001F71
:1028D00021F040002168143141E80002002AF3D1C0
:1028E00000BFE06B50B17748E16B4863E06BFEF7E7
:1028F0001BFB88B1E06B416B88470DE02046FFF77A
:102900006FFF09E009E02046FFF76AFF04E0204678
:10291000FFF766FF002060647EE7206B012877D117
:1029200005F01000002873D006F010000028FAD03F
:1029300000BF002000902068006800902068406878
:10294000009000BF00BF2068406900F040000028F0
:102950005FD0E06B006840681FFA80F8B8F1000FA4
:1029600055D0A08D404552DDA4F82E80E06B8069E3
:10297000202843D000BF00BF21680C3151E8001F60
:1029800021F4807021680C3141E80002002AF3D163
:1029900000BF00BF00BF2168143151E8001F21F0C3
:1029A00001002168143141E80002002AF3D100BF80
:1029B00000BF00BF2168143151E8001F21F0400022
:1029C0002168143141E80002002AF3D100BF202021
:1029D00084F842000020206300BF00BF21680C3152
:1029E00051E8001F21F0100021680C3141E800027D
:1029F000002AF3D100BFE06BFEF76AFA02206063A1
:102A0000A08DE28D801A81B22046FFF7E8FE03E731
:102A100042E0A08DE18D401A1FFA80F8E08DD0B31E
:102A2000B8F1000F37D000BF00BF21680C3151E86A
:102A3000001F21F4907021680C3141E80002002A47
:102A4000F3D100BF00BF00BF2168143151E8001F5F
:102A500021F001002168143141E80002002AF3D17D
:102A600000BF202084F842000020206300BF00BF88
:102A700021680C3151E8001F21F0100021680C3151
:102A800041E80002002AF3D100BF02206063414602
:102A90002046FFF7A4FEBFE605F0800030B106F047
:102AA000800018B1204601F067FAB5E605F0400055
:102AB00030B106F0400018B1204601F050F9ABE605
:102AC00000BFA9E6DF3C000810B504460CB90120A0
:102AD00010BDA06900B100E000BF94F8410028B922
:102AE000002084F84000204600F02AF8242084F8D2
:102AF00041002068C06820F400502168C86020466A
:102B000001F0BCF92068006920F490402168086158
:102B10002068406920F02A00216848612068C06868
:102B200040F400502168C86000206064202084F8D0
:102B3000410084F842000020606300BFC8E7000045
:102B400010B586B0044600200290039004900590D2
:102B50001E492068884236D100BF1D48806940F474
:102B600080401B4988610846806900F480400190DC
:102B700000BF00BF00BF0846806940F004008861C4
:102B80000846806900F00400019000BF00BF4815AE
:102B90000290022003900320059002A90D48FEF741
:102BA0002FFA4FF48060029000200390049002A955
:102BB0000848FEF725FA002202212520FEF79EFD97
:102BC0002520FEF78BFD06B010BD00000038014047
:102BD000001002400008014070472DE9F84F0446FC
:102BE0000E46174699464FF0000A94F841002028F7
:102BF0004AD106B117B90120BDE8F88F0020606402
:102C0000212084F84100FEF7A3FB8246A784E784D5
:102C1000A068B0F5805F04D1206910B90025B046E6
:102C200002E035464FF000081BE0534600228021A9
:102C30002046CDF8009001F0CFF908B10320DBE782
:102C400045B9B8F80000C0F308002168486008F1F1
:102C5000020803E02878216848606D1CE08C401E63
:102C6000E084E08C0028E0D1534600224021204639
:102C7000CDF8009001F0B0F908B10320BCE72020A6
:102C800084F841000020B7E70220B5E7704700BF95
:102C9000FEE770B50825002400F062FE13E0600630
:102CA000040E002000F040FE052001F0A1FE0520EA
:102CB00001F09EFE012000F037FE052001F098FE95
:102CC00000F046FE0443281EA5F10101CDB2E6D175
:102CD00000F02AFE052001F08BFE00F06BFE20467E
:102CE00070BD10B5002000F051FE052001F080FEFF
:102CF000052001F07DFE012000F016FE052001F008
:102D000077FE002000F010FE052001F071FE10BDDE
:102D100070B50446082517E0002000F005FE0520E8
:102D200001F066FE04F0800000F030FE052001F0A6
:102D30005FFE6006040E052001F05AFE012000F03F
:102D4000F3FD052001F054FE281EA5F10101CDB2CE
:102D5000E2D100F0E9FD052001F04AFE70BD10B59A
:102D6000012000F013FE052001F042FE052001F0D5
:102D70003FFE012000F0D8FD052001F039FE0020C3
:102D800000F0D2FD052001F033FE10BD10B501208A
:102D900000F0FCFD052001F02BFE012000F0C4FD39
:102DA000052001F025FE002000F0F0FD052001F0D7
:102DB0001FFE002000F0B8FD052001F019FE10BD37
:102DC00010B5002000F0B0FD052001F011FE00203C
:102DD00000F0DCFD052001F00BFE012000F0A4FD59
:102DE000052001F005FE012000F0D0FD052001F0D6
:102DF000FFFD10BD10B5052400F0B2FD052001F067
:102E0000F7FD012000F090FD052001F0F1FD0BE041
:102E1000601E84B2052001F0EBFD2CB900F0CAFD64
:102E2000FFF7CEFF012010BD00F092FD0028EFD18A
:102E300000F07AFD052001F0DBFD00F0BBFD002075
:102E4000F1E72DE9F04704460D4621686069FDF77A
:102E5000ECF9206061686069FDF7E7F90746616990
:102E6000FDF7E3F90646A168FDF787F96060616840
:102E7000A069FDF7DAF98146A169FDF7D6F90746A1
:102E8000E168FDF77AF90646A1696068FDF7CDF9BA
:102E900080463146FDF7FBF920612168A069FDF706
:102EA000C4F980462946FDF7BDF907462169FDF7BB
:102EB000BCF906462168FDF760F92060A169206928
:102EC000FDF7B3F907464FF07E51FDF7ABF9064623
:102ED0006168FDF7AAF96060BDE8F08770B504ACE1
:102EE00070CC016042608360C4604561866170BDE2
:102EF0002DE9F04104460D4616461F462A2000F0F3
:102F0000F3F9611C88B200F0E0F9711C88B200F09E
:102F1000DCF92B2000F0E8F9A91C88B200F0D5F903
:102F2000B91C88B200F0D1F92C2000F0DDF9BDE821
:102F3000F08170B504460D4616462B4622462946BA
:102F40002046FFF7D5FF304600F0BFF970BD2DE9F0
:102F5000F04706460F4614461D46DDF820A0681EC1
:102F600083B2601E82B239463046FFF7C1FFB846D1
:102F70000EE0B14606E0504600F0A7F909F1010065
:102F80001FFA80F9A145F6DB08F101001FFA80F86D
:102F9000A845EEDBBDE8F08710B5002204217C488F
:102FA000FEF7D0F96420FEF717F8012204217848D3
:102FB000FEF7C8F96420FEF70FF8012202217448D9
:102FC000FEF7C0F96420FEF707F8112000F08CF935
:102FD0007820FEF701F8B12000F086F9022000F019
:102FE0007DF9352000F07AF9362000F077F9B2202B
:102FF00000F07AF9022000F071F9352000F06EF946
:10300000362000F06BF9B32000F06EF9022000F0DA
:1030100065F9352000F062F9362000F05FF90220F2
:1030200000F05CF9352000F059F9362000F056F92F
:10303000B42000F059F9032000F050F9C02000F04E
:1030400053F9A22000F04AF9022000F047F9842049
:1030500000F044F9C12000F047F9C52000F03EF926
:10306000C22000F041F90D2000F038F9002000F0F6
:1030700035F9C32000F038F98D2000F02FF92A200F
:1030800000F02CF9C42000F02FF98D2000F026F973
:10309000EE2000F023F9C52000F026F90A2000F008
:1030A0001DF9362000F020F9782000F017F9E02013
:1030B00000F01AF9122000F011F91C2000F00EF9AE
:1030C000102000F00BF9182000F008F9332000F070
:1030D00005F92C2000F002F9252000F0FFF8282047
:1030E00000F0FCF8282000F0F9F8272000F0F6F8AE
:1030F0002F2000F0F3F83C2000F0F0F8002000F062
:10310000EDF8032000F0EAF8032000F0E7F81020C3
:1031100000F0E4F8E12000F0E7F8122000F0DEF81B
:103120001C2000F0DBF8102000F0D8F8182000F088
:10313000D5F82D2000F0D2F8282000F0CFF8232079
:1031400000F0CCF8282000F0C9F8282000F0C6F8DC
:10315000262000F0C3F82F2000F0C0F83B2000F03C
:10316000BDF8002000F0BAF8032000F0B7F8032003
:1031700000F0B4F8102000F0B1F83A2000F0B4F8F4
:10318000052000F0ABF8292000F0AEF810BD0000DB
:10319000000801402DE9FF4F83B005468A461746D7
:1031A000119CAB46204604EBD071C1F34706304674
:1031B000F11706EB5171C910614389B20191A7F172
:1031C0002000C7B20AEB0400401E83B2A819401EBB
:1031D00082B251462846FFF78BFE4FF000094AE0C5
:1031E000102C06D1264800EB071010F809000290B9
:1031F0000BE0202C06D1234800EB871010F80900C3
:10320000029002E007B0BDE8F08F4FF000082AE01E
:10321000129868B9012000FA08F00299084018B124
:10322000069800F052F81AE0109800F04EF816E0F8
:10323000012000FA08F00299084020B151462846C2
:10324000069AFFF776FE681C85B2A5EB0B00B0422C
:1032500005D15D460AF101001FFA80FA06E008F187
:10326000010000F0FF08B8F1080FD1DB00BF09F141
:1032700001001FFA80F901988145B1DB00BFC1E769
:10328000AE5500089E5B00082DE9FE4F06460F462E
:1032900014469846DDE90D5ADDF8309010E0CDE98E
:1032A000015ACDF800902278434639463046FFF760
:1032B00071FF284605EBD07106EB61018EB2641CEC
:1032C00020780028EBD1BDE8FE8F10B5044620120F
:1032D00000F01CF8E0B200F019F810BD10B504467B
:1032E000204600F013F810BD10B504460022082156
:1032F0000548FEF727F8204600F008F801220821CB
:103300000148FEF71FF810BD0008014001B500227A
:1033100010210848FEF716F84FF47A730122694627
:103320000548FEF735FE012210210248FEF70AF893
:1033300008BD000000080140CC0200202DE9F0414A
:1033400004460D46D4F8C800322808DA54F8C81FDD
:103350002068401C44F8C80944F821500BE00120C3
:1033600005E054F82020411E44F82120401C32285A
:10337000F7DBC4F8C4500027002606E054F82610F6
:103380003846FCF7FAFE0746761CD4F8C800B0426F
:10339000F4DCD4F8C800FDF727F806463146384675
:1033A000FCF775FFBDE8F081002103E0002240F842
:1033B0002120491C3229F9DB0021C0F8C8107047D0
:1033C0002DE9F04FB7B004468946D4F8C80032283A
:1033D00008DA54F8C81F2068401C44F8C80944F8AB
:1033E00021900BE0012005E054F82020411E44F814
:1033F0002120401C3228F7DBC4F8C490002005E0EF
:1034000054F8201004AA42F82010401CD4F8C81028
:103410008142F5DC04AED4F8C8504FF0010817E043
:1034200056F828A0A8F1010705E056F82710781CE7
:1034300046F820107F1E002F05DB56F82700514666
:10344000FDF74AF8F1D3781C46F820A008F10108EE
:10345000A845E5DB284605EBD0714910A5EB4101F5
:10346000F1B9AA4605EBDA72521056F82210AB46B3
:1034700005EBDB725210521E56F82200FCF77DFE5F
:103480000190FCF7F9FF074600224FF08043FCF75C
:103490003CFFCDE90201FDF702F837B0BDE8F08F3F
:1034A000294605EBD170401056F82000F5E70021C1
:1034B00003E0002240F82120491C3229F9DB0021D9
:1034C000C0F8C8107047000000B585B0002001901A
:1034D00002900390049000BF4848806940F01000BB
:1034E000464988610846806900F01000009000BFDE
:1034F00000BF00BF0846806940F020008861084690
:10350000806900F02000009000BF00BF00BF0846A7
:10351000806940F0040088610846806900F004007A
:10352000009000BF00BF00BF0846806940F008005F
:1035300088610846806900F00800009000BF00BF65
:10354000012251032E48FDF7FDFE01221E212D48C8
:10355000FDF7F8FE012203212B48FDF7F3FE0022C0
:103560004FF446712848FDF7EDFE4FF400500190EE
:1035700001200290002003900220049001A920481D
:10358000FDF73EFD4FF440400190002002900220E4
:10359000039001A91A48FDF733FD40F601000190A0
:1035A000002002900220039001A91648FDF728FD93
:1035B0001E2001900120029000200390032004901F
:1035C00001A91048FDF71CFD032001900120029085
:1035D00003900320049001A90B48FDF711FD4FF45F
:1035E0004670019001200290002003900220049078
:1035F00001A90548FDF704FD05B000BD001002401B
:103600000010014000080140000C014010B50B48BB
:103610000B4908600B484860002109488160C1607F
:103620004FF480410161002141618161C16101620A
:10363000FDF794FE08B1FDF71DFC10BD00540040DD
:1036400024020020A086010010B50B480B49086039
:103650000B484860002109488160C1604FF48041F7
:103660000161002141618161C1610162FDF776FE66
:1036700008B1FDF7FFFB10BD0058004078020020A4
:10368000A086010000B585B0002001900290039053
:10369000049000BF1D48806940F004001B49886108
:1036A0000846806900F00400009000BF00BF0122BE
:1036B0001E211748FDF746FE1E20019001200290B2
:1036C000002003900320049001A91148FDF798FC05
:1036D0001048114908604FF48270486000210E487C
:1036E0008160C160016141614FF400718161082115
:1036F000C16100210162416281620A21C162FEF75B
:10370000A5FB08B1FDF7B6FB05B000BD00100240F7
:103710000008014000300140CC02002000B587B015
:1037200000200390049005900690019002904FF0C5
:1037300080401549086041F61F404860002112484A
:10374000816041F28731C160002101618021816186
:10375000FEF75AFD08B1FDF78DFB4FF48050039042
:1037600003A90948FEF71AFE08B1FDF783FB002004
:103770000190029001A90448FEF704FD08B1FDF78D
:1037800079FB07B000BD00002403002000B587B01E
:103790000020039004900590069001900290154837
:1037A0001549086041F61F404860002112488160B9
:1037B00040F2E731C1600021016180218161FEF7A3
:1037C00023FD08B1FDF756FB4FF48050039003A989
:1037D0000948FEF7E3FD08B1FDF74CFB002001901E
:1037E000029001A90448FEF7CDFC08B1FDF742FBA9
:1037F00007B000BD000400406C03002000B587B096
:1038000000200390049005900690019002901548C6
:10381000154908604720486000211348816040F244
:10382000E731C1600021016180218161FEF7ECFC7C
:1038300008B1FDF71FFB4FF48050039003A90A481D
:10384000FEF7ACFD08B1FDF715FB002001900290DA
:1038500001A90548FEF796FC08B1FDF70BFB07B080
:1038600000BD000000080040B403002010B50B4864
:103870000B4908604FF416504860002108488160E9
:10388000C16001610C21416100218161C161FFF7CB
:103890001BF908B1FDF7EEFA10BD00000038014039
:1038A000FC03002000BFFEE77047704708B50849D9
:1038B0000968C9084FF47A72B1FBF2F141430091F3
:1038C00000BF00BF00994A1E00920029F9D108BD2F
:1038D0003400002070B504460E461546FFF756FA30
:1038E000A020FFF715FAFFF785FAF0B2FFF710FAFC
:1038F000FFF780FAFFF74AFAA120FFF709FAFFF76E
:1039000079FA09E0FFF7C5F904F8010B15B1FFF7E3
:10391000E8F901E0FFF723FA281EA5F10101CDB275
:10392000F0D1FFF74DFA70BD30B10849096841F098
:103930004001064A116007E00449091D096841F089
:103940004001024A121D116070470000100C014036
:1039500010B580210148FDF7E3FC10BD000C0140CB
:103960001FB50020009001900290039080200090ED
:103970000020019001200290032003906946024834
:10398000FDF73EFB1FBD0000000C014030B10849AF
:10399000096841F08001064A116007E00449091DE9
:1039A000096841F08001024A121D11607047000051
:1039B000100C01401FB50020009001900290039070
:1039C000802000901120019000200290032003909D
:1039D00069460248FDF714FB1FBD0000000C0140C2
:1039E000F8B504460D4616462B4600228021204697
:1039F000009600F009F828B1606D40F02000606585
:103A00000320F8BD0020FCE72DE9F84F04460D46E1
:103A100090461E46DDF82890FDF79AFCA0EB0900C1
:103A2000371AFDF795FC82462C480068C0F3CB306E
:103A30007843009045E0701C002842D0FDF788FCD8
:103A4000A0EB0A00B84200D2A7BB2068406820F073
:103A5000E000216848606068B0F5827F0DD1A06801
:103A6000B0F5004F03D0A068B0F5806F05D1206895
:103A7000006820F0400021680860A06AB0F5005F8F
:103A80000DD100BF2068006820F400502168086054
:103A90002068006840F400502168086000BF0120E1
:103AA00084F8510000BF002084F8500000BF0320BC
:103AB000BDE8F88FFFE7009800B900270098401E86
:103AC0000090206880682840A84201D1012000E0D1
:103AD00000204045AFD10020EAE70000340000207C
:103AE000704710B50446FDF743F84620FDF710F87F
:103AF0002046FDF70DF8FDF75BF810BD10B5FDF79A
:103B00007DFD10BD00B58FB0282105A8FCF723FB73
:103B100014216846FCF71FFB012005900004069065
:103B2000002007900120099002200C90C1030D9104
:103B30004FF4E0110E9105A8FDF756FF08B1FDF70F
:103B400099F90F20009002200190002002904FF47C
:103B5000806003900020049002216846FDF720FE5B
:103B600008B1FDF787F90FB000BD000011480068EB
:103B700040F001000F490860084640680E490840BF
:103B80000C494860084600680C490840094908602B
:103B90000846006820F4802008600846406820F449
:103BA000FE0048604FF41F008860C80304490860A5
:103BB00070470000001002400000FFF8FFFFF6FE13
:103BC00008ED00E010B50248FEF76FFC10BD0000E4
:103BD0002403002010B50248FEF767FC10BD00006A
:103BE0006C03002010B50248FEF75FFC10BD00001A
:103BF000B403002010B50268184B984208D0B0F109
:103C0000804F05D0164B984202D0164B984203D1F4
:103C100022F070024B681A43104B984208D0B0F162
:103C2000804F05D00E4B984202D00E4B984203D1E4
:103C300022F44072CB681A4322F080034C6943EAB5
:103C4000040202608B68C3620B688362034B984274
:103C500001D10B6903630123436110BD002C0140B6
:103C6000000400400008004030B50C46816821F493
:103C70007F4142EA032525432943816030BD0A463E
:103C8000816821F0700142F0070319438160704799
:103C900030B50B461446026A056A25F00105056237
:103CA000816921F0F00141EA041122F00A021A436D
:103CB0008161026230BD30B50B461446026A056A66
:103CC00025F010050562816921F4704141EA043153
:103CD00022F0A00242EA03128161026230BD70B597
:103CE00005466C6A0020E085E0842046FEF778FDFA
:103CF00070BD00BF00BF02680C3252E8002F22F4F2
:103D0000907102680C3242E80013002BF3D100BF1F
:103D100000BF00BF0268143252E8002F22F00101F8
:103D20000268143242E80013002BF3D100BF016B8C
:103D300001290ED100BF00BF02680C3252E8002FEB
:103D400022F0100102680C3242E80013002BF3D17C
:103D500000BF202180F8421000210163704710B598
:103D600004462068C06820F040002168C860202018
:103D700084F841002046FEF789FF002010BDF8B509
:103D8000044694F84200222875D1A068B0F5805FFF
:103D90000CD1206950B90025A66A20684068C0F39C
:103DA00008003080A06A801CA06215E0A56A002689
:103DB000A068B0F5805F03D0A06828B9206918B961
:103DC00020684068287004E02068406800F07F00A8
:103DD0002870A06A401CA062E08D401E80B2E08581
:103DE000002846D12068C06820F020002168C86003
:103DF0002068C06820F480702168C860206840692D
:103E000020F0010021684861202084F84200002051
:103E10006063206B012826D10020206300BF00BF13
:103E200021680C3151E8001F21F0100021680C318D
:103E300041E80002002AF3D100BF2068006800F0CA
:103E4000100010280AD100BF0020009020680068F0
:103E5000009020684068009000BF00BFA18D204600
:103E6000FEF7BDFC02E02046FEF7B6FE0020F8BDDE
:103E700001E00020FBE70220F9E7000070B50446EE
:103E80002168096921F44051E268114322681161F7
:103E90002269A1681143626941EA02052168C96883
:103EA00041F20C62914329432268D160216849693B
:103EB00021F44071A2691143226851612D4A2168A1
:103EC000914202D1FDF748FD01E0FDF735FD00EB21
:103ED000C00101EB001162689200B1FBF2F100EB4E
:103EE000C00202EB001263689B00B2FBF3F2642392
:103EF000B2FBF3F202EBC20303EB0212A1EB82016D
:103F0000322202EB01116422B1FBF2F101F0F00167
:103F100000EBC00202EB001263689B00B2FBF3F2FD
:103F20006423B2FBF3F201EB021200EBC00101EBE0
:103F3000001163689B00B1FBF3F100EBC00303EBDE
:103F400000136668B600B3FBF6F36426B3FBF6F322
:103F500003EBC30606EB0313A1EB8301322303EB50
:103F600001116423B1FBF3F101F00F011144226848
:103F7000916070BD00380140014691F84100212850
:103F800028D18868B0F5805F0BD1086948B90A6A02
:103F90001088C0F308000B685860086A801C08622B
:103FA00005E00B6A581C086218780B685860C88CCA
:103FB000401E80B2C88458B90868C06820F08000EC
:103FC0000B68D8600868C06840F040000B68D86093
:103FD000002070470220FCE72DE9F04104460D4621
:103FE00017469846069E34E0701C88B32EB1FDF744
:103FF000AFF9A0EB0800B0422BD900BF00BF216889
:104000000C3151E8001F21F4D07021680C3141E8D7
:104010000002002AF3D100BF00BF00BF21681431A5
:1040200051E8001F21F001002168143141E800022D
:10403000002AF3D100BF202084F8410084F8420018
:1040400000BF002084F8400000BF0320BDE8F081DD
:10405000FFE7206800682840A84201D1012000E065
:104060000020B842C0D00020F0E7000010B50248A0
:10407000FEF7B8FB10BD0000FC03002000BFFEE708
:1040800070B504460D461646FEF780FEA020FEF7EA
:104090003FFEFEF7AFFEE8B2FEF73AFEFEF7AAFEDD
:1040A00005E014F8010BFEF733FEFEF7A3FE301E09
:1040B000A6F10101CEB2F4D1FEF782FE322000F06B
:1040C00097FC70BD0FB4084B10B504A902AA039861
:1040D00000F0FAF8044602A9002000F078FC20461F
:1040E00010BC5DF814FB0000CF49000802480068CE
:1040F000C0F30220704700000CED00E010B500286E
:1041000004DB0A07130E054A135406E00A07140ECF
:10411000034A00F00F031B1FD45410BD00E400E05D
:1041200018ED00E002E008C8121F08C1002AFAD109
:1041300070477047002001E001C1121F002AFBD127
:10414000704700002DE9FF5F82B00021DDE90430F7
:10415000020DDDF840B0034318D044F61050A2F22F
:10416000FF3242431514119801281FD0A5EB0B0014
:10417000401C5FEA000A4FF000064E4FDFF838910E
:10418000B046504615D5CAF1000413E01198012439
:104190004AA3012801D16FEA0B010298119AC0E9E4
:1041A0000031C0E9024206B0BDE8F09FCBF100004B
:1041B000DFE704460021404A491842EB0450CDE9AC
:1041C000001012E0E00707D032463B464046494621
:1041D000FCF70EFB8046894632463B4610461946A0
:1041E000FCF706FB06460F466410002CEAD1DDE919
:1041F0000401DDE90023BAF1000F06DAFCF7F8FA52
:1042000042464B46FCF7F4FA05E0FCF77EF84246DE
:104210004B46FCF77AF804460E460022284BFCF782
:1042200071FB03D84FF0FF30014607E00022254B19
:1042300020463146FCF735FAFCF74CFB102409E028
:10424000002C0ADB0A220023FCF766F9039B3032BC
:104250001A55641E50EA0102F2D1641C039AC4F19B
:1042600011031444119A012A03D0012208430DD1ED
:104270000AE0084304D000204FF0110B119072E7C0
:10428000A3EB0B056D1E0DE05B4504DD4FF0000256
:1042900005F1010504E003DA4FF00002A5F1010584
:1042A000002AECD002981199C0E90231C0E900451A
:1042B00079E70000000014400000F03F30000000EB
:1042C0000000F0430000E03F2DE9FF4F95B09A4613
:1042D000884606460025EEE1252877D100242746AA
:1042E000F94A0121039400E0044316F8013F203B02
:1042F00001FA03F01042F7D130782A2811D06FF07C
:104300002F033078A0F13002092A16D8039A44F01E
:10431000020402EB820203EB42021044761C03907B
:10432000EFE758F8042B0392002A03DA504244F4D2
:104330000054039044F00204761C30782E2816D1E5
:1043400016F8010F44F004042A280DD06FF02F0254
:104350003078A0F13003092B09D807EB870302EB73
:104360004303C718761CF3E758F8047B761C3078B3
:104370006C280FD006DC4C2817D068280DD06A288E
:1043800014D104E0742810D07A280FD10DE044F441
:1043900000140AE044F4801401E044F440147278FC
:1043A000824202D104F58014761C761C307866288F
:1043B0000BD013DC582877D009DC002875D04528AD
:1043C000F6D04628F4D047281AD193E118E06328A4
:1043D00035D0642879D0652812D18BE1702873D04C
:1043E00008DC6728F1D069286FD06E280DD06F28BF
:1043F00006D1ACE073282CD0752874D0782853D01F
:104400005246179990476D1C54E1C4F3025002289C
:1044100009D003280DD0D8F8001004280DD00D6065
:1044200008F1040846E1D8F80010EA17C1E9005283
:10443000F6E7D8F800100D80F2E70D70F0E718F8F5
:10444000041B8DF8001000208DF80100EB460120C0
:1044500003E058F804BB4FF0FF3061074FF0000154
:1044600002D40DE009F101018946B9420FDA814514
:10447000F8DB1BF809100029F4D108E009F101016B
:1044800089468142FADB1BF809100029F6D103980E
:104490005346A0EB090721463846179A00F080FAE8
:1044A000284400EB090507E044E008E10DE01BF8B3
:1044B000010B524617999047B9F10109F7D25346BB
:1044C00021463846179AF2E039E00A21C4F3025235
:1044D0004FF0000B0091022A06D058F8040BC117C8
:1044E000032A09D00AE023E008F1070020F00702C0
:1044F000F2E80201904605E000B2C117042A01D19A
:1045000040B2C117002906DA0A460021404261EB99
:1045100002012D2202E0220504D52B228DF8042071
:10452000012203E0E20701D02022F7E7914657E09D
:104530000A2100E010214FF0000B00910BE0102148
:104540004FF0000B44F004040827009103E008201A
:104550004FF0000B0090C4F30252022A05D058F825
:10456000040B0021032A08D008E008F1070020F01E
:104570000702F2E80201904603E080B2042A00D16B
:10458000C0B24FF0000922072AD53278702A07D02E
:10459000DDF800C08CF0100C5CEA0B0C05D00EE0CE
:1045A00040228DF80420012208E050EA010306D0E1
:1045B00030238DF804308DF8052002229146009BAF
:1045C00083F0080353EA0B030AD150EA010201D138
:1045D000620705D530228DF804204FF001097F1EB7
:1045E0003278582A04D039A20C920CAA02920BE01D
:1045F0003BA2F9E75B46009AFBF78EFF0C9B9B5CA6
:10460000029A521E0292137050EA0102F2D10298ED
:1046100004A9081A00F1200B600702D524F48034A5
:1046200000E001275F4502DDA7EB0B0000E0002062
:1046300000EB0B01009003984944401A0390E003FB
:1046400006D453462146179A039800F0A9F9054469
:10465000002706E001A85246C05D179990476D1CDF
:104660007F1C4F45F6DBE0030CD553462146179AD5
:10467000039800F095F9054404E03020524617995C
:1046800090476D1C0099481E00900029F5DC08E059
:104690000298029952460078491C02911799904756
:1046A0006D1CBBF10001ABF1010BF1DC5BE100F033
:1046B00065F90544761C307800287FF40DAE19B0FA
:1046C0002846BDE8F08F0000092801003031323360
:1046D000343536373839616263646566000000003E
:1046E0003031323334353637383941424344454628
:1046F00000000000600700D4062708F1070020F042
:104700000700F0E80223804603F0004C5FEA0C004B
:1047100001D097A009E0200501D596A005E0E007AB
:1047200001D095A001E0AFF24C001390307823F057
:10473000004365280CD006DC452809D046281DD04A
:1047400047287FD13BE0662818D067287AD136E029
:104750000021112F01DB112000E0781CCDE90001C0
:1047600004A90CA8FFF7EEFCDDE90D010C9A4FF04F
:10477000000B07F10109109200914EE04FF000404C
:104780000097CDE9011004A90CA8FFF7DBFCDDE9D7
:104790000D020C9B0F994FF0000B91461093009265
:1047A00011B9791C00EB0109B7EB090003D4C0F182
:1047B000FF3B07F10109A9EB0700019042E0012F3F
:1047C00000DA01270021112F01DD112000E0384619
:1047D000CDE9000104A90CA8FFF7B4FCDDE90D0147
:1047E0000C9A00914FF0000BB946109221070FD49C
:1047F000009A4A4503DA914601E0A9F10109B9F1AD
:10480000010F05DD109AA9F10101515C3029F4D0A6
:10481000B84202DA10F1040F03DA0121CDE90110E8
:1048200010E0002803DC8344A9EB000102E0411CF6
:10483000494500DD8946A0EB0B00401C01904FF07C
:1048400000400290200705D40198484502DB4FF054
:10485000FF30019000208DF84B0002980DF14B07BE
:10486000B0F1004F25D002200C902B200D90029823
:1048700000280CDA404202902D200D9007E00A211A
:104880000298FBF733FE3031029007F8011D0C99B6
:10489000481E0C900029F2DC02980028EFD1791E06
:1048A0000D980870307800F0200040F0450007F8BF
:1048B000020D11A8C01BC01D02901398007800B112
:1048C000012000EB0901019801EBE071029801441D
:1048D0000398401A401E0390E00306D45346214635
:1048E000179A039800F05CF805441398007818B103
:1048F0005246179990476D1CE00323D55346214635
:10490000179A039800F04CF805441BE0BBF1000F28
:1049100007DB0098584504DD1098179910F80B0034
:1049200001E0179930205246904701980BF1010B96
:10493000401E05F10105019004D12E205246179921
:1049400090476D1CB9F10001A9F10109DEDC05E019
:1049500017F8010B5246179990476D1C0299481E93
:1049600002900029F4DC53462146179A03989EE6EC
:104970002D0000002B000000200000002DE9F04178
:10498000044600251E461746880404D405E039462F
:104990002020B0476D1C641EF9D52846BDE8F08183
:1049A0002DE9F041044600251E469046C80301D576
:1049B000302700E02027880404D505E0414638462A
:1049C000B0476D1C641EF9D52846BDE8F0810A6821
:1049D000531C0B601070704700BF011EA0F1010056
:1049E000FBD1704700BF011EA0F10100FBD1704751
:1049F000002100E0491C8142FCD3704731E000BF38
:104A000000BF00BF00BF00BF00BF00BF00BF00BFAE
:104A100000BF00BF00BF00BF00BF00BF00BF00BF9E
:104A200000BF00BF00BF00BF00BF00BF00BF00BF8E
:104A300000BF00BF00BF00BF00BF00BF00BF00BF7E
:104A400000BF00BF00BF00BF00BF00BF00BF00BF6E
:104A500000BF00BF00BF00BF00BF00BF00BF00BF5E
:104A600000BF011EA0F1010290B2C8D1704770B51D
:104A700000F062FDCC2000F04CFD442000F049FD28
:104A80004FF4A070FFF7A8FF00F056FDCC2000F017
:104A900040FDBE2000F03DFD00F036FD044600F074
:104AA00033FD054644EA052070BD000010B5002422
:104AB000012208216648FCF745FC002210216448C9
:104AC000FCF740FC00224FF480716148FCF73AFC8F
:104AD00000224FF400715E48FCF734FC4FF4006193
:104AE0005C48FCF71DFC08B1012415E04FF480413F
:104AF0005948FCF715FC08B105240DE04FF40041BE
:104B00005548FCF70DFC08B1092405E00121514886
:104B1000FCF706FC00B10D24002208214C48FCF7EC
:104B200011FC012210214A48FCF70CFC00224FF432
:104B300080714748FCF706FC00224FF4007144489E
:104B4000FCF700FC4FF400614248FCF7E9FB08B1B8
:104B5000022415E04FF480413F48FCF7E1FB08B127
:104B600006240DE04FF400413B48FCF7D9FB08B1A7
:104B70000A2405E001213748FCF7D2FB00B10E24DE
:104B8000002208213248FCF7DDFB002210213048CA
:104B9000FCF7D8FB012211022D48FCF7D3FB0022C1
:104BA0004FF400712A48FCF7CDFB4FF4006129480F
:104BB000FCF7B6FB08B1032415E04FF4804126480A
:104BC000FCF7AEFB08B107240DE04FF4004122488A
:104BD000FCF7A6FB08B10B2405E001211D48FCF7FA
:104BE0009FFB00B10F24002208211948FCF7AAFB03
:104BF000002210211648FCF7A5FB00224FF480711B
:104C00001348FCF79FFB012251021148FCF79AFB65
:104C10004FF400610F48FCF783FB08B1042415E052
:104C20004FF480410C48FCF77BFB08B108240DE0F1
:104C30004FF400410848FCF773FB08B10C2405E071
:104C400001210448FCF76CFB00B11024204610BD84
:104C5000000C014000080140001001400EB5FCF7B7
:104C6000D9FCFEF74FFFFEF70DFDFEF795F94FF665
:104C7000FF7080231A46002100900846FEF767F96E
:104C8000002010214FF6FF720346CDE9002102906B
:104C9000F7A20146FEF7F8FAFEF716FCFEF7B6FC9F
:104CA000FEF7E4FDFEF7D0FCFEF7ECFCFEF736FD68
:104CB000FEF76CFDFEF7A2FDF148FEF775FBF1482B
:104CC000FEF7F5FB4FF07E50EF4ACDE90020EF4BA9
:104CD0000246EF490290EF48FEF700F9EEA1F548D1
:104CE000FFF7F0F9F348FBF741FA84B20F232246AD
:104CF000F049F148FDF771FFFCF780F8FBF74DFE36
:104D0000FCF7A4F8FBF79CFF002010214FF6FF7280
:104D10004FF47843CDE900210290E8A21221FEF77A
:104D2000B3FA002010214FF6FF720346CDE90021AF
:104D30000290E6A22421FEF7A7FA01220A21E74801
:104D4000FFF79EF93220FCF747F901220A21E448D7
:104D5000FEF7C0FD11E001220A21E148FEF7BAFD8D
:104D6000002010214FF6FF724FF47843CDE9002167
:104D70000290DCA23621FEF787FAD9480078D7499D
:104D800009788842E7D1002010214FF6FF724FF4D6
:104D90007843CDE900210290D6A23621FEF774FABD
:104DA0006AE0D7480078D0B9D648FBF7E6FFD54887
:104DB0000078002810DD0120D14908700020102162
:104DC0004FF6FF724FF47843CDE900210290CEA256
:104DD0006C21FEF759FA02E00020C9490870CD485D
:104DE000007820BBFFF743FE8046FBF70BFB06462F
:104DF0000022C94BFBF789FA0446FBF750FBC74971
:104E00000860C749C5480068FBF766FB10D201205F
:104E1000C0490870002010214FF6FF724FF478430C
:104E2000CDE900210290BFA24821FEF72DFA02E051
:104E30000020B8490870BE480078E8B9FCF71CF8B3
:104E4000BC4908800846008842F21071884210DA96
:104E50000120B7490870002010214FF6FF724FF46F
:104E60007843CDE900210290B3A25A21FEF70CFA53
:104E700002E00020AE490870A1480078002890D0D8
:104E8000A448007800288CD0A9480078002888D051
:104E900001220B21AB48FEF71DFDAA48007880F0E7
:104EA0000100A849087001220B21A648FFF7E8F885
:104EB000A449087800EBD0714910A0EB410171B111
:104EC000002010214FF478424FF6FF73CDE9002106
:104ED00002909DA25A216020FEF7D6F90DE0002035
:104EE00010214FF478424FF6FF73CDE90021029074
:104EF00097A25A216020FEF7C7F9002010214FF633
:104F0000FF724FF47843CDE90021029092A27E21F6
:104F1000FEF7BAF940F2DC50FCF75EF89248FDF774
:104F200001FA9248FDF7FEF99148FDF7FBF9FCF70D
:104F30000FFA90490860904908604FF6FF7080238F
:104F40001A46002100900846FEF701F831E2FCF70E
:104F5000FFF988490968401A64284DD9FCF7F8F927
:104F600084490860FFF7A2FD8449087084480078EE
:104F700009784840814909780840824908707F488B
:104F800000787F4908707F480078112832D2DFE826
:104F900000F0310910171E25262728292A2D2E2F2B
:104FA0002B2C30007848007880F00100764908709A
:104FB00021E05F48007880F001005D4908701AE048
:104FC0005448007880F001005249087013E04C48C2
:104FD000007880F001004A4908700CE000BF00BF73
:104FE00000BF00BF07E006E005E004E003E002E0E8
:104FF00001E000E000BF00BFFCF7AAF95E490968C4
:10500000401AB0F5967FA1D9FCF7A2F95A49086079
:105010000846D0F800804B49087800EBD071491061
:10502000A0EB4101002920D0584800684FF47A7164
:10503000B0FBF1F4224656A11E48FFF743F80020CA
:1050400010214FF6FF724FF47843CDE90021029012
:10505000184A0146FEF718F94B480078012805D197
:105060004DA11448FFF72EF89EE0F1E098E0000013
:1050700053797374656D20496E69742E2E2E00006D
:105080003C00002024010020CDCCCC3D6666663F6C
:105090000000C84108010020E4B8B2E58FA3E8BFD2
:1050A0009EE68EA5E68890E58A9FEFBC815C720A39
:1050B00000000000F0010020FC030020537973740D
:1050C000656D20496E6974204F4B21004D6F64203F
:1050D00053656C66746573742E2E2E0023000020B9
:1050E00024000020454550524F4D204572726F728A
:1050F00021000000454550524F4D204F4B210000EC
:105100000E000020000000204448543131204F4B55
:10511000210000000F0000200000304008000020A7
:105120000000204144533138423230204F4B21009F
:10513000100000200C000020424831373530204F4D
:105140004B2100002500002054455354000000006E
:10515000555345520000000053656C6674657374C6
:10516000204F4B2100000000240300206C0300208E
:10517000B403002018000020140000201C000020B0
:105180001E0000201D00002022000020280000201A
:105190005550543A25647300463A5965730000002F
:1051A00084A18648FEF78EFF002010214FF6FF7283
:1051B0004FF47843CDE900210290804A0146502007
:1051C000FEF762F87E48007858B17E480068FBF729
:1051D00053F9044622460B467BA17848FEF772FF3E
:1051E00006E07CA17548FEF76DFF00207549086058
:1051F000002010214FF6FF721F23CDE900210290FD
:105200006E4A5A21FEF740F87448007858B1744845
:105210000068FBF731F9044622460B4671A1674846
:10522000FEF750FF06E072A16448FEF74BFF002036
:105230006B490860002010214FF6FF721F23CDE953
:10524000002102905D4A5A214020FEF71DF843E0FC
:105250005B48007858B15B480068FBF70DF90446DD
:1052600022460B4658A15548FEF72CFF06E059A1EF
:105270005248FEF727FF0020524908600020102105
:105280004FF6FF721F23CDE9002102904B4A1221F5
:10529000FDF7FAFF5148007858B151480068FBF714
:1052A000EBF8044622460B464EA14448FEF70AFF9F
:1052B00006E04FA14148FEF705FF0020484908607D
:1052C000002010214FF6FF721F23CDE9002102902C
:1052D0003A4A3621FDF7D8FF4748007830B14748B1
:1052E000028847A13548FEF7EDFE06E046A13348A7
:1052F000FEF7E8FE00204149088040480088642805
:105300000CDA3E48008848B14FF6FF7050238022E7
:105310006C2100904020FDF71AFE1DE03748008800
:10532000B0F57A7F09DA4FF6FF70502380226C21A6
:1053300000904820FDF70BFE0EE03048008842F256
:105340001071884208DA4FF6FF70502380226C21DA
:1053500000901846FDF7FBFD002010214FF6FF726C
:105360001F23CDE900210290144A6C21FDF78CFF28
:105370001B480068FBF780F804460D46114800689A
:10538000FBF77AF806461D48008832460B4620A1F6
:10539000CDE9004502900948FEF794FE0748FAF768
:1053A000E5FE84B23223224604492048FDF715FC6D
:1053B00000BFCCE5463A4E6F20000000F00100200F
:1053C0000E00002004000020483A25342E316625C6
:1053D00025000000483A4572726F72000F000020ED
:1053E00008000020543A25352E32664300000000A4
:1053F000543A4572726F7200100000200C000020B9
:105400004C3A25644C7800004C3A4572726F720039
:10541000483A25342E3166252520543A25352E323A
:105420006643204C3A25644C780D0A00FC030020AA
:105430001FB5002000900190029003900220009080
:1054400000200190029069460148FBF7D9FD1FBD7D
:10545000000C01401FB500200090019002900390C5
:105460000220009001200190032003900020029070
:1054700069460248FBF7C4FD1FBD0000000C014057
:1054800010B5FBF775FB4720FBF742FB00240EE04D
:10549000FBF7C8FA0A490855032C03D10120FBF792
:1054A00003FB02E00020FBF7FFFA601CC4B2032CF0
:1054B000EEDBFBF77DFB0120FBF7B7FC10BD000026
:1054C0003900002010B50446FFF7C4FF0022022176
:1054D0000C48FBF737FF1020FFF77EFA0CB1FFF7FF
:1054E000A7FF9020FFF778FA02210648FBF718FF84
:1054F00000B900244FF43470FFF76EFAFFF798FFFD
:10550000204610BD000C014010B5FF2000F001F84E
:1055100010BD70B50446082600BF04F00100FFF777
:10552000D1FF054664100DB144F08004701EC0B276
:10553000061EF2D1204670BD10B5FFF78BFF00228A
:1055400002210F48FBF7FEFE4FF4C850FFF744FA64
:10555000FFF76EFF4FF48460FFF73EFA0221084820
:10556000FBF7DEFE04464FF4CF50FFF735FA022179
:105570000348FBF7D5FE00B90124204610BD00000A
:10558000000C014002030405060708090A0B0C0D74
:105590000E0F1010010200000000000000000102C8
:1055A00003040607080900000000010203040000CC
:1055B00000000000000000000000000000000000EB
:1055C000000808080808080800001818000000482B
:1055D0006C24120000000000000000000000000029
:1055E000002424247F1212127F12121200000000E5
:1055F000081C2A2A0A0C1828282A2A1C0808000035
:105600000022251515152A58545454220000000074
:10561000000C1212120A76252911916E0000000664
:10562000060403000000000000000000000000402D
:105630002010100808080808081010204000000278
:1056400004080810101010101008080402000000D0
:10565000000008086B1C1C6B08080000000000001C
:105660000000080808087F0808080800000000007B
:105670000000000000000000000006060403000017
:10568000000000000000FE0000000000000000001C
:1056900000000000000000000000060600000000FE
:1056A000804040202010100808040402020000007E
:1056B00000182442424242424242241800000000A4
:1056C00000080E08080808080808083E0000000046
:1056D000003C4242422020100804427E00000000AC
:1056E000003C4242201820404042221C00000000A2
:1056F00000203028242422227E2020780000000070
:10570000007E0202021A26404042221C00000000D5
:1057100000382402021A26424242241800000000E7
:10572000007E222210100808080808080000000067
:10573000003C4242422418244242423C0000000005
:1057400000182442424264584040241C00000000DB
:1057500000000000181800000000181800000000E9
:10576000000000000008000000000008080400001D
:10577000004020100804020408102040000000002F
:10578000000000007F0000007F000000000000001B
:10579000000204081020402010080402000000004D
:1057A000003C424246402010100018180000000043
:1057B000001C225A555555552D42221C0000000050
:1057C000000808181414243C224242E7000000009C
:1057D000001F2222221E22424242221F00000000FD
:1057E000007C4242010101010142221C0000000034
:1057F000001F2242424242424242221F0000000059
:10580000003F4212121E12120242423F00000000EC
:10581000003F4212121E1212020202070000000094
:10582000003C2222010101712122221C0000000003
:1058300000E7424242427E42424242E7000000000C
:10584000003E0808080808080808083E0000000094
:10585000007C10101010101010101010110F00000C
:10586000007722120A0E0A1212222277000000008C
:1058700000070202020202020202427F0000000050
:105880000077363636362A2A2A2A2A6B000000008C
:1058900000E346464A4A5252526262470000000004
:1058A000001C2241414141414141221C00000000B5
:1058B000003F424242423E02020202070000000054
:1058C000001C2241414141414D53321C6000000007
:1058D000003F4242423E1212222242C70000000014
:1058E000007C4242020418204042423E0000000078
:1058F000007F4908080808080808081C0000000084
:1059000000E74242424242424242423C0000000022
:1059100000E7424222242414141808080000000062
:10592000006B4949494955553622222200000000A2
:1059300000E7422424181818242442E7000000003D
:1059400000772222141408080808081C0000000030
:10595000007E2120101008040442423F000000781D
:10596000080808080808080808080808780000005F
:105970000202040408080810102020204040001EE5
:105980001010101010101010101010101E00003801
:1059900044000000000000000000000000000000C3
:1059A00000000000000000000000000000FF0006F2
:1059B00008000000000000000000000000000000DF
:1059C00000000000003C4278444242FC000000001D
:1059D00000030202021A26424242261A0000000078
:1059E00000000000003844020202443800000000B9
:1059F0000060404040784442424264D800000000C9
:105A000000000000003C427E0202423C0000000018
:105A100000F08808087E08080808083E000000001A
:105A200000000000007C22221C023C42423C00009C
:105A300000030202023A4642424242E700000000EE
:105A4000000C0C00000E08080808083E00000000CA
:105A5000003030000038202020202020221E0000AE
:105A6000000302020272120A1612227700000000DE
:105A7000000E0808080808080808083E0000000092
:105A800000000000007F9292929292B70000000006
:105A900000000000003B4642424242E70000000096
:105AA00000000000003C42424242423C0000000034
:105AB00000000000001B26424242221E0207000096
:105AC00000000000007844424242447840E0000078
:105AD0000000000000774C040404041F00000000D4
