:020000040800F2
:100000002015002005010008592400083F1F0008A2
:10001000552400089D0A0008E92900080000000096
:10002000000000000000000000000000852500081E
:10003000A10A0008000000005B24000887250008D2
:100040001F0100081F0100081F0100081F01000810
:100050001F0100081F0100081F0100081F01000800
:100060001F0100081F0100081F0100081F010008F0
:100070001F0100081F0100081F0100081F010008E0
:100080001F0100081F0100081F0100081F010008D0
:100090001F0100081F0100081F0100081F010008C0
:1000A0001F0100081F0100081F0100081F010008B0
:1000B0001F0100081F0100081F0100081F010008A0
:1000C0001F0100081F0100081F0100081F01000890
:1000D0001F010008D92900081F0100081F0100089E
:1000E0001F0100081F0100081F010008DFF810D0E1
:1000F00000F072FC0048004729340008AFF300808C
:10010000201500200648804706480047FEE7FEE726
:10011000FEE7FEE7FEE7FEE7FEE7FEE7FEE7FEE7B7
:10012000F5250008ED000008202A04DB203A21FA1A
:1001300002F00021704721FA02F3D040C2F1200200
:1001400091400843194670472DE9FE4399461546EC
:100150008846074601AC022942D3002D40D000203A
:100160000290A8F101004FF0FF36009022E000FB62
:10017000057201FB057011464A469047002805DCD0
:1001800054F82600304444F8260013E060682A46FC
:1001900000FB057154F8040C00FB057007E00B78B8
:1001A00090F800C001F801CB00F8013B521E002A74
:1001B000F5D1764254F8040C61688842D7DC4B468E
:1001C0002A463846FFF7C0FF54F8040C4B46A8EB0C
:1001D0000001401C00FB05702A46491EFFF7B4FFD2
:1001E000BDE8FE83D2B201E000F8012B491EFBD22C
:1001F00070470022F6E710B513460A460446194632
:10020000FFF7F0FF204610BD421E12F8013F002B01
:10021000FBD111F8013B02F8013B002BF9D17047EB
:10022000421C10F8011B0029FBD1801A7047F0B462
:1002300080EA0102D40F4200B2EB410F02D2024623
:10024000084611464A0042D0C30DDDB2C1F3C75281
:10025000AD1A202D35DAC1F3160141F4000204B1C4
:100260005242C5F1200602FA06F12A411044B3EBCE
:10027000D05F23D0C4B1012DA0EBC35009DCF0BC8A
:100280004FF0004202EAC352DBB200F5000000F07A
:1002900041BA400000F1807000EBC350A0F18070C3
:1002A00040EAD170490009E0490841EAC071A0EB79
:1002B000C35000F50000400800EBC350F0BC00F054
:1002C00020BA6142012202EB4101001BF6E7F0BCBB
:1002D000704781F00041AAE780F00040A7E780EA7C
:1002E000010210B502F00043400022D04A001FD0A6
:1002F000010E01EB1261C0F35600C2F3560240F446
:10030000000042F40002A0FB022000047F39140424
:1003100000D0401C50EA124001D44000491EC2B235
:100320000C0604EBD010401C4008802A02D003E0E9
:10033000002010BD20F00100002900DA0020184341
:1003400010BD30B480EA010202F0004530F00042F6
:1003500021F0004013D090B1C30DD40DC2F31601AB
:10036000C0F31600E41A41F4000140F400027D34A9
:10037000914201D3641C00E04900002C02DA30BC39
:10038000002070474FF400000023914201D3891AE6
:10039000034340084FEA4101F7D151B1914202D1E4
:1003A0004FF0004105E002D24FF0010101E06FF093
:1003B000010103EBC450284430BC00F0A2B92DE980
:1003C000FE4F81EA030404F0004421F00041009450
:1003D0004FF0000B23F0004350EA01045ED052EAD4
:1003E00003045BD0C3F30A54C1F30A552C44A4F2AE
:1003F000F3340194A0FB0254C1F3130141F48011C2
:10040000C3F3130343F4801301FB024400FB034EC8
:10041000840A970A44EA815447EA8357A4FB076891
:1004200002958D0A05FB07854FEA932C04FB0C54BB
:100430002705029D4FEA065847EA1637B5EB08052F
:100440006EEB070C870E920E47EA811742EA831281
:10045000A7FB0201B6EB0B0164EB00042B0D43EA92
:100460000C335E1844EB1C50DA465146E7FB0201A0
:10047000C5F313044FEA0B3343EA14534FEA043233
:10048000019C43EA0603A4F10C040294009CCDE90C
:1004900000B400F07CF903B0BDE8F08F0020014605
:1004A000F9E72DE9F04D81EA030404F0004B21F057
:1004B000004514464FF0000A23F0004150EA0502BF
:1004C00020D054EA01021DD0C5F30A570246C5F3F5
:1004D0001303C1F31300C1F30A5640F4801543F42B
:1004E0008013A7EB0608101BD64608F2FD3873EB05
:1004F000050002D308F1010801E092185B41B8F150
:10050000000F03DA00200146BDE8F08D00204FF413
:100510008011064684460EE0171B73EB050705D3D2
:10052000121B63EB050306434CEA010C49084FEA32
:10053000300092185B4150EA0107EDD152EA030006
:1005400012D082EA040083EA0501084305D0101B9B
:10055000AB4106D20122002306E000224FF0004307
:1005600002E06FF0010253101AEB06004CEB085149
:1005700010EB0A0041EB0B01BDE8F04D00F0F8B8BC
:10058000C10F80EAE0700844CA079623002100F0FA
:10059000C1B80EB5C10F80EAE0700844CA07002157
:1005A00040F233438DE80E000A460B4600F0EFF8A8
:1005B00003B000BD00F0004220F00040C10DC0F3C8
:1005C000160040F400007F2901DA002070479629C8
:1005D00003DCC1F19601C84001E096398840002A49
:1005E000F4D04042704700F0004230F000400AD0A2
:1005F000C10D01F56071C0F3160042EA0151C20855
:1006000040071143704700200146704730B5041E73
:1006100071F1000404DB4FF00044404264EB01013F
:10062000141E73F1000405DB1C464FF000435242D8
:1006300063EB04038B4208BF824230BD01F00043EC
:1006400030B421F0004150EA010206D00A0DA2F5B3
:100650006072C1F31301002A02DC30BC0020704735
:10066000440F44EAC104C100E01830BC00EBC250A2
:1006700000F047B830B50B46014600202022012487
:1006800009E021FA02F59D4205D303FA02F5491B60
:1006900004FA02F52844151EA2F10102F1DC30BD76
:1006A0002DE9F05F0546002092469B4688460646A7
:1006B000814640241BE02846414647462246FFF734
:1006C00033FD53465A46C01A914110D3114618467D
:1006D000224600F093F92D1A67EB01084F46224697
:1006E0000120002100F08AF917EB00094E41201E7D
:1006F000A4F10104DFDC484631462A464346BDE802
:10070000F09F0029A8BF7047401C490008BF20F097
:100710000100704710B4B0FA80FC00FA0CF050EA07
:10072000010404BF10BC704749B1CCF1200421FA88
:1007300004F411FA0CF118BF012121430843A3EB83
:100740000C01CB1D4FEA00614FEA102042BF002090
:1007500010BC704700EBC35010440029A4BF10BC6C
:100760007047401C490008BF20F0010010BC7047D2
:1007700010B5141E73F1000408DA401C41F10001A9
:1007800092185B411A4301D120F0010010BD2DE900
:10079000F04D92469B4611B1B1FA81F202E0B0FAF7
:1007A00080F22032904600F029F904460F4640EAD4
:1007B0000A0041EA0B0153465A46084313D011463A
:1007C00053EA010019D0C8F140025046FFF7ACFCD3
:1007D00005460E4650465946424600F00FF908437A
:1007E00005D0012004E020463946BDE8F08D002008
:1007F000054346EAE0762C4337430A986305E40A4A
:10080000A0EB08000022FD0A44EA47540A3002D552
:1008100000200146E9E7010510196941DDE90845B5
:1008200000196941BDE8F04DA2E72DE9FE4F804671
:1008300081EA0300C00F0C46009021F0004123F034
:100840000045B8EB0200A94105D24046214690463A
:100850001C460B46024623F00040104347D0270DAC
:10086000C7F30A00C3F30A510290401A01904028CE
:100870006BDAC3F3130040F4801B0098924620B15A
:100880000023D2EB030A63EB0B0B01985946C0F12E
:100890004002504600F0B2F806460D465046594612
:1008A000019A00F0BAF810EB08006141002487EAD1
:1008B000115284EAE7731A4340D0009A62B3019A56
:1008C000012A4FEA075215DC001B61EB02014FF0D1
:1008D000004202EA0752CDE90042001C41F58011B6
:1008E00032462B46FFF753FF03B0BDE8F08F40467A
:1008F0002146F9E7001B61EB0201001C41F5801362
:1009000000185B412018A2F5001747EB030140EAED
:10091000D570B6196D4111E06D084FEA360645EA0B
:10092000C0754FEA0752001B61EB0201001C41F544
:10093000801149084FEA30000019514132462B46D8
:1009400003B0BDE8F04FFFF713BF0098012240004D
:100950000023D0EB020263EBE073009821464FEADC
:10096000E074B8EB000061EB0401E9E783F00043B9
:100970005BE781F0004158E7C1F30A52C1F313016C
:1009800040F2FF3341F480119A4202DA002001461E
:10099000704740F233439A42A2F2334202DC5242A1
:1009A000FFF7C2BB00F02AB830B5041E71F1000495
:1009B00004DB4FF00044404264EB0101141E73F16C
:1009C000000405DB1C464FF00043524263EB040376
:1009D000994208BF904230BD064C074D06E0E068E2
:1009E00040F0010394E8070098471034AC42F6D376
:1009F000FFF780FB9C410008BC410008202A04DB73
:100A0000203A00FA02F1002070479140C2F1200321
:100A100020FA03F3194390407047202A06DBCB17D6
:100A2000203A41FA02F043EAE07306E041FA02F3A9
:100A3000D040C2F12002914008431946704770B57A
:100A40008D1810F8014B14F0030201D110F8012B9E
:100A5000231106D110F8013B03E010F8016B01F8F7
:100A6000016B521EF9D1ABB110F8012B04F00C044C
:100A70008A1A0C2C03D0A2EB84129B1C08E010F8FD
:100A8000014BA2EB0422F8E712F8014B01F8014BED
:100A90005B1EF9D5A942D4D3002070BD00BFFEE78C
:100AA000704770470146002291F82100022808D0C3
:100AB0000420886300BF002081F8200000BF0120CF
:100AC00070470868006820F00E000B68186008681E
:100AD000006820F001000B68186091F84030012098
:100AE0009840CB6B5860012081F8210000BF0020A6
:100AF00081F8200000BF1046E2E7000070B5044610
:100B0000002594F82100022803D00420A0630125C9
:100B100048E02068006820F00E0021680860206826
:100B2000006820F00100216808601F4920688842A1
:100B300001D1012026E01C4914312068884201D1EE
:100B400010201FE0184928312068884201D1801503
:100B500018E015493C312068884201D1801411E029
:100B6000114950312068884202D14FF4803009E0A9
:100B70000D4964312068884202D14FF4801001E0B1
:100B80004FF08070084908394860012084F821003E
:100B900000BF002084F8200000BF606B10B1204629
:100BA000616B8847284670BD0800024070B5044656
:100BB00000F0A6F906462546681C10B104480078E6
:100BC000054400BF00F09CF9801BA842FAD370BD19
:100BD000A40C00202DE9F8470346002294466EE15C
:100BE0004FF0010808FA02F4D1F8008008EA040086
:100BF000A0427DD1DFF8DCA2D1F80480A8EB0A097D
:100C0000D0453AD014DCB8F1030F50D009DCB8F16C
:100C1000000F31D0B8F1010F1CD0B8F1020F49D14B
:100C200020E0B8F1110F18D0B8F1120F42D11EE038
:100C3000B9F5881F25D006DCB9F5803F20D0B9F57D
:100C4000801F37D11AE0B9F5001F18D0B9F5041F7D
:100C500030D117E0D1F80CC02DE0D1F80C8008F1AC
:100C6000040C28E0D1F80C8008F1080C23E0D1F83E
:100C70000C8008F10C0C1EE000BF00BF00BF00BFDD
:100C800000BF00BFD1F80880B8F1000F02D14FF0CB
:100C9000040C0BE0D1F80880B8F1010F03D14FF03C
:100CA000080C1C6102E04FF0080C5C6103E04FF09F
:100CB000000C00E000BF00BFFF2801D8984601E00B
:100CC00003F104084646FF2802D84FEA820803E0F1
:100CD000A2F108084FEA88084746D6F800804FF08E
:100CE0000F0909FA07F928EA09080CFA07F900E0E0
:100CF00088E048EA0908C6F80080D1F8048008F0C6
:100D00008058B8F1805F7DD100BFDFF8CC81D8F882
:100D1000188048F00108DFF8C091C9F81880C8466B
:100D2000D8F8188008F00108CDF8008000BF00BF97
:100D30004FEAB9384FEA920958F829504FEA8278B9
:100D40004FEA18794FF00F0808FA09F825EA080564
:100D5000DFF88881434502D14FF0000816E0DFF844
:100D60008081434502D14FF001080FE0DFF8748124
:100D7000434502D14FF0020808E0DFF86C8143459B
:100D800002D14FF0030801E04FF004084FEA8279E6
:100D90004FEA197908FA09F848EA0505DFF84C81A5
:100DA0004FEA920948F82950D1F8048008F48018D5
:100DB000B8F5801F0AD1DFF83881D8F8008048EAFA
:100DC0000008DFF82C91C9F8008009E0DFF82081E5
:100DD000D8F8008028EA0008DFF81491C9F80080EC
:100DE000D1F8048008F40018B8F5001F10D1DFF81E
:100DF000008108F10408D8F8008048EA0008DFF80C
:100E0000F09000E05AE009F10409C9F800800DE013
:100E1000DFF8DC8008F10408D8F8008028EA000830
:100E2000DFF8CC9009F10409C9F80080D1F80480FA
:100E300008F40038B8F5003F0ED1DFF8B480A8F10F
:100E40000408D8F8008048EA0008DFF8A490A9F167
:100E50000409C9F800800DE0DFF89480A8F10408C7
:100E6000D8F8008028EA0008DFF88490A9F1040986
:100E7000C9F80080D1F8048008F48038B8F5803FC4
:100E80000ED1DFF86C80A8F10808D8F8008048EA95
:100E90000008DFF85C90A9F10809C9F800800DE0AE
:100EA000DFF84C80A8F10808D8F8008028EA00088C
:100EB000DFF83C90A9F10809C9F80080521CD1F86C
:100EC000008028FA02F8B8F1000F7FF489AEBDE87F
:100ED000F8870000000011100010024000080140D7
:100EE000000C0140001001400014014008000140C6
:100EF000080401400AB1016101E00B04036170477D
:100F000001480068704700009C0C002003480068FE
:100F10000349097808440149086070479C0C002087
:100F2000A40C002010B50848006840F010000649E5
:100F30000860032000F0A8F8002000F007F800F097
:100F40002BF8002010BD00000020024070B50446C0
:100F50000E4800784FF47A71B1FBF0F00C49096843
:100F6000B1FBF0F5284600F079FD08B1012070BD15
:100F7000102C07D200222146501E00F047F80548E9
:100F8000046001E00120F2E70020F0E7A40C00205B
:100F9000A80C0020A00C002008B500BF11488069F3
:100FA00040F001000F4988610846806900F00100A7
:100FB000009000BF00BF00BF0846C06940F08050ED
:100FC000C8610846C06900F08050009000BF00BFB3
:100FD00000BF0549486820F0E06040F000704860BC
:100FE00000BF08BD00100240000001400146084655
:100FF000002809DB00F01F0301229A4043099B00EF
:1010000003F1E023C3F8002100BF70472DE9F05F32
:1010100080460D461646002701F0FCFC074639467F
:101020002A46334601F00700C0F1070ABAF1040F5F
:1010300002D94FF0040A01E0C0F1070AD14600F1DD
:10104000040ABAF1070F02D24FF0000A01E0A0F142
:10105000030AD4464FF0010A0AFA09FAAAF1010A72
:101060000AEA020A0AFA0CFA4FF0010B0BFA0CFB1F
:10107000ABF1010B0BEA030B4AEA0B042146404695
:1010800001F0D0FCBDE8F09F00BF00F00702064B66
:1010900019684FF6FF031940044B0B4343EA022142
:1010A000014B196000BF70470CED00E00000FA052D
:1010B00070B504460D460CB9012070BD5A48006851
:1010C00000F00700A8420ED25748006820F0070041
:1010D0002843554908600846006800F00700A84208
:1010E00001D00120E9E7207800F0020002281DD19C
:1010F000207800F00400042805D14C48406840F4F2
:10110000E0604A494860207800F00800082805D1CE
:101110004648406840F4605044494860434840684D
:1011200020F0F000A168084340494860207800F0B2
:10113000010078B36068012806D13C48006800F4DB
:10114000003090B90120B8E76068022806D137481E
:10115000006800F0007040B90120AEE73348006835
:1011600000F0020008B90120A7E73048406820F0ED
:101170000300616808432D494860FFF7C1FE064639
:1011800009E0FFF7BDFE801B41F28831884202D999
:10119000032092E707E02548406800F00C006168F2
:1011A000B0EB810FEDD12048006800F00700A842A5
:1011B0000ED91D48006820F0070028431A4908602E
:1011C0000846006800F00700A84201D0012074E73B
:1011D000207800F00400042807D11448406820F467
:1011E000E060E168084311494860207800F0080099
:1011F000082808D10D48406820F46050216940EA71
:10120000C1000A49486000F03FF808494968C1F345
:101210000311074A515CC840064908600648006847
:10122000FFF794FE002048E7002002400010024033
:1012300082410008A80C0020A00C00200148006892
:1012400070470000A80C002000B5FFF7F7FF044925
:101250004968C1F30221034A515CC84000BD000047
:10126000001002409241000800B5FFF7E7FF044973
:101270004968C1F3C221034A515CC84000BD000067
:10128000001002409241000870B5002100220024A5
:1012900000230020134D696801F00C05F5B1042D01
:1012A00002D0082D19D101E00F4819E00F4DC1F30C
:1012B0008346AB5D01F4803555B10A4D6D68C5F3C9
:1012C00040450B4E725D084D5D43B5FBF2F402E004
:1012D000084D03FB05F4204602E000BF024800BFB2
:1012E00000BF70BD0010024000127A00704100087B
:1012F0008041000800093D00F8B504460CB9012002
:10130000F8BD207800F00100002878D0F848406847
:1013100000F00C0004280CD0F548406800F00C00E8
:10132000082811D1F248406800F48030B0F5803FC1
:101330000AD1EF48006800F4003000285FD06068F0
:1013400000285CD10120DBE700BF6068B0F5803F7A
:1013500006D1E748006840F48030E549086028E09D
:10136000606858B9E248006820F48030E0490860BD
:101370000846006820F4802008601AE06068B0F534
:10138000A02F0BD1DA48006840F48020D8490860CB
:101390000846006840F4803008600AE0D4480068DD
:1013A00020F48030D24908600846006820F480208C
:1013B000086000BF606888B1FFF7A2FD054606E03F
:1013C000FFF79EFD401B642801D9032098E7C84819
:1013D000006800F400300028F2D010E0FFF790FD24
:1013E000054606E0FFF78CFD401B642801D9032069
:1013F00086E7BF48006800F400300028F2D120786A
:1014000000F00200022857D1B948406800F00C00F3
:1014100050B1B748406800F00C00082818D1B44813
:10142000406800F4803098B9B148006800F00200CC
:1014300020B12069012801D0012061E7AC48006893
:1014400020F0F800616940EAC100A949086033E072
:101450002069E8B10120A7490860FFF751FD054662
:1014600006E0FFF74DFD401B022801D9032047E7A6
:101470009F48006800F002000028F2D09C480068F5
:1014800020F0F800616940EAC1009949086013E062
:10149000002098490860FFF733FD054606E0FFF796
:1014A0002FFD401B022801D9032029E7904800683E
:1014B00000F002000028F2D1207800F0080008288F
:1014C0002DD1A069B8B101208B490860FFF718FD44
:1014D000054606E0FFF714FD401B022801D9032052
:1014E0000EE78348406A00F002000028F2D0012095
:1014F00000F0B4FF13E000207F490860FFF700FD13
:10150000054606E0FFF7FCFC401B022801D903203A
:10151000F6E67748406A00F002000028F2D1207811
:1015200000F00400042873D100277148C06900F05E
:10153000805070B900BF6E48C06940F080506C495F
:10154000C8610846C06900F08050009000BF00BF2D
:1015500001276A48006800F48070B0B967480068E5
:1015600040F4807065490860FFF7CAFC054606E054
:10157000FFF7C6FC401B642801D90320C0E65F4882
:10158000006800F480700028F2D000BFE0680128F5
:1015900006D15748006A40F001005549086227E02B
:1015A000E06858B95248006A20F0010050490862CA
:1015B0000846006A20F00400086219E0E068052887
:1015C0000BD14B48006A40F00400494908620846C4
:1015D000006A40F0010008620AE04548006A20F015
:1015E0000100434908620846006A20F004000862CE
:1015F00000BFE068A0B1FFF783FC054609E0FFF7F4
:101600007FFC401B41F28831884202D9032077E6F3
:1016100022E03748006A00F002000028EFD012E014
:10162000FFF76EFC054608E0FFF76AFC401B41F23D
:101630008831884201D9032062E62D48006A00F013
:1016400002000028F0D1012F05D12948C06920F0FF
:1016500080502749C86100BFE069C8B3244840688A
:1016600000F00C00082860D0E069022848D1002072
:1016700020490866FFF744FC054606E0FFF740FCFA
:10168000401B022801D903203AE61948006800F0FF
:1016900000700028F2D1206AB0F5803F07D11448CD
:1016A000406820F40030A168084311494860D4E93B
:1016B000080108430E49496821F4741108430C4994
:1016C000486001200B490866FFF71AFC054607E051
:1016D0003DE0FFF715FC401B022801D903200FE66F
:1016E0000348006800F000700028F2D02FE00000EE
:1016F000001002400000424280044242007000405C
:10170000002014490866FFF7FBFB054606E0FFF7DB
:10171000F7FB401B022801D90320F1E50E480068C1
:1017200000F000700028F2D111E0E069012800D13A
:10173000E6E50948466806F48031206A814204D112
:1017400006F47011606A814201D00120D8E50020C2
:10175000D6E50000000042420010024010B50446E9
:101760000CB9012010BD606A38B96068B0F5827F9D
:1017700000D105E00021E16102E000212161616109
:101780000021A16294F8510028B9002084F850008B
:10179000204600F043F8022084F8510020680068D9
:1017A00020F0400021680860A08800F48270218940
:1017B00001F404410843A18901F400610843217C3C
:1017C00001F002010843217D01F001010843218B52
:1017D00001F400710843217F01F038010843202102
:1017E000095D01F080010843218D01F40051084397
:1017F000216808600421A06901EA1040216848605E
:101800002068C06920F400602168C861002060651C
:10181000012084F851000020A4E7000010B586B034
:101820000446002002900390049005901949206816
:1018300088422DD100BF1848806940F48050164975
:1018400088610846806900F48050019000BF00BFA5
:1018500000BF0846806940F004008861084680693E
:1018600000F00400019000BF00BFA0200290022001
:1018700003900320059002A90848FFF7ABF9402028
:10188000029000200390049002A90448FFF7A2F9F7
:1018900006B010BD003001400010024000080140B9
:1018A0002DE9F84F0446884616461D464FF0000ABB
:1018B00000BF94F85000012802D10220BDE8F88F43
:1018C000012084F8500000BFFFF71AFB0746B1461D
:1018D00094F85100012802D04FF0020AB7E0B8F1A5
:1018E000000F00D016B94FF0010AB0E0032084F8D1
:1018F000510000206065C4F83080A686E686A063AB
:10190000A087E08760642064A068B0F5004F0BD129
:101910002068006820F040002168086020680068A6
:1019200040F48040216808602068006800F04000B2
:10193000402805D02068006840F040002168086019
:10194000E068B0F5006F32D1606810B1B9F1010FF5
:1019500009D1206B00882168C860206B801C20633F
:10196000E08E401EE0861EE02068806800F00200E5
:1019700002280AD1206B00882168C860206B801C77
:101980002063E08E401EE0860DE0FFF7B9FAC01B31
:10199000A84201D3681C00B92DB94FF0030A0120F9
:1019A00084F8510053E0E08E0028DDD131E060681A
:1019B00010B1B9F1010F09D1206B007821680873CB
:1019C000206B401C2063E08E401EE0861EE02068F5
:1019D000806800F0020002280AD1206B007821689C
:1019E0000873206B401C2063E08E401EE0860DE0F3
:1019F000FFF786FAC01BA84201D3681C00B92DB9B5
:101A00004FF0030A012084F8510020E0E08E002806
:101A1000DDD13A462946204600F034FD08B12020A9
:101A20006065A06850B900BF002000902068C068C1
:101A3000009020688068009000BF00BF606D10B10A
:101A40004FF0010A02E0012084F8510000BF00BFFE
:101A5000002084F8500000BF50462FE770B50446C0
:101A60002546681EB0F1807F01D301200FE0681E7B
:101A70004FF0E02148610F214FF0FF3000F0D2FF1E
:101A800000204FF0E021886107200861002070BD30
:101A9000704770472DE9F84F0446206805682068B4
:101AA000C668206847694FF00009CA4605F00F096B
:101AB000B9F1000F0AD105F0200038B106F020007E
:101AC00020B1204600F012FEBDE8F88FB9F1000FFA
:101AD0007BD007F0010018B906F49070002874D08C
:101AE00005F0010030B106F4807018B1606C40F070
:101AF0000100606405F0040030B107F0010018B186
:101B0000606C40F00200606405F0020030B107F044
:101B1000010018B1606C40F00400606405F008003A
:101B200048B106F0200010B907F0010018B1606C50
:101B300040F008006064606C002845D005F020008B
:101B400028B106F0200010B1204600F0CFFD20683B
:101B50004069C0F3801A606C00F0080010B9BAF157
:101B6000000F2CD0204600F07BFD2068406900F07B
:101B7000400000B300BF00BF2168143151E8001FCE
:101B800021F040002168143141E80002002AF3D11D
:101B900000BFE06B50B17748E16B4863E06BFEF744
:101BA000ADFF88B1E06B416B88470DE02046FFF741
:101BB00070FF09E009E02046FFF76BFF04E02046D4
:101BC000FFF767FF002060647EE7206B012877D174
:101BD00005F01000002873D006F010000028FAD09D
:101BE00000BF0020009020680068009020684068D6
:101BF000009000BF00BF2068406900F0400000284E
:101C00005FD0E06B006840681FFA80F8B8F1000F01
:101C100055D0A08D404552DDA4F82E80E06B806940
:101C2000202843D000BF00BF21680C3151E8001FBD
:101C300021F4807021680C3141E80002002AF3D1C0
:101C400000BF00BF00BF2168143151E8001F21F020
:101C500001002168143141E80002002AF3D100BFDD
:101C600000BF00BF2168143151E8001F21F040007F
:101C70002168143141E80002002AF3D100BF20207E
:101C800084F842000020206300BF00BF21680C31AF
:101C900051E8001F21F0100021680C3141E80002DA
:101CA000002AF3D100BFE06BFEF7FCFE0220606368
:101CB000A08DE28D801A81B22046FFF7E9FE03E78E
:101CC00042E0A08DE18D401A1FFA80F8E08DD0B37C
:101CD000B8F1000F37D000BF00BF21680C3151E8C8
:101CE000001F21F4907021680C3141E80002002AA5
:101CF000F3D100BF00BF00BF2168143151E8001FBD
:101D000021F001002168143141E80002002AF3D1DA
:101D100000BF202084F842000020206300BF00BFE5
:101D200021680C3151E8001F21F0100021680C31AE
:101D300041E80002002AF3D100BF0220606341465F
:101D40002046FFF7A5FEBFE605F0800030B106F0A3
:101D5000800018B1204600F0C5FDB5E605F0400052
:101D600030B106F0400018B1204600F0AFFCABE601
:101D700000BFA9E64D26000810B504460CB90120A5
:101D800010BDA06900B100E000BF94F8410028B97F
:101D9000002084F84000204600F02AF8242084F82F
:101DA00041002068C06820F400502168C8602046C7
:101DB00000F01AFD2068006920F490402168086155
:101DC0002068406920F02A00216848612068C068C6
:101DD00040F400502168C86000206064202084F82E
:101DE000410084F842000020606300BFC8E70000A3
:101DF00010B586B004460020029003900490059030
:101E00001E492068884236D100BF1D48806940F4D1
:101E100080401B4988610846806900F48040019039
:101E200000BF00BF00BF0846806940F00400886121
:101E30000846806900F00400019000BF00BF48150B
:101E40000290022003900320059002A90D48FEF79E
:101E5000C1FE4FF48060029000200390049002A91C
:101E60000848FEF7B7FE002202212520FFF7CEF832
:101E70002520FFF7BBF806B010BD00000038014078
:101E8000001002400008014070472DE9F84F044659
:101E90000E46174699464FF0000A94F84100202854
:101EA0004AD106B117B90120BDE8F88F002060645F
:101EB000212084F84100FFF723F88246A784E784B5
:101EC000A068B0F5805F04D1206910B90025B04644
:101ED00002E035464FF000081BE053460022802107
:101EE0002046CDF8009000F02DFD08B10320DBE77F
:101EF00045B9B8F80000C0F308002168486008F14F
:101F0000020803E02878216848606D1CE08C401EC0
:101F1000E084E08C0028E0D1534600224021204696
:101F2000CDF8009000F00EFD08B10320BCE72020A2
:101F300084F841000020B7E70220B5E7704700BFF2
:101F4000FEE72DE9F04104460D4616461F462A20BD
:101F500000F04CF9611C88B200F038F9711C88B2AD
:101F600000F034F92B2000F041F9A91C88B200F0F0
:101F70002DF9B91C88B200F029F92C2000F036F9AF
:101F8000BDE8F0812DE9F04706460F4614461D4690
:101F9000DDF820A0681E83B2601E82B2394630464A
:101FA000FFF7CFFFB8460EE0B14606E0504600F01E
:101FB0000DF909F101001FFA80F9A145F6DB08F1DE
:101FC00001001FFA80F8A845EEDBBDE8F0870000AD
:101FD00010B5002204217C48FEF78CFF6420FEF738
:101FE000E5FD012204217848FEF784FF6420FEF716
:101FF000DDFD012202217448FEF77CFF6420FEF71C
:10200000D5FD112000F0F2F87820FEF7CFFDB120C9
:1020100000F0ECF8022000F0E2F8352000F0DFF8E4
:10202000362000F0DCF8B22000F0E0F8022000F0EA
:10203000D6F8352000F0D3F8362000F0D0F8B320E1
:1020400000F0D4F8022000F0CAF8352000F0C7F8FC
:10205000362000F0C4F8022000F0C1F8352000F06E
:10206000BEF8362000F0BBF8B42000F0BFF8032023
:1020700000F0B5F8C02000F0B9F8A22000F0AFF8E9
:10208000022000F0ACF8842000F0A9F8C12000F094
:10209000ADF8C52000F0A3F8C22000F0A7F80D208D
:1020A00000F09DF8002000F09AF8C32000F09EF8A0
:1020B0008D2000F094F82A2000F091F8C42000F060
:1020C00095F88D2000F08BF8EE2000F088F8C52000
:1020D00000F08CF80A2000F082F8362000F086F834
:1020E000782000F07CF8E02000F080F8122000F06A
:1020F00076F81C2000F073F8102000F070F818201B
:1021000000F06DF8332000F06AF82C2000F067F83A
:10211000252000F064F8282000F061F8282000F065
:102120005EF8272000F05BF82F2000F058F83C20E4
:1021300000F055F8002000F052F8032000F04FF8AE
:10214000032000F04CF8102000F049F8E12000F0E6
:102150004DF8122000F043F81C2000F040F8102049
:1021600000F03DF8182000F03AF82D2000F037F884
:10217000282000F034F8232000F031F8282000F067
:102180002EF8282000F02BF8262000F028F82F2029
:1021900000F025F83B2000F022F8002000F01FF8A6
:1021A000032000F01CF8032000F019F8102000F0C4
:1021B00016F83A2000F01AF8052000F010F829204F
:1021C00000F014F810BD00000008014010B50446EE
:1021D000201200F01DF8E0B200F01AF810BD10B5A2
:1021E0000446204600F014F810BD000010B5044667
:1021F000002208210548FEF77DFE204600F008F881
:10220000012208210148FEF775FE10BD00080140BB
:1022100001B5002210210848FEF76CFE4FF47A73D6
:10222000012269460548FFF73BFB012210210248C5
:10223000FEF760FE08BD000000080140800E00208F
:1022400000B585B00020019002900390049000BF7B
:102250004848806940F01000464988610846806916
:1022600000F01000009000BF00BF00BF084680696A
:1022700040F0200088610846806900F0200000904E
:1022800000BF00BF00BF0846806940F004008861BD
:102290000846806900F00400009000BF00BF00BF46
:1022A0000846806940F0080088610846806900F0AF
:1022B0000800009000BF00BF012251032E48FEF726
:1022C00019FE01221E212D48FEF714FE01220321D2
:1022D0002B48FEF70FFE00224FF446712848FEF708
:1022E00009FE4FF40050019001200290002003905D
:1022F0000220049001A92048FEF76CFC4FF44040F6
:102300000190002002900220039001A91A48FEF7D4
:1023100061FC40F601000190002002900220039031
:1023200001A91648FEF756FC1E20019001200290DC
:10233000002003900320049001A91048FEF74AFCF6
:10234000032001900120029003900320049001A932
:102350000B48FEF73FFC4FF44670019001200290BD
:10236000002003900220049001A90548FEF732FCEA
:1023700005B000BD001002400010014000080140FF
:10238000000C014000B585B0002001900290039040
:10239000049000BF1D48806940F004001B4988611B
:1023A0000846806900F00400009000BF00BF0122D1
:1023B0001E211748FEF79EFD1E200190012002906D
:1023C000002003900320049001A91148FEF702FCAD
:1023D0001048114908604FF48270486000210E488F
:1023E0008160C160016141614FF400718161082128
:1023F000C16100210162416281620A21C162FFF76D
:10240000ADF908B1FEF74DFB05B000BD001002406C
:102410000008014000300140800E002010B50B483C
:102420000B4908604FF4165048600021084881604D
:10243000C16001610C21416100218161C161FFF72F
:102440009BFC08B1FEF72DFB10BD000000380140D9
:10245000D80E002000BFFEE77047704708B5084956
:102460000968C9084FF47A72B1FBF2F14143009157
:1024700000BF00BF00994A1E00920029F9D108BD93
:10248000A80C0020F8B504460D4616462B4600223F
:1024900080212046009600F009F828B1606D40F0D8
:1024A000200060650320F8BD0020FCE72DE9F84F0F
:1024B00004460D4690461E46DDF82890FEF720FDA6
:1024C000A0EB0900371AFEF71BFD82462C48006876
:1024D000C0F3CB307843009045E0701C002842D018
:1024E000FEF70EFDA0EB0A00B84200D2A7BB2068A1
:1024F000406820F0E000216848606068B0F5827FA5
:102500000DD1A068B0F5004F03D0A068B0F5806F82
:1025100005D12068006820F0400021680860A06AAA
:10252000B0F5005F0DD100BF2068006820F40050B6
:10253000216808602068006840F400502168086045
:1025400000BF012084F8510000BF002084F8500033
:1025500000BF0320BDE8F88FFFE7009800B900270F
:102560000098401E0090206880682840A84201D151
:10257000012000E000204045AFD10020EAE7000044
:10258000A80C0020704710B5FEF7C0FC10BD00B5C8
:102590008FB0282105A8FDF72CFE14216846FDF711
:1025A00028FE0120059000040690002007900120DD
:1025B000099002200C90C1030D914FF4E0110E918F
:1025C00005A8FEF799FE08B1FEF76BFA0F20009000
:1025D00002200190002002904FF4806003900020C0
:1025E000049002216846FEF763FD08B1FEF759FA30
:1025F0000FB000BD1148006840F001000F490860AD
:10260000084640680E4908400C4948600846006882
:102610000C490840094908600846006820F48020F9
:1026200008600846406820F4FE0048604FF41F0030
:102630008860C80304490860704700000010024029
:102640000000FFF8FFFFF6FE08ED00E070B505465C
:102650006C6A0020E085E0842046FFF71AFA70BD1E
:1026600000BF00BF02680C3252E8002F22F49071C4
:1026700002680C3242E80013002BF3D100BF00BF08
:1026800000BF0268143252E8002F22F001010268F4
:10269000143242E80013002BF3D100BF016B012973
:1026A0000ED100BF00BF02680C3252E8002F22F0AA
:1026B000100102680C3242E80013002BF3D100BF76
:1026C000202180F8421000210163704710B50446B4
:1026D0002068C06820F040002168C860202084F88D
:1026E00041002046FFF72AFC002010BDF8B5044643
:1026F00094F84200222875D1A068B0F5805F0CD113
:10270000206950B90025A66A20684068C0F3080017
:102710003080A06A801CA06215E0A56A0026A0682F
:10272000B0F5805F03D0A06828B9206918B9206887
:102730004068287004E02068406800F07F0028703E
:10274000A06A401CA062E08D401E80B2E085002897
:1027500046D12068C06820F020002168C860206849
:10276000C06820F480702168C8602068406920F04B
:10277000010021684861202084F842000020606345
:10278000206B012826D10020206300BF00BF2168F4
:102790000C3151E8001F21F0100021680C3141E894
:1027A0000002002AF3D100BF2068006800F010008A
:1027B00010280AD100BF0020009020680068009017
:1027C00020684068009000BF00BFA18D2046FFF741
:1027D0005FF902E02046FFF757FB0020F8BD01E05B
:1027E0000020FBE70220F9E770B50446216809697B
:1027F00021F44051E2681143226811612269A16805
:102800001143626941EA02052168C96841F20C621C
:10281000914329432268D1602168496921F44071BC
:10282000A2691143226851612D4A2168914202D167
:10283000FEF71AFD01E0FEF707FD00EBC00101EB1A
:10284000001162689200B1FBF2F100EBC00202EBF2
:10285000001263689B00B2FBF3F26423B2FBF3F255
:1028600002EBC20303EB0212A1EB8201322202EB64
:1028700001116422B1FBF2F101F0F00100EBC002A2
:1028800002EB001263689B00B2FBF3F26423B2FB1D
:10289000F3F201EB021200EBC00101EB00116368DF
:1028A0009B00B1FBF3F100EBC00303EB0013666880
:1028B000B600B3FBF6F36426B3FBF6F303EBC306F3
:1028C00006EB0313A1EB8301322303EB0111642315
:1028D000B1FBF3F101F00F0111442268916070BD6A
:1028E00000380140014691F84100212828D188682C
:1028F000B0F5805F0BD1086948B90A6A1088C0F347
:1029000008000B685860086A801C086205E00B6AC2
:10291000581C086218780B685860C88C401E80B23A
:10292000C88458B90868C06820F080000B68D86077
:102930000868C06840F040000B68D860002070470D
:102940000220FCE72DE9F04104460D461746984663
:10295000069E34E0701C88B32EB1FEF7D1FAA0EBCE
:102960000800B0422BD900BF00BF21680C3151E8EC
:10297000001F21F4D07021680C3141E80002002AC8
:10298000F3D100BF00BF00BF2168143151E8001F20
:1029900021F001002168143141E80002002AF3D13E
:1029A00000BF202084F8410084F8420000BF0020CE
:1029B00084F8400000BF0320BDE8F081FFE72068F5
:1029C00000682840A84201D1012000E00020B84260
:1029D000C0D00020F0E7000010B50248FFF75AF819
:1029E00010BD0000D80E002000BFFEE70FB4084B5A
:1029F00010B504A902AA039800F0FAF8044602A947
:102A0000002000F078FC204610BC5DF814FB0000AC
:102A1000F732000802480068C0F302207047000047
:102A20000CED00E010B5002804DB0A07130E054A80
:102A3000135406E00A07140E034A00F00F031B1F8D
:102A4000D45410BD00E400E018ED00E002E008C836
:102A5000121F08C1002AFAD170477047002001E018
:102A600001C1121F002AFBD1704700002DE9FF5F52
:102A700082B00021DDE90430020DDDF840B00343EF
:102A800018D044F61050A2F2FF32424315141198A8
:102A900001281FD0A5EB0B00401C5FEA000A4FF095
:102AA00000064E4FDFF83891B046504615D5CAF1B2
:102AB000000413E0119801244AA3012801D16FEA10
:102AC0000B010298119AC0E90031C0E9024206B038
:102AD000BDE8F09FCBF10000DFE704460021404A4B
:102AE000491842EB0450CDE9001012E0E00707D08E
:102AF00032463B4640464946FDF761FC80468946E2
:102B000032463B4610461946FDF759FC06460F462D
:102B10006410002CEAD1DDE90401DDE90023BAF1FB
:102B2000000F06DAFDF74BFC42464B46FDF747FC2B
:102B300005E0FDF7B6FC42464B46FDF7B2FC044605
:102B40000E460022284BFDF72FFF03D84FF0FF3031
:102B5000014607E00022254B20463146FDF765FE81
:102B6000FDF70AFF102409E0002C0ADB0A220023EB
:102B7000FDF796FD039B30321A55641E50EA0102A0
:102B8000F2D1641C039AC4F111031444119A012A6E
:102B900003D0012208430DD10AE0084304D00020ED
:102BA0004FF0110B119072E7A3EB0B056D1E0DE0BA
:102BB0005B4504DD4FF0000205F1010504E003DA96
:102BC0004FF00002A5F10105002AECD002981199FE
:102BD000C0E90231C0E9004579E700000000144077
:102BE0000000F03F300000000000F0430000E03F34
:102BF0002DE9FF4F95B09A46884606460025EEE13E
:102C0000252877D100242746F94A0121039400E0C2
:102C1000044316F8013F203B01FA03F01042F7D1BC
:102C200030782A2811D06FF02F033078A0F13002CD
:102C3000092A16D8039A44F0020402EB820203EB3D
:102C400042021044761C0390EFE758F8042B0392DD
:102C5000002A03DA504244F40054039044F0020482
:102C6000761C30782E2816D116F8010F44F0040493
:102C70002A280DD06FF02F023078A0F13003092BF5
:102C800009D807EB870302EB4303C718761CF3E769
:102C900058F8047B761C30786C280FD006DC4C2862
:102CA00017D068280DD06A2814D104E0742810D0F9
:102CB0007A280FD10DE044F400140AE044F48014A3
:102CC00001E044F440147278824202D104F5801489
:102CD000761C761C307866280BD013DC582877D009
:102CE00009DC002875D04528F6D04628F4D04728BE
:102CF0001AD193E118E0632835D0642879D065288B
:102D000012D18BE1702873D008DC6728F1D06928D4
:102D10006FD06E280DD06F2806D1ACE073282CD070
:102D2000752874D0782853D05246179990476D1C57
:102D300054E1C4F30250022809D003280DD0D8F87A
:102D4000001004280DD00D6008F1040846E1D8F801
:102D50000010EA17C1E90052F6E7D8F800100D801C
:102D6000F2E70D70F0E718F8041B8DF80010002052
:102D70008DF80100EB46012003E058F804BB4FF04A
:102D8000FF3061074FF0000102D40DE009F10101AD
:102D90008946B9420FDA8145F8DB1BF80910002992
:102DA000F4D108E009F1010189468142FADB1BF800
:102DB00009100029F6D103985346A0EB09072146D4
:102DC0003846179A00F080FA284400EB090507E01E
:102DD00044E008E10DE01BF8010B524617999047BB
:102DE000B9F10109F7D2534621463846179AF2E065
:102DF00039E00A21C4F302524FF0000B0091022A7D
:102E000006D058F8040BC117032A09D00AE023E0C2
:102E100008F1070020F00702F2E80201904605E001
:102E200000B2C117042A01D140B2C117002906DA45
:102E30000A460021404261EB02012D2202E02205F8
:102E400004D52B228DF80420012203E0E20701D0F3
:102E50002022F7E7914657E00A2100E010214FF0C9
:102E6000000B00910BE010214FF0000B44F0040424
:102E70000827009103E008204FF0000B0090C4F3F6
:102E80000252022A05D058F8040B0021032A08D068
:102E900008E008F1070020F00702F2E8020190467E
:102EA00003E080B2042A00D1C0B24FF0000922072B
:102EB0002AD53278702A07D0DDF800C08CF0100CCB
:102EC0005CEA0B0C05D00EE040228DF804200122B4
:102ED00008E050EA010306D030238DF804308DF865
:102EE000052002229146009B83F0080353EA0B035E
:102EF0000AD150EA010201D1620705D530228DF8CE
:102F000004204FF001097F1E3278582A04D039A2DC
:102F10000C920CAA02920BE03BA2F9E75B46009AE6
:102F2000FDF7BEFB0C9B9B5C029A521E0292137033
:102F300050EA0102F2D1029804A9081A00F1200B0C
:102F4000600702D524F4803400E001275F4502DDEC
:102F5000A7EB0B0000E0002000EB0B0100900398B2
:102F60004944401A0390E00306D453462146179A79
:102F7000039800F0A9F90544002706E001A852468D
:102F8000C05D179990476D1C7F1C4F45F6DBE00331
:102F90000CD553462146179A039800F095F905443D
:102FA00004E030205246179990476D1C0099481E46
:102FB00000900029F5DC08E002980299524600785A
:102FC000491C0291179990476D1CBBF10001ABF1B0
:102FD000010BF1DC5BE100F065F90544761C30780B
:102FE00000287FF40DAE19B02846BDE8F08F000030
:102FF00009280100303132333435363738396162CF
:103000006364656600000000303132333435363792
:10301000383941424344454600000000600700D46F
:10302000062708F1070020F00700F0E80223804699
:1030300003F0004C5FEA0C0001D097A009E02005E6
:1030400001D596A005E0E00701D095A001E0AFF220
:103050004C001390307823F0004365280CD006DC38
:10306000452809D046281DD047287FD13BE0662857
:1030700018D067287AD136E00021112F01DB11200A
:1030800000E0781CCDE9000104A90CA8FFF7EEFCD4
:10309000DDE90D010C9A4FF0000B07F101091092C8
:1030A00000914EE04FF000400097CDE9011004A9D7
:1030B0000CA8FFF7DBFCDDE90D020C9B0F994FF02C
:1030C000000B91461093009211B9791C00EB010995
:1030D000B7EB090003D4C0F1FF3B07F10109A9EBED
:1030E0000700019042E0012F00DA01270021112F93
:1030F00001DD112000E03846CDE9000104A90CA84B
:10310000FFF7B4FCDDE90D010C9A00914FF0000BC4
:10311000B946109221070FD4009A4A4503DA914626
:1031200001E0A9F10109B9F1010F05DD109AA9F13A
:103130000101515C3029F4D0B84202DA10F1040FD9
:1031400003DA0121CDE9011010E0002803DC8344FB
:10315000A9EB000102E0411C494500DD8946A0EBD6
:103160000B00401C01904FF000400290200705D456
:103170000198484502DB4FF0FF30019000208DF8A8
:103180004B0002980DF14B07B0F1004F25D0022003
:103190000C902B200D90029800280CDA40420290EF
:1031A0002D200D9007E00A210298FDF763FA3031D7
:1031B000029007F8011D0C99481E0C900029F2DCC2
:1031C00002980028EFD1791E0D980870307800F031
:1031D000200040F0450007F8020D11A8C01BC01DDB
:1031E00002901398007800B1012000EB09010198CA
:1031F00001EBE071029801440398401A401E0390CD
:10320000E00306D453462146179A039800F05CF871
:1032100005441398007818B15246179990476D1CD1
:10322000E00323D553462146179A039800F04CF843
:1032300005441BE0BBF1000F07DB0098584504DD97
:103240001098179910F80B0001E01799302052469A
:10325000904701980BF1010B401E05F1010501900B
:1032600004D12E205246179990476D1CB9F10001E8
:10327000A9F10109DEDC05E017F8010B52461799A8
:1032800090476D1C0299481E02900029F4DC5346B9
:103290002146179A03989EE62D0000002B0000009F
:1032A000200000002DE9F041044600251E46174687
:1032B000880404D405E039462020B0476D1C641E04
:1032C000F9D52846BDE8F0812DE9F04104460025F6
:1032D0001E469046C80301D5302700E02027880409
:1032E00004D505E041463846B0476D1C641EF9D54B
:1032F0002846BDE8F0810A68531C0B6010707047C7
:1033000070B504460D4629682068FCF7E2FF0646C2
:10331000FDF750F970BD70B504460D462968206868
:10332000FCF7D7FF0646FDF745F970BD2DE9F05FC4
:1033300004460F461546D4F80080012614E02946BD
:103340004FF07E50FCF7C5FF83464146FCF7C7FFB0
:10335000814654F826102846FCF7C1FF82464946AC
:10336000FCF765FF8046761CBE42E8DB4046BDE8C0
:10337000F09F00002DE9F05F04460F46154601203E
:1033800012490860D4F80080012617E00120104996
:10339000086029464FF07E50FCF79BFF834641466C
:1033A000FCF79DFF814654F826102846FCF797FF4E
:1033B00082464946FCF73BFF8046761CBE42E5DB71
:1033C0000120044908604046BDE8F09F7C0C0020C5
:1033D000800C0020840C002010B5002821D0114B57
:1033E0000022001F196803E0814203D80A46496899
:1033F0000029F9D152B11368841A9C4204D10068A3
:1034000018441060104602E0506000E0186039B1C6
:1034100002680B1A934203D10B681A440260496890
:10342000416010BDAC0C002008B5FDF77BFDFFF737
:10343000AEF8FEF705FFFEF7A5FFFEF7EFFFFEF77C
:10344000C7FD4FF6FF7080231A4600210090084602
:10345000FEF798FD30A13448FFF7C8FA3248FCF770
:10346000DFFE84B2322322462F493048FEF70DFD9D
:103470004FF4FA70FDF79AFB2DA12B48FFF7B6FA2F
:103480002948FCF7CDFE84B24FF4FA732246264950
:103490002648FEF7FAFC00F0B3F94FF4FA70FDF796
:1034A00085FB30A12048FFF7A1FA1F48FCF7B8FEC2
:1034B00084B24FF4FA7322461B491C48FEF7E5FC20
:1034C00000F05CFD4FF4FA70FDF770FB00F06EFC4D
:1034D0004FF4FA70FDF76AFB00F06CFB2BA1124869
:1034E000FFF784FA1048FCF79BFE84B24FF4FA739E
:1034F00022460D490D48FEF7C8FC0CE0FDF700FD23
:1035000029490968401AB0F5FA7F03D9FDF7F8FC9C
:103510002549086030BFF1E75541525420697320B6
:103520004F4B210D0A000000B40C0020D80E0020E3
:103530000D0A2D2D2D2D2D2D2D2D537461746963A4
:1035400020696E737472756D656E746174696F6EE7
:1035500020726573756C74732D2D2D2D2D2D2D2DD1
:103560000D0A00000D0A2D2D2D2D2D2D2D2D54650C
:10357000737420636173657320726573756C747303
:103580002D2D2D2D2D2D2D2D0D0A00000D0A416CF8
:103590006C2074657374206361736573207061734C
:1035A0007365642E0D0A000000000020F0B50B309A
:1035B000154D20F007010024144A0FE003688B42E8
:1035C0000BD38B4205D95E1A43184768C3E90067DD
:1035D00000E04368136002C004E0021D1068002888
:1035E000ECD12046002802D1286808B10020F0BDA7
:1035F000064A07481060074A121A22F00702C0E97B
:10360000002401202860D7E7B00C0020AC0C00207B
:10361000240F0020201100202DE9F04F87B08246B2
:103620000C46002005E05AF8201002AA42F82010AB
:10363000401CA042F7DB1A4B0422214602A8FCF7EB
:1036400083FD204604EBD0714910A4EB4101F1B990
:10365000A14604EBD972521002AB53F82210A346D4
:1036600004EBDB725210521E53F82200FCF7DFFD10
:103670000190FCF7B8FF074600224FF08043FCF7AB
:1036800010FF0546FCF7DAFF07B0BDE8F08F2146D2
:1036900004EBD170401002AA52F82000F4E70000B9
:1036A000013300082DE9FF5F82460C4601202C49BA
:1036B00008600394039CA000FFF778FF8146002078
:1036C00007E00121274A11605AF8201049F820101C
:1036D000401CA042F5DB244B042221464846FCF75F
:1036E00033FD012021490860204604EBD0714910C8
:1036F000A4EB410129BB01201D490860A34604EB4E
:10370000DB72521059F8221004EBD4725210521E80
:10371000019459F82200FCF78AFD0090FCF763FF42
:10372000074600224FF08043FCF7BBFE0546FCF73E
:1037300085FF02904846FFF74FFE029804B0BDE8AF
:10374000F09F01200B490860204604EBD07149101E
:1037500059F821504846FFF73FFE2846EEE70000A3
:10376000880C00208C0C002017330008900C0020DF
:10377000940C0020980C00202DE9F04106460C46E0
:103780000027002506E056F825103846FCF74FFDC7
:1037900007466D1CA542F6DB2046FCF7F1FE054608
:1037A00029463846FCF7CDFDBDE8F0812DE9F04112
:1037B00006460C4601200F4908600027002509E055
:1037C00001200D49086056F825103846FCF72FFDFA
:1037D00007466D1CA542F3DB01200849086020461E
:1037E000FCF7CEFE054629463846FCF7AAFDBDE8A3
:1037F000F0810000700C0020740C0020780C002078
:103800002DE9F04387B0A74A07CA04AB07C3A5490F
:103810000C31D1E90023D1E90201CDE90023CDE942
:103820000201A1A1A548FFF7E1F8A448FCF7F8FCC4
:1038300084B24FF4FA732246A049A148FEF725FB53
:10384000032104A8FFF7B2FF0646FCF7CCFE0446AE
:1038500022460B469BA19948FFF7C8F89748FCF70A
:10386000DFFC84B24FF4FA73224694499448FEF781
:103870000CFB4FF07C52032104A8FFF77BFD0646AA
:10388000FCF7B1FE044622460B4694A18B48FFF795
:10389000ADF88A48FCF7C4FC84B24FF4FA732246B0
:1038A00086498748FEF7F1FA032104A8FFF7FAFEDC
:1038B0000646FCF798FE044622460B468BA17F483D
:1038C000FFF794F87D48FCF7ABFC84B24FF4FA7331
:1038D00022467A497A48FEF7D8FA88A17748FFF756
:1038E00085F87648FCF79CFC84B24FF4FA732246C4
:1038F00072497348FEF7C9FA04216846FFF756FF7C
:103900000646FCF770FE044622460B466DA16B4846
:10391000FFF76CF86948FCF783FC84B24FF4FA7344
:10392000224666496648FEF7B0FA794A042168469D
:10393000FFF720FD0646FCF756FE044622460B46DE
:1039400066A15E48FFF752F85C48FCF769FC84B258
:103950004FF4FA73224659495948FEF796FA042162
:103960006846FFF79FFE0646FCF73DFE04462246EA
:103970000B465EA15148FFF739F85048FCF750FC60
:1039800084B24FF4FA7322464C494D48FEF77DFA53
:1039900060A14A48FFF72AF84848FCF741FC84B286
:1039A0004FF4FA73224645494548FEF76EFA5F49DF
:1039B00009685F4A126811445E4A12688818FCF769
:1039C000E8FD804600225C4BFCF76BFD06460022BA
:1039D0005A4BFCF7F4FC044622460B4658A13748E4
:1039E000FFF704F83548FCF71BFC84B24FF4FA7378
:1039F000224632493248FEF748FA59490968594A7D
:103A000012681144584A12688818FCF7C2FD06462D
:103A10000022494BFCF745FD80460022474BFCF74E
:103A2000CEFC044622460B4650A12448FEF7DEFF9A
:103A30002248FCF7F5FB84B24FF4FA7322461F4983
:103A40001F48FEF722FA4F4909684F4A126811448D
:103A50004E4A126811444E4A126811444D4A126887
:103A60008818FCF796FD064600224B4BFCF719FD23
:103A700004460022314BFCF7A2FC804642460B462E
:103A800046A10E48FEF7B2FF0C48FCF7C9FB84B212
:103A90004FF4FA73224609490948FEF7F6F907B0D0
:103AA000BDE8F083544100080D0A54657374204347
:103AB00061736520313A0D0A00000000B40C00204B
:103AC000D80E00204D6F76696E6720417665726171
:103AD00067653A20252E32660D0A000045574D4194
:103AE0003A20252E32660D0A000000004D656469FB
:103AF000616E3A20252E32660D0A00000D0A5465CB
:103B00007374204361736520323A0D0A000000008F
:103B10009A99993E0D0A436F7665726167652052E6
:103B200065706F72743A0D0A00000000700C00207E
:103B3000740C0020780C0020000008400000594060
:103B40004D6F76696E6720417665726167652046C4
:103B5000696C7465723A252E326625250D0A0000BF
:103B60007C0C0020800C0020840C002045574D4127
:103B70002046696C7465723A252E326625250D0A39
:103B800000000000880C00208C0C0020900C00200D
:103B9000940C0020980C0020000014404D656469CE
:103BA000616E2046696C7465723A252E3266252551
:103BB0000D0A00002DE9FC471E2500242FE004EB30
:103BC0008403DFF870C10CEBC3035A6A04EB84036F
:103BD0000CEBC303596804EB84030CEBC30303F140
:103BE0000800FFF7A3FB814604EB8400514A02EB77
:103BF000C000016A4846FCF76CFB0646FCF7F3FC84
:103C000021F0004107464C4A4C4BFCF7FFFC01D227
:103C1000012000E000204A4941F82400641CAC4225
:103C2000CDDB48A15548FEF7E1FE5448FCF7F8FA11
:103C300084B24FF4FA73224650495148FEF725F9F1
:103C40004DA14E48FEF7D2FE002416E0052094FB5D
:103C5000F0F100FB114020B91CB14AA14748FCF724
:103C6000D3FA374850F8242047A14848FEF7BEFE53
:103C700046494248FCF7C8FA641CAC42E6DB44A162
:103C80003E48FCF7C1FA3D48FCF7CAFA84B24FF44B
:103C90007A73224639493A48FEF7F7F8002431E0B2
:103CA000274850F8240060BB04EB8403DFF884C08D
:103CB0000CEBC3035A6A04EB84030CEBC30359688F
:103CC00004EB84030CEBC30303F10800FFF72EFBA6
:103CD0008046FCF788FCCDE9000104EB840015491F
:103CE00051F830202BA12548FEF780FE2348FCF731
:103CF00097FA86B24FF47A73324620492048FEF78D
:103D0000C4F8641CAC42CBDB4FF4C8710C48FCF720
:103D100070FA1FA11948FEF769FE1848FCF780FAEF
:103D200084B24FF4FA73224614491548FEF7ADF8F1
:103D3000BDE8FC87C00700208DEDB5A0F7C6B03EFA
:103D4000F00C00200A6578706F6E656E7469616CA6
:103D50005F77656967687465645F6D6F76696E67C4
:103D60005F61766572616765205465737420726562
:103D700073756C74733A0D0A00000000B40C0020D7
:103D8000D80E00202000000025640000E60C002072
:103D90000D0A00000A436173652D25642072657366
:103DA000756C743A25660D0A000000002DE9FC4789
:103DB0001B25002429E004EBC402564B03EB8202CE
:103DC000516804EBC40203EB820202F10800FFF722
:103DD00023FC814604EBC4004E4A02EB8000016ADA
:103DE0004846FCF776FA0646FCF7FDFB21F0004159
:103DF0000746494A494BFCF709FC01D2012000E083
:103E00000020474941F82400641CAC42D3DB45A1A3
:103E10004E48FEF7EBFD4D48FCF702FA84B2322320
:103E200022464A494A48FEF730F847A14748FEF77C
:103E3000DDFD002416E0052094FBF0F100FB1140AD
:103E400020B91CB143A14148FCF7DEF9344850F8D1
:103E5000242041A14148FEF7C9FD40493B48FCF7F9
:103E6000D3F9641CAC42E6DB3DA13848FCF7CCF941
:103E70003648FCF7D5F984B24FF47A7322463349B9
:103E80003348FEF702F800242BE0254850F82400C0
:103E900030BB04EBC4021F4B03EB8202516804EBFE
:103EA000C40203EB820202F10800FFF7B5FB804673
:103EB000FCF799FBCDE9000104EBC400154951F86A
:103EC000202028A12148FEF791FD2048FCF7A8F901
:103ED00086B24FF47A7332461C491D48FDF7D5FF70
:103EE000641CAC42D1DB4FF4C8710D48FCF781F97A
:103EF0001BA11648FEF77AFD1448FCF791F984B22D
:103F00004FF4FA73224611491148FDF7BEFFBDE890
:103F1000FC870000F40300208DEDB5A0F7C6B03E8D
:103F2000F00C00200A746573745F6D656469616EDE
:103F30005F66696C74657220546573742072657372
:103F4000756C74733A200D0A00000000B40C002058
:103F5000D80E00202000000025640000E60C0020A0
:103F60000D0A00000A436173652D25642072657394
:103F7000756C743A25660D0A000000002DE9FC47B7
:103F80001C25002429E004EBC402564B03EB8202FB
:103F9000516804EBC40203EB820202F10800FFF750
:103FA000EBFB814604EBC4004E4A02EB8000016A41
:103FB0004846FCF78EF90646FCF715FB21F0004158
:103FC0000746494A494BFCF721FB01D2012000E09A
:103FD0000020474941F82400641CAC42D3DB45A1D2
:103FE0005048FEF703FD4F48FCF71AF984B232231C
:103FF00022464C494C48FDF748FF49A14948FEF785
:10400000F5FC002416E0052094FBF0F100FB1140C4
:1040100020B91CB145A14348FCF7F6F8344850F8E4
:10402000242043A14348FEF7E1FC42493D48FCF708
:10403000EBF8641CAC42E6DB3FA13A48FCF7E4F83D
:104040003848FCF7EDF884B24FF47A7322463549CC
:104050003548FDF71AFF00242BE0254850F82400CE
:1040600030BB04EBC4021F4B03EB8202516804EB2C
:10407000C40203EB820202F10800FFF77DFB8046D9
:10408000FCF7B1FACDE9000104EBC400154951F881
:1040900020202AA12348FEF7A9FC2248FCF7C0F8FB
:1040A00086B24FF47A7332461E491F48FDF7EDFE83
:1040B000641CAC42D1DB4FF4C8710D48FCF799F891
:1040C0001DA11848FEF792FC1648FCF7A9F884B227
:1040D0004FF4FA73224613491348FDF7D6FEBDE8A4
:1040E000FC870000040000208DEDB5A0F7C6B03EAF
:1040F000F00C00200A746573745F6D6F76696E67EB
:104100005F617665726167655F66696C7465722070
:104110005465737420726573756C74733A200D0A5C
:1041200000000000B40C0020D80E00202000000089
:1041300025640000E60C00200D0A00000A436173AC
:10414000652D256420726573756C743A25660D0AB9
:10415000000000000000803F0000004000004040E0
:104160000000803F00000040000040400000804010
:1041700002030405060708090A0B0C0D0E0F1010A8
:104180000102000000000000000001020304060715
:10419000080900000000010203040000BC410008FF
:1041A00000000020B40C00003E0A00086C44000827
:1041B000B40C00206C0800005C2A000812000112F8
:1041C0000104220509100B00A0400000704100000E
:1041D000C80430070C420000344217111072022448
:1041E0001006C03F0000202812602C12900443B03B
:1041F00040247004604003482380BF29100400005D
:10420000400412800443A0C024B00440C00424C36E
:10421000803F0820070000CDCC4CBE684206481104
:104220006C12006C12406C438040A032C070412080
:10423000712401130112075012FF0141440114249B
:104240001208B4B2036C011024560924011A240385
:10425000200A0001760B2016206412A00413807F30
:104260000C15685648681576F124F2C024560D8C5A
:10427000040510FFFF7F7F24456A820E240216FF8B
:1042800024C20FD80111B2F004803F1090C3F04156
:10429000907004F041114881C8C148780448421226
:1042A0001C03104842044124B613208310410832F5
:1042B000C86CB406CDCCDC411444C320C1084965A8
:1042C0007A15AC213883C8C2088192B21624100630
:1042D00048430000960412C8044BFA43F480049645
:1042E00043174811441348C314110412C80453FA65
:1042F000C32473C318B40518F88E19180302103FAD
:10430000044568CE1A1803D1044118BE1BA8032126
:10431000D4A10821FB80042C421C900314800008C7
:104320000D8BF00321D80DFFCC030D1BCC030F2107
:104330004040CC030EAE40CC032D50040D20CC03E6
:104340000FF82041CC030F2CA040CC030D14A00586
:10435000BC0A5A649841CDCCCC3D028404ED54078C
:104360006D540408041F803F0324459C021D0478FB
:10437000000A1F568E43426666663F05782DD805B3
:10438000000423CCBD06280C04218C3F071C081D0B
:1043900024040F213F08540421280E210958042128
:1043A00028F20AA00114280E210B600421280323FF
:1043B0000C00010F213F0D340821280E210E380872
:1043C00021280E1D0F7004292C2D54030E1D10746E
:1043D0000425DC2D7C030E2111780421780E1E1299
:1043E00048082F8022E4070F213F13800421280E64
:1043F0002114840421280E1E15880433C05A280E67
:104400001D168C040C0A1FF2D28D409A99193F1781
:104410005C081E488C080C041D003F187003100433
:1044200088854E500C041D993E19340B9C089565E7
:1044300092C03333332008091C300E211B6C082135
:10444000280E211C70082128CE1D5C05C2420825BB
:104450004036A8400E211EAC042D9803022D000109
:0C4460006E107C0B7324F43B0000000085
:04000005080000ED02
:00000001FF
