:020000040800F2
:10000000980B0020050100089D310008F92A00081E
:1000100099310008850E0008B9370008000000007B
:10002000000000000000000000000000C9320008CD
:10003000C9100008000000009F310008E5320008E8
:100040001F0100081F0100081F0100081F01000810
:100050001F0100081F0100081F0100081F01000800
:100060001F0100081F0100081F0100081F010008F0
:100070001F0100081F0100081F0100081F010008E0
:100080001F0100081F0100081F0100081F010008D0
:100090001F0100081F0100081F0100081F010008C0
:1000A0001F0100081F0100081F0100081F010008B0
:1000B000AD330008BD330008CD3300081F01000830
:1000C0001F0100081F0100081F0100081F01000890
:1000D0001F010008A93700081F0100081F010008C0
:1000E0001F0100081F0100081F010008DFF810D0E1
:1000F00000F0D2FB004800470D3E0008AFF300803F
:10010000980B00200648804706480047FEE7FEE7B8
:10011000FEE7FEE7FEE7FEE7FEE7FEE7FEE7FEE7B7
:1001200055330008ED000008202A04DB203A21FAAC
:1001300002F00021704721FA02F3D040C2F1200200
:100140009140084319467047D2B201E000F8012BF4
:10015000491EFBD270470022F6E710B513460A4647
:1001600004461946FFF7F0FF204610BD421C10F868
:10017000011B0029FBD1801A704700000FB400B5A5
:100180008DB010A909900B9000914FF0FF300A90AC
:1001900000200C9005480690054807906A4609A87B
:1001A0000F9900F0B7FA0DB05DF814FB31070008A5
:1001B0004F0700082DE9FF5F1D464FF0FF3BD5E9D3
:1001C000014691465F464FF00008A9697F1C0198DF
:1001D0008847296A824688470028F6D1BAF1FF3F4E
:1001E0000CD024F4C064002E19DD600614D5BAF1D9
:1001F0002B0F09D0BAF12D0F0ED103E0584604B0F1
:10020000BDE8F09F44F48064A9697F1C0198884789
:10021000761E8246002E02DDBAF1300F03D0B9F10E
:10022000000F26D032E0A969761E44F400747F1CCA
:10023000019888478246002E05DDBAF1780F06D076
:10024000BAF1580F03D0B9F1000F10D01EE0B9F188
:10025000000F02D0B9F1100F18D1A969761E24F44D
:1002600000747F1C019888478246102002E0082015
:1002700000E00A20814609E008FB0908A969761E0A
:1002800044F400747F1C019888478246002E05DDE7
:100290004946504600F02AFA0028EDDAE96901984B
:1002A0008847A00502D46FF00100A8E7E00725D138
:1002B000600613D5600502D5C8F1000000E0404695
:1002C00029680A1D2A600968220501D5087015E011
:1002D000220701D5088011E008600FE02868011DA1
:1002E00029600068210502D580F8008006E021071A
:1002F00002D5A0F8008001E0C0F8008038467EE713
:10030000F0B480EA0102D40F4200B2EB410F02D2F6
:100310000246084611464A0042D0C30DDDB2C1F381
:10032000C752AD1A202D35DAC1F3160141F400028F
:1003300004B15242C5F1200602FA06F12A411044E6
:10034000B3EBD05F23D0C4B1012DA0EBC35009DCC7
:10035000F0BC4FF0004202EAC352DBB200F50000ED
:1003600000F00FBA400000F1807000EBC350A0F124
:10037000807040EAD170490009E0490841EAC07143
:10038000A0EBC35000F50000400800EBC350F0BCE8
:1003900000F0EEB96142012202EB4101001BF6E7D9
:1003A000F0BC704781F00041AAE780F00040A7E769
:1003B00030B480EA010202F0004530F0004221F042
:1003C000004013D090B1C30DD40DC2F31601C0F399
:1003D0001600E41A41F4000140F400027D34914219
:1003E00001D3641C00E04900002C02DA30BC00207C
:1003F00070474FF400000023914201D3891A034350
:1004000040084FEA4101F7D151B1914202D14FF07A
:10041000004105E002D24FF0010101E06FF001015F
:1004200003EBC450284430BC00F0A2B92DE9FE4FC4
:1004300081EA030404F0004421F0004100944FF0ED
:10044000000B23F0004350EA01045ED052EA03049B
:100450005BD0C3F30A54C1F30A552C44A4F2F3341D
:100460000194A0FB0254C1F3130141F48011C3F3C2
:10047000130343F4801301FB024400FB034E840A80
:10048000970A44EA815447EA8357A4FB0768029518
:100490008D0A05FB07854FEA932C04FB0C542705B6
:1004A000029D4FEA065847EA1637B5EB08056EEB92
:1004B000070C870E920E47EA811742EA8312A7FBC8
:1004C0000201B6EB0B0164EB00042B0D43EA0C3385
:1004D0005E1844EB1C50DA465146E7FB0201C5F3B7
:1004E00013044FEA0B3343EA14534FEA0432019CDE
:1004F00043EA0603A4F10C040294009CCDE900B485
:1005000000F07CF903B0BDE8F08F00200146F9E768
:100510002DE9F04D81EA030404F0004B21F0004581
:1005200014464FF0000A23F0004150EA050220D0A3
:1005300054EA01021DD0C5F30A570246C5F313035E
:10054000C1F31300C1F30A5640F4801543F480133D
:10055000A7EB0608101BD64608F2FD3873EB050022
:1005600002D308F1010801E092185B41B8F1000FD5
:1005700003DA00200146BDE8F08D00204FF4801121
:10058000064684460EE0171B73EB050705D3121BC6
:1005900063EB050306434CEA010C49084FEA3000BF
:1005A00092185B4150EA0107EDD152EA030012D0E4
:1005B00082EA040083EA0501084305D0101BAB4121
:1005C00006D20122002306E000224FF0004302E0A1
:1005D0006FF0010253101AEB06004CEB085110EBC0
:1005E0000A0041EB0B01BDE8F04D00F0F8B896238E
:1005F0000022114600F0C5B800F0004220F0004093
:10060000C10DC0F3160040F400007F2901DA00207C
:100610007047962903DCC1F19601C84001E0963984
:100620008840002AF4D04042704770B5C1F30A52A6
:1006300001F000450024C1F3130140F2FF3341F4FF
:1006400080119A4201DA002070BD40F233439A4291
:10065000A2F2334203DC5242FFF766FD00E0904015
:100660002C43F1D0404270BDC1F30A5210B5C1F322
:10067000130140F2FF3341F480119A4201DA002065
:1006800010BD40F233439A42A2F2334203DC52429D
:10069000FFF74AFD10BD904010BD00F0004230F061
:1006A00000400AD0C10D01F56071C0F3160042EAA6
:1006B0000151C208400711437047002001467047AE
:1006C00030B50B46014600202022012409E021FA22
:1006D00002F59D4205D303FA02F5491B04FA02F51F
:1006E0002844151EA2F10102F1DC30BD3A2800D2E7
:1006F000303820F02002412A01D3A2F1370088428D
:1007000001D34FF0FF307047026811441378016045
:1007100018467047D16004495161044911620021B3
:100720001161114600F0DEB809070008DB08000877
:10073000426842B1016811F8013B23B1521EC0E981
:100740000012184670470121C160881E7047426838
:100750005AB1C368016843B983688B4205D0491E0A
:10076000521CC0E90012002070474FF0FF30704764
:100770000029A8BF7047401C490008BF20F00100B5
:10078000704710B4B0FA80FC00FA0CF050EA010493
:1007900004BF10BC704749B1CCF1200421FA04F425
:1007A00011FA0CF118BF012121430843A3EB0C01FE
:1007B000CB1D4FEA00614FEA102042BF002010BC61
:1007C000704700EBC35010440029A4BF10BC704711
:1007D000401C490008BF20F0010010BC704710B554
:1007E000141E73F1000408DA401C41F10001921854
:1007F0005B411A4301D120F0010010BD2DE9F04DFD
:1008000092469B4611B1B1FA81F202E0B0FA80F251
:100810002032904600F052F804460F4640EA0A00A3
:1008200041EA0B0153465A46084313D0114653EA96
:10083000010019D0C8F140025046FFF775FC05468B
:100840000E4650465946424600F038F8084305D057
:10085000012004E020463946BDE8F08D0020054324
:1008600046EAE0762C4337430A986305E40AA0EB96
:1008700008000022FD0A44EA47540A3002D500204D
:100880000146E9E7010510196941DDE9084500194C
:100890006941BDE8F04DA2E7064C074D06E0E0686F
:1008A00040F0010394E8070098471034AC42F6D3B7
:1008B000FFF720FCD87E0008F87E0008202A04DB21
:1008C000203A00FA02F1002070479140C2F1200363
:1008D00020FA03F3194390407047C0B24FF4F0512F
:1008E00000F098B92DE9F34F8BB04FF0000801F1FB
:1008F0000C000C464FF0010B46460DF1080A019022
:100900006269012101989047051E2DD0252D2CD01C
:10091000216A8847C0B16269012101989047216A24
:1009200088470028F7D1411E62690198904700E08E
:10093000761CA1690B988847216A88470028F7D15F
:10094000E1690B988847DBE7A1690B988847074660
:10095000A84201D1761CD3E7E1690B9888477F1C38
:1009600002D1B8F1000F6FD047E1002762693D4620
:100970003946019890472A2804D1626901210198DB
:1009800090470125DFF8889262690121019890471C
:10099000A0F130010A290AD24F45E5DC07EB8701B7
:1009A00000EB4107303FDFD445F01005ECE7E906E6
:1009B00001D46FF000476C280AD04C2814D0682866
:1009C00015D06A280DD074281CD07A281AD01DE0C2
:1009D00062690121019890476C2802D045F0040516
:1009E00014E045F002050DE045F020050AE06269DB
:1009F000012101989047682802D045F0080505E0DC
:100A000045F400656269012101989047C4E90157E6
:100A100065283DD019DC58287AD00CDC452837D021
:100A200004DC252826D0412831D131E046282FD0BA
:100A300047282CD12CE05B2877D0612828D0632868
:100A40007CD0642823D15AE0D1E06F2848D008DC5C
:100A500066281DD067281BD0692821D06E2816D1A2
:100A600027E0702845D0732868D0752847D07828AB
:100A70000DD14DE0A1690B988847054625283FF424
:100A800069AFE1690B9888476D1C3FF46AAFB4E029
:100A900023466A466FF001000B99AFF300809FE098
:100AA00045F040006060A80723464FF0000236D4AE
:100AB0003EE0E8077FF447AF2068011D2160006831
:100AC000290501D506701BE7290701D5068017E720
:100AD000A90703D5F117C0E9006111E706600FE728
:100AE00045F040006060A80723464FF0080216D486
:100AF0001EE040F60E0125EA0100606016E045F0B8
:100B000040006060A80723464FF00A0207D40FE0B8
:100B100045F040006060A80708D5234610226FF01A
:100B200001000B99AFF300805AE007E02346102242
:100B30006FF001000B99FFF73DFB51E04FF000090A
:100B40004F464B46632802D05B2807D041E020790E
:100B5000C00601D40120A06001273AE062690121AA
:100B6000019890475E2805D14FF001096269494616
:100B700001989047216939B900210A46534643F844
:100B80002120491C0829FADBB0B3216969B9C117D2
:100B900000EBD16253110AEB830122F01F02821A8B
:100BA00001200B68904003430B60626901210198AA
:100BB00090475D28E8D1B9F1000F09D000205146D7
:100BC00051F82020D24341F82020401C0828F7DBB0
:100BD00002AB224600976FF001000B99AFF3008043
:100BE00000280CDA401C08D1BBF1000F05D04FF0F3
:100BF000FF300DB0BDE8F08FFFE74046F9E7E907A9
:100C000001D108F1010806444FF0000B78E600001E
:100C1000CCCCCC0C7F2801D9002208E0064A02EB9C
:100C20005002C007127800D1120902F00F02012011
:100C30009040084070470000987E000810B500F012
:100C4000E7F8462000F0B4F8012000F0B1F800F019
:100C5000FFF810BD1FB50020019002200390800214
:100C600000906946154800F005FB012291021348E7
:100C700000F098FC052002F099FF4FF400610F4846
:100C800000F088FC012802D10D49087002E0002024
:100C90000B49087000224FF48061084800F082FC84
:100CA000052002F083FF012001906946034800F00F
:100CB000E1FA0348007804B010BD0000000C0140C8
:100CC000600000207FB50024002001904FF40060F8
:100CD00000900220039069461A4800F0CBFA0122E6
:100CE000D102184800F05EFC00251FE06006040EEB
:100CF00001229102134800F055FC052002F056FF36
:100D00004FF400610F4800F045FC012801D1012695
:100D100000E00026344300224FF48061094800F0CF
:100D200041FC052002F042FF681CC5B2082DDDDB46
:100D3000012001906946034800F09CFA204604B067
:100D400070BD0000000C01401FB504464FF4406028
:100D5000009001200190022003906946134800F0A2
:100D600089FA012C05D10122D102104800F01AFCA9
:100D700008E034B900224FF400610C4800F012FC86
:100D800000E01FBD01229102084800F00BFC052085
:100D900002F00CFF00224FF48061044800F002FCD6
:100DA000052002F003FF00BFEBE70000000C01404C
:100DB00070B50446002523E004F0800028B101222C
:100DC000D102124800F0EEFB05E000224FF4006172
:100DD0000E4800F0E7FB6006040E012291020B486A
:100DE00000F0E0FB052002F0E1FE00224FF48061FC
:100DF000064800F0D7FB052002F0D8FE681CC5B2FB
:100E0000082DD9DBFFF726FF70BD0000000C014064
:100E100010B50122D1020D4800F0C4FB012291025D
:100E20000A4800F0BFFB052002F0BAFE00224FF492
:100E30000061064800F0B6FB052002F0B1FE00227A
:100E40004FF48061014800F0ADFB10BD000C014083
:100E500010B500224FF40061094800F0A3FB012205
:100E60009102074800F09EFB052002F09FFE012240
:100E7000D102034800F096FB052002F097FE10BD5A
:100E8000000C014000BFFEE710B5002400F052F84E
:100E900004E0601CC4B20E2002F07CFE01210F4869
:100EA00000F078FB08B1642CF3DB642C01DB01203B
:100EB00010BD002404E0601CC4B20E2002F06AFEE3
:100EC0000121064800F066FB08B9642CF3DB642CB2
:100ED00001DB0120ECE70020EAE70000000C014004
:100EE00000B585B00020019002900390049000BFEF
:100EF0000E48806940F008000C4988610846806906
:100F000000F00800009000BF00BF01200190029097
:100F1000032004900120039001A9054800F0AAF9DC
:100F200000F0A4F8FFF7B0FF05B000BD00100240CC
:100F3000000C014000B585B00020019002900390A4
:100F4000049000BF0C48806940F004000A498861A1
:100F50000846806900F00400009000BF00BF012037
:100F60000190002002900120039001A9034800F0A5
:100F700081F905B000BD000000100240000C0140E6
:100F80001FB5002000900190029003900120009076
:100F90000190032003906946014800F06BF91FBDE2
:100FA000000C014010B5002404E0601CC4B20E2007
:100FB00002F0F0FD0121104800F0ECFA08B16E2CAF
:100FC000F3DB002404E0601CC4B20E2002F0E2FD5A
:100FD0000121094800F0DEFA08B96E2CF3DB4FF46A
:100FE000107002F0D7FD0121034800F0D3FA08B1D8
:100FF000012010BD0020FCE7000C014070B500246A
:10100000002506E06006040EFFF7CCFF0443681CD1
:10101000C5B2082DF6DB204670BD7CB5054600F054
:1010200025F8FFF731FFE0B9002405E0FFF7E6FF00
:101030000DF80400601CC4B2052CF7DB9DF800001D
:101040009DF8011008449DF8021008449DF8031013
:1010500008449DF80410884205D19DF800002870CE
:1010600001E001207CBD0020FCE7000010B5FFF787
:1010700087FF00220121084800F094FA142000F0B4
:10108000E5F801221146044800F08CFA4FF458703C
:1010900002F080FD10BD0000000C01401FB50020D3
:1010A0000090019002900390022000900120019096
:1010B00003200390012002906946024800F0DAF80C
:1010C0001FBD0000000C01407047002107E042F600
:1010D000E06100BF0A1EA1F1010399B2FAD1021E1C
:1010E000A0F1010398B2F2D1704770472DE9F047A3
:1010F000012002F0EAF8102002F0E7F80A2000F0E0
:10110000A5F803F05FF80D480478407800EB042060
:1011100084B22046FFF76BFA8246FFF7BEFA074615
:101120004FF03332064BFFF7F3F90546FFF79CFA11
:101130001FFA80F94846BDE8F087000061000020F2
:101140003333F33F0146002291F82100022808D0F2
:101150000420886300BF002081F8200000BF012028
:1011600070470868006820F00E000B681860086877
:10117000006820F001000B68186091F840300120F1
:101180009840CB6B5860012081F8210000BF0020FF
:1011900081F8200000BF1046E2E7000070B5044669
:1011A000002594F82100022803D00420A063012523
:1011B00048E02068006820F00E0021680860206880
:1011C000006820F00100216808601F4920688842FB
:1011D00001D1012026E01C4914312068884201D148
:1011E00010201FE0184928312068884201D180155D
:1011F00018E015493C312068884201D1801411E083
:10120000114950312068884202D14FF4803009E002
:101210000D4964312068884202D14FF4801001E00A
:101220004FF08070084908394860012084F8210097
:1012300000BF002084F8200000BF606B10B1204682
:10124000616B8847284670BD0800024070B50446AF
:1012500000F0AEF906462546681C10B10448007837
:10126000054400BF00F0A4F9801BA842FAD370BD6A
:10127000580000202DE9F8470346002294466EE10D
:101280004FF0010808FA02F4D1F8008008EA0400DF
:10129000A0427DD1DFF8DCA2D1F80480A8EB0A09D6
:1012A000D0453AD014DCB8F1030F50D009DCB8F1C6
:1012B000000F31D0B8F1010F1CD0B8F1020F49D1A5
:1012C00020E0B8F1110F18D0B8F1120F42D11EE092
:1012D000B9F5881F25D006DCB9F5803F20D0B9F5D7
:1012E000801F37D11AE0B9F5001F18D0B9F5041FD7
:1012F00030D117E0D1F80CC02DE0D1F80C8008F106
:10130000040C28E0D1F80C8008F1080C23E0D1F897
:101310000C8008F10C0C1EE000BF00BF00BF00BF36
:1013200000BF00BFD1F80880B8F1000F02D14FF024
:10133000040C0BE0D1F80880B8F1010F03D14FF095
:10134000080C1C6102E04FF0080C5C6103E04FF0F8
:10135000000C00E000BF00BFFF2801D8984601E064
:1013600003F104084646FF2802D84FEA820803E04A
:10137000A2F108084FEA88084746D6F800804FF0E7
:101380000F0909FA07F928EA09080CFA07F900E039
:1013900088E048EA0908C6F80080D1F8048008F01F
:1013A0008058B8F1805F7DD100BFDFF8CC81D8F8DC
:1013B000188048F00108DFF8C091C9F81880C846C5
:1013C000D8F8188008F00108CDF8008000BF00BFF1
:1013D0004FEAB9384FEA920958F829504FEA827813
:1013E0004FEA18794FF00F0808FA09F825EA0805BE
:1013F000DFF88881434502D14FF0000816E0DFF89E
:101400008081434502D14FF001080FE0DFF874817D
:10141000434502D14FF0020808E0DFF86C814345F4
:1014200002D14FF0030801E04FF004084FEA82793F
:101430004FEA197908FA09F848EA0505DFF84C81FE
:101440004FEA920948F82950D1F8048008F480182E
:10145000B8F5801F0AD1DFF83881D8F8008048EA53
:101460000008DFF82C91C9F8008009E0DFF820813E
:10147000D8F8008028EA0008DFF81491C9F8008045
:10148000D1F8048008F40018B8F5001F10D1DFF877
:10149000008108F10408D8F8008048EA0008DFF865
:1014A000F09000E05AE009F10409C9F800800DE06D
:1014B000DFF8DC8008F10408D8F8008028EA00088A
:1014C000DFF8CC9009F10409C9F80080D1F8048054
:1014D00008F40038B8F5003F0ED1DFF8B480A8F169
:1014E0000408D8F8008048EA0008DFF8A490A9F1C1
:1014F0000409C9F800800DE0DFF89480A8F1040821
:10150000D8F8008028EA0008DFF88490A9F10409DF
:10151000C9F80080D1F8048008F48038B8F5803F1D
:101520000ED1DFF86C80A8F10808D8F8008048EAEE
:101530000008DFF85C90A9F10809C9F800800DE007
:10154000DFF84C80A8F10808D8F8008028EA0008E5
:10155000DFF83C90A9F10809C9F80080521CD1F8C5
:10156000008028FA02F8B8F1000F7FF489AEBDE8D8
:10157000F887000000001110001002400008014030
:10158000000C01400010014000140140080001401F
:1015900008040140024693680B400BB1012000E0B3
:1015A000002070470AB1016101E00B04036170473C
:1015B00001480068704700005000002070B50446E4
:1015C0000CB9012070BD94F83D0028B9002084F8C2
:1015D0003C00204600F0DAF8242084F83D00206822
:1015E000006820F00100216808602068006840F46D
:1015F0000040216808602068006820F400402168ED
:10160000086000F0C9FA05465C496068884206D85F
:101610005B48854201D2012007E0002005E05948DF
:10162000854201D2012000E00020012800D1C9E755
:101630005548B5FBF0F62068406820F03F00304385
:10164000216848604D496068884201D8701C07E0F5
:101650004FF4967070434FF47A71B0FBF1F0401C78
:101660002168096A21F03F01084321680862434963
:101670006068884214D8681E61684900B0FBF1F0C8
:10168000401CC0F30B00042801D204203DE0681E7A
:1016900061684900B0FBF1F0401CC0F30B0034E07E
:1016A000A06838B9681E616801EB4101B0FBF1F038
:1016B000401C0AE0681E616801EBC10202EB0111E7
:1016C000B0FBF1F0401C40F48040C0F30B0008B9BF
:1016D00001201AE0A06848B9681E616801EB410169
:1016E000B0FBF1F0401CC0F30B000CE0681E616819
:1016F00001EBC10202EB0111B0FBF1F0401CC0F3A1
:101700000B0040F4804040F400402168C9694CF669
:10171000FF72914308432168C861D4E90701084377
:101720002168096821F0C001084321680860D4E9F4
:10173000031008432168896848F2FF329143084347
:1017400021688860D4E9050108432168C96821F04F
:10175000FF0108432168C8602068006840F001006C
:101760002168086000202064202084F83D000020CB
:10177000206384F83E0000BF24E70000A08601003B
:1017800080841E0000093D0040420F0010B586B065
:101790000446002002900390049005902B49206895
:1017A000884225D100BF2A48806940F008002849B6
:1017B00088610846806900F00800019000BF00BF02
:1017C000C0200290122003900320059002A9214816
:1017D000FFF750FD00BF1E48C06940F400101C49CF
:1017E000C8610846C06900F40010019000BF2AE0FB
:1017F00019492068884226D100BF1548806940F009
:101800000800134988610846806900F008000190CB
:1018100000BF00BF4FF440600290122003900320ED
:10182000059002A90B48FFF725FD00BF0848C069D5
:1018300040F480000649C8610846C06900F4800091
:10184000019000BF00BF06B010BD00000054004072
:1018500000100240000C014000580040034800689E
:101860000349097808440149086070475000002086
:101870005800002010B50848006840F010000649E4
:101880000860032000F0A8F8002000F007F800F03E
:101890002BF8002010BD00000020024070B5044667
:1018A0000E4800784FF47A71B1FBF0F00C490968EA
:1018B000B1FBF0F5284600F079FD08B1012070BDBC
:1018C000102C07D200222146501E00F047F8054890
:1018D000046001E00120F2E70020F0E7580000205A
:1018E0005C0000205400002008B500BF114880694A
:1018F00040F001000F4988610846806900F001004E
:10190000009000BF00BF00BF0846C06940F0805093
:10191000C8610846C06900F08050009000BF00BF59
:1019200000BF0549486820F0E06040F00070486062
:1019300000BF08BD001002400000014001460846FB
:10194000002809DB00F01F0301229A4043099B0095
:1019500003F1E023C3F8002100BF70472DE9F05FD9
:1019600080460D461646002701F03CFF07463946E3
:101970002A46334601F00700C0F1070ABAF1040F06
:1019800002D94FF0040A01E0C0F1070AD14600F184
:10199000040ABAF1070F02D24FF0000A01E0A0F1E9
:1019A000030AD4464FF0010A0AFA09FAAAF1010A19
:1019B0000AEA020A0AFA0CFA4FF0010B0BFA0CFBC6
:1019C000ABF1010B0BEA030B4AEA0B04214640463C
:1019D00001F010FFBDE8F09F00BF00F00702064BCA
:1019E00019684FF6FF031940044B0B4343EA0221E9
:1019F000014B196000BF70470CED00E00000FA05D4
:101A000070B504460D460CB9012070BD5A480068F7
:101A100000F00700A8420ED25748006820F00700E7
:101A20002843554908600846006800F00700A842AE
:101A300001D00120E9E7207800F0020002281DD142
:101A4000207800F00400042805D14C48406840F498
:101A5000E0604A494860207800F00800082805D175
:101A60004648406840F460504449486043484068F4
:101A700020F0F000A168084340494860207800F059
:101A8000010078B36068012806D13C48006800F482
:101A9000003090B90120B8E76068022806D13748C5
:101AA000006800F0007040B90120AEE733480068DC
:101AB00000F0020008B90120A7E73048406820F094
:101AC0000300616808432D494860FFF771FD064631
:101AD00009E0FFF76DFD801B41F28831884202D991
:101AE000032092E707E02548406800F00C00616899
:101AF000B0EB810FEDD12048006800F00700A8424C
:101B00000ED91D48006820F0070028431A490860D4
:101B10000846006800F00700A84201D0012074E7E1
:101B2000207800F00400042807D11448406820F40D
:101B3000E060E168084311494860207800F008003F
:101B4000082808D10D48406820F46050216940EA17
:101B5000C1000A49486000F03FF808494968C1F3EC
:101B60000311074A515CC8400649086006480068EE
:101B7000FFF794FE002048E70020024000100240DA
:101B80002A5C00085C000020540000200148006826
:101B9000704700005C00002000B5FFF7F7FF044924
:101BA0004968C1F30221034A515CC84000BD0000EE
:101BB000001002403A5C000800B5FFF7E7FF044957
:101BC0004968C1F3C221034A515CC84000BD00000E
:101BD000001002403A5C000870B500210022002489
:101BE00000230020134D696801F00C05F5B1042DA8
:101BF00002D0082D19D101E00F4819E00F4DC1F3B3
:101C00008346AB5D01F4803555B10A4D6D68C5F36F
:101C100040450B4E725D084D5D43B5FBF2F402E0AA
:101C2000084D03FB05F4204602E000BF024800BF58
:101C300000BF70BD0010024000127A00185C00085E
:101C4000285C000800093D00F8B504460CB90120E5
:101C5000F8BD207800F00100002878D0F8484068EE
:101C600000F00C0004280CD0F548406800F00C008F
:101C7000082811D1F248406800F48030B0F5803F68
:101C80000AD1EF48006800F4003000285FD0606897
:101C900000285CD10120DBE700BF6068B0F5803F21
:101CA00006D1E748006840F48030E549086028E044
:101CB000606858B9E248006820F48030E049086064
:101CC0000846006820F4802008601AE06068B0F5DB
:101CD000A02F0BD1DA48006840F48020D849086072
:101CE0000846006840F4803008600AE0D448006884
:101CF00020F48030D24908600846006820F4802033
:101D0000086000BF606888B1FFF752FC054606E036
:101D1000FFF74EFC401B642801D9032098E7C84810
:101D2000006800F400300028F2D010E0FFF740FC1B
:101D3000054606E0FFF73CFC401B642801D9032060
:101D400086E7BF48006800F400300028F2D1207810
:101D500000F00200022857D1B948406800F00C009A
:101D600050B1B748406800F00C00082818D1B448BA
:101D7000406800F4803098B9B148006800F0020073
:101D800020B12069012801D0012061E7AC4800683A
:101D900020F0F800616940EAC100A949086033E019
:101DA0002069E8B10120A7490860FFF701FC05465A
:101DB00006E0FFF7FDFB401B022801D9032047E79F
:101DC0009F48006800F002000028F2D09C4800689C
:101DD00020F0F800616940EAC1009949086013E009
:101DE000002098490860FFF7E3FB054606E0FFF78F
:101DF000DFFB401B022801D9032029E79048006837
:101E000000F002000028F2D1207800F00800082835
:101E10002DD1A069B8B101208B490860FFF7C8FB3C
:101E2000054606E0FFF7C4FB401B022801D903204A
:101E30000EE78348406A00F002000028F2D001203B
:101E400001F0AEF913E000207F490860FFF7B0FB16
:101E5000054606E0FFF7ACFB401B022801D9032032
:101E6000F6E67748406A00F002000028F2D12078B8
:101E700000F00400042873D100277148C06900F005
:101E8000805070B900BF6E48C06940F080506C4906
:101E9000C8610846C06900F08050009000BF00BFD4
:101EA00001276A48006800F48070B0B9674800688C
:101EB00040F4807065490860FFF77AFB054606E04C
:101EC000FFF776FB401B642801D90320C0E65F487A
:101ED000006800F480700028F2D000BFE06801289C
:101EE00006D15748006A40F001005549086227E0D2
:101EF000E06858B95248006A20F001005049086271
:101F00000846006A20F00400086219E0E06805282D
:101F10000BD14B48006A40F004004949086208466A
:101F2000006A40F0010008620AE04548006A20F0BB
:101F30000100434908620846006A20F00400086274
:101F400000BFE068A0B1FFF733FB054609E0FFF7EB
:101F50002FFB401B41F28831884202D9032077E6EB
:101F600022E03748006A00F002000028EFD012E0BB
:101F7000FFF71EFB054608E0FFF71AFB401B41F286
:101F80008831884201D9032062E62D48006A00F0BA
:101F900002000028F0D1012F05D12948C06920F0A6
:101FA00080502749C86100BFE069C8B32448406831
:101FB00000F00C00082860D0E069022848D1002019
:101FC00020490866FFF7F4FA054606E0FFF7F0FA45
:101FD000401B022801D903203AE61948006800F0A6
:101FE00000700028F2D1206AB0F5803F07D1144874
:101FF000406820F40030A168084311494860D4E9E2
:10200000080108430E49496821F4741108430C493A
:10201000486001200B490866FFF7CAFA054607E049
:102020003DE0FFF7C5FA401B022801D903200FE667
:102030000348006800F000700028F2D02FE0000094
:102040000010024000004242800442420070004002
:10205000002014490866FFF7ABFA054606E0FFF7D3
:10206000A7FA401B022801D90320F1E50E480068B9
:1020700000F000700028F2D111E0E069012800D1E1
:10208000E6E50948466806F48031206A814204D1B9
:1020900006F47011606A814201D00120D8E5002069
:1020A000D6E50000000042420010024010B5044690
:1020B0000CB9012010BD606A38B96068B0F5827F44
:1020C00000D105E00021E16102E0002121616161B0
:1020D0000021A16294F8510028B9002084F8500032
:1020E000204600F043F8022084F851002068006880
:1020F00020F0400021680860A08800F482702189E7
:1021000001F404410843A18901F400610843217CE2
:1021100001F002010843217D01F001010843218BF8
:1021200001F400710843217F01F0380108432021A8
:10213000095D01F080010843218D01F4005108433D
:10214000216808600421A06901EA10402168486004
:102150002068C06920F400602168C86100206065C3
:10216000012084F851000020A4E7000010B586B0DB
:1021700004460020029003900490059019492068BD
:1021800088422DD100BF1848806940F4805016491C
:1021900088610846806900F48050019000BF00BF4C
:1021A00000BF0846806940F00400886108468069E5
:1021B00000F00400019000BF00BFA02002900220A8
:1021C00003900320059002A90848FFF753F8402028
:1021D000029000200390049002A90448FFF74AF8F7
:1021E00006B010BD00300140001002400008014060
:1021F0002DE9F84F0446884616461D464FF0000A62
:1022000000BF94F85000012802D10220BDE8F88FE9
:10221000012084F8500000BFFFF7CAF90746B14615
:1022200094F85100012802D04FF0020AB7E0B8F14B
:10223000000F00D016B94FF0010AB0E0032084F877
:10224000510000206065C4F83080A686E686A06351
:10225000A087E08760642064A068B0F5004F0BD1D0
:102260002068006820F0400021680860206800684D
:1022700040F48040216808602068006800F0400059
:10228000402805D02068006840F0400021680860C0
:10229000E068B0F5006F32D1606810B1B9F1010F9C
:1022A00009D1206B00882168C860206B801C2063E6
:1022B000E08E401EE0861EE02068806800F002008C
:1022C00002280AD1206B00882168C860206B801C1E
:1022D0002063E08E401EE0860DE0FFF769F9C01B29
:1022E000A84201D3681C00B92DB94FF0030A0120A0
:1022F00084F8510053E0E08E0028DDD131E06068C1
:1023000010B1B9F1010F09D1206B00782168087371
:10231000206B401C2063E08E401EE0861EE020689B
:10232000806800F0020002280AD1206B0078216842
:102330000873206B401C2063E08E401EE0860DE099
:10234000FFF736F9C01BA84201D3681C00B92DB9AC
:102350004FF0030A012084F8510020E0E08E0028AD
:10236000DDD13A462946204600F02EFF08B1202054
:102370006065A06850B900BF002000902068C06868
:10238000009020688068009000BF00BF606D10B1B1
:102390004FF0010A02E0012084F8510000BF00BFA5
:1023A000002084F8500000BF50462FE770B5044667
:1023B0002546681EB0F1807F01D301200FE0681E22
:1023C0004FF0E02148610F214FF0FF3001F012FA89
:1023D00000204FF0E021886107200861002070BDD7
:1023E00070477047704710B5044620680069C0F315
:1023F0004000D8B12068C068C0F34000B0B16FF0B1
:10240000020021680861012020772068806900F0BF
:10241000030018B12046FFF7E5FF05E0204600F075
:10242000ADF8204600F0ABF8002020772068006966
:10243000C0F38000D8B12068C068C0F38000B0B19C
:102440006FF004002168086102202077206880690D
:1024500000F4407018B12046FFF7C4FF05E02046A5
:1024600000F08CF8204600F08AF8002020772068E1
:102470000069C0F3C000D8B12068C068C0F3C000D4
:10248000B0B16FF00800216808610420207720684F
:10249000C06900F0030018B12046FFF7A3FF05E074
:1024A000204600F06BF8204600F069F80020207705
:1024B00020680069C0F30010D8B12068C068C0F37C
:1024C0000010B0B16FF0100021680861082020777B
:1024D0002068C06900F4407018B12046FFF782FF01
:1024E00005E0204600F04AF8204600F048F80020B9
:1024F00020772068006900F0010058B12068C068AA
:1025000000F0010030B16FF0010021680861204641
:1025100000F036F820680069C0F3C01058B1206898
:10252000C068C0F3C01030B16FF08000216808614E
:102530002046FFF755FF20680069C0F3801058B1AE
:102540002068C068C0F3801030B16FF0400021688F
:102550000861204600F015F820680069C0F34010BB
:1025600058B12068C068C0F3401030B16FF020004F
:10257000216808612046FFF734FF10BD704770479F
:1025800070477047704770472DE9F84F0446206840
:1025900005682068C668206847694FF00009CA4688
:1025A00005F00F09B9F1000F0AD105F0200038B18C
:1025B00006F0200020B1204600F060FFBDE8F88F53
:1025C000B9F1000F7BD007F0010018B906F4907044
:1025D000002874D005F0010030B106F4807018B105
:1025E000606C40F00100606405F0040030B107F059
:1025F000010018B1606C40F00200606405F0020058
:1026000030B107F0010018B1606C40F00400606464
:1026100005F0080048B106F0200010B907F00100ED
:1026200018B1606C40F008006064606C002845D010
:1026300005F0200028B106F0200010B1204600F07F
:102640001DFF20684069C0F3801A606C00F008002C
:1026500010B9BAF1000F2CD0204600F0C9FE206856
:10266000406900F0400000B300BF00BF2168143192
:1026700051E8001F21F040002168143141E80002B8
:10268000002AF3D100BFE06B50B17748E16B48639B
:10269000E06BFEF783FD88B1E06B416B88470DE08E
:1026A0002046FFF770FF09E009E02046FFF76BFFC7
:1026B00004E02046FFF767FF002060647EE7206BA0
:1026C000012877D105F01000002873D006F0100023
:1026D0000028FAD000BF0020009020680068009019
:1026E00020684068009000BF00BF2068406900F08B
:1026F000400000285FD0E06B006840681FFA80F857
:10270000B8F1000F55D0A08D404552DDA4F82E80C1
:10271000E06B8069202843D000BF00BF21680C31E6
:1027200051E8001F21F4807021680C3141E800025B
:10273000002AF3D100BF00BF00BF2168143151E867
:10274000001F21F001002168143141E80002002A35
:10275000F3D100BF00BF00BF2168143151E8001F52
:1027600021F040002168143141E80002002AF3D131
:1027700000BF202084F842000020206300BF00BF7B
:1027800021680C3151E8001F21F0100021680C3144
:1027900041E80002002AF3D100BFE06BFEF7D2FC53
:1027A00002206063A08DE28D801A81B22046FFF77F
:1027B000E9FE03E742E0A08DE18D401A1FFA80F8A0
:1027C000E08DD0B3B8F1000F37D000BF00BF216853
:1027D0000C3151E8001F21F4907021680C3141E860
:1027E0000002002AF3D100BF00BF00BF21681431EE
:1027F00051E8001F21F001002168143141E8000276
:10280000002AF3D100BF202084F84200002020637A
:1028100000BF00BF21680C3151E8001F21F01000FB
:1028200021680C3141E80002002AF3D100BF0220E8
:10283000606341462046FFF7A5FEBFE605F0800035
:1028400030B106F0800018B1204600F033FFB5E645
:1028500005F0400030B106F0400018B1204600F00D
:10286000FDFDABE600BFA9E6DD33000810B5044668
:102870000CB9012010BDA06900B100E000BF94F8C0
:10288000410028B9002084F84000204600F02AF8D2
:10289000242084F841002068C06820F4005021689A
:1028A000C860204600F068FE2068006920F490406F
:1028B000216808612068406920F02A002168486189
:1028C0002068C06840F400502168C860002060643F
:1028D000202084F8410084F842000020606300BF9B
:1028E000C8E7000010B586B00446002002900390AF
:1028F000049005901E492068884236D100BF1D48CB
:10290000806940F480401B4988610846806900F472
:102910008040019000BF00BF00BF0846806940F0C2
:10292000040088610846806900F00400019000BF3F
:1029300000BF48150290022003900320059002A9D1
:102940000D48FEF797FC4FF4806002900020039042
:10295000049002A90848FEF78DFC002202212520E0
:10296000FEF7FCFF2520FEF7E9FF06B010BD0000D2
:1029700000380140001002400008014070B50446D4
:102980000D46164694F8420020280BD105B10EB929
:10299000012070BD0020206332462946204600F009
:1029A00069FEF6E70220F4E710B5044620492068E6
:1029B00088423BD11F48008800F4004088BB1D4876
:1029C000008800F4804070B11B4800780A2806D1C6
:1029D0001848008840F400401649088021E0002093
:1029E000144908801DE0144800780D2806D11148CC
:1029F000008840F480400F49088012E00E480078BB
:102A00000C490988C1F30D010C4A5054094800884B
:102A1000401C0849088008460088C72801DD0020BE
:102A20000880012204490648FFF7A8FF10BD0000F6
:102A3000003801400000002002000020900100202A
:102A4000300400202DE9F84F04460E4617469946FB
:102A50004FF0000A94F8410020284AD106B117B976
:102A60000120BDE8F88F00206064212084F8410037
:102A7000FEF79EFD8246A784E784A068B0F5805FDC
:102A800004D1206910B90025B04602E035464FF068
:102A900000081BE05346002280212046CDF800901C
:102AA00000F038FE08B10320DBE745B9B8F80000B4
:102AB000C0F308002168486008F1020803E02878A4
:102AC000216848606D1CE08C401EE084E08C00288A
:102AD000E0D15346002240212046CDF8009000F07E
:102AE00019FE08B10320BCE7202084F84100002033
:102AF000B7E70220B5E7704700BFFEE72DE9F041D8
:102B000004460D4616461F462A2000F0F3F9611CC4
:102B100088B200F0E0F9711C88B200F0DCF92B20DB
:102B200000F0E8F9A91C88B200F0D5F9B91C88B208
:102B300000F0D1F92C2000F0DDF9BDE8F08170B58E
:102B400004460D4616462B46224629462046FFF7E8
:102B5000D5FF304600F0BFF970BD2DE9F0470646BD
:102B60000F4614461D46DDF820A0681E83B2601E85
:102B700082B239463046FFF7C1FFB8460EE0B14693
:102B800006E0504600F0A7F909F101001FFA80F9AC
:102B9000A145F6DB08F101001FFA80F8A845EEDB3D
:102BA000BDE8F08710B5002204217C48FEF7FAFC4E
:102BB0006420FEF74BFB012204217848FEF7F2FC6B
:102BC0006420FEF743FB012202217448FEF7EAFC71
:102BD0006420FEF73BFB112000F08CF97820FEF713
:102BE00035FBB12000F086F9022000F07DF9352098
:102BF00000F07AF9362000F077F9B22000F07AF987
:102C0000022000F071F9352000F06EF9362000F056
:102C10006BF9B32000F06EF9022000F065F9352061
:102C200000F062F9362000F05FF9022000F05CF954
:102C3000352000F059F9362000F056F9B42000F0A4
:102C400059F9032000F050F9C02000F053F9A220F8
:102C500000F04AF9022000F047F9842000F044F91E
:102C6000C12000F047F9C52000F03EF9C22000F075
:102C700041F90D2000F038F9002000F035F9C320AB
:102C800000F038F98D2000F02FF92A2000F02CF9FF
:102C9000C42000F02FF98D2000F026F9EE2000F07E
:102CA00023F9C52000F026F90A2000F01DF936208E
:102CB00000F020F9782000F017F9E02000F01AF970
:102CC000122000F011F91C2000F00EF9102000F085
:102CD0000BF9182000F008F9332000F005F92C203A
:102CE00000F002F9252000F0FFF8282000F0FCF8A1
:102CF000282000F0F9F8272000F0F6F82F2000F047
:102D0000F3F83C2000F0F0F8002000F0EDF803208C
:102D100000F0EAF8032000F0E7F8102000F0E4F8F3
:102D2000E12000F0E7F8122000F0DEF81C2000F0AF
:102D3000DBF8102000F0D8F8182000F0D5F82D208E
:102D400000F0D2F8282000F0CFF8232000F0CCF8D3
:102D5000282000F0C9F8282000F0C6F8262000F04E
:102D6000C3F82F2000F0C0F83B2000F0BDF8002091
:102D700000F0BAF8032000F0B7F8032000F0B4F830
:102D8000102000F0B1F83A2000F0B4F8052000F06F
:102D9000ABF8292000F0AEF810BD0000000801409B
:102DA0002DE9FF4F83B005468A461746119CAB4676
:102DB000204604EBD071C1F347063046F11706EB0D
:102DC0005171C910614389B20191A7F12000C7B2C6
:102DD0000AEB0400401E83B2A819401E82B251467D
:102DE0002846FFF78BFE4FF000094AE0102C06D171
:102DF000264800EB071010F8090002900BE0202C89
:102E000006D1234800EB871010F80900029002E079
:102E100007B0BDE8F08F4FF000082AE0129868B9BB
:102E2000012000FA08F00299084018B1069800F055
:102E300052F81AE0109800F04EF816E0012000FA5F
:102E400008F00299084020B151462846069AFFF73B
:102E500076FE681C85B2A5EB0B00B04205D15D463D
:102E60000AF101001FFA80FA06E008F1010000F003
:102E7000FF08B8F1080FD1DB00BF09F101001FFA0C
:102E800080F901988145B1DB00BFC1E7425C0008D1
:102E9000326200082DE9FE4F06460F46144698465A
:102EA000DDE90D5ADDF8309010E0CDE9015ACDF89A
:102EB00000902278434639463046FFF771FF284696
:102EC00005EBD07106EB61018EB2641C20780028FE
:102ED000EBD1BDE8FE8F10B50446201200F01CF8BF
:102EE000E0B200F019F810BD10B50446204600F01D
:102EF00013F810BD10B50446002208210548FEF75E
:102F000051FB204600F008F8012208210148FEF795
:102F100049FB10BD0008014001B5002210210848FE
:102F2000FEF740FB4FF47A73012269460548FFF72C
:102F30005FF9012210210248FEF734FB08BD0000B2
:102F4000000801400003002000B585B0002001907A
:102F500002900390049000BF4848806940F0100040
:102F6000464988610846806900F01000009000BF63
:102F700000BF00BF0846806940F020008861084615
:102F8000806900F02000009000BF00BF00BF08462D
:102F9000806940F0040088610846806900F0040000
:102FA000009000BF00BF00BF0846806940F00800E5
:102FB00088610846806900F00800009000BF00BFEB
:102FC000012251032E48FEF7EDFA01221E212D4861
:102FD000FEF7E8FA012203212B48FEF7E3FA00226C
:102FE0004FF446712848FEF7DDFA4FF40050019087
:102FF00001200290002003900220049001A92048A3
:10300000FEF738F94FF44040019000200290022072
:10301000039001A91A48FEF72DF940F6010001902E
:10302000002002900220039001A91648FEF722F921
:103030001E200190012002900020039003200490A4
:1030400001A91048FEF716F9032001900120029013
:1030500003900320049001A90B48FEF70BF94FF4ED
:1030600046700190012002900020039002200490FD
:1030700001A90548FEF7FEF805B000BD00100240AA
:103080000010014000080140000C014010B50B4841
:103090000B4908600B484860002109488160C16005
:1030A0004FF480410161002141618161C161016290
:1030B000FEF784FA08B1FEF718F810BD005400407E
:1030C00058020020A086010000B585B000200190C4
:1030D00002900390049000BF1D48806940F00400F6
:1030E0001B4988610846806900F00400009000BF19
:1030F00000BF01221E211748FEF754FA1E2001903E
:1031000001200290002003900320049001A911489F
:10311000FEF7B0F81048114908604FF4827048601B
:1031200000210E488160C160016141614FF400716E
:1031300081610821C16100210162416281620A212D
:10314000C162FEF7B3FF08B1FDF7CFFF05B000BDC8
:103150000010024000080140003001400003002040
:1031600010B50B480B4908604FF416504860002119
:1031700008488160C16001610C21416100218161C9
:10318000C161FFF773FB08B1FDF7AFFF10BD000091
:10319000003801403004002000BFFEE77047704750
:1031A00008B508490968C9084FF47A72B1FBF2F111
:1031B0004143009100BF00BF00994A1E00920029C0
:1031C000F9D108BD5C000020F8B504460D4616464E
:1031D0002B46002280212046009600F009F828B1F5
:1031E000606D40F0200060650320F8BD0020FCE722
:1031F0002DE9F84F04460D4690461E46DDF828900E
:10320000FEF7D6F9A0EB0900371AFEF7D1F982468E
:103210002C480068C0F3CB307843009045E0701C28
:10322000002842D0FEF7C4F9A0EB0A00B84200D251
:10323000A7BB2068406820F0E00021684860606813
:10324000B0F5827F0DD1A068B0F5004F03D0A06823
:10325000B0F5806F05D12068006820F0400021683B
:103260000860A06AB0F5005F0DD100BF206800685B
:1032700020F40050216808602068006840F4005085
:103280002168086000BF012084F8510000BF0020C1
:1032900084F8500000BF0320BDE8F88FFFE70098D6
:1032A00000B900270098401E0090206880682840E0
:1032B000A84201D1012000E000204045AFD100200C
:1032C000EAE700005C000020704710B50446FDF7F7
:1032D0009FFD4620FDF76CFD2046FDF769FDFDF7DB
:1032E000B7FD10BD10B5FEF7B9FA10BD00B58FB02F
:1032F000282105A8FCF72FFF14216846FCF72BFFB7
:1033000001200590000406900020079001200990FC
:1033100002200C90C1030D914FF4E0110E9105A80D
:10332000FEF792FC08B1FDF7E0FE0F2000900220AE
:103330000190002002904FF48060039000200490E0
:1033400002216846FEF75CFB08B1FDF7CEFE0FB028
:1033500000BD00001148006840F001000F490860FE
:10336000084640680E4908400C4948600846006815
:103370000C490840094908600846006820F480208C
:1033800008600846406820F4FE0048604FF41F00C3
:103390008860C803044908607047000000100240BC
:1033A0000000FFF8FFFFF6FE08ED00E010B5024850
:1033B000FFF719F810BD00005803002010B50248AF
:1033C000FFF711F810BD0000A003002010B502485F
:1033D000FFF709F810BD0000E803002070B50546AE
:1033E0006C6A0020E085E0842046FFF7CCF870BDD1
:1033F00000BF00BF02680C3252E8002F22F4907127
:1034000002680C3242E80013002BF3D100BF00BF6A
:1034100000BF0268143252E8002F22F00101026856
:10342000143242E80013002BF3D100BF016B0129D5
:103430000ED100BF00BF02680C3252E8002F22F00C
:10344000100102680C3242E80013002BF3D100BFD8
:10345000202180F8421000210163704710B5044616
:103460002068C06820F040002168C860202084F8EF
:1034700041002046FFF73FFB002010BDF8B5044691
:1034800094F84200222875D1A068B0F5805F0CD175
:10349000206950B90025A66A20684068C0F308007A
:1034A0003080A06A801CA06215E0A56A0026A06892
:1034B000B0F5805F03D0A06828B9206918B92068EA
:1034C0004068287004E02068406800F07F002870A1
:1034D000A06A401CA062E08D401E80B2E0850028FA
:1034E00046D12068C06820F020002168C8602068AC
:1034F000C06820F480702168C8602068406920F0AE
:10350000010021684861202084F8420000206063A7
:10351000206B012826D10020206300BF00BF216856
:103520000C3151E8001F21F0100021680C3141E8F6
:103530000002002AF3D100BF2068006800F01000EC
:1035400010280AD100BF0020009020680068009079
:1035500020684068009000BF00BFA18D2046FFF7A3
:1035600011F802E02046FFF71FFA0020F8BD01E045
:103570000020FBE70220F9E770B5044621680969DD
:1035800021F44051E2681143226811612269A16867
:103590001143626941EA02052168C96841F20C627F
:1035A000914329432268D1602168496921F440711F
:1035B000A2691143226851612D4A2168914202D1CA
:1035C000FEF7FAFA01E0FEF7E7FA00EBC00101EBC3
:1035D000001162689200B1FBF2F100EBC00202EB55
:1035E000001263689B00B2FBF3F26423B2FBF3F2B8
:1035F00002EBC20303EB0212A1EB8201322202EBC7
:1036000001116422B1FBF2F101F0F00100EBC00204
:1036100002EB001263689B00B2FBF3F26423B2FB7F
:10362000F3F201EB021200EBC00101EB0011636841
:103630009B00B1FBF3F100EBC00303EB00136668E2
:10364000B600B3FBF6F36426B3FBF6F303EBC30655
:1036500006EB0313A1EB8301322303EB0111642377
:10366000B1FBF3F101F00F0111442268916070BDCC
:103670000038014010B5034699629A85DA8500202A
:103680005864222083F84200186928B11868C0687D
:1036900040F480701C68E0601868406940F00100E8
:1036A0001C6860611868C06840F020001C68E06019
:1036B000002010BD014691F84100212828D18868DA
:1036C000B0F5805F0BD1086948B90A6A1088C0F369
:1036D00008000B685860086A801C086205E00B6AE5
:1036E000581C086218780B685860C88C401E80B25D
:1036F000C88458B90868C06820F080000B68D8609A
:103700000868C06840F040000B68D860002070472F
:103710000220FCE72DE9F04104460D461746984685
:10372000069E34E0701C88B32EB1FDF741FFA0EB7C
:103730000800B0422BD900BF00BF21680C3151E80E
:10374000001F21F4D07021680C3141E80002002AEA
:10375000F3D100BF00BF00BF2168143151E8001F42
:1037600021F001002168143141E80002002AF3D160
:1037700000BF202084F8410084F8420000BF0020F0
:1037800084F8400000BF0320BDE8F081FFE7206817
:1037900000682840A84201D1012000E00020B84282
:1037A000C0D00020F0E7000010B50248FEF7ECFEA4
:1037B00010BD00003004002000BFFEE70FB4084B2E
:1037C00010B504A902AA039800F038F8044602A92B
:1037D000002000F0D4F9204610BC5DF814FB000076
:1037E0007F3B000802480068C0F3022070470000D9
:1037F0000CED00E010B5002804DB0A07130E054AA3
:10380000135406E00A07140E034A00F00F031B1FAF
:10381000D45410BD00E400E018ED00E002E008C858
:10382000121F08C1002AFAD170477047002001E03A
:1038300001C1121F002AFBD1704700002DE9FF4F84
:103840008BB088460546002606E025280BD0DDE92A
:103850000D1290476D1C761C28780028F5D10FB00A
:103860003046BDE8F08F0024A146A2460122AE49B1
:1038700000E0044315F8013F203B02FA03F0084240
:10388000F7D128782A2810D06FF02F022878A0F1DD
:103890003001092915D809EB890102EB410144F0F7
:1038A000020400EB01096D1CF0E758F8041B5FEA05
:1038B000010903D544F40054C9F1000944F002049D
:1038C0006D1C28782E2817D115F8010F44F0040438
:1038D0002A280ED06FF02F022878A0F13001092994
:1038E0000AD80AEB8A0102EB410100EB010A6D1CC8
:1038F000F2E758F804AB6D1C28786C280FD006DC72
:103900004C2817D068280DD06A2814D104E07428F8
:1039100010D07A280FD10DE044F400140AE044F4EA
:10392000801401E044F440146978814202D104F526
:1039300080146D1C6D1C2878692865D006DC002871
:103940008DD0632827D0642806D15DE06E2808D08A
:1039500073282AD0752877D0DDE90D129047761CA0
:10396000E0E0C4F30250022809D003280DD0D8F8B3
:10397000001004280DD00E6008F10408D2E0D8F839
:103980000010F217C1E90062F6E7D8F800100E80C7
:10399000F2E70E70F0E718F8041B8DF80010002015
:1039A0008DF80100EB46012003E058F804BB4FF00E
:1039B000FF3061074FF0000701D40AE07F1C574534
:1039C0000DDA8742FADB1BF807100029F6D106E072
:1039D0007F1C8742FCDB1BF807100029F8D1DDE9CA
:1039E0000D23A9EB07008146214600F0B1F83044D1
:1039F000C61904E0DDE90D121BF8010B90477F1E8C
:103A0000F8D22146484688E058F8040BC4F3025126
:103A10004FF00A0B032900D100B2042900D140B2B3
:103A2000002802DA40422D2102E0210505D52B2194
:103A30008DF82410012104E006E0E10710D02021D8
:103A4000F6E708AF089113E058F8040BC4F30251ED
:103A50004FF00A0B032900D180B2042900D1C0B273
:103A60000021EEE75946FCF72BFE303107F8011D27
:103A70000028F7D1ADEB070000F1200B600702D55D
:103A800024F4803401E04FF0010ADA4502DDAAEBAC
:103A90000B0000E00020824600EB0B010898014477
:103AA000A9EB01000A90E00306D4DDE90D232146CD
:103AB0000A9800F04DF806444FF0000908E009A903
:103AC00011F80900DDE90D12904709F10109761C92
:103AD00008998945F3DBE0030CD5DDE90D23214688
:103AE0000A9800F035F8064404E0DDE90D123020B4
:103AF0009047761CBAF10001AAF1010AF5DC05E055
:103B0000DDE90D1217F8010B9047761CBBF100019F
:103B1000ABF1010BF4DC0A982146DDE90D2300F03E
:103B200005F806446D1C97E6092801002DE9F041CF
:103B3000044600251E461746880404D405E039468D
:103B40002020B0476D1C641EF9D52846BDE8F081E1
:103B50002DE9F041044600251E469046C80301D5D4
:103B6000302700E02027880404D505E04146384688
:103B7000B0476D1C641EF9D52846BDE8F0810A687F
:103B8000531C0B601070704700BF011EA0F10100B4
:103B9000FBD1704700BF011EA0F10100FBD17047AF
:103BA000002100E0491C8142FCD3704731E000BF96
:103BB00000BF00BF00BF00BF00BF00BF00BF00BF0D
:103BC00000BF00BF00BF00BF00BF00BF00BF00BFFD
:103BD00000BF00BF00BF00BF00BF00BF00BF00BFED
:103BE00000BF00BF00BF00BF00BF00BF00BF00BFDD
:103BF00000BF00BF00BF00BF00BF00BF00BF00BFCD
:103C000000BF00BF00BF00BF00BF00BF00BF00BFBC
:103C100000BF011EA0F1010290B2C8D1704770B57B
:103C200000F02CFBCC2000F016FB442000F013FB2E
:103C30004FF4A070FFF7A8FF00F020FBCC2000F0AD
:103C40000AFBBE2000F007FB00F000FB044600F07A
:103C5000FDFA054644EA052070BD000010B50024B9
:103C6000012208216648FDF79DFC002210216448CE
:103C7000FDF798FC00224FF480716148FDF792FC3B
:103C800000224FF400715E48FDF78CFC4FF4006198
:103C90005C48FDF77FFC08B1012415E04FF480413A
:103CA0005948FDF777FC08B105240DE04FF40041B9
:103CB0005548FDF76FFC08B1092405E00121514882
:103CC000FDF768FC00B10D24002208214C48FDF7E7
:103CD00069FC012210214A48FDF764FC00224FF4E0
:103CE00080714748FDF75EFC00224FF400714448A4
:103CF000FDF758FC4FF400614248FDF74BFC08B15A
:103D0000022415E04FF480413F48FDF743FC08B121
:103D100006240DE04FF400413B48FDF73BFC08B1A1
:103D20000A2405E001213748FDF734FC00B10E24D8
:103D3000002208213248FDF735FC002210213048CE
:103D4000FDF730FC012211022D48FDF72BFC00226B
:103D50004FF400712A48FDF725FC4FF40061294813
:103D6000FDF718FC08B1032415E04FF48041264804
:103D7000FDF710FC08B107240DE04FF40041224884
:103D8000FDF708FC08B10B2405E001211D48FDF7F3
:103D900001FC00B10F24002208211948FDF702FCA4
:103DA000002210211648FDF7FDFB00224FF4807120
:103DB0001348FDF7F7FB012251021148FDF7F2FB12
:103DC0004FF400610F48FDF7E5FB08B1042415E04E
:103DD0004FF480410C48FDF7DDFB08B108240DE0ED
:103DE0004FF400410848FDF7D5FB08B10C2405E06D
:103DF00001210448FDF7CEFB00B11024204610BD80
:103E0000000C014000080140001001400EB5FDF714
:103E100031FDFFF76BFAFFF797F8FFF737F9FFF778
:103E20009FF9FFF751F9FEF7BDFE4FF6FF708023B3
:103E30001A46002100900846FEF78FFEFDF72EF986
:103E4000FCF7FCFE01228B498B48FEF797FDFDF73E
:103E500047F88AA19348FFF7B1FC9248FCF786F92E
:103E60001FFA80F932234A468E498348FEF7EAFD5D
:103E70008DA18C48FFF7A2FC8A48FCF777F91FFA5E
:103E800080F932234A4687497B48FEF7DBFD8EA145
:103E90008448FFF793FC8348FCF768F91FFA80F920
:103EA00032234A467F497448FEF7CCFD00208F49F3
:103EB00008608F4908608F490860002500240026AB
:103EC000FDF776FB0746FDF773FB804601F0BAFC71
:103ED000CEE08948008800F40040002853D000203C
:103EE00085490988C1F30D01844A5054029002AA01
:103EF00083A18248FCF742F901282CD102980128BD
:103F000018DB0298042815DC7F49029808600846EF
:103F10007EA102686348FFF751FC6248FCF726F96E
:103F20001FFA80F94FF47A734A465E495248FEF709
:103F300089FD20E07AA15B48FFF740FC5948FCF777
:103F400015F91FFA80F94FF47A734A4655494A48E1
:103F5000FEF778FD0FE079A15248FFF72FFC51489A
:103F6000FCF704F91FFA80F94FF47A734A464D4979
:103F70004148FEF767FD00205F490880C8215F487F
:103F8000FCF7E9F800BFFDF713FBA0EB0800C82819
:103F900004D9FDF70DFB804601F054FCFDF708FB4A
:103FA000C01B322864D9FDF703FB0746FFF756FE16
:103FB000054686EA050000EA05042E46012C22DBB0
:103FC0000F2C20DC674804704FF6FF70122380220C
:103FD000242100900020FEF7C0FD6248027862A113
:103FE0003048FFF7EBFB002010214FF6FF721F2334
:103FF000CDE9002102902B4A2421FEF74BFF5948BE
:1040000000785B490870102C32D138480068401C99
:1040100036490860534801783B48006801F07CFB52
:10402000324800683249086000204E4908704FF657
:10403000FF7012238022242100900020FEF78DFDC6
:104040004848027848A11748FFF7B8FB0020102124
:104050004FF6FF721F23CDE900210290114A24215F
:10406000FEF718FF3F4800784149087001F0EAFB6D
:104070002FE7000002000020300400203D3D3D20DD
:1040800053656E736F7220446174612050726F6368
:10409000657373696E672053797374656D203D3D58
:1040A0003D0D0A006400002053656E643A204D4FB8
:1040B0004445205B312D345D20746F20736574207E
:1040C0006D6F64650D0A00005072657373204B6557
:1040D0007920313620284F4B2920746F2070726F61
:1040E0006365737320646174610D0A000800002029
:1040F0000C00002010000020000000209001002093
:104100004D4F444520256400040000204D6F646538
:104110002073657420746F3A2025640D0A00000036
:104120004572726F723A204D6F6465206D757374BD
:1041300020626520312D340D0A0000004572726F37
:10414000723A20466F726D61742073686F756C648B
:10415000206265204D4F4445205B312D345D0D0AB2
:1041600000000000140000204B65793A25326400FD
:10417000280000201FB500200090019002900390BD
:104180000220009000200190029069460148FDF74E
:1041900071F81FBD000C01401FB500200090019078
:1041A00002900390022000900120019003200390D0
:1041B0000020029069460248FDF75CF81FBD000030
:1041C000000C014010B5FCF723FE4720FCF7F0FD82
:1041D00000240EE0FCF776FD0A490855032C03D1B4
:1041E0000120FCF7B1FD02E00020FCF7ADFD601CF2
:1041F000C4B2032CEEDBFCF72BFE0120FCF765FFBD
:1042000010BD00006100002010B50446FFF7C4FF98
:10421000002202210C48FDF7C5F91020FFF7B4FC7D
:104220000CB1FFF7A7FF9020FFF7AEFC0221064874
:10423000FDF7B0F900B900244FF43470FFF7A4FC87
:10424000FFF798FF204610BD000C014010B5FF207D
:1042500000F001F810BD70B50446082600BF04F058
:104260000100FFF7D1FF054664100DB144F0800452
:10427000701EC0B2061EF2D1204670BD10B5FFF709
:104280008BFF002202210F48FDF78CF94FF4C85034
:10429000FFF77AFCFFF76EFF4FF48460FFF774FCC2
:1042A00002210848FDF776F904464FF4CF50FFF796
:1042B0006BFC02210348FDF76DF900B9012420468B
:1042C00010BD0000000C01402DE9F04F81461C4656
:1042D000099D4FF0000C00260023984600279A46BF
:1042E0000020DFF800B4CBF80000DFF8FCB3CBF817
:1042F0000000FE480068401CDFF8F0B3CBF8000077
:10430000F8480068401CDFF8DCB3CBF80000F74841
:104310004068401CDFF8D4B3CBF80400F1480068D3
:10432000401CDFF8C0B3CBF8000011F1320F01DB05
:1043300096291FDDEE480068401CDFF8B4B3CBF8C7
:104340000000E9480068401CDFF89CB3CBF800008F
:10435000E6488068401CDFF894B3CBF80800E148D9
:104360000068401CDFF87CB3CBF8000040F22D1051
:10437000BDE8F08FDE484068401CDFF874B3CBF82E
:104380000400D9480068401CDFF85CB3CBF800009B
:10439000D648C068401CDFF854B3CBF80C00D148B5
:1043A0000068401CDFF83CB3CBF80000002A01DBBA
:1043B000642A1EDDCE488068401CDFF834B3CBF899
:1043C0000800C9480068401CDFF81CB3CBF80000A7
:1043D000C6480069401CDFF814B3CBF81000C14890
:1043E0000068401CDFF8FCB2CBF800004FF4977077
:1043F000BEE7BF48C068401CDFF8F4B2CBF80C0041
:10440000B9480068401CDFF8E0B2CBF80000B748BC
:104410004069401CDFF8D4B2CBF81400B148006802
:10442000401CDFF8C0B2CBF80000002C02DBB4F572
:10443000803F1EDBAE480069401CDFF8B4B2CBF809
:104440001000A9480068401CDFF89CB2CBF80000BF
:10445000A6488069401CDFF894B2CBF81800A14848
:104460000068401CDFF87CB2CBF8000040F231104D
:104470007EE79F484069401CDFF874B2CBF8140017
:1044800099480068401CDFF860B2CBF800009748FC
:10449000C069401CDFF854B2CBF81C00914800689A
:1044A000401CDFF840B2CBF80000002D01DB102DDE
:1044B0001EDD8F488069401CDFF834B2CBF818004D
:1044C00089480068401CDFF820B2CBF8000087481C
:1044D000006A401CDFF814B2CBF820008148006865
:1044E000401CDFF800B2CBF800004FF499703FE7B2
:1044F0007F48C069401CDFF8F8B1CBF81C007A484F
:104500000068401CDFF8E0B1CBF800007748406A53
:10451000401CDFF8D8B1CBF8240072480068401C7A
:10452000DFF8C0B1CBF80000B4F57A7F1DDB70482E
:10453000006A401CDFF8B8B1CBF820006A48006878
:10454000401CDFF8A4B1CBF8000001266748806A60
:10455000401CDFF898B1CBF8280062480068401C86
:10456000DFF880B1CBF800001CE06148406A401CD5
:10457000DFF87CB1CBF824005B480068401CDFF812
:1045800068B1CBF8000000265848C06A401CDFF82C
:104590005CB1CBF82C0053480068401CDFF844B1F4
:1045A000CBF800005148006B401CDFF840B1CBF85D
:1045B00030004C480068401CDFF828B1CBF8000000
:1045C000642C1DDA4A48806A401CDFF824B1CBF81D
:1045D000280045480068401CDFF80CB1CBF800000B
:1045E00000274248406B401CDFF800B1CBF8340094
:1045F0003C480068401CDFF8ECB0CBF800005FE0FE
:10460000B4F57A7F1DDA3A48C06A401CDFF8E0B0A2
:10461000CBF82C0034480068401CDFF8CCB0CBF855
:10462000000001273148806B401CDFF8C0B0CBF898
:1046300038002C480068401CDFF8A8B0CBF8000018
:104640003EE042F2107084421DDA2948006B401CA3
:10465000DFF89CB0CBF8300023480068401CDFF83E
:1046600088B0CBF8000002272048C06B401CDFF860
:104670007CB0CBF83C001B480068401CDFF864B0FD
:10468000CBF800001CE01A48406B401CDFF860B01B
:10469000CBF8340014480068401CDFF84CB0CBF86D
:1046A000000003271148006C401CDFF840B0CBF835
:1046B00040000C480068401CDFF828B0CBF8000030
:1046C0000A48406C401CDFF824B0CBF84400054891
:1046D0000068401CDFF80CB0CBF80000002D28DD8E
:1046E000042D07E0480000204C00002008060020B0
:1046F000780400201DDCFE48806B401CDFF8F0B31E
:10470000CBF83800FB480068401CDFF8E8B3CBF872
:104710000000AA46F848806C401CDFF8DCB3CBF8F8
:104720004800F6480068401CDFF8D0B3CBF8000022
:104730001CE0EF48C06B401CDFF8B4B3CBF83C0082
:10474000EC480068401CDFF8ACB3CBF80000CA4668
:10475000E948C06C401CDFF8A0B3CBF84C00E74838
:104760000068401CDFF894B3CBF80000E248006D0D
:10477000401CDFF884B3CBF85000E0480068401CD0
:10478000DFF878B3CBF8000011F10A0F1DDAD84832
:10479000006C401CDFF858B3CBF84000D5480068E7
:1047A000401CDFF850B3CBF800000323D248406D23
:1047B000401CDFF844B3CBF85400D0480068401CDC
:1047C000DFF838B3CBF800007CE00A291DDAC848CE
:1047D000406C401CDFF818B3CBF84400C5480068B3
:1047E000401CDFF810B3CBF800000123C248806DF5
:1047F000401CDFF804B3CBF85800C0480068401CE8
:10480000DFF8F8B2CBF800005CE023291DDCB848E3
:10481000806C401CDFF8D8B2CBF84800B54800687F
:10482000401CDFF8D0B2CBF800000023B248C06DC6
:10483000401CDFF8C4B2CBF85C00B0480068401CF4
:10484000DFF8B8B2CBF800003CE032291DDCA84804
:10485000C06C401CDFF898B2CBF84C00A54800684B
:10486000401CDFF890B2CBF800000223A248006E93
:10487000401CDFF884B2CBF86000A0480068401C00
:10488000DFF878B2CBF800001CE09948006D401CBE
:10489000DFF85CB2CBF8500096480068401CDFF8A7
:1048A00054B2CBF8000003239348406E401CDFF85D
:1048B00048B2CBF8640091480068401CDFF83CB275
:1048C000CBF800008C48806E401CDFF82CB2CBF88F
:1048D00068008A480068401CDFF820B2CBF800006E
:1048E0001E2A1EDA8248406D401CDFF804B2CBF865
:1048F000540080480068401CDFF8F8B1CBF8000095
:104900004FF001087C48C06E401CDFF8ECB1CBF8DA
:104910006C007A480068401CDFF8E0B1CBF800007A
:104920003EE0462A1EDC7248806D401CDFF8C0B1B4
:10493000CBF858006F480068401CDFF8B8B1CBF8DE
:1049400000004FF000086C48006F401CDFF8A8B171
:10495000CBF8700069480068401CDFF8A0B1CBF8C4
:1049600000001DE06248C06D401CDFF884B1CBF848
:104970005C0060480068401CDFF878B1CBF80000AC
:104980004FF002085C48406F401CDFF86CB1CBF878
:1049900074005A480068401CDFF860B1CBF8000092
:1049A0005548806F401CDFF850B1CBF87800534871
:1049B0000068401CDFF844B1CBF80000BAF1010FE9
:1049C00009D0BAF1020F78D0BAF1030F76D0BAF15C
:1049D000040F74D1BDE34648006E401CDFF810B1EF
:1049E000CBF8600043480068401CDFF808B1CBF802
:1049F00000004FF0640C4048C06F401CDFF8F8B076
:104A0000CBF87C003D480068401CDFF8F0B0CBF8E4
:104A100000003948D0F88000401CDFF8DCB0CBF84B
:104A2000800036480068401CDFF8D0B0CBF80000AA
:104A3000032B03D0022B6DD1322A6BDD2C48406E44
:104A4000401CDFF8ACB0CBF864002A480068401C7A
:104A5000DFF8A0B0CBF800002748D0F88400401C55
:104A6000DFF894B0CBF8840024480068401CDFF8DD
:104A70008CB0CBF80000032B22D11D48806E401C67
:104A8000DFF86CB0CBF868001A480068401CDFF80B
:104A900064B0CBF8000040F2911C1748D0F88800B1
:104AA000401CDFF854B0CBF8880014480068401C64
:104AB000DFF848B0CBF8000049E085E143E2FDE3D0
:104AC0000B48C06E401CDFF828B0CBF86C000948DA
:104AD0000068401CDFF81CB0CBF800004FF0C90C98
:104AE0000548D0F88C00401CDFF80CB008E011E05D
:104AF000780400204C000020080600204800002018
:104B0000CBF88C00FB480068401CDFF8E8B3CBF81A
:104B100000001CE0F848006F401CDFF8DCB3CBF865
:104B20007000F6480068401CDFF8D0B3CBF80000F6
:104B3000F348D0F89000401CDFF8C4B3CBF89000E5
:104B4000EC480068401CDFF8ACB3CBF80000EC4840
:104B5000D0F89400401CDFF8A8B3CBF89400E548E7
:104B60000068401CDFF88CB3CBF80000012B62D149
:104B70001E2A01DB462A5EDDDF48406F401CDFF85D
:104B800078B3CBF87400DD480068401CDFF86CB3E4
:104B9000CBF80000DA48D0F89800401CDFF860B38A
:104BA000CBF89800D3480068401CDFF848B3CBF836
:104BB00000001E2A1FDAD048806F401CDFF838B38F
:104BC000CBF87800CD480068401CDFF830B3CBF854
:104BD00000004FF0CA0CCA48D0F89C00401CDFF817
:104BE00020B3CBF89C00C3480068401CDFF804B336
:104BF000CBF800003DE0C048C06F401CDFF8F8B2C1
:104C0000CBF87C00BD480068401CDFF8F0B2CBF860
:104C100000004FF0CC0CBA48D0F8A000401CDFF8E0
:104C2000E0B2CBF8A000B3480068401CDFF8C4B283
:104C3000CBF800001DE0B048D0F88000401CDFF841
:104C4000B8B2CBF88000AD480068401CDFF8ACB2C9
:104C5000CBF80000AA48D0F8A400401CDFF8A0B2AE
:104C6000CBF8A400A3480068401CDFF888B2CBF85A
:104C70000000A348D0F8A800401CDFF884B2CBF8AD
:104C8000A8009C480068401CDFF868B2CBF8000020
:104C90002BBBB8F1020F22D1022F20DB9648D0F8AF
:104CA0008400401CDFF850B2CBF8840093480068C1
:104CB000401CDFF848B2CBF800004FF0CB0C904816
:104CC000D0F8AC00401CDFF838B2CBF8AC00894813
:104CD0000068401CDFF81CB2CBF800001DE08648DD
:104CE000D0F88800401CDFF810B2CBF88800834869
:104CF0000068401CDFF804B2CBF800008048D0F810
:104D0000B000401CDFF8F8B1CBF8B000794800687B
:104D1000401CDFF8E0B1CBF800007948D0F8B400CF
:104D2000401CDFF8DCB1CBF8B40072480068401CCE
:104D3000DFF8C0B1CBF80000022B26DBB8F1020F80
:104D400023D10FB1032F20D16B48D0F88C00401C29
:104D5000DFF8A4B1CBF88C0068480068401CDFF88D
:104D60009CB1CBF800004FF4C97C6548D0F8B8007E
:104D7000401CDFF88CB1CBF8B8005E480068401CDE
:104D8000DFF870B1CBF800001DE05B48D0F8900070
:104D9000401CDFF864B1CBF8900058480068401C14
:104DA000DFF858B1CBF800005548D0F8BC00401CE3
:104DB000DFF84CB1CBF8BC004E480068401CDFF86F
:104DC00034B1CBF80000F4E24B48D0F89400401C1A
:104DD000DFF824B1CBF8940048480068401CDFF8A5
:104DE0001CB1CBF800004FF06E0C4548D0F8C00065
:104DF000401CDFF80CB1CBF8C0003E480068401CF6
:104E0000DFF8F0B0CBF800003D48D0F8C400401CFB
:104E1000DFF8ECB0CBF8C40036480068401CDFF87F
:104E2000D4B0CBF80000EEBB0BB1282A6ADA3248C6
:104E3000D0F89800401CDFF8C0B0CBF898002F489D
:104E40000068401CDFF8B4B0CBF800002C48D0F864
:104E5000C800401CDFF8A8B0CBF8C800254800689F
:104E6000401CDFF890B0CBF8000013BB2248D0F80C
:104E70009C00401CDFF880B0CBF89C001F48006805
:104E8000401CDFF878B0CBF800004FF06F0C1C48E6
:104E9000D0F8CC00401CDFF868B0CBF8CC00154847
:104EA000006800E02EE0401CDFF848B0CBF80000BE
:104EB00048E01148D0F8A000401CDFF83CB0CBF827
:104EC000A0000E480068401CDFF830B0CBF80000AE
:104ED0004FF0D30C0A48D0F8D000401CDFF820B0C7
:104EE000CBF8D00003480068401CDFF808B0CBF8CE
:104EF000000027E048000020780400204C0000203B
:104F000008060020FE48D0F8A400401CDFF8F0B3EB
:104F1000CBF8A400FB480068401CDFF8E8B3CBF8EE
:104F200000004FF0D40CF848D0F8D400401CDFF853
:104F3000D8B3CBF8D400F5480068401CDFF8CCB3F8
:104F4000CBF8000035E2EE48D0F8A800401CDFF8AE
:104F5000B0B3CBF8A800EB480068401CDFF8A4B35E
:104F6000CBF800004FF0780CE748D0F8D800401C90
:104F7000DFF894B3CBF8D800E4480068401CDFF8B1
:104F80008CB3CBF80000E048D0F8DC00401CDFF820
:104F900078B3CBF8DC00DD480068401CDFF86CB368
:104FA000CBF800000F292DDB1E292BDC282A29DB5A
:104FB0003C2A27DCB4F5FA7F24DB41F288308442B6
:104FC00020DCCF48D0F8AC00401CDFF834B3CBF87D
:104FD000AC00CC480068401CDFF828B3CBF80000D8
:104FE0004FF0790CC848D0F8E000401CDFF818B347
:104FF000CBF8E000C5480068401CDFF810B3CBF8E0
:105000000000A5E0BE48D0F8B000401CDFF8F0B2C8
:10501000CBF8B000BB480068401CDFF8E8B2CBF822
:105020000000B948D0F8E400401CDFF8DCB2CBF84F
:10503000E400B6480068401CDFF8D0B2CBF80000AE
:105040000F2965DB1E2963DCAD48D0F8B400401C95
:10505000DFF8ACB2CBF8B400AA480068401CDFF817
:10506000A4B2CBF80000A848D0F8E800401CDFF854
:1050700098B2CBF8E800A5480068401CDFF88CB275
:10508000CBF80000282A22DB3C2A20DC9C48D0F800
:10509000B800401CDFF868B2CBF8B8009948006847
:1050A000401CDFF860B2CBF800004FF0DD0C9648F2
:1050B000D0F8EC00401CDFF850B2CBF8EC0093487D
:1050C0000068401CDFF844B2CBF8000040E08C4898
:1050D000D0F8BC00401CDFF828B2CBF8BC008948EF
:1050E0000068401CDFF81CB2CBF800004FF0DE0C6B
:1050F0008548D0F8F000401CDFF80CB2CBF8F00087
:1051000082480068401CDFF804B2CBF800001FE0C2
:105110007B48D0F8C000401CDFF8E4B1CBF8C000F9
:1051200078480068401CDFF8DCB1CBF800004FF095
:10513000DE0C7548D0F8F400401CDFF8CCB1CBF899
:10514000F40072480068401CDFF8C0B1CBF80000E2
:105150002FE16B48D0F8C400401CDFF8A4B1CBF8B5
:10516000C40068480068401CDFF898B1CBF8000024
:105170004FF0820C6448D0F8F800401CDFF888B18A
:10518000CBF8F80061480068401CDFF880B1CBF82C
:1051900000005D48D0F8FC00401CDFF86CB1CBF893
:1051A000FC005A480068401CDFF860B1CBF80000F2
:1051B000172929DB1B2927DC2D2A25DB372A23DCAD
:1051C000042D00D005BB4E48D0F8C800401CDFF8C5
:1051D00030B1CBF8C8004B480068401CDFF824B160
:1051E000CBF800004FF0830C4748D0F80001401C7A
:1051F000DFF814B1CBF8000144480068401CDFF828
:105200000CB1CBF80000B1E03D48D0F8CC00401C18
:10521000DFF8ECB0CBF8CC003A480068401CDFF86F
:10522000E4B0CBF800003848D0F80401401CDFF8A7
:10523000D8B0CBF8040135480068401CDFF8CCB08A
:10524000CBF80000172971DB1B296FDC2C48D0F844
:10525000D000401CDFF8A8B0CBF8D0002948006887
:10526000401CDFF8A0B0CBF800002748D0F80801B8
:10527000401CDFF894B0CBF8080124480068401CBB
:10528000DFF888B0CBF800002D2A24DB372A22DC97
:105290001B48D0F8D400401CDFF864B0CBF8D40031
:1052A00018480068401CDFF85CB0CBF800004FF0F5
:1052B000E70C1548D0F80C01401C00E057E0DFF87F
:1052C00048B0CBF80C0111480068401CDFF83CB036
:1052D000CBF800004AE00A48D0F8D800401CDFF8BC
:1052E00020B0CBF8D80007480068401CDFF814B0A5
:1052F000CBF800004FF0E80C0348D0F8100107E0AD
:10530000780400204C0000200806002048000020FF
:10531000401CDFF8F4B3CBF81001FC480068401CD7
:10532000DFF8E8B3CBF8000020E0FFE7F848D0F85A
:10533000DC00401CDFF8D8B3CBF8DC00F54800688F
:10534000401CDFF8D0B3CBF800004FF0E80CEE487B
:10535000D0F81401401CDFF8B0B3CBF81401EB48CF
:105360000068401CDFF8A4B3CBF8000021E0E84857
:10537000D0F8E000401CDFF898B3CBF8E000E54837
:105380000068401CDFF88CB3CBF80000DE48D0F892
:105390001801401CDFF870B3CBF81801DB48006837
:1053A000401CDFF868B3CBF800004FF49870FEF7AC
:1053B000DFBF00BFD448D0F81C01401CDFF848B361
:1053C000CBF81C01D1480068401CDFF840B3CBF893
:1053D00000000EB9032B05D0012E68D1F3BBB8F144
:1053E000020F64D1CA48D0F8E400401CDFF820B3B3
:1053F000CBF8E400C7480068401CDFF818B3CBF8CE
:105400000000C148D0F82001401CDFF8FCB2CBF806
:105410002001BE480068401CDFF8F0B2CBF8000065
:1054200026BB032B22D1BA48D0F8E800401CDFF895
:10543000E0B2CBF8E800B7480068401CDFF8D4B20F
:10544000CBF8000040F2931CAF48D0F82401401C78
:10545000DFF8B4B2CBF82401AC4800E027E00068E4
:10546000401CDFF8A8B2CBF800003EE0A848D0F816
:10547000EC00401CDFF898B2CBF8EC00A5480068BF
:10548000401CDFF890B2CBF800004FF4CA7C9E4875
:10549000D0F82801401CDFF870B2CBF828019B48F7
:1054A0000068401CDFF864B2CBF800001DE09848AB
:1054B000D0F8F000401CDFF858B2CBF8F000954867
:1054C0000068401CDFF84CB2CBF800008E48D0F8E2
:1054D0002C01401CDFF830B2CBF82C018B4800685F
:1054E000401CDFF828B2CBF800008748D0F8300124
:1054F000401CDFF814B2CBF8300184480068401C2F
:10550000DFF808B2CBF800000FB9012E04D0032F4A
:105510003ED1EEBB1E293BDD7D48D0F8F400401C97
:10552000DFF8ECB1CBF8F4007A480068401CDFF8F3
:10553000E4B1CBF800007448D0F83401401CDFF827
:10554000C8B1CBF8340171480068401CDFF8BCB129
:10555000CBF80000B7BB012E54D16D48D0F8F8004D
:10556000401CDFF8ACB1CBF8F8006A480068401C7A
:10557000DFF8A0B1CBF80000BCF1C80F23DA644813
:10558000D0F8FC00401CDFF888B1CBF8FC0000E04C
:105590008AE060480068401CDFF878B1CBF8000072
:1055A0004FF0CD0C5848D0F83801401CDFF858B106
:1055B000CBF8380155480068401CDFF850B1CBF8F3
:1055C00000008FE01EE05248D0F80001401CDFF8D8
:1055D00040B1CBF800014F480068401CDFF834B1FF
:1055E000CBF800004848D0F83C01401CDFF818B167
:1055F000CBF83C0145480068401CDFF810B1CBF8FF
:1056000000006FE04248D0F80401401CDFF800B110
:10561000CBF804013F480068401CDFF8F8B0CBF835
:105620000000BCF1C80F20DA3948D0F80801401C4E
:10563000DFF8DCB0CBF8080136480068401CDFF822
:10564000D4B0CBF800004FF0CE0C2F48D0F840017A
:10565000401CDFF8B4B0CBF840012C480068401C77
:10566000DFF8A8B0CBF800003CE02948D0F80C01E6
:10567000401CDFF89CB0CBF80C0126480068401CA9
:10568000DFF890B0CBF800001F48D0F84401401C70
:10569000DFF874B0CBF844011C480068401CDFF808
:1056A0006CB0CBF800001DE01948D0F81001401C88
:1056B000DFF85CB0CBF8100116480068401CDFF83A
:1056C00054B0CBF800001048D0F84801401CDFF877
:1056D00038B0CBF848010D480068401CDFF82CB00A
:1056E000CBF800000848D0F84C01401CDFF818B097
:1056F000CBF84C0105480068401CDFF810B0CBF82F
:105700000000604653E60000080600204800002024
:10571000780400204C0000202DE9F34F8FB00C4698
:1057200000200E900D908246FEF779FA0C900C98AE
:10573000FAF75DFF4FF083410890FAF739FE0D90BC
:105740000EA8FBF76AFC9DF8380078B90D98FAF7B7
:10575000A4FF4FF06632284BCDE90401FAF766FE4C
:10576000CDE90601FAF761FFC0B20E90FBF7BEFC6F
:1057700082464FF07C510D98FAF7C2FD0890FAF777
:105780003BFF06469DF838705546A04644462B46DA
:105790003A463146CDF800800F98FEF795FD8146D8
:1057A0001648C0F800901648D0F800B054220B926A
:1057B000144801680A914520099009A807C8334692
:1057C000CDE9039BCDE901580097CDE9052107906C
:1057D0000DA11A480F9AFDF7F1FF1848FAF7C6FC19
:1057E00080B24FF47A730246144908901448FDF7CA
:1057F00029F911B0BDE8F08F6666EE3F1000002079
:10580000480000204C0000204D3A256420543A25E1
:105810006420483A2564204C3A2564204B3A25649C
:1058200020523A256420433A256C752F256C75204B
:10583000423A256C752F256C750D0A006400002016
:10584000300400202DE9F04F87B0002006908346F9
:105850000590FEF7E4F904900498FAF7C8FE4FF0BB
:1058600083410390FAF7A4FD834606A8FBF7D5FB16
:105870009DF8180078B95846FAF70FFF4FF06632D6
:10588000B34BCDE90001FAF7D1FDCDE90201FAF7FA
:10589000CCFEC0B20690FBF729FC05904FF07C517E
:1058A0005846FAF72DFD0390FAF7A6FE04469DF838
:1058B0001860059DA74807684FF05408A648D0F81F
:1058C00000904FF0450AA5480068401C40B94FF6CB
:1058D000FF7080231A46002100900846FDF73DF92D
:1058E0009E4800689E490968884203D19D48006827
:1058F000A04221D04FF6FF70122380220021009099
:105900000846FDF72AF92346954897A102689A4868
:10591000FDF754FF002010214FF6FF721F23CDE941
:1059200000210290944A0146FDF7B4FA8C480068C1
:105930008A4908608B48046090480068B04203D1EF
:105940008F480068A8421ED04FF6FF7012238022B5
:10595000194600900020FDF700F92B46324689A138
:105960008548FDF72BFF002010214FF6FF721F2303
:10597000CDE900210290804A1221FDF78BFA7F4881
:1059800006607F480560834800788349097888422B
:105990001ED04FF6FF701223802224210090002099
:1059A000FDF7DBF87C4802787CA17348FDF706FF21
:1059B000002010214FF6FF721F23CDE90021029035
:1059C0006D4A2421FDF766FA734800787149087022
:1059D00074480068B84203D17348006840451FD03E
:1059E0004FF6FF7012238022362100900020FDF731
:1059F000B4F843463A466DA15F48FDF7DFFE00204C
:105A000010214FF6FF720346CDE9002102905A4A59
:105A10003621FDF73FFA634807606348C0F800800D
:105A200066480068484503D165480068504520D065
:105A30004FF6FF7012238022482100900020FDF7CE
:105A40008CF853464A465FA14B48FDF7B7FE00204D
:105A500010214FF6FF720346CDE900210290464A1D
:105A60004821FDF717FA5548C0F800905448C0F88F
:105A700000A0584800685849096888421ED04FF66F
:105A8000FF70122380225A2100900020FDF765F854
:105A9000514852A102683848FDF790FE00201021BD
:105AA0004FF6FF720346CDE900210290324A5A2197
:105AB000FDF7F0F948480068464908604A48006820
:105AC0004A490968884205D1494800684949096836
:105AD000884239D04FF6FF70122380226C2100904B
