:020000040800F2
:10000000780C002005010008D53F0008CD3300081A
:10001000D13F0008DD130008E94700080000000098
:100020000000000000000000000000000D42000879
:100030000D14000800000000D73F00082942000806
:100040001F0100081F0100081F0100081F01000810
:100050001F0100081F0100081F0100081F01000800
:100060001F0100081F0100081F0100081F010008F0
:100070001F0100081F0100081F0100081F010008E0
:100080001F0100081F0100081F0100081F010008D0
:100090001F0100081F0100081F0100081F010008C0
:1000A0001F0100081F0100081F0100081F010008B0
:1000B000F142000801430008114300081F01000835
:1000C0001F0100081F0100081F0100081F01000890
:1000D0001F010008D94700081F0100081F01000880
:1000E0001F0100081F0100081F010008DFF810D0E1
:1000F00000F08CFE0048004775540008AFF3008004
:10010000780C00200648804706480047FEE7FEE7D7
:10011000FEE7FEE7FEE7FEE7FEE7FEE7FEE7FEE7B7
:1001200099420008ED000008202A04DB203A21FA59
:1001300002F00021704721FA02F3D040C2F1200200
:100140009140084319467047D2B201E000F8012BF4
:10015000491EFBD270470022F6E710B513460A4647
:1001600004461946FFF7F0FF204610BDCAB2401EF4
:1001700010F8011F8A4202D00029F9D100207047EF
:10018000421C10F8011B0029FBD1801A70470000A7
:100190000FB400B58DB010A909900B9000914FF0ED
:1001A000FF300A9000200C90054806900548079003
:1001B0006A4609A80F9900F043FD0DB05DF814FBE5
:1001C0005D0C00087B0C00082DE9FF4F087883B018
:1001D0009946FF2805D0491C2D2804D00024002072
:1001E00008E000200BE00124F9E700EB800003EBBE
:1001F0004000491C0B78FF2BF7D104B1404200238B
:100200000293147819461D462D2C01D02B2C04D1B5
:10021000521C2D2C13D000240294AA461478FF2CD3
:100220000FD00A25A3FB057801FB05814FF0000CD8
:1002300003FB0C11521CE3194AEB0101EEE7012408
:10024000EAE7814453EA010002D019F5C87F06DAD3
:1002500003980021C0E9001107B0BDE8F08F002528
:10026000AE4E2F46DFF8B882184600F0ABFDCDE960
:100270000001B9F1000002DAC9F1000400E004460F
:100280000023A74A1AEB030B42EB045A12E0E007E3
:1002900007D02A4633463846414600F0B4FA0746AE
:1002A00088462A4633461046194600F0ACFA054601
:1002B0000E466410002CEAD1DDE90001B9F1000F0F
:1002C0005A46534606DA00F010FB3A46434600F021
:1002D0000CFB05E000F097FA3A46434600F093FA2B
:1002E000029A0AB181F00041039AC2E90001B3E722
:1002F0002DE9FF4F1F468DB0D7E901464FF0FF387B
:100300002E2045464FF000090B90B9696D1C0E98E0
:100310008847396A824688470028F6D1BAF1FF3FFC
:100320000AD024F4D064002E11DDBAF12B0F08D0CE
:10033000BAF12D0F0BD102E0404611B08DE744F425
:100340008064B9696D1C0E9888478246761E69469E
:10035000600501D52D2000E02B208DF8000001F173
:10036000010B0DF1200809E0B9696D1C0E98884752
:1003700082460F9844F40074761E0560002E02DD5C
:10038000BAF1300FF0D00B998A453ED144F0800489
:1003900006E00F99681CA9F1010944F40074086093
:1003A000B9696D1C761E0E98884782463028F0D0B9
:1003B0002BE00B998A4505D1200603D444F0800434
:1003C000761E18E0504604F045FB08B30DF113010A
:1003D000761E44F400748B4508D2AAF130000BF865
:1003E000010B200607D5A9F1010003E0200602D485
:1003F00009F101008146A00502D50F99681C08602B
:10040000B9696D1C0E9888478246002ED1DC53E0F6
:10041000002E51DDBAF1650F02D0BAF1450F4BD174
:10042000A00549D5B9696D1C24F44074761E0E9858
:1004300088478246002E0CDD2B2804D0BAF12D0F00
:1004400007D144F48074B9696D1C0E9888478246C0
:10045000761EE00501D52D2100E02B2108F8011BB7
:10046000CDF82C8021E00DF12901761E44F40074B2
:1004700088450CD2AAF1300010F0FF0088F8000087
:1004800002D10B99884509D908F1010806E0E00579
:1004900001D5244801E042F20F708146B9696D1C14
:1004A0000E98884782460F980560002E04DD50465E
:1004B00004F0D0FA0028D6D1F9690E988847FF20B9
:1004C0008BF8000088F800000020069007904B464B
:1004D0006A4608A906A8FFF777FEA00502D46FF0C8
:1004E00001002AE714F0240F0AD0E00714D1DDE957
:1004F00006123868031D3B600068C0E900120BE07B
:10050000DDE9060100F0FEFA0146E00704D1386893
:10051000021D3A600068016028460EE700001440A2
:100520000000F03FF1D8FFFFF0B480EA0102D40FE1
:100530004200B2EB410F02D20246084611464A0081
:1005400042D0C30DDDB2C1F3C752AD1A202D35DA4A
:10055000C1F3160141F4000204B15242C5F1200674
:1005600002FA06F12A411044B3EBD05F23D0C4B1A4
:10057000012DA0EBC35009DCF0BC4FF0004202EAB1
:10058000C352DBB200F5000000F091BB400000F167
:10059000807000EBC350A0F1807040EAD170490038
:1005A00009E0490841EAC071A0EBC35000F5000022
:1005B000400800EBC350F0BC00F070BB6142012268
:1005C00002EB4101001BF6E7F0BC704781F00041EF
:1005D000AAE780F00040A7E780EA010210B502F028
:1005E0000043400022D04A001FD0010E01EB1261EF
:1005F000C0F35600C2F3560240F4000042F4000279
:10060000A0FB022000047F39140400D0401C50EAF3
:10061000124001D44000491EC2B20C0604EBD010B7
:10062000401C4008802A02D003E0002010BD20F0CA
:100630000100002900DA0020184310BD30B480EA20
:10064000010202F0004530F0004221F0004013D0DA
:1006500090B1C30DD40DC2F31601C0F31600E41A15
:1006600041F4000140F400027D34914201D3641C46
:1006700000E04900002C02DA30BC002070474FF443
:1006800000000023914201D3891A034340084FEA36
:100690004101F7D151B1914202D14FF0004105E043
:1006A00002D24FF0010101E06FF0010103EBC450F1
:1006B000284430BC00F0F2BA2DE9FE4F804681EAB2
:1006C0000300C00F0C46009021F0004123F00045CC
:1006D000B8EB0200A94105D24046214690461C468F
:1006E0000B46024623F00040104347D0270DC7F3C6
:1006F0000A00C3F30A510290401A019040286BDAB5
:10070000C3F3130040F4801B0098924620B10023ED
:10071000D2EB030A63EB0B0B01985946C0F1400280
:10072000504600F066FA06460D4650465946019A74
:1007300000F06EFA10EB08006141002487EA1152C4
:1007400084EAE7731A4340D0009A62B3019A012AFF
:100750004FEA075215DC001B61EB02014FF000422B
:1007600002EA0752CDE90042001C41F580113246F1
:100770002B4600F0D9FA03B0BDE8F08F4046214681
:10078000F9E7001B61EB0201001C41F58013001822
:100790005B412018A2F5001747EB030140EAD57032
:1007A000B6196D4111E06D084FEA360645EAC0758D
:1007B0004FEA0752001B61EB0201001C41F580115A
:1007C00049084FEA30000019514132462B4603B028
:1007D000BDE8F04F00F099BA0098012240000023D4
:1007E000D0EB020263EBE073009821464FEAE0741D
:1007F000B8EB000061EB0401E9E783F000435BE73D
:1008000081F0004158E72DE9FE4F81EA030404F02E
:10081000004421F0004100944FF0000B23F000430E
:1008200050EA01045ED052EA03045BD0C3F30A54D9
:10083000C1F30A552C44A4F2F3340194A0FB0254F2
:10084000C1F3130141F48011C3F3130343F4801384
:1008500001FB024400FB034E840A970A44EA8154D8
:1008600047EA8357A4FB076802958D0A05FB0785B5
:100870004FEA932C04FB0C542705029D4FEA0658BF
:1008800047EA1637B5EB08056EEB070C870E920E9C
:1008900047EA811742EA8312A7FB0201B6EB0B017C
:1008A00064EB00042B0D43EA0C335E1844EB1C5040
:1008B000DA465146E7FB0201C5F313044FEA0B3356
:1008C00043EA14534FEA0432019C43EA0603A4F1BD
:1008D0000C040294009CCDE900B400F025FA03B0AA
:1008E000BDE8F08F00200146F9E72DE9F04D81EADF
:1008F000030404F0004B21F0004514464FF0000AB9
:1009000023F0004150EA050220D054EA01021DD034
:10091000C5F30A570246C5F31303C1F31300C1F32D
:100920000A5640F4801543F48013A7EB0608101B09
:10093000D64608F2FD3873EB050002D308F1010832
:1009400001E092185B41B8F1000F03DA0020014684
:10095000BDE8F08D00204FF48011064684460EE07D
:10096000171B73EB050705D3121B63EB0503064347
:100970004CEA010C49084FEA300092185B4150EAFA
:100980000107EDD152EA030012D082EA040083EAA3
:100990000501084305D0101BAB4106D201220023FC
:1009A00006E000224FF0004302E06FF00102531016
:1009B0001AEB06004CEB085110EB0A0041EB0B015F
:1009C000BDE8F04D00F0A1B9C10F80EAE070084425
:1009D000CA079623002100F06AB996230022114627
:1009E00000F065B90EB5C10F80EAE0700844CA078F
:1009F000002140F233438DE80E000A460B4600F01A
:100A000093F903B000BD0EB540F2334102910021CD
:100A1000CDE900110A460B4600F086F903B000BD8F
:100A200000F0004220F00040C10DC0F3160040F479
:100A300000007F2901DA00207047962903DCC1F10C
:100A40009601C84001E096398840002AF4D040421F
:100A5000704720F00040C10DC0F3160040F40000C4
:100A60007F2901DA00207047962903DCC1F1960145
:100A7000C8407047963988407047C1F30A5210B594
:100A8000C1F3130140F2FF3341F480119A4201DABD
:100A9000002010BD40F233439A42A2F2334203DCFD
:100AA0005242FFF741FB10BD904010BD00F00042E4
:100AB00030F000400AD0C10D01F56071C0F316009E
:100AC00042EA0151C2084007114370470020014625
:100AD0007047000030B5041E71F1000404DB4FF0D4
:100AE0000044404264EB0101141E73F1000405DB75
:100AF0001C464FF00043524263EB0403994208BF87
:100B0000904230BD01F0004330B421F0004150EA82
:100B1000010206D00A0DA2F56072C1F31301002A8A
:100B200002DC30BC00207047440F44EAC104C1001D
:100B3000E01830BC00EBC25000F0B0B8002801DB78
:100B4000C0F10040002901DBC1F100418142704742
:100B5000002801DBC0F10040002901DBC1F10041A8
:100B60008842704730B50B46014600202022012400
:100B700009E021FA02F59D4205D303FA02F5491B6B
:100B800004FA02F52844151EA2F10102F1DC30BD81
:100B90002DE9F05F0546002092469B4688460646B2
:100BA000814640241BE02846414647462246FFF73F
:100BB000BBFA53465A46C01A914110D31146184603
:100BC000224600F016F82D1A67EB01084F46224620
:100BD0000120002100F00DF817EB00094E41201E06
:100BE000A4F10104DFDC484631462A464346BDE80D
:100BF000F09F202A04DB203A00FA02F1002070471F
:100C00009140C2F1200320FA03F31943904070474A
:100C1000202A06DBCB17203A41FA02F043EAE073C0
:100C200006E041FA02F3D040C2F1200291400843AD
:100C300019467047026811441378016018467047DE
:100C4000D1600449516104491162002111611146CA
:100C500000F0F4B8350C0008310E0008426842B1CB
:100C6000016811F8013B23B1521EC0E90012184679
:100C700070470121C160881E704742685AB1C3683D
:100C8000016843B983688B4205D0491E521CC0E9F4
:100C90000012002070474FF0FF3070470029A8BFB6
:100CA0007047401C490008BF20F00100704710B495
:100CB000B0FA80FC00FA0CF050EA010404BF10BC4A
:100CC000704749B1CCF1200421FA04F411FA0CF177
:100CD00018BF012121430843A3EB0C01CB1D4FEAB0
:100CE00000614FEA102042BF002010BC704700EBAB
:100CF000C35010440029A4BF10BC7047401C4900D9
:100D000008BF20F0010010BC704710B5141E73F12D
:100D1000000408DA401C41F1000192185B411A43BB
:100D200001D120F0010010BD2DE9F04D92469B4607
:100D300011B1B1FA81F202E0B0FA80F220329046AD
:100D4000FFF757FF04460F4640EA0A0041EA0B014D
:100D500053465A46084313D0114653EA010019D0AE
:100D6000C8F140025046FFF7DFF905460E465046EF
:100D700059464246FFF73DFF084305D0012004E0F5
:100D800020463946BDE8F08D0020054346EAE0766E
:100D90002C4337430A986305E40AA0EB08000022BD
:100DA000FD0A44EA47540A3002D500200146E9E72B
:100DB000010510196941DDE9084500196941BDE8DF
:100DC000F04DA2E70EB540F2334202920022CDE987
:100DD00000221346FFF7A8FF03B000BDC1F30A527B
:100DE000C1F3130140F2FF3341F480119A4202DA59
:100DF00000200146704740F233439A42A2F2334248
:100E000002DC5242FFF790B9FFF7F3BE064C074DE4
:100E100006E0E06840F0010394E8070098471034CA
:100E2000AC42F6D3FFF766F98C830008AC83000868
:100E3000C0B24FF4F05100F099B900002DE9F34F22
:100E40008BB04FF0000801F10C000C464FF0010B85
:100E500046460DF1080A0190626901210198904708
:100E6000051E2DD0252D2CD0216A8847C0B162697E
:100E7000012101989047216A88470028F7D1411E37
:100E800062690198904700E0761CA1690B98884739
:100E9000216A88470028F7D1E1690B988847DBE78A
:100EA000A1690B9888470746A84201D1761CD3E771
:100EB000E1690B9888477F1C02D1B8F1000F6FD011
:100EC00047E1002762693D463946019890472A2844
:100ED00004D162690121019890470125DFF88892C9
:100EE0006269012101989047A0F130010A290AD2D4
:100EF0004F45E5DC07EB870100EB4107303FDFD4CE
:100F000045F01005ECE7E90601D46FF000476C28C6
:100F10000AD04C2814D0682815D06A280DD074281F
:100F20001CD07A281AD01DE06269012101989047EF
:100F30006C2802D045F0040514E045F002050DE0F0
:100F400045F020050AE06269012101989047682870
:100F500002D045F0080505E045F40065626901210D
:100F600001989047C4E9015765283DD019DC5828FD
:100F70007AD00CDC452837D004DC252826D041283F
:100F800031D131E046282FD047282CD12CE05B28E6
:100F900077D0612828D063287CD0642823D15AE0F8
:100FA000D1E06F2848D008DC66281DD067281BD008
:100FB000692821D06E2816D127E0702845D07328E3
:100FC00068D0752847D078280DD14DE0A1690B98DD
:100FD0008847054625283FF469AFE1690B988847A3
:100FE0006D1C3FF46AAFB4E023466A466FF001001F
:100FF0000B99FFF77DF99FE045F040006060A8077E
:1010000023464FF0000236D43EE0E8077FF447AFB6
:101010002068011D21600068290501D506701BE7C5
:10102000290701D5068017E7A90703D5F117C0E9FD
:10103000006111E706600FE745F040006060A80717
:1010400023464FF0080216D41EE040F60E0125EAB2
:101050000100606016E045F040006060A80723468C
:101060004FF00A0207D40FE045F040006060A80787
:1010700008D5234610226FF001000B99AFF30080D2
:101080005AE007E0234610226FF001000B99AFF3FE
:10109000008051E04FF000094F464B46632802D0D4
:1010A0005B2807D041E02079C00601D40120A06070
:1010B00001273AE062690121019890475E2805D135
:1010C0004FF001096269494601989047216939B991
:1010D00000210A46534643F82120491C0829FADB1F
:1010E000B0B3216969B9C11700EBD16253110AEBA2
:1010F000830122F01F02821A01200B6890400343F3
:101100000B6062690121019890475D28E8D1B9F12F
:10111000000F09D00020514651F82020D24341F859
:101120002020401C0828F7DB02AB224600976FF016
:1011300001000B99AFF3008000280CDA401C08D1A5
:10114000BBF1000F05D04FF0FF300DB0BDE8F08FC0
:10115000FFE74046F9E7E90701D108F10108064435
:101160004FF0000B78E60000CCCCCC0C7F2801D9E6
:10117000002208E0064A02EB5002C007127800D1B4
:10118000120902F00F020120904008407047000051
:101190004C83000810B500F0E7F8462000F0B4F8E2
:1011A000012000F0B1F800F0FFF810BD1FB50020DD
:1011B000019002200390800200906946154800F0DB
:1011C00043FA01229102134800F0E0FB052003F0EE
:1011D000DDFF4FF400610F4800F0C6FB012802D18B
:1011E0000D49087002E000200B49087000224FF4FE
:1011F0008061084800F0CAFB052003F0C7FF01200A
:1012000001906946034800F01FFA0348007804B0D3
:1012100010BD0000000C01404C0000207FB50024F0
:10122000002001904FF40060009002200390694676
:101230001A4800F009FA0122D102184800F0A6FB72
:1012400000251FE06006040E01229102134800F001
:101250009DFB052003F09AFF4FF400610F4800F05A
:1012600083FB012801D1012600E00026344300223F
:101270004FF48061094800F089FB052003F086FFE8
:10128000681CC5B2082DDDDB0120019069460348CA
:1012900000F0DAF9204604B070BD0000000C0140F7
:1012A0001FB504464FF440600090012001900220D9
:1012B00003906946134800F0C7F9012C05D10122BB
:1012C000D102104800F062FB08E034B900224FF46C
:1012D00000610C4800F05AFB00E01FBD01229102A2
:1012E000084800F053FB052003F050FF00224FF4A4
:1012F0008061044800F04AFB052003F047FF00BF6F
:10130000EBE70000000C014070B50446002523E027
:1013100004F0800028B10122D102124800F036FB0F
:1013200005E000224FF400610E4800F02FFB60063C
:10133000040E012291020B4800F028FB052003F067
:1013400025FF00224FF48061064800F01FFB0520B6
:1013500003F01CFF681CC5B2082DD9DBFFF726FF80
:1013600070BD0000000C014010B50122D1020D48F3
:1013700000F00CFB012291020A4800F007FB052057
:1013800003F0FEFE00224FF40061064800F0FEFA72
:10139000052003F0F5FE00224FF48061014800F0C3
:1013A000F5FA10BD000C014010B500224FF40061A9
:1013B000094800F0EBFA01229102074800F0E6FA32
:1013C000052003F0E3FE0122D102034800F0DEFA1B
:1013D000052003F0DBFE10BD000C014000BFFEE75E
:1013E0001FB5002000900190029003900220009011
:1013F00001200190032003900120029069460248D9
:1014000000F022F91FBD0000000C014070470021D0
:1014100007E042F6E06100BF0A1EA1F1010399B2A4
:10142000FAD1021EA0F1010398B2F2D17047000078
:101430001FB500200090019002900390C020009002
:10144000012001900290032003906946014800F0BA
:10145000FBF81FBD000C01407047000070B504464A
:1014600013492046FFF76AFB08D221462046FFF7C2
:10147000B3F805460F49FFF7A9F870BD0E4920469D
:10148000FFF766FB09D24FF080412046FFF7A4F832
:1014900005460A49FFF748F8EFE72046FFF7C0FA8C
:1014A000054600EBD5714810FFF78EFAE5E700001E
:1014B0000000A0410000A0400000F04100002041D9
:1014C0002DE9F047012002F0A2FE102002F09FFE5D
:1014D0000A2000F0A5F804F0F5FC0D4804784078E7
:1014E00000EB042084B22046FFF777FA8246FFF72C
:1014F000DDFA07464FF03332064BFFF7F6F90546A3
:10150000FFF7BBFA1FFA80F94846BDE8F0870000F4
:101510004D0000203333F33F0146002291F82100B3
:10152000022808D00420886300BF002081F8200032
:1015300000BF012070470868006820F00E000B68AB
:1015400018600868006820F001000B68186091F8C6
:10155000403001209840CB6B5860012081F8210079
:1015600000BF002081F8200000BF1046E2E7000025
:1015700070B50446002594F82100022803D0042009
:10158000A063012548E02068006820F00E00216873
:1015900008602068006820F00100216808601F4989
:1015A0002068884201D1012026E01C4914312068BE
:1015B000884201D110201FE0184928312068884254
:1015C00001D1801518E015493C312068884201D1CD
:1015D000801411E0114950312068884202D14FF443
:1015E000803009E00D4964312068884202D14FF40F
:1015F000801001E04FF080700849083948600120F0
:1016000084F8210000BF002084F8200000BF606B38
:1016100010B12046616B8847284670BD0800024023
:1016200070B5044600F0B8F906462546681C10B1AE
:1016300004480078054400BF00F0AEF9801BA842C2
:10164000FAD370BD440000202DE9F847034600227C
:1016500094466EE14FF0010808FA02F4D1F80080D8
:1016600008EA0400A0427DD1DFF8DCA2D1F80480B2
:10167000A8EB0A09D0453AD014DCB8F1030F50D0DA
:1016800009DCB8F1000F31D0B8F1010F1CD0B8F16E
:10169000020F49D120E0B8F1110F18D0B8F1120FA4
:1016A00042D11EE0B9F5881F25D006DCB9F5803F90
:1016B00020D0B9F5801F37D11AE0B9F5001F18D036
:1016C000B9F5041F30D117E0D1F80CC02DE0D1F8E6
:1016D0000C8008F1040C28E0D1F80C8008F1080C0B
:1016E00023E0D1F80C8008F10C0C1EE000BF00BF15
:1016F00000BF00BF00BF00BFD1F80880B8F1000FE5
:1017000002D14FF0040C0BE0D1F80880B8F1010FC2
:1017100003D14FF0080C1C6102E04FF0080C5C6133
:1017200003E04FF0000C00E000BF00BFFF2801D82D
:10173000984601E003F104084646FF2802D84FEA24
:10174000820803E0A2F108084FEA88084746D6F865
:1017500000804FF00F0909FA07F928EA09080CFA86
:1017600007F900E088E048EA0908C6F80080D1F8E7
:10177000048008F08058B8F1805F7DD100BFDFF8A9
:10178000CC81D8F8188048F00108DFF8C091C9F87A
:101790001880C846D8F8188008F00108CDF80080F5
:1017A00000BF00BF4FEAB9384FEA920958F82950F4
:1017B0004FEA82784FEA18794FF00F0808FA09F8D3
:1017C00025EA0805DFF88881434502D14FF000087B
:1017D00016E0DFF88081434502D14FF001080FE0A9
:1017E000DFF87481434502D14FF0020808E0DFF8CA
:1017F0006C81434502D14FF0030801E04FF004082B
:101800004FEA82794FEA197908FA09F848EA05059A
:10181000DFF84C814FEA920948F82950D1F804804A
:1018200008F48018B8F5801F0AD1DFF83881D8F89D
:10183000008048EA0008DFF82C91C9F8008009E030
:10184000DFF82081D8F8008028EA0008DFF814913A
:10185000C9F80080D1F8048008F40018B8F5001F1A
:1018600010D1DFF8008108F10408D8F8008048EAB8
:101870000008DFF8F09000E05AE009F10409C9F827
:1018800000800DE0DFF8DC8008F10408D8F8008063
:1018900028EA0008DFF8CC9009F10409C9F80080B3
:1018A000D1F8048008F40038B8F5003F0ED1DFF815
:1018B000B480A8F10408D8F8008048EA0008DFF8EE
:1018C000A490A9F10409C9F800800DE0DFF8948024
:1018D000A8F10408D8F8008028EA0008DFF884900E
:1018E000A9F10409C9F80080D1F8048008F480380F
:1018F000B8F5803F0ED1DFF86C80A8F10808D8F861
:10190000008048EA0008DFF85C90A9F10809C9F8EE
:1019100000800DE0DFF84C80A8F10808D8F80080BE
:1019200028EA0008DFF83C90A9F10809C9F800800E
:10193000521CD1F8008028FA02F8B8F1000F7FF4A9
:1019400089AEBDE8F88700000000111000100240C9
:1019500000080140000C014000100140001401404B
:101960000800014008040140024693680B400BB197
:10197000012000E00020704710B5C26821EA020390
:1019800002EA010443EA0443036110BD0AB10161A4
:1019900001E00B04036170470148006870470000D4
:1019A0003C00002070B504460CB9012070BD94F8CD
:1019B0003D0028B9002084F83C00204600F0DAF809
:1019C000242084F83D002068006820F00100216890
:1019D00008602068006840F40040216808602068C2
:1019E000006820F400402168086000F0C9FA05464C
:1019F0005C496068884206D85B48854201D2012074
:101A000007E0002005E05948854201D2012000E0AE
:101A10000020012800D1C9E75548B5FBF0F6206841
:101A2000406820F03F003043216848604D496068BD
:101A3000884201D8701C07E04FF4967070434FF451
:101A40007A71B0FBF1F0401C2168096A21F03F0176
:101A500008432168086243496068884214D8681EB8
:101A600061684900B0FBF1F0401CC0F30B00042892
:101A700001D204203DE0681E61684900B0FBF1F02E
:101A8000401CC0F30B0034E0A06838B9681E6168E0
:101A900001EB4101B0FBF1F0401C0AE0681E6168F7
:101AA00001EBC10202EB0111B0FBF1F0401C40F46C
:101AB0008040C0F30B0008B901201AE0A06848B9C3
:101AC000681E616801EB4101B0FBF1F0401CC0F3FE
:101AD0000B000CE0681E616801EBC10202EB011112
:101AE000B0FBF1F0401CC0F30B0040F4804040F428
:101AF00000402168C9694CF6FF7291430843216890
:101B0000C861D4E9070108432168096821F0C001D0
:101B1000084321680860D4E90310084321688968F4
:101B200048F2FF329143084321688860D4E90501F7
:101B300008432168C96821F0FF0108432168C86093
:101B40002068006840F001002168086000202064DF
:101B5000202084F83D000020206384F83E0000BF70
:101B600024E70000A086010080841E0000093D00DB
:101B700040420F0010B586B004460020029003904A
:101B8000049005902B492068884225D100BF2A483F
:101B9000806940F00800284988610846806900F0A3
:101BA0000800019000BF00BFC020029012200390E7
:101BB0000320059002A92148FFF746FD00BF1E48FB
:101BC000C06940F400101C49C8610846C06900F4AF
:101BD0000010019000BF2AE019492068884226D1F0
:101BE00000BF1548806940F0080013498861084625
:101BF000806900F00800019000BF00BF4FF4406012
:101C00000290122003900320059002A90B48FFF7D1
:101C10001BFD00BF0848C06940F480000649C86148
:101C20000846C06900F48000019000BF00BF06B004
:101C300010BD00000054004000100240000C0140A4
:101C400000580040034800680349097808440149E6
:101C5000086070473C0000204400002010B5084890
:101C6000006840F0100006490860032000F0A8F862
:101C7000002000F007F800F02BF8002010BD000055
:101C80000020024070B504460E4800784FF47A7187
:101C9000B1FBF0F00C490968B1FBF0F5284600F003
:101CA00079FD08B1012070BD102C07D20022214619
:101CB000501E00F047F80548046001E00120F2E7FB
:101CC0000020F0E7440000204800002040000020F1
:101CD00008B500BF1148806940F001000F498861D4
:101CE0000846806900F00100009000BF00BF00BFFF
:101CF0000846C06940F08050C8610846C06900F0DD
:101D00008050009000BF00BF00BF0549486820F028
:101D1000E06040F00070486000BF08BD0010024065
:101D20000000014001460846002809DB00F01F03BF
:101D300001229A4043099B0003F1E023C3F80021EC
:101D400000BF70472DE9F05F80460D46164600271C
:101D500002F092FD074639462A46334601F0070055
:101D6000C0F1070ABAF1040F02D94FF0040A01E0EA
:101D7000C0F1070AD14600F1040ABAF1070F02D2F6
:101D80004FF0000A01E0A0F1030AD4464FF0010A27
:101D90000AFA09FAAAF1010A0AEA020A0AFA0CFA8C
:101DA0004FF0010B0BFA0CFBABF1010B0BEA030B31
:101DB0004AEA0B042146404602F066FDBDE8F09F6A
:101DC00000BF00F00702064B19684FF6FF031940E9
:101DD000044B0B4343EA0221014B196000BF7047DB
:101DE0000CED00E00000FA0570B504460D460CB994
:101DF000012070BD5A48006800F00700A8420ED2CA
:101E00005748006820F007002843554908600846F5
:101E1000006800F00700A84201D00120E9E720781F
:101E200000F0020002281DD1207800F004000428F0
:101E300005D14C48406840F4E0604A494860207849
:101E400000F00800082805D14648406840F460507A
:101E5000444948604348406820F0F000A1680843C6
:101E600040494860207800F0010078B3606801289C
:101E700006D13C48006800F4003090B90120B8E772
:101E80006068022806D13748006800F0007040B949
:101E90000120AEE73348006800F0020008B90120D5
:101EA000A7E73048406820F00300616808432D49E7
:101EB0004860FFF771FD064609E0FFF76DFD801BE6
:101EC00041F28831884202D9032092E707E0254891
:101ED000406800F00C006168B0EB810FEDD1204844
:101EE000006800F00700A8420ED91D48006820F0E5
:101EF000070028431A4908600846006800F00700F8
:101F0000A84201D0012074E7207800F004000428E2
:101F100007D11448406820F4E060E16808431149A3
:101F20004860207800F00800082808D10D48406873
:101F300020F46050216940EAC1000A49486000F07D
:101F40003FF808494968C1F30311074A515CC8408A
:101F50000649086006480068FFF794FE002048E73D
:101F60000020024000100240DE600008480000200F
:101F70004000002001480068704700004800002031
:101F800000B5FFF7F7FF04494968C1F30221034A8E
:101F9000515CC84000BD000000100240EE60000827
:101FA00000B5FFF7E7FF04494968C1F3C221034ABE
:101FB000515CC84000BD000000100240EE60000807
:101FC00070B500210022002400230020134D696811
:101FD00001F00C05F5B1042D02D0082D19D101E056
:101FE0000F4819E00F4DC1F38346AB5D01F4803516
:101FF00055B10A4D6D68C5F340450B4E725D084DF5
:102000005D43B5FBF2F402E0084D03FB05F4204606
:1020100002E000BF024800BF00BF70BD00100240D8
:1020200000127A00CC600008DC60000800093D0066
:10203000F8B504460CB90120F8BD207800F0010085
:10204000002878D0F848406800F00C0004280CD034
:10205000F548406800F00C00082811D1F2484068AB
:1020600000F48030B0F5803F0AD1EF48006800F4FA
:10207000003000285FD0606800285CD10120DBE7D9
:1020800000BF6068B0F5803F06D1E748006840F4C3
:102090008030E549086028E0606858B9E248006887
:1020A00020F48030E04908600846006820F4802071
:1020B00008601AE06068B0F5A02F0BD1DA4800681C
:1020C00040F48020D84908600846006840F4803019
:1020D00008600AE0D448006820F48030D2490860E3
:1020E0000846006820F48020086000BF606888B15E
:1020F000FFF752FC054606E0FFF74EFC401B642844
:1021000001D9032098E7C848006800F4003000288F
:10211000F2D010E0FFF740FC054606E0FFF73CFC7C
:10212000401B642801D9032086E7BF48006800F4FB
:1021300000300028F2D1207800F00200022857D1A8
:10214000B948406800F00C0050B1B748406800F052
:102150000C00082818D1B448406800F4803098B9C1
:10216000B148006800F0020020B12069012801D0C8
:10217000012061E7AC48006820F0F800616940EA9E
:10218000C100A949086033E02069E8B10120A749EE
:102190000860FFF701FC054606E0FFF7FDFB401B6A
:1021A000022801D9032047E79F48006800F0020099
:1021B0000028F2D09C48006820F0F800616940EAED
:1021C000C1009949086013E0002098490860FFF7B2
:1021D000E3FB054606E0FFF7DFFB401B022801D9C1
:1021E000032029E79048006800F002000028F2D19F
:1021F000207800F0080008282DD1A069B8B101208E
:102200008B490860FFF7C8FB054606E0FFF7C4FBF3
:10221000401B022801D903200EE78348406A00F0E2
:1022200002000028F2D0012001F0D6FE13E00020C9
:102230007F490860FFF7B0FB054606E0FFF7ACFBFF
:10224000401B022801D90320F6E67748406A00F0D7
:1022500002000028F2D1207800F00400042873D195
:1022600000277148C06900F0805070B900BF6E4807
:10227000C06940F080506C49C8610846C06900F0F0
:102280008050009000BF00BF01276A48006800F43A
:102290008070B0B96748006840F480706549086094
:1022A000FFF77AFB054606E0FFF776FB401B642844
:1022B00001D90320C0E65F48006800F48070002860
:1022C000F2D000BFE068012806D15748006A40F00C
:1022D00001005549086227E0E06858B95248006A91
:1022E00020F00100504908620846006A20F004000E
:1022F000086219E0E06805280BD14B48006A40F0FD
:102300000400494908620846006A40F0010008627A
:102310000AE04548006A20F0010043490862084687
:10232000006A20F00400086200BFE068A0B1FFF777
:1023300033FB054609E0FFF72FFB401B41F28831D4
:10234000884202D9032077E622E03748006A00F08D
:1023500002000028EFD012E0FFF71EFB054608E060
:10236000FFF71AFB401B41F28831884201D9032054
:1023700062E62D48006A00F002000028F0D1012F2B
:1023800005D12948C06920F080502749C86100BFA5
:10239000E069C8B32448406800F00C00082860D009
:1023A000E069022848D1002020490866FFF7F4FAC6
:1023B000054606E0FFF7F0FA401B022801D903208A
:1023C0003AE61948006800F000700028F2D1206A4F
:1023D000B0F5803F07D11448406820F40030A16870
:1023E000084311494860D4E9080108430E49496887
:1023F00021F4741108430C49486001200B49086618
:10240000FFF7CAFA054607E03DE0FFF7C5FA401BB3
:10241000022801D903200FE60348006800F000708D
:102420000028F2D02FE000000010024000004242DD
:102430008004424200700040002014490866FFF703
:10244000ABFA054606E0FFF7A7FA401B022801D9C0
:102450000320F1E50E48006800F000700028F2D17A
:1024600011E0E069012800D1E6E50948466806F474
:102470008031206A814204D106F47011606A814281
:1024800001D00120D8E50020D6E50000000042423E
:102490000010024010B504460CB9012010BD606A5E
:1024A00038B96068B0F5827F00D105E00021E161B4
:1024B00002E00021216161610021A16294F85100D4
:1024C00028B9002084F85000204600F043F802208C
:1024D00084F851002068006820F0400021680860FE
:1024E000A08800F48270218901F404410843A18985
:1024F00001F400610843217C01F002010843217DC1
:1025000001F001010843218B01F400710843217F90
:1025100001F0380108432021095D01F080010843E2
:10252000218D01F400510843216808600421A0694D
:1025300001EA1040216848602068C06920F400600A
:102540002168C86100206065012084F851000020E6
:10255000A4E7000010B586B0044600200290039066
:10256000049005901949206888422DD100BF184871
:10257000806940F48050164988610846806900F4FB
:102580008050019000BF00BF00BF0846806940F046
:10259000040088610846806900F00400019000BFD3
:1025A00000BFA0200290022003900320059002A902
:1025B0000848FFF749F8402002900020039004905B
:1025C00002A90448FFF740F806B010BD00300140F2
:1025D00000100240000801402DE9F84F04468846EB
:1025E00016461D464FF0000A00BF94F8500001281F
:1025F00002D10220BDE8F88F012084F8500000BF0E
:10260000FFF7CAF90746B14694F85100012802D0F5
:102610004FF0020AB7E0B8F1000F00D016B94FF042
:10262000010AB0E0032084F8510000206065C4F87E
:102630003080A686E686A063A087E0876064206479
:10264000A068B0F5004F0BD12068006820F0400072
:10265000216808602068006840F4804021680860B4
:102660002068006800F04000402805D0206800681D
:1026700040F0400021680860E068B0F5006F32D19A
:10268000606810B1B9F1010F09D1206B0088216891
:10269000C860206B801C2063E08E401EE0861EE038
:1026A0002068806800F0020002280AD1206B0088B0
:1026B0002168C860206B801C2063E08E401EE0868D
:1026C0000DE0FFF769F9C01BA84201D3681C00B9EF
:1026D0002DB94FF0030A012084F8510053E0E08E39
:1026E0000028DDD131E0606810B1B9F1010F09D1E6
:1026F000206B007821680873206B401C2063E08EFB
:10270000401EE0861EE02068806800F0020002287B
:102710000AD1206B007821680873206B401C20636D
:10272000E08E401EE0860DE0FFF736F9C01BA842A0
:1027300001D3681C00B92DB94FF0030A012084F8B9
:10274000510020E0E08E0028DDD13A46294620469F
:1027500001F0DCFC08B120206065A06850B900BF22
:10276000002000902068C068009020688068009079
:1027700000BF00BF606D10B14FF0010A02E0012000
:1027800084F8510000BF00BF002084F8500000BF53
:1027900050462FE770B504462546681EB0F1807F8D
:1027A00001D301200FE0681E4FF0E02148610F21A6
:1027B0004FF0FF3002F068F800204FF0E021886110
:1027C00007200861002070BD7047704730B5024691
:1027D0000B4600BF92F83C00012801D1022030BD19
:1027E000012082F83C0000BF022082F83D00106802
:1027F00044681068816824F0700418680443106805
:102800004460104D1068A8420BD01068B0F1804FA2
:1028100007D00D4D1068A84203D00C4D1068A84297
:1028200005D121F0800158680143106881600120C2
:1028300082F83D0000BF002082F83C0000BF00BFCE
:10284000CDE70000002C01400004004000080040DB
:1028500010B504460CB9012010BD94F83D0028B90C
:10286000002084F83C00204600F026F8022084F87E
:102870003D00211D206801F053FD012084F8460031
:1028800000BF84F83E0001213F2001554020015542
:102890004120015500BF00BF012084F842004320C1
:1028A0000155442001554520015500BF012084F801
:1028B0003D000020D0E7000038B504462068B0F1A4
:1028C000804F16D100BF2648C06940F0010024495E
:1028D000C8610846C06900F00100009000BF00BF59
:1028E000002201211C20FFF72DFA1C20FFF71AFA05
:1028F00034E01C492068884216D100BF1848C069DE
:1029000040F002001649C8610846C06900F00200A4
:10291000009000BF00BF002201211D20FFF712FA26
:102920001D20FFF7FFF919E00F492068884215D1F3
:1029300000BF0B48C06940F004000949C86108465F
:10294000C06900F00400009000BF00BF0022032116
:102950001E20FFF7F7F91E20FFF7E4F938BD00004D
:10296000001002400004004000080040014691F8B9
:102970003D00012801D001207047022081F83D0070
:102980000868C06840F001000B68D860124B086806
:1029900098420BD00868B0F1804F07D00F4B086801
:1029A000984203D00E4B086898420CD108688068A2
:1029B00000F00702062A0CD00868006840F0010009
:1029C0000B68186005E00868006840F001000B68BB
:1029D00018600020D0E70000002C014000040040F7
:1029E000000800402DE9F04104460D46002700BFD5
:1029F00094F83C00012802D10220BDE8F0810120BA
:102A000084F83C0000BF022084F83D0020688668FE
:102A100026F0770626F47F462068866028685028CE
:102A200033D00CDC202850D004DC00284BD01028F8
:102A300051D149E0302849D040284CD139E06028B4
:102A40002DD0702807D0B0F5805F03D0B0F5005FBF
:102A500041D10DE041E0D5E902136A68206801F038
:102A600099FC2068866846F077062068866034E026
:102A7000D5E902136A68206801F08CFC2068806840
:102A800040F480402168886027E0EA68696820682F
:102A900001F094FC5021206801F087FC1DE0EA68F9
:102AA0006968206801F09DFC6021206801F07DFCD0
:102AB00013E0EA686968206801F080FC4021206822
:102AC00001F073FC09E000BF00BF00BF2968206867
:102AD00001F06BFC01E0012700BF00BF012084F87A
:102AE0003D0000BF002084F83C0000BF384684E76A
:102AF000704710B5044620680069C0F34000D8B1A3
:102B00002068C068C0F34000B0B16FF002002168D7
:102B10000861012020772068806900F0030018B167
:102B20002046FFF7E5FF05E0204600F0ADF820461F
:102B300000F0ABF80020207720680069C0F3800027
:102B4000D8B12068C068C0F38000B0B16FF0040055
:102B500021680861022020772068806900F44070B5
:102B600018B12046FFF7C4FF05E0204600F08CF8BE
:102B7000204600F08AF80020207720680069C0F322
:102B8000C000D8B12068C068C0F3C000B0B16FF019
:102B9000080021680861042020772068C06900F0DF
:102BA000030018B12046FFF7A3FF05E0204600F020
:102BB0006BF8204600F069F8002020772068006953
:102BC000C0F30010D8B12068C068C0F30010B0B1E5
:102BD0006FF0100021680861082020772068C06924
:102BE00000F4407018B12046FFF782FF05E0204650
:102BF00000F04AF8204600F048F8002020772068CE
:102C0000006900F0010058B12068C06800F00100C0
:102C100030B16FF0010021680861204600F036F8FD
:102C200020680069C0F3C01058B12068C068C0F3C4
:102C3000C01030B16FF08000216808612046FFF7B6
:102C4000C3FD20680069C0F3801058B12068C068D7
:102C5000C0F3801030B16FF0400021680861204659
:102C600000F0FEF820680069C0F3401058B12068F9
:102C7000C068C0F3401030B16FF0200021680861D7
:102C80002046FFF7A2FD10BD704770472DE9FC47B5
:102C900082465B48824504D15A480088401C594905
:102CA00008805948824577D158480078022803D1D6
:102CB00001035748FEF760FE56480078401CC0B23A
:102CC00054490870032867D10020087052480078E2
:102CD000002844D051480078D0B102F090FA8046E4
:102CE000FDF791FE064600224D4BFDF7FEFD044622
:102CF000FDF708FF4B4908604B48007840B1084693
:102D000001684A4800F03CFC4848006845490860B2
:102D100044480068FEF7A2FB454908604548007832
:102D200080B1FEF7CDFB0446FDF757FE424908602F
:102D30003D48007830B108460168404800F0D6FEB2
:102D40003D4908603C480068FDF783FE84B2204698
:102D500000F094FE0546FDF7D5FE39490860354878
:102D6000007810B12D48007818B901202749087063
:102D700012E0344930480068FDF7EAFE05D33249D5
:102D800028480068FDF7E4FE03D202201F490870BE
:102D900002E000201D4908702C4882452DD11B48B7
:102DA0000078012803D141031948FEF7E5FD2848C2
:102DB0000078401CC0B22649087002281DD10020AE
:102DC000087010480088FDF71EFE06460022214BC1
:102DD000FDF719FD0022204BCDE90001FDF785FD2F
:102DE000044600221B4BFDF70BFD8046FDF78AFED3
:102DF0001A490860002003490880BDE8FC870000EC
:102E0000E40700202A0000209C0700202500002065
:102E100000100140240000201300002010000020BA
:102E20000000304000000020260000204804002060
:102E3000080000201100002004000020640400208D
:102E40000C00002000007A440000D8415407002004
:102E5000230000200000594000408F402C0000203B
:102E600070477047704700002DE9F84F044620680E
:102E700005682068C668206847694FF00009CA469F
:102E800005F00F09B9F1000F0AD105F0200038B1A3
:102E900006F0200020B1204601F007FBBDE8F88FC6
:102EA000B9F1000F7BD007F0010018B906F490705B
:102EB000002874D005F0010030B106F4807018B11C
:102EC000606C40F00100606405F0040030B107F070
:102ED000010018B1606C40F00200606405F002006F
:102EE00030B107F0010018B1606C40F0040060647C
:102EF00005F0080048B106F0200010B907F0010005
:102F000018B1606C40F008006064606C002845D027
:102F100005F0200028B106F0200010B1204601F095
:102F2000C4FA20684069C0F3801A606C00F00800A1
:102F300010B9BAF1000F2CD0204601F070FA2068C9
:102F4000406900F0400000B300BF00BF21681431A9
:102F500051E8001F21F040002168143141E80002CF
:102F6000002AF3D100BFE06B50B17748E16B4863B2
:102F7000E06BFEF7FDFA88B1E06B416B88470DE02E
:102F80002046FFF76FFF09E009E02046FFF76AFFE0
:102F900004E02046FFF766FF002060647EE7206BB8
:102FA000012877D105F01000002873D006F010003A
:102FB0000028FAD000BF0020009020680068009030
:102FC00020684068009000BF00BF2068406900F0A2
:102FD000400000285FD0E06B006840681FFA80F86E
:102FE000B8F1000F55D0A08D404552DDA4F82E80D9
:102FF000E06B8069202843D000BF00BF21680C31FE
:1030000051E8001F21F4807021680C3141E8000272
:10301000002AF3D100BF00BF00BF2168143151E87E
:10302000001F21F001002168143141E80002002A4C
:10303000F3D100BF00BF00BF2168143151E8001F69
:1030400021F040002168143141E80002002AF3D148
:1030500000BF202084F842000020206300BF00BF92
:1030600021680C3151E8001F21F0100021680C315B
:1030700041E80002002AF3D100BFE06BFEF74CFAF2
:1030800002206063A08DE28D801A81B22046FFF796
:10309000E8FE03E742E0A08DE18D401A1FFA80F8B8
:1030A000E08DD0B3B8F1000F37D000BF00BF21686A
:1030B0000C3151E8001F21F4907021680C3141E877
:1030C0000002002AF3D100BF00BF00BF2168143105
:1030D00051E8001F21F001002168143141E800028D
:1030E000002AF3D100BF202084F842000020206392
:1030F00000BF00BF21680C3151E8001F21F0100013
:1031000021680C3141E80002002AF3D100BF0220FF
:10311000606341462046FFF7A4FEBFE605F080004D
:1031200030B106F0800018B1204601F0DBFAB5E6B8
:1031300005F0400030B106F0400018B1204601F023
:10314000A4F9ABE600BFA9E60B44000810B504469D
:103150000CB9012010BDA06900B100E000BF94F8D7
:10316000410028B9002084F84000204600F02AF8E9
:10317000242084F841002068C06820F400502168B1
:10318000C860204601F010FA2068006920F49040E1
:10319000216808612068406920F02A0021684861A0
:1031A0002068C06840F400502168C8600020606456
:1031B000202084F8410084F842000020606300BFB2
:1031C000C8E7000010B586B00446002002900390C6
:1031D000049005901E492068884236D100BF1D48E2
:1031E000806940F480401B4988610846806900F48A
:1031F0008040019000BF00BF00BF0846806940F0DA
:10320000040088610846806900F00400019000BF56
:1032100000BF48150290022003900320059002A9E8
:103220000D48FEF711FA4FF48060029000200390E1
:10323000049002A90848FEF707FA0022022125207F
:10324000FEF780FD2520FEF76DFD06B010BD0000E5
:1032500000380140001002400008014070B50446EB
:103260000D46164694F8420020280BD105B10EB940
:10327000012070BD0020206332462946204601F01F
:1032800011FAF6E70220F4E710B504461E4800885C
:1032900000F4004088BB1C48008800F4804070B1F6
:1032A0001A4800780A2806D11748008840F40040E0
:1032B0001549088021E00020134908801DE01348CB
:1032C00000780D2806D11048008840F480400E494F
:1032D000088012E00D4800780B490988C1F30D0100
:1032E0000B4A505408480088401C0749088008468B
:1032F0000088C72801DD0020088001220349054815
:10330000FFF7ACFF10BD00003200002030000020AD
:103310008A0500202C0800202DE9F84F04460E46AF
:10332000174699464FF0000A94F8410020284AD1E8
:1033300006B117B90120BDE8F88F00206064212094
:1033400084F84100FEF728FB8246A784E784A06842
:10335000B0F5805F04D1206910B90025B04602E0C5
:1033600035464FF000081BE05346002280212046DE
:10337000CDF8009001F0E6F908B10320DBE745B98C
:10338000B8F80000C0F308002168486008F102089E
:1033900003E02878216848606D1CE08C401EE084C2
:1033A000E08C0028E0D15346002240212046CDF891
:1033B000009001F0C7F908B10320BCE7202084F891
:1033C00041000020B7E70220B5E7704700BFFEE7E5
:1033D00070B50825002400F059FE13E06006040EC5
:1033E000002000F037FE052001F0CAFE052001F0A4
:1033F000C7FE012000F02EFE052001F0C1FE00F006
:103400003DFE0443281EA5F10101CDB2E6D100F036
:1034100021FE052001F0B4FE00F062FE204670BDE2
:1034200010B5002000F048FE052001F0A9FE05209F
:1034300001F0A6FE012000F00DFE052001F0A0FE27
:10344000002000F007FE052001F09AFE10BD70B5C7
:103450000446082517E0002000F0FCFD052001F0DF
:103460008FFE04F0800000F027FE052001F088FEAA
:103470006006040E052001F083FE012000F0EAFD45
:10348000052001F07DFE281EA5F10101CDB2E2D19B
:1034900000F0E0FD052001F073FE70BD10B50120C5
:1034A00000F00AFE052001F06BFE052001F068FE29
:1034B000012000F0CFFD052001F062FE002000F0A9
:1034C000C9FD052001F05CFE10BD10B5012000F023
:1034D000F3FD052001F054FE012000F0BBFD0520A6
:1034E00001F04EFE002000F0E7FD052001F048FE4F
:1034F000002000F0AFFD052001F042FE10BD10B528
:10350000002000F0A7FD052001F03AFE002000F0A9
:10351000D3FD052001F034FE012000F09BFD0520C5
:1035200001F02EFE012000F0C7FD052001F028FE6D
:1035300010BD10B5052400F0A9FD052001F020FE06
:10354000012000F087FD052001F01AFE0BE0601E4F
:1035500084B2052001F014FE2CB900F0C1FDFFF784
:10356000CEFF012010BD00F089FD0028EFD100F052
:1035700071FD052001F004FE00F0B2FD0020F1E72E
:103580002DE9F04704460D4621686069FDF724F8EF
:10359000206061686069FDF71FF807466169FDF703
:1035A0001BF80646A168FCF7BFFF60606168A06970
:1035B000FDF712F88146A169FDF70EF80746E168AC
:1035C000FCF7B2FF0646A1696068FDF705F8804682
:1035D0003146FDF733F820612168A069FCF7FCFF54
:1035E00080462946FCF7F5FF07462169FCF7F4FF02
:1035F00006462168FCF798FF2060A1692069FCF766
:10360000EBFF07464FF07E51FCF7E3FF064661688B
:10361000FCF7E2FF6060BDE8F08770B504AC70CCE9
:10362000016042608360C4604561866170BD2DE9C0
:10363000F04104460D4616461F462A2000F0F4F9D4
:10364000611C88B200F0E1F9711C88B200F0DDF96C
:103650002B2000F0E9F9A91C88B200F0D6F9B91CBA
:1036600088B200F0D2F92C2000F0DEF9BDE8F0813C
:1036700070B504460D4616462B462246294620467E
:10368000FFF7D5FF304600F0C0F970BD2DE9F047D7
:1036900006460F4614461D46DDF820A0681E83B27C
:1036A000601E82B239463046FFF7C1FFB8460EE0D1
:1036B000B14606E0504600F0A8F909F101001FFAF2
:1036C00080F9A145F6DB08F101001FFA80F8A84552
:1036D000EEDBBDE8F087000010B5002204217C4835
:1036E000FEF754F96420FDF79BFF0122042178487E
:1036F000FEF74CF96420FDF793FF01220221744884
:10370000FEF744F96420FDF78BFF112000F08CF9DF
:103710007820FDF785FFB12000F086F9022000F047
:103720007DF9352000F07AF9362000F077F9B220E3
:1037300000F07AF9022000F071F9352000F06EF9FE
:10374000362000F06BF9B32000F06EF9022000F093
:1037500065F9352000F062F9362000F05FF90220AB
:1037600000F05CF9352000F059F9362000F056F9E8
:10377000B42000F059F9032000F050F9C02000F007
:1037800053F9A22000F04AF9022000F047F9842002
:1037900000F044F9C12000F047F9C52000F03EF9DF
:1037A000C22000F041F90D2000F038F9002000F0AF
:1037B00035F9C32000F038F98D2000F02FF92A20C8
:1037C00000F02CF9C42000F02FF98D2000F026F92C
:1037D000EE2000F023F9C52000F026F90A2000F0C1
:1037E0001DF9362000F020F9782000F017F9E020CC
:1037F00000F01AF9122000F011F91C2000F00EF967
:10380000102000F00BF9182000F008F9332000F028
:1038100005F92C2000F002F9252000F0FFF82820FF
:1038200000F0FCF8282000F0F9F8272000F0F6F866
:103830002F2000F0F3F83C2000F0F0F8002000F01A
:10384000EDF8032000F0EAF8032000F0E7F810207C
:1038500000F0E4F8E12000F0E7F8122000F0DEF8D4
:103860001C2000F0DBF8102000F0D8F8182000F041
:10387000D5F82D2000F0D2F8282000F0CFF8232032
:1038800000F0CCF8282000F0C9F8282000F0C6F895
:10389000262000F0C3F82F2000F0C0F83B2000F0F5
:1038A000BDF8002000F0BAF8032000F0B7F80320BC
:1038B00000F0B4F8102000F0B1F83A2000F0B4F8AD
:1038C000052000F0ABF8292000F0AEF810BD000094
:1038D000000801402DE9FF4F83B005468A46174690
:1038E000119CAB46204604EBD071C1F3470630462D
:1038F000F11706EB5171C910614389B20191A7F12B
:103900002000C7B20AEB0400401E83B2A819401E73
:1039100082B251462846FFF78AFE4FF000094AE07E
:10392000102C06D1264800EB071010F80900029071
:103930000BE0202C06D1234800EB871010F809007B
:10394000029002E007B0BDE8F08F4FF000082AE0D7
:10395000129868B9012000FA08F00299084018B1DD
:10396000069800F052F81AE0109800F04EF816E0B1
:10397000012000FA08F00299084020B1514628467B
:10398000069AFFF775FE681C85B2A5EB0B00B042E6
:1039900005D15D460AF101001FFA80FA06E008F140
:1039A000010000F0FF08B8F1080FD1DB00BF09F1FA
:1039B00001001FFA80F901988145B1DB00BFC1E722
:1039C000F6600008E66600082DE9FE4F06460F4641
:1039D00014469846DDE90D5ADDF8309010E0CDE947
:1039E000015ACDF800902278434639463046FFF719
:1039F00071FF284605EBD07106EB61018EB2641CA5
:103A000020780028EBD1BDE8FE8F10B504462012C7
:103A100000F01CF8E0B200F019F810BD10B5044633
:103A2000204600F013F810BD10B50446002208210E
:103A30000548FDF7ABFF204600F008F801220821F9
:103A40000148FDF7A3FF10BD0008014001B50022A9
:103A500010210848FDF79AFF4FF47A730122694656
:103A60000548FEF7B9FD012210210248FDF78EFF3F
:103A700008BD000000080140FC0600202DE9F041CF
:103A80000446C92C0ADA2046FCF7BDFF05464FF074
:103A900033320D4BFCF7B7FEBDE8F081B4F5487F3B
:103AA0000EDB04FB04F0FCF79DFF07460022074BEA
:103AB000FCF7A9FE05460022054BFCF716FFEBE7D5
:103AC000601FFCF78FFFE7E73333EB3F0000F03F69
:103AD00000408F40002103E0002240F82120491CD3
:103AE0003229F9DB0021C0F8C81070472DE9F04FEA
:103AF000B7B004468946D4F8C800322808DA54F82A
:103B0000C81F2068401C44F8C80944F821900BE005
:103B1000012005E054F82020411E44F82120401CDB
:103B20003228F7DBC4F8C490002005E054F82010D8
:103B300004AA42F82010401CD4F8C8108142F5DCD9
:103B400004AED4F8C8504FF0010817E056F828A08A
:103B5000A8F1010705E056F82710781C46F8201058
:103B60007F1E002F05DB56F827005146FCF7F0FFBB
:103B7000F1D3781C46F820A008F10108A845E5DB40
:103B8000284605EBD0714910A5EB4101F1B9AA46D1
:103B900005EBDA72521056F82210AB4605EBDB72D9
:103BA0005210521E56F82200FCF7BEFC0190FCF7A2
:103BB0007DFF074600224FF08043FCF796FECDE9DB
:103BC0000201FCF79FFF37B0BDE8F08F294605EBF7
:103BD000D170401056F82000F5E7002103E00022E4
:103BE00040F82120491C3229F9DB0021C0F8C81017
:103BF0007047000000B585B000200190029003904E
:103C0000049000BF4848806940F010004649886130
:103C10000846806900F01000009000BF00BF00BFA0
:103C20000846806940F0200088610846806900F0FD
:103C30002000009000BF00BF00BF0846806940F030
:103C4000040088610846806900F00400009000BF0D
:103C500000BF00BF0846806940F008008861084640
:103C6000806900F00800009000BF00BF01225103EE
:103C70002E48FDF78BFE01221E212D48FDF786FE02
:103C8000012203212B48FDF781FE00224FF44671EB
:103C90002848FDF77BFE4FF4005001900120029070
:103CA000002003900220049001A92048FDF7CCFCDD
:103CB0004FF440400190002002900220039001A99F
:103CC0001A48FDF7C1FC40F6010001900020029067
:103CD0000220039001A91648FDF7B6FC1E200190B2
:103CE00001200290002003900320049001A91048B5
:103CF000FDF7AAFC0320019001200290039003200D
:103D0000049001A90B48FDF79FFC4FF44670019009
:103D100001200290002003900220049001A9054890
:103D2000FDF792FC05B000BD0010024000100140FC
:103D300000080140000C014010B50B480B49086019
:103D40000B484860002109488160C1604FF4804100
:103D50000161002141618161C1610162FDF722FEC3
:103D600008B1FDF779FB10BD005400405406002057
:103D7000A086010010B50B480B4908600B4848604D
:103D8000002109488160C1604FF480410161002138
:103D900041618161C1610162FDF704FE08B1FDF777
:103DA0005BFB10BD00580040A8060020A086010063
:103DB00000B585B00020019002900390049000BFF0
:103DC0001D48806940F004001B49886108468069ED
:103DD00000F00400009000BF00BF01221E21174820
:103DE000FDF7D4FD1E2001900120029000200390D9
:103DF0000320049001A91148FDF726FC1048114941
:103E000008604FF48270486000210E488160C160F4
:103E1000016141614FF4007181610821C16100219C
:103E20000162416281620A21C162FEF733FB08B17F
:103E3000FDF712FB05B000BD001002400008014074
:103E400000300140FC06002000B587B00020039040
:103E5000049005900690019002904FF08040154923
:103E6000086041F61F40486000211248816041F21D
:103E70008731C1600021016180218161FEF7E8FC8A
:103E800008B1FDF7E9FA4FF48050039003A90948FF
:103E9000FEF7A8FD08B1FDF7DFFA002001900290BF
:103EA00001A90448FEF792FC08B1FDF7D5FA07B066
:103EB00000BD00005407002000B587B0002003902B
:103EC00004900590069001900290154815490860ED
:103ED00041F61F40486000211248816040F2E731FE
:103EE000C1600021016180218161FEF7B1FC08B150
:103EF000FDF7B2FA4FF48050039003A90948FEF78A
:103F000071FD08B1FDF7A8FA00200190029001A907
:103F10000448FEF75BFC08B1FDF79EFA07B000BD50
:103F2000000400409C07002000B587B000200390EB
:103F3000049005900690019002901548154908607C
:103F40004720486000211348816040F2E731C1609A
:103F50000021016180218161FEF77AFC08B1FDF743
:103F60007BFA4FF48050039003A90A48FEF73AFD0C
:103F700008B1FDF771FA00200190029001A90548EF
:103F8000FEF724FC08B1FDF767FA07B000BD00009A
:103F900000080040E407002010B50B480B490860FA
:103FA0004FF416504860002108488160C1600161EB
:103FB0000C21416100218161C161FFF7C7F808B19F
:103FC000FDF74AFA10BD0000003801402C0800201F
:103FD00000BFFEE77047704708B508490968C9087F
:103FE0004FF47A72B1FBF2F14143009100BF00BF80
:103FF00000994A1E00920029F9D108BD480000200E
:1040000070B504460E461546FFF75FFAA020FFF78D
:104010001EFAFFF78EFAF0B2FFF719FAFFF789FAE6
:10402000FFF753FAA120FFF712FAFFF782FA09E02F
:10403000FFF7CEF904F8010B15B1FFF7F1F901E034
:10404000FFF72CFA281EA5F10101CDB2F0D1FFF740
:1040500056FA70BD30B10849096841F04001064A7E
:10406000116007E00449091D096841F04001024A56
:10407000121D116070470000100C014010B5802126
:104080000148FDF771FC10BD000C01401FB5002078
:1040900000900190029003908020009000200190F9
:1040A000012002900320039069460248FDF7CCFAF4
:1040B0001FBD0000000C014030B10849096841F003
:1040C0008001064A116007E00449091D096841F0B2
:1040D0008001024A121D116070470000100C01405F
:1040E0001FB5002000900190029003908020009066
:1040F000112001900020029003200390694602489D
:10410000FDF7A2FA1FBD0000000C0140F8B50446FF
:104110000D4616462B46002280212046009600F0D0
:1041200009F828B1606D40F0200060650320F8BDFB
:104130000020FCE72DE9F84F04460D4690461E4648
:10414000DDF82890FDF728FCA0EB0900371AFDF7F1
:1041500023FC82462C480068C0F3CB3078430090A3
:1041600045E0701C002842D0FDF716FCA0EB0A00C9
:10417000B84200D2A7BB2068406820F0E000216868
:1041800048606068B0F5827F0DD1A068B0F5004F3F
:1041900003D0A068B0F5806F05D12068006820F0DA
:1041A000400021680860A06AB0F5005F0DD100BF33
:1041B0002068006820F400502168086020680068CA
:1041C00040F400502168086000BF012084F85100CD
:1041D00000BF002084F8500000BF0320BDE8F88F26
:1041E000FFE7009800B900270098401E0090206863
:1041F00080682840A84201D1012000E0002040450D
:10420000AFD10020EAE7000048000020704710B559
:104210000446FDF7A9F84620FDF776F82046FDF79D
:1042200073F8FDF7C1F810BD10B5FDF70BFD10BD1B
:1042300000B58FB0282105A8FBF78DFF1421684633
:10424000FBF789FF012005900004069000200790ED
:104250000120099002200C90C1030D914FF4E01150
:104260000E9105A8FDF7E4FE08B1FDF7F5F80F2063
:10427000009002200190002002904FF48060039093
:104280000020049002216846FDF7AEFD08B1FDF75D
:10429000E3F80FB000BD00001148006840F00100D5
:1042A0000F490860084640680E4908400C494860BC
:1042B000084600680C49084009490860084600683B
:1042C00020F4802008600846406820F4FE00486022
:1042D0004FF41F008860C80304490860704700005D
:1042E000001002400000FFF8FFFFF6FE08ED00E0BE
:1042F00010B50248FEF7FDFB10BD0000540700207A
:1043000010B50248FEF7F5FB10BD00009C07002029
:1043100010B50248FEF7EDFB10BD0000E4070020D9
:1043200010B50268184B984208D0B0F1804F05D004
:10433000164B984202D0164B984203D122F07002DD
:104340004B681A43104B984208D0B0F1804F05D00B
:104350000E4B984202D00E4B984203D122F4407289
:10436000CB681A4322F080034C6943EA04020260DE
:104370008B68C3620B688362034B984201D10B695F
:1043800003630123436110BD002C01400004004081
:104390000008004030B50C46816821F47F4142EAB4
:1043A000032525432943816030BD0A46816821F0F9
:1043B000700142F0070319438160704730B50B4626
:1043C0001446026A056A25F001050562816921F03B
:1043D000F00141EA041122F00A021A4381610262EB
:1043E00030BD30B50B461446026A056A25F010054B
:1043F0000562816921F4704141EA043122F0A00292
:1044000042EA03128161026230BD70B505466C6AF2
:104410000020E085E0842046FEF724FD70BD00BF4B
:1044200000BF02680C3252E8002F22F4907102683B
:104430000C3242E80013002BF3D100BF00BF00BFD5
:104440000268143252E8002F22F00101026814328F
:1044500042E80013002BF3D100BF016B01290ED1FC
:1044600000BF00BF02680C3252E8002F22F010019A
:1044700002680C3242E80013002BF3D100BF202168
:1044800080F8421000210163704710B5044620688F
:10449000C06820F040002168C860202084F84100F6
:1044A0002046FEF792FF002010BDF8B5044694F8B0
:1044B0004200222875D1A068B0F5805F0CD1206938
:1044C00050B90025A66A20684068C0F30800308013
:1044D000A06A801CA06215E0A56A0026A068B0F55D
:1044E000805F03D0A06828B9206918B920684068A7
:1044F000287004E02068406800F07F002870A06AFF
:10450000401CA062E08D401E80B2E085002846D1AC
:104510002068C06820F020002168C8602068C0685A
:1045200020F480702168C8602068406920F0010094
:1045300021684861202084F8420000206063206BDD
:10454000012826D10020206300BF00BF21680C3164
:1045500051E8001F21F0100021680C3141E80002F1
:10456000002AF3D100BF2068006800F01000102876
:104570000AD100BF002000902068006800902068E9
:104580004068009000BF00BFA18D2046FEF769FC87
:1045900002E02046FEF778FE0020F8BD01E0002092
:1045A000FBE70220F9E7000070B5044621680969BD
:1045B00021F44051E2681143226811612269A16827
:1045C0001143626941EA02052168C96841F20C623F
:1045D000914329432268D1602168496921F44071DF
:1045E000A2691143226851612D4A2168914202D18A
:1045F000FDF7D6FC01E0FDF7C3FC00EBC00101EBC9
:10460000001162689200B1FBF2F100EBC00202EB14
:10461000001263689B00B2FBF3F26423B2FBF3F277
:1046200002EBC20303EB0212A1EB8201322202EB86
:1046300001116422B1FBF2F101F0F00100EBC002C4
:1046400002EB001263689B00B2FBF3F26423B2FB3F
:10465000F3F201EB021200EBC00101EB0011636801
:104660009B00B1FBF3F100EBC00303EB00136668A2
:10467000B600B3FBF6F36426B3FBF6F303EBC30615
:1046800006EB0313A1EB8301322303EB0111642337
:10469000B1FBF3F101F00F0111442268916070BD8C
:1046A0000038014010B5034699629A85DA850020EA
:1046B0005864222083F84200186928B11868C0683D
:1046C00040F480701C68E0601868406940F00100A8
:1046D0001C6860611868C06840F020001C68E060D9
:1046E000002010BD014691F84100212828D188689A
:1046F000B0F5805F0BD1086948B90A6A1088C0F329
:1047000008000B685860086A801C086205E00B6AA4
:10471000581C086218780B685860C88C401E80B21C
:10472000C88458B90868C06820F080000B68D86059
:104730000868C06840F040000B68D86000207047EF
:104740000220FCE72DE9F04104460D461746984645
:10475000069E34E0701C88B32EB1FDF71DF9A0EB66
:104760000800B0422BD900BF00BF21680C3151E8CE
:10477000001F21F4D07021680C3141E80002002AAA
:10478000F3D100BF00BF00BF2168143151E8001F02
:1047900021F001002168143141E80002002AF3D120
:1047A00000BF202084F8410084F8420000BF0020B0
:1047B00084F8400000BF0320BDE8F081FFE72068D7
:1047C00000682840A84201D1012000E00020B84242
:1047D000C0D00020F0E7000010B50248FEF744FB0F
:1047E00010BD00002C08002000BFFEE770B5044695
:1047F0000D461646FEF769FEA020FEF728FEFEF7DE
:1048000098FEE8B2FEF723FEFEF793FE05E014F8EB
:10481000010BFEF71CFEFEF78CFE301EA6F1010117
:10482000CEB2F4D1FEF76BFE322000F0A9FC70BDD1
:104830000FB4054B10B503A9044A029800F012F911
:1048400010BC5DF814FB0000A952000838000020DD
:104850000FB4084B10B504A902AA039800F002F99E
:10486000044602A9002000F080FC204610BC5DF840
:1048700014FB00006B51000802480068C0F30220DE
:10488000704700000CED00E010B5002804DB0A07BB
:10489000130E054A135406E00A07140E034A00F0EB
:1048A0000F031B1FD45410BD00E400E018ED00E01E
:1048B00002E008C8121F08C1002AFAD170477047E9
:1048C000002001E001C1121F002AFBD17047000047
:1048D0002DE9FF5F82B00021DDE90430020DDDF833
:1048E00040B0034318D044F61050A2F2FF324243C6
:1048F0001514119801281FD0A5EB0B00401C5FEA8E
:10490000000A4FF000064E4FDFF83891B04650468F
:1049100015D5CAF1000413E0119801244AA3012817
:1049200001D16FEA0B010298119AC0E90031C0E988
:10493000024206B0BDE8F09FCBF10000DFE704467D
:104940000021404A491842EB0450CDE9001012E022
:10495000E00707D032463B4640464946FBF753FF47
:104960008046894632463B4610461946FBF74BFFC8
:1049700006460F466410002CEAD1DDE90401DDE9AA
:104980000023BAF1000F06DAFBF73DFF42464B4623
:10499000FBF739FF05E0FBF7A8FF42464B46FBF764
:1049A000A4FF04460E460022284BFCF793F803D8D8
:1049B0004FF0FF30014607E00022254B20463146EC
:1049C000FBF77AFEFCF70AFA102409E0002C0ADB58
:1049D0000A220023FCF7DCF8039B30321A55641ED0
:1049E00050EA0102F2D1641C039AC4F11103144489
:1049F000119A012A03D0012208430DD10AE008438D
:104A000004D000204FF0110B119072E7A3EB0B05BF
:104A10006D1E0DE05B4504DD4FF0000205F1010560
:104A200004E003DA4FF00002A5F10105002AECD002
:104A300002981199C0E90231C0E9004579E7000008
:104A4000000014400000F03F300000000000F04380
:104A50000000E03F30380A2801D2012070470020D2
:104A6000704700002DE9FF4F95B09A4688460646EC
:104A70000025EEE1252877D100242746F94A0121B7
:104A8000039400E0044316F8013F203B01FA03F0D1
:104A90001042F7D130782A2811D06FF02F033078E8
:104AA000A0F13002092A16D8039A44F0020402EB5E
:104AB000820203EB42021044761C0390EFE758F8A1
:104AC000042B0392002A03DA504244F4005403906A
:104AD00044F00204761C30782E2816D116F8010F07
:104AE00044F004042A280DD06FF02F023078A0F192
:104AF0003003092B09D807EB870302EB4303C718E0
:104B0000761CF3E758F8047B761C30786C280FD0BD
:104B100006DC4C2817D068280DD06A2814D104E090
:104B2000742810D07A280FD10DE044F400140AE064
:104B300044F4801401E044F440147278824202D1BB
:104B400004F58014761C761C307866280BD013DCB4
:104B5000582877D009DC002875D04528F6D046289B
:104B6000F4D047281AD193E118E0632835D064289F
:104B700079D0652812D18BE1702873D008DC6728C2
:104B8000F1D069286FD06E280DD06F2806D1ACE027
:104B900073282CD0752874D0782853D05246179992
:104BA00090476D1C54E1C4F30250022809D0032839
:104BB0000DD0D8F8001004280DD00D6008F10408BD
:104BC00046E1D8F80010EA17C1E90052F6E7D8F834
:104BD00000100D80F2E70D70F0E718F8041B8DF857
:104BE000001000208DF80100EB46012003E058F88A
:104BF00004BB4FF0FF3061074FF0000102D40DE01D
:104C000009F101018946B9420FDA8145F8DB1BF849
:104C100009100029F4D108E009F101018946814217
:104C2000FADB1BF809100029F6D103985346A0EBD4
:104C3000090721463846179A00F080FA284400EB0D
:104C4000090507E044E008E10DE01BF8010B5246BE
:104C500017999047B9F10109F7D2534621463846D2
:104C6000179AF2E039E00A21C4F302524FF0000B28
:104C70000091022A06D058F8040BC117032A09D064
:104C80000AE023E008F1070020F00702F2E8020141
:104C9000904605E000B2C117042A01D140B2C11705
:104CA000002906DA0A460021404261EB02012D226A
:104CB00002E0220504D52B228DF80420012203E016
:104CC000E20701D02022F7E7914657E00A2100E0F1
:104CD00010214FF0000B00910BE010214FF0000B62
:104CE00044F004040827009103E008204FF0000B73
:104CF0000090C4F30252022A05D058F8040B002198
:104D0000032A08D008E008F1070020F00702F2E8C3
:104D10000201904603E080B2042A00D1C0B24FF0F5
:104D2000000922072AD53278702A07D0DDF800C0A2
:104D30008CF0100C5CEA0B0C05D00EE040228DF8D4
:104D40000420012208E050EA010306D030238DF848
:104D500004308DF8052002229146009B83F0080361
:104D600053EA0B030AD150EA010201D1620705D5CB
:104D700030228DF804204FF001097F1E3278582A26
:104D800004D039A20C920CAA02920BE03BA2F9E7E4
:104D90005B46009AFBF7FCFE0C9B9B5C029A521E42
:104DA0000292137050EA0102F2D1029804A9081A83
:104DB00000F1200B600702D524F4803400E00127C5
:104DC0005F4502DDA7EB0B0000E0002000EB0B01CC
:104DD000009003984944401A0390E00306D45346D8
:104DE0002146179A039800F0A9F90544002706E028
:104DF00001A85246C05D179990476D1C7F1C4F4516
:104E0000F6DBE0030CD553462146179A039800F0D1
:104E100095F9054404E030205246179990476D1CDF
:104E20000099481E00900029F5DC08E002980299DC
:104E300052460078491C0291179990476D1CBBF1AE
:104E40000001ABF1010BF1DC5BE100F065F9054419
:104E5000761C307800287FF40DAE19B02846BDE8E6
:104E6000F08F0000092801003031323334353637F5
:104E700038396162636465660000000030313233A6
:104E80003435363738394142434445460000000046
:104E9000600700D4062708F1070020F00700F0E8BB
:104EA0000223804603F0004C5FEA0C0001D097A07B
:104EB00009E0200501D596A005E0E00701D095A006
:104EC00001E0AFF24C001390307823F000436528E6
:104ED0000CD006DC452809D046281DD047287FD1B4
:104EE0003BE0662818D067287AD136E00021112FE0
:104EF00001DB112000E0781CCDE9000104A90CA819
:104F0000FFF7E6FCDDE90D010C9A4FF0000B07F10D
:104F10000109109200914EE04FF000400097CDE95A
:104F2000011004A90CA8FFF7D3FCDDE90D020C9BCE
:104F30000F994FF0000B91461093009211B9791C14
:104F400000EB0109B7EB090003D4C0F1FF3B07F107
:104F50000109A9EB0700019042E0012F00DA0127C7
:104F60000021112F01DD112000E03846CDE90001BC
:104F700004A90CA8FFF7ACFCDDE90D010C9A009127
:104F80004FF0000BB946109221070FD4009A4A4502
:104F900003DA914601E0A9F10109B9F1010F05DD3C
:104FA000109AA9F10101515C3029F4D0B84202DA1B
:104FB00010F1040F03DA0121CDE9011010E00028FF
:104FC00003DC8344A9EB000102E0411C494500DDFC
:104FD0008946A0EB0B00401C01904FF0004002906E
:104FE000200705D40198484502DB4FF0FF300190BF
:104FF00000208DF84B0002980DF14B07B0F1004FE7
:1050000025D002200C902B200D90029800280CDA5D
:10501000404202902D200D9007E00A210298FBF7F4
:10502000A1FD3031029007F8011D0C99481E0C902B
:105030000029F2DC02980028EFD1791E0D98087043
:10504000307800F0200040F0450007F8020D11A86C
:10505000C01BC01D02901398007800B1012000EB26
:105060000901019801EBE071029801440398401A8C
:10507000401E0390E00306D453462146179A039836
:1050800000F05CF805441398007818B1524617995F
:1050900090476D1CE00323D553462146179A039889
:1050A00000F04CF805441BE0BBF1000F07DB009853
:1050B000584504DD1098179910F80B0001E0179976
:1050C00030205246904701980BF1010B401E05F12C
:1050D0000105019004D12E205246179990476D1C6E
:1050E000B9F10001A9F10109DEDC05E017F8010BB7
:1050F0005246179990476D1C0299481E029000294C
:10510000F4DC53462146179A03989EE62D000000D2
:105110002B000000200000002DE9F041044600258E
:105120001E461746880404D405E039462020B047BF
:105130006D1C641EF9D52846BDE8F0812DE9F041CB
:10514000044600251E469046C80301D5302700E0DE
:105150002027880404D505E041463846B0476D1C39
:10516000641EF9D52846BDE8F0810A68531C0B601F
:105170001070704700BF011EA0F10100FBD1704705
:10518000002100E0491C8142FCD3704731E000BFA0
:1051900000BF00BF00BF00BF00BF00BF00BF00BF17
:1051A00000BF00BF00BF00BF00BF00BF00BF00BF07
:1051B00000BF00BF00BF00BF00BF00BF00BF00BFF7
:1051C00000BF00BF00BF00BF00BF00BF00BF00BFE7
:1051D00000BF00BF00BF00BF00BF00BF00BF00BFD7
:1051E00000BF00BF00BF00BF00BF00BF00BF00BFC7
:1051F00000BF011EA0F1010290B2C8D1704770B586
:1052000000F0BCFECC2000F0A6FE442000F0A3FE7F
:105210004FF4A070FFF7AEFF00F0B0FECC2000F01E
:105220009AFEBE2000F097FE00F090FE044600F0CB
:105230008DFE054644EA052070BD00002DE9F05FB3
:1052400004468946154600212846FBF777FC00D81E
:1052500000252846FBF72AFC07464FF03332114B56
:10526000FBF738FC01D84FF07E552668012714E083
:1052700029464FF07E50FBF7A9F983463146FBF7EC
:10528000ABF9804654F827102846FBF7A5F982466B
:105290004146FBF749F906467F1C4F45E8DB30469F
:1052A000BDE8F09F3333F33F00BF054A126802F0B8
:1052B0004002002AF9D0C2B2014B1B1D1A60704790
:1052C0000038014010B50024012208216648FCF78F
:1052D0005DFB002210216448FCF758FB00224FF4CC
:1052E00080716148FCF752FB00224FF400715E4868
:1052F000FCF74CFB4FF400615C48FCF735FB08B150
:10530000012415E04FF480415948FCF72DFB08B10A
:1053100005240DE04FF400415548FCF725FB08B18A
:10532000092405E001215148FCF71EFB00B10D24C2
:10533000002208214C48FCF729FB012210214A4891
:10534000FCF724FB00224FF480714748FCF71EFB5A
:1053500000224FF400714448FCF718FB4FF4006141
:105360004248FCF701FB08B1022415E04FF48041EC
:105370003F48FCF7F9FA08B106240DE04FF400416C
:105380003B48FCF7F1FA08B10A2405E0012137484F
:10539000FCF7EAFA00B10E24002208213248FCF79B
:1053A000F5FA002210213048FCF7F0FA0122110230
:1053B0002D48FCF7EBFA00224FF400712A48FCF765
:1053C000E5FA4FF400612948FCF7CEFA08B103244E
:1053D00015E04FF480412648FCF7C6FA08B10724CF
:1053E0000DE04FF400412248FCF7BEFA08B10B244F
:1053F00005E001211D48FCF7B7FA00B10F24002297
:1054000008211948FCF7C2FA002210211648FCF7BF
:10541000BDFA00224FF480711348FCF7B7FA01225D
:1054200051021148FCF7B2FA4FF400610F48FCF743
:105430009BFA08B1042415E04FF480410C48FCF7B6
:1054400093FA08B108240DE04FF400410848FCF736
:105450008BFA08B10C2405E001210448FCF784FA1A
:1054600000B10F24204610BD000C0140000801408F
:10547000001001400EB5FCF7F1FBFEF7D9FEFEF778
:1054800097FCFEF729F94FF6FF7080231A4600219A
:1054900000900846FEF7FAF8002010214FF6FF7240
:1054A0000346CDE900210290FDA20146FEF78CFAE9
:1054B000FEF7A0FBFEF740FCFEF76EFDFEF75AFC80
:1054C000FEF776FCFEF7C0FCFEF7F6FCFEF72CFDBF
:1054D000F748FEF7FFFAF748FEF77FFB4FF07E50E4
:1054E000F54ACDE90020F54B0246F5490290F54812
:1054F000FEF793F80122F449F448FDF7AFFEF4A05B
:10550000FFF796F9FBF76CFFFBF744FEFBF790FF04
:10551000F248FDF72BFAF248FDF728FAF148FDF7BB
:1055200025FA002010214FF6FF724FF47843CDE9A1
:1055300000210290ECA21221FEF746FA4FF4FA7015
:10554000FCF76EF801220A21EB48FFF74FF93220F1
:10555000FCF766F801220A21E848FEF751FD11E048
:1055600001220A21E548FEF74BFD002010214FF6ED
:10557000FF724FF47843CDE900210290E0A224218C
:10558000FEF722FADD480078DB4909788842E7D146
:10559000002010214FF6FF724FF47843CDE900212F
:1055A0000290DBA22421FEF70FFA01220321DC483E
:1055B000FEF726FDDA480078401CD94908703220F1
:1055C000FCF72EF801220321D548FFF70FF94FE031
:1055D000D448007820BBFFF712FE8046FBF713FA91
:1055E00006460022D04BFBF780F90446FBF78AFA07
:1055F000CE490860CE49CD480068FBF7A9FA10D221
:105600000120C8490870002010214FF6FF724FF4A6
:105610007843CDE900210290C6A23621FEF7D4F9E5
:1056200002E00020BF490870C548007800BBFBF7C6
:1056300047FF0446FBF7D1F9C2490860C249C14897
:105640000068FBF77BFA10D20120BD4908700020EA
:1056500010214FF6FF724FF47843CDE900210290FC
:10566000BAA24821FEF7B0F902E00020B449087060
:10567000AC4800780028ABD0B14800780028A7D00B
:10568000002010214FF6FF724FF47843CDE900213E
:105690000290B1A26C21FEF797F94FF47A70FBF7F4
:1056A000BFFF9F4800780A2804DD9D480078401C11
:1056B0009B490870012203219948FFF797F8FCF7EE
:1056C0006BF9A9490860A94908604FF6FF7080236B
:1056D0001A46002100900846FDF7D8FFDFE2FCF7EC
:1056E0005BF9A1490968401A64284BD9FCF754F9C1
:1056F0009D490860FFF7E6FD9D4908709D480078C8
:10570000097848409A49097808409B4908709848A8
:105710000078984908709848007820B19648017838
:1057200096A0FFF785F894480078012806D0022853
:105730000BD0032816D0042822D11AE09348007811
:1057400080F00100914908701BE07D48007880F0EE
:1057500001007B4908707348007880F001007149AE
:1057600008700EE08A48007880F0010088490870CF
:1057700007E08848007880F001008649087000E062
:1057800000BF00BFFCF708F978490968401AB0F576
:10579000487F7DD9FCF700F9744908607E480068AD
:1057A0004FF47A71B0FBF1F07C490860084600685C
:1057B000412801D93C2008607848026878A17A48DD
:1057C000FFF746F8002010214FF6FF724FF47843A0
:1057D000CDE900210290744A0146FEF7F5F86B48C6
:1057E0000078012804D171A16F48FFF731F803E078
:1057F00070A16D48FFF72CF8002010214FF6FF72C2
:105800004FF47843CDE900210290674A01465020C9
:10581000FEF7DAF869480068FBF748F904462246C3
:105820000B4667A16048FFF713F8002010214FF6E0
:10583000FF724FF47843CDE9002102905A4A1221B9
:10584000FEF7C2F83648027861A15748FFF700F822
:10585000002010214FF6FF724FF47843CDE900216C
:105860000290514A12215020FEF7AEF85A480278B1
:105870005AA14D48FEF7ECFF002010214FF6FF72B1
:105880004FF47843CDE900210290474A242100E0FB
:1058900048E1FEF799F83F48007800B9A2E0A6E099
:1058A00053797374656D20496E69742E2E2E000035
:1058B0007C03002064040020CDCCCC3D6666663FAE
:1058C0000000C84148040020300000202C080020BF
:1058D000C1ACBDD3B3C9B9A6A3A10A005407002027
:1058E0009C070020E407002053797374656D2049FC
:1058F0006E6974204F4B21002700002028000020F3
:10590000454550524F4D204572726F722100000084
:10591000454550524F4D204F4B2120202020200044
:105920003400002010000020000030400000002063
:105930000000204144533138423230204F4B210087
:10594000110000200400002000401C46424831376E
:105950003530204F4B210000456E746572696E67CB
:10596000202E2E2E00000000180000201400002021
:10597000200000202200002021000020B0B4BCFC48
:1059800020256420B0B4CFC2A3A10A0026000020C5
:1059900012000020130000203C0000201C0000200A
:1059A0005550543A2564730058050020463A59650D
:1059B00073000000463A4E6F200000002C000020CB
:1059C0004350553A2530342E31662525000000001D
:1059D0004E3A256400000000250000204C45443A62
:1059E00025640000AEA1B048FEF732FF03E0AFA18E
:1059F000AD48FEF72DFF002010214FF6FF724FF447
:105A00007843CDE900210290A74A24215020FDF7D8
:105A1000DBFFA8480068FBF749F8044622460B461E
:105A2000A5A1A148FEF714FF002010214FF6FF7238
:105A30001F23CDE9002102909B4A3621FDF7C4FFC8
:105A4000A0480068FBF732F8044622460B469EA1A8
:105A50009548FEF7FDFE002010214FF6FF724FF42F
:105A60007843CDE9002102908F4A4821FDF7ACFF31
:105A70009948007858B199480068FBF717F8044630
:105A800022460B4696A18848FEF7E2FE06E098A162
:105A90008548FEF7DDFE00209049086000201021B7
:105AA0004FF6FF721F23CDE9002102907E4A5A2152
:105AB000FDF78AFF90480068FAF7F8FF044622468F
:105AC0000B468EA17848FEF7C3FE002010214FF64A
:105AD000FF724FF47843CDE900210290724A6C21A5
