:020000040800F2
:10000000F008002005010008F92D00085527000818
:10001000F52D0008A90D0008F933000800000000C4
:10002000000000000000000000000000252F000874
:10003000AD0D000800000000FB2D0008272F000870
:100040001F0100081F0100081F0100081F01000810
:100050001F0100081F0100081F0100081F01000800
:100060001F0100081F0100081F0100081F010008F0
:100070001F0100081F0100081F0100081F010008E0
:100080001F0100081F0100081F0100081F010008D0
:100090001F0100081F0100081F0100081F010008C0
:1000A0001F0100081F0100081F0100081F010008B0
:1000B000ED2F0008FD2F00080D3000081F0100087B
:1000C0001F0100081F0100081F0100081F01000890
:1000D0001F010008E93300081F0100081F01000884
:1000E0001F0100081F0100081F010008DFF810D0E1
:1000F00000F076FC00480047113D0008AFF3008097
:10010000F00800200648804706480047FEE7FEE763
:10011000FEE7FEE7FEE7FEE7FEE7FEE7FEE7FEE7B7
:10012000952F0008ED000008202A04DB203A21FA70
:1001300002F00021704721FA02F3D040C2F1200200
:100140009140084319467047D2B201E000F8012BF4
:10015000491EFBD270470022F6E710B513460A4647
:1001600004461946FFF7F0FF204610BD421C10F868
:10017000011B0029FBD1801A704730B505460020CD
:10018000034600E05B1C934205D2EC5CC85C201A7D
:1001900001D1002CF6D130BD0FB400B58DB010A93F
:1001A00009900B9000914FF0FF300A9000200C90C6
:1001B00005480690054807906A4609A80F9900F07F
:1001C00003FA0DB05DF814FBE5050008030600080E
:1001D0002DE9FF5F1D464FF0FF3BD5E901469146F3
:1001E0005F464FF00008A9697F1C01988847296A7B
:1001F000824688470028F6D1BAF1FF3F0CD024F49C
:10020000C064002E19DD600614D5BAF12B0F09D099
:10021000BAF12D0F0ED103E0584604B0BDE8F09FAF
:1002200044F48064A9697F1C01988847761E824641
:10023000002E02DDBAF1300F03D0B9F1000F26D045
:1002400032E0A969761E44F400747F1C0198884747
:100250008246002E05DDBAF1780F06D0BAF1580FAC
:1002600003D0B9F1000F10D01EE0B9F1000F02D099
:10027000B9F1100F18D1A969761E24F400747F1CFF
:10028000019888478246102002E0082000E00A20FA
:10029000814609E008FB0908A969761E44F4007448
:1002A0007F1C019888478246002E05DD494650464E
:1002B00000F076F90028EDDAE96901988847A00591
:1002C00002D46FF00100A8E7E00725D1600613D53E
:1002D000600502D5C8F1000000E0404629680A1D0B
:1002E0002A600968220501D5087015E0220701D5AA
:1002F000088011E008600FE02868011D296000688F
:10030000210502D580F8008006E0210702D5A0F87B
:10031000008001E0C0F8008038467EE780EA0102F4
:1003200010B502F00043400022D04A001FD0010E59
:1003300001EB1261C0F35600C2F3560240F4000014
:1003400042F40002A0FB022000047F39140400D014
:10035000401C50EA124001D44000491EC2B20C06B3
:1003600004EBD010401C4008802A02D003E000209B
:1003700010BD20F00100002900DA0020184310BD54
:1003800030B480EA010202F0004530F0004221F072
:10039000004013D090B1C30DD40DC2F31601C0F3C9
:1003A0001600E41A41F4000140F400027D34914249
:1003B00001D3641C00E04900002C02DA30BC0020AC
:1003C00070474FF400000023914201D3891A034380
:1003D00040084FEA4101F7D151B1914202D14FF0AB
:1003E000004105E002D24FF0010101E06FF0010190
:1003F00003EBC450284430BC00F014B92DE9F04D93
:1004000081EA030404F0004B21F0004514464FF04C
:10041000000A23F0004150EA050220D054EA01020C
:100420001DD0C5F30A570246C5F31303C1F31300E9
:10043000C1F30A5640F4801543F48013A7EB060875
:10044000101BD64608F2FD3873EB050002D308F105
:10045000010801E092185B41B8F1000F03DA0020B7
:100460000146BDE8F08D00204FF480110646844619
:100470000EE0171B73EB050705D3121B63EB050397
:1004800006434CEA010C49084FEA300092185B41E0
:1004900050EA0107EDD152EA030012D082EA0400CB
:1004A00083EA0501084305D0101BAB4106D20122A7
:1004B000002306E000224FF0004302E06FF001024B
:1004C00053101AEB06004CEB085110EB0A0041EBFD
:1004D0000B01BDE8F04D00F0DCB8C10F80EAE07020
:1004E0000844CA079623002100F0A5B800F0004296
:1004F00030F000400AD0C10D01F56071C0F3160064
:1005000042EA0151C20840071143704700200146EA
:10051000704730B50B46014600202022012409E037
:1005200021FA02F59D4205D303FA02F5491B04FAAC
:1005300002F52844151EA2F10102F1DC30BD2DE9BF
:10054000F05F0546002092469B4688460646814657
:1005500040241BE02846414647462246FFF7E4FD7B
:1005600053465A46C01A914110D3114618462246A6
:1005700000F048FA2D1A67EB01084F462246012089
:10058000002100F03FFA17EB00094E41201EA4F1B4
:100590000104DFDC484631462A464346BDE8F09F69
:1005A0003A2800D2303820F02002412A01D3A2F1AB
:1005B0003700884201D34FF0FF3070470268114482
:1005C0001378016018467047D160044951610449AD
:1005D000116200211161114600F03ABABD05000810
:1005E000470A0008426842B1016811F8013B23B193
:1005F000521EC0E90012184670470121C160881ED2
:10060000704742685AB1C368016843B983688B4236
:1006100005D0491E521CC0E90012002070474FF05F
:10062000FF3070470029A8BF7047401C490008BF31
:1006300020F00100704710B4B0FA80FC00FA0CF012
:1006400050EA010404BF10BC704749B1CCF120044A
:1006500021FA04F411FA0CF118BF012121430843D7
:10066000A3EB0C01CB1D4FEA00614FEA102042BF03
:10067000002010BC704700EBC35010440029A4BFF9
:1006800010BC7047401C490008BF20F0010010BC9E
:10069000704710B5141E73F1000408DA401C41F1D4
:1006A000000192185B411A4301D120F0010010BDF6
:1006B0002DE9F04D92469B4611B1B1FA81F202E06C
:1006C000B0FA80F22032904600F09CF904460F46C2
:1006D00040EA0A0041EA0B0153465A46084313D048
:1006E000114653EA010019D0C8F140025046FFF705
:1006F0001BFD05460E4650465946424600F082F91B
:10070000084305D0012004E020463946BDE8F08DBD
:100710000020054346EAE0762C4337430A986305F8
:10072000E40AA0EB08000022FD0A44EA47540A301C
:1007300002D500200146E9E7010510196941DDE90C
:10074000084500196941BDE8F04DA2E72DE9FE4FCB
:10075000804681EA0300C00F0C46009021F0004162
:1007600023F00045B8EB0200A94105D240462146DE
:1007700090461C460B46024623F00040104347D0EB
:10078000270DC7F30A00C3F30A510290401A0190E3
:1007900040286BDAC3F3130040F4801B00989246A4
:1007A00020B10023D2EB030A63EB0B0B01985946EF
:1007B000C0F14002504600F025F906460D4650466D
:1007C0005946019A00F02DF910EB08006141002410
:1007D00087EA115284EAE7731A4340D0009A62B361
:1007E000019A012A4FEA075215DC001B61EB020156
:1007F0004FF0004202EA0752CDE90042001C41F5E9
:10080000801132462B46FFF753FF03B0BDE8F08F4F
:1008100040462146F9E7001B61EB0201001C41F54F
:10082000801300185B412018A2F5001747EB030165
:1008300040EAD570B6196D4111E06D084FEA3606F1
:1008400045EAC0754FEA0752001B61EB0201001C2C
:1008500041F5801149084FEA3000001951413246F4
:100860002B4603B0BDE8F04FFFF713BF00980122FD
:1008700040000023D0EB020263EBE07300982146B6
:100880004FEAE074B8EB000061EB0401E9E783F0A4
:1008900000435BE781F0004158E72DE9FE4F81EA14
:1008A000030404F0004421F0004100944FF0000BD9
:1008B00023F0004350EA01045ED052EA03045BD007
:1008C000C3F30A54C1F30A552C44A4F2F33401943F
:1008D000A0FB0254C1F3130141F48011C3F31303CD
:1008E00043F4801301FB024400FB034E840A970A81
:1008F00044EA815447EA8357A4FB076802958D0AAE
:1009000005FB07854FEA932C04FB0C542705029D39
:100910004FEA065847EA1637B5EB08056EEB070CA9
:10092000870E920E47EA811742EA8312A7FB020163
:10093000B6EB0B0164EB00042B0D43EA0C335E189D
:1009400044EB1C50DA465146E7FB0201C5F31304A1
:100950004FEA0B3343EA14534FEA0432019C43EA53
:100960000603A4F10C040294009CCDE900B4FFF747
:100970009FFE03B0BDE8F08F00200146F9E7C1F308
:100980000A52C1F3130140F2FF3341F480119A423D
:1009900002DA00200146704740F233439A42A2F245
:1009A000334202DC5242FFF7BFBB00F02BB800001D
:1009B00030B5041E71F1000404DB4FF000444042E6
:1009C00064EB0101141E73F1000405DB1C464FF0BB
:1009D0000043524263EB0403994208BF904230BD8A
:1009E000064C074D06E0E06840F0010394E807007C
:1009F00098471034AC42F6D3FFF77CFBE86500085B
:100A000008660008202A04DB203A00FA02F10020E0
:100A100070479140C2F1200320FA03F3194390403C
:100A20007047202A06DBCB17203A41FA02F043EA4E
:100A3000E07306E041FA02F3D040C2F12002914097
:100A4000084319467047C0B24FF4F05100F098B90E
:100A50002DE9F34F8BB04FF0000801F10C000C466C
:100A60004FF0010B46460DF1080A01906269012121
:100A700001989047051E2DD0252D2CD0216A88473E
:100A8000C0B16269012101989047216A8847002816
:100A9000F7D1411E62690198904700E0761CA16978
:100AA0000B988847216A88470028F7D1E1690B989D
:100AB0008847DBE7A1690B9888470746A84201D120
:100AC000761CD3E7E1690B9888477F1C02D1B8F107
:100AD000000F6FD047E1002762693D463946019813
:100AE00090472A2804D16269012101989047012585
:100AF000DFF888926269012101989047A0F13001E6
:100B00000A290AD24F45E5DC07EB870100EB4107D4
:100B1000303FDFD445F01005ECE7E90601D46FF073
:100B200000476C280AD04C2814D0682815D06A28B1
:100B30000DD074281CD07A281AD01DE062690121DA
:100B4000019890476C2802D045F0040514E045F068
:100B500002050DE045F020050AE0626901210198D7
:100B60009047682802D045F0080505E045F4006587
:100B70006269012101989047C4E9015765283DD079
:100B800019DC58287AD00CDC452837D004DC25281D
:100B900026D0412831D131E046282FD047282CD10A
:100BA0002CE05B2877D0612828D063287CD064288B
:100BB00023D15AE0D1E06F2848D008DC66281DD048
:100BC00067281BD0692821D06E2816D127E070280D
:100BD00045D0732868D0752847D078280DD14DE0CE
:100BE000A1690B988847054625283FF469AFE1695C
:100BF0000B9888476D1C3FF46AAFB4E023466A4601
:100C00006FF001000B99AFF300809FE045F04000CA
:100C10006060A80723464FF0000236D43EE0E807A4
:100C20007FF447AF2068011D21600068290501D5C8
:100C300006701BE7290701D5068017E7A90703D52A
:100C4000F117C0E9006111E706600FE745F04000C9
:100C50006060A80723464FF0080216D41EE040F655
:100C60000E0125EA0100606016E045F0400060607A
:100C7000A80723464FF00A0207D40FE045F04000D2
:100C80006060A80708D5234610226FF001000B9979
:100C9000AFF300805AE007E0234610226FF0010016
:100CA0000B99FFF795FA51E04FF000094F464B467C
:100CB000632802D05B2807D041E02079C00601D428
:100CC0000120A06001273AE0626901210198904764
:100CD0005E2805D14FF001096269494601989047A5
:100CE000216939B900210A46534643F82120491C9D
:100CF0000829FADBB0B3216969B9C11700EBD162E9
:100D000053110AEB830122F01F02821A01200B68A3
:100D1000904003430B6062690121019890475D2870
:100D2000E8D1B9F1000F09D00020514651F8202038
:100D3000D24341F82020401C0828F7DB02AB2246B2
:100D400000976FF001000B99AFF3008000280CDAD8
:100D5000401C08D1BBF1000F05D04FF0FF300DB0A3
:100D6000BDE8F08FFFE74046F9E7E90701D108F158
:100D7000010806444FF0000B78E60000CCCCCC0C08
:100D80007F2801D9002208E0064A02EB5002C00782
:100D9000127800D1120902F00F02012090400840A1
:100DA00070470000A865000800BFFEE77047704765
:100DB0000146002291F82100022808D0042088630F
:100DC00000BF002081F8200000BF012070470868A4
:100DD000006820F00E000B6818600868006820F0BA
:100DE00001000B68186091F8403001209840CB6BEF
:100DF0005860012081F8210000BF002081F8200008
:100E000000BF1046E2E7000070B50446002594F8E4
:100E10002100022803D00420A063012548E02068B7
:100E2000006820F00E00216808602068006820F04B
:100E30000100216808601F492068884201D1012013
:100E400026E01C4914312068884201D110201FE09F
:100E5000184928312068884201D1801518E01549C9
:100E60003C312068884201D1801411E01149503191
:100E70002068884202D14FF4803009E00D49643186
:100E80002068884202D14FF4801001E04FF080705A
:100E9000084908394860012084F8210000BF00207B
:100EA00084F8200000BF606B10B12046616B88475A
:100EB000284670BD0800024070B5044600F0A6F94F
:100EC00006462546681C10B104480078054400BF5A
:100ED00000F09CF9801BA842FAD370BD0C000020E2
:100EE0002DE9F8470346002294466EE14FF00108D1
:100EF00008FA02F4D1F8008008EA0400A0427DD18B
:100F0000DFF8DCA2D1F80480A8EB0A09D0453AD07A
:100F100014DCB8F1030F50D009DCB8F1000F31D068
:100F2000B8F1010F1CD0B8F1020F49D120E0B8F19F
:100F3000110F18D0B8F1120F42D11EE0B9F5881F79
:100F400025D006DCB9F5803F20D0B9F5801F37D118
:100F50001AE0B9F5001F18D0B9F5041F30D117E019
:100F6000D1F80CC02DE0D1F80C8008F1040C28E079
:100F7000D1F80C8008F1080C23E0D1F80C8008F1BE
:100F80000C0C1EE000BF00BF00BF00BF00BF00BFD1
:100F9000D1F80880B8F1000F02D14FF0040C0BE03B
:100FA000D1F80880B8F1010F03D14FF0080C1C6193
:100FB00002E04FF0080C5C6103E04FF0000C00E031
:100FC00000BF00BFFF2801D8984601E003F10408E4
:100FD0004646FF2802D84FEA820803E0A2F108083B
:100FE0004FEA88084746D6F800804FF00F0909FA03
:100FF00007F928EA09080CFA07F900E088E048EA4E
:101000000908C6F80080D1F8048008F08058B8F1CB
:10101000805F7DD100BFDFF8CC81D8F8188048F020
:101020000108DFF8C091C9F81880C846D8F81880C0
:1010300008F00108CDF8008000BF00BF4FEAB938C2
:101040004FEA920958F829504FEA82784FEA187906
:101050004FF00F0808FA09F825EA0805DFF888813B
:10106000434502D14FF0000816E0DFF88081434588
:1010700002D14FF001080FE0DFF87481434502D13F
:101080004FF0020808E0DFF86C81434502D14FF0D1
:10109000030801E04FF004084FEA82794FEA19791A
:1010A00008FA09F848EA0505DFF84C814FEA920989
:1010B00048F82950D1F8048008F48018B8F5801F4A
:1010C0000AD1DFF83881D8F8008048EA0008DFF854
:1010D0002C91C9F8008009E0DFF82081D8F8008061
:1010E00028EA0008DFF81491C9F80080D1F80480DC
:1010F00008F40018B8F5001F10D1DFF8008108F1DE
:101100000408D8F8008048EA0008DFF8F09000E012
:101110005AE009F10409C9F800800DE0DFF8DC802D
:1011200008F10408D8F8008028EA0008DFF8CC901D
:1011300009F10409C9F80080D1F8048008F40038E6
:10114000B8F5003F0ED1DFF8B480A8F10408D8F854
:10115000008048EA0008DFF8A490A9F10409C9F862
:1011600000800DE0DFF89480A8F10408D8F8008032
:1011700028EA0008DFF88490A9F10409C9F8008082
:10118000D1F8048008F48038B8F5803F0ED1DFF83C
:101190006C80A8F10808D8F8008048EA0008DFF859
:1011A0005C90A9F10809C9F800800DE0DFF84C80D7
:1011B000A8F10808D8F8008028EA0008DFF83C9079
:1011C000A9F10809C9F80080521CD1F8008028FA5A
:1011D00002F8B8F1000F7FF489AEBDE8F88700008F
:1011E000000011100010024000080140000C0140F6
:1011F00000100140001401400800014008040140B3
:101200000AB1016101E00B04036170470148006805
:10121000704700000400002070B504460CB901209E
:1012200070BD94F83D0028B9002084F83C002046A9
:1012300000F0DAF8242084F83D002068006820F0EF
:101240000100216808602068006840F400402168BF
:1012500008602068006820F400402168086000F001
:10126000C9FA05465C496068884206D85B488542F1
:1012700001D2012007E0002005E05948854201D253
:10128000012000E00020012800D1C9E75548B5FB46
:10129000F0F62068406820F03F0030432168486045
:1012A0004D496068884201D8701C07E04FF4967081
:1012B00070434FF47A71B0FBF1F0401C2168096A69
:1012C00021F03F0108432168086243496068884271
:1012D00014D8681E61684900B0FBF1F0401CC0F3EF
:1012E0000B00042801D204203DE0681E616849001B
:1012F000B0FBF1F0401CC0F30B0034E0A06838B93B
:10130000681E616801EB4101B0FBF1F0401C0AE08E
:10131000681E616801EBC10202EB0111B0FBF1F044
:10132000401C40F48040C0F30B0008B901201AE0D3
:10133000A06848B9681E616801EB4101B0FBF1F09B
:10134000401CC0F30B000CE0681E616801EBC10299
:1013500002EB0111B0FBF1F0401CC0F30B0040F4B4
:10136000804040F400402168C9694CF6FF72914307
:1013700008432168C861D4E9070108432168096866
:1013800021F0C001084321680860D4E90310084334
:101390002168896848F2FF329143084321688860D8
:1013A000D4E9050108432168C96821F0FF01084319
:1013B0002168C8602068006840F00100216808606A
:1013C00000202064202084F83D000020206384F861
:1013D0003E0000BF24E70000A086010080841E00BC
:1013E00000093D0040420F0010B586B004460020C1
:1013F00002900390049005902B492068884225D1E3
:1014000000BF2A48806940F00800284988610846E2
:10141000806900F00800019000BF00BFC02002906A
:10142000122003900320059002A92148FFF758FDE0
:1014300000BF1E48C06940F400101C49C86108463E
:10144000C06900F40010019000BF2AE0194920682B
:10145000884226D100BF1548806940F00800134932
:1014600088610846806900F00800019000BF00BF55
:101470004FF440600290122003900320059002A9CF
:101480000B48FFF72DFD00BF0848C06940F48000FD
:101490000649C8610846C06900F48000019000BF99
:1014A00000BF06B010BD0000005400400010024014
:1014B000000C0140005800400348006803490978C7
:1014C0000844014908607047040000200C00002017
:1014D00010B50848006840F0100006490860032075
:1014E00000F0A8F8002000F007F800F02BF800202A
:1014F00010BD00000020024070B504460E48007880
:101500004FF47A71B1FBF0F00C490968B1FBF0F5CA
:10151000284600F079FD08B1012070BD102C07D2DB
:1015200000222146501E00F047F80548046001E003
:101530000120F2E70020F0E70C000020100000205E
:101540000800002008B500BF1148806940F0010084
:101550000F4988610846806900F00100009000BFD3
:1015600000BF00BF0846C06940F08050C86108460F
:10157000C06900F08050009000BF00BF00BF054967
:10158000486820F0E06040F00070486000BF08BD8F
:10159000001002400000014001460846002809DB17
:1015A00000F01F0301229A4043099B0003F1E0234E
:1015B000C3F8002100BF70472DE9F05F80460D465B
:1015C0001646002701F02EFF074639462A463346C5
:1015D00001F00700C0F1070ABAF1040F02D94FF079
:1015E000040A01E0C0F1070AD14600F1040ABAF189
:1015F000070F02D24FF0000A01E0A0F1030AD4461F
:101600004FF0010A0AFA09FAAAF1010A0AEA020AE3
:101610000AFA0CFA4FF0010B0BFA0CFBABF1010BC1
:101620000BEA030B4AEA0B042146404601F002FF95
:10163000BDE8F09F00BF00F00702064B19684FF6A7
:10164000FF031940044B0B4343EA0221014B19608D
:1016500000BF70470CED00E00000FA0570B50446CD
:101660000D460CB9012070BD5A48006800F0070013
:10167000A8420ED25748006820F007002843554979
:1016800008600846006800F00700A84201D0012069
:10169000E9E7207800F0020002281DD1207800F050
:1016A0000400042805D14C48406840F4E0604A49F1
:1016B0004860207800F00800082805D146484068B6
:1016C00040F46050444948604348406820F0F000CE
:1016D000A168084340494860207800F0010078B3D1
:1016E0006068012806D13C48006800F4003090B9D9
:1016F0000120B8E76068022806D13748006800F08A
:10170000007040B90120AEE73348006800F00200E5
:1017100008B90120A7E73048406820F0030061685D
:1017200008432D494860FFF771FD064609E0FFF7C1
:101730006DFD801B41F28831884202D9032092E777
:1017400007E02548406800F00C006168B0EB810FAD
:10175000EDD12048006800F00700A8420ED91D48CE
:10176000006820F0070028431A490860084600680E
:1017700000F00700A84201D0012074E7207800F0B3
:101780000400042807D11448406820F4E060E168B0
:10179000084311494860207800F00800082808D163
:1017A0000D48406820F46050216940EAC1000A49B0
:1017B000486000F03FF808494968C1F30311074A3F
:1017C000515CC8400649086006480068FFF794FE6F
:1017D000002048E700200240001002403A43000881
:1017E0001000002008000020014800687047000039
:1017F0001000002000B5FFF7F7FF04494968C1F366
:101800000221034A515CC84000BD000000100240A4
:101810004A43000800B5FFF7E7FF04494968C1F3F0
:10182000C221034A515CC84000BD000000100240C4
:101830004A43000870B50021002200240023002044
:10184000134D696801F00C05F5B1042D02D0082D87
:1018500019D101E00F4819E00F4DC1F38346AB5D8C
:1018600001F4803555B10A4D6D68C5F340450B4E06
:10187000725D084D5D43B5FBF2F402E0084D03FBD9
:1018800005F4204602E000BF024800BF00BF70BD63
:101890000010024000127A00284300083843000874
:1018A00000093D00F8B504460CB90120F8BD2078C8
:1018B00000F00100002878D0F848406800F00C00E3
:1018C00004280CD0F548406800F00C00082811D11D
:1018D000F248406800F48030B0F5803F0AD1EF480C
:1018E000006800F4003000285FD0606800285CD1F8
:1018F0000120DBE700BF6068B0F5803F06D1E74814
:10190000006840F48030E549086028E0606858B914
:10191000E248006820F48030E0490860084600682A
:1019200020F4802008601AE06068B0F5A02F0BD189
:10193000DA48006840F48020D8490860084600680A
:1019400040F4803008600AE0D448006820F4803019
:10195000D24908600846006820F48020086000BF73
:10196000606888B1FFF752FC054606E0FFF74EFCC1
:10197000401B642801D9032098E7C848006800F498
:1019800000300028F2D010E0FFF740FC054606E0EA
:10199000FFF73CFC401B642801D9032086E7BF48C1
:1019A000006800F400300028F2D1207800F0020036
:1019B000022857D1B948406800F00C0050B1B74830
:1019C000406800F00C00082818D1B448406800F4C2
:1019D000803098B9B148006800F0020020B1206959
:1019E000012801D0012061E7AC48006820F0F80030
:1019F000616940EAC100A949086033E02069E8B1A3
:101A00000120A7490860FFF701FC054606E0FFF743
:101A1000FDFB401B022801D9032047E79F480068CF
:101A200000F002000028F2D09C48006820F0F80086
:101A3000616940EAC1009949086013E000209849B3
:101A40000860FFF7E3FB054606E0FFF7DFFB401BFE
:101A5000022801D9032029E79048006800F002001D
:101A60000028F2D1207800F0080008282DD1A069C4
:101A7000B8B101208B490860FFF7C8FB054606E0B6
:101A8000FFF7C4FB401B022801D903200EE783485F
:101A9000406A00F002000028F2D0012001F0AEF907
:101AA00013E000207F490860FFF7B0FB054606E021
:101AB000FFF7ACFB401B022801D90320F6E677486C
:101AC000406A00F002000028F2D1207800F0040003
:101AD000042873D100277148C06900F0805070B9A4
:101AE00000BF6E48C06940F080506C49C86108462C
:101AF000C06900F08050009000BF00BF01276A4815
:101B0000006800F48070B0B96748006840F48070E5
:101B100065490860FFF77AFB054606E0FFF776FBAC
:101B2000401B642801D90320C0E65F48006800F428
:101B300080700028F2D000BFE068012806D1574825
:101B4000006A40F001005549086227E0E06858B992
:101B50005248006A20F00100504908620846006AB5
:101B600020F00400086219E0E06805280BD14B481A
:101B7000006A40F00400494908620846006A40F0E3
:101B8000010008620AE04548006A20F0010043496C
:101B900008620846006A20F00400086200BFE0689E
:101BA000A0B1FFF733FB054609E0FFF72FFB401B11
:101BB00041F28831884202D9032077E622E0374893
:101BC000006A00F002000028EFD012E0FFF71EFBD1
:101BD000054608E0FFF71AFB401B41F288318842B6
:101BE00001D9032062E62D48006A00F002000028B7
:101BF000F0D1012F05D12948C06920F08050274934
:101C0000C86100BFE069C8B32448406800F00C0018
:101C1000082860D0E069022848D1002020490866E1
:101C2000FFF7F4FA054606E0FFF7F0FA401B02283A
:101C300001D903203AE61948006800F00070002836
:101C4000F2D1206AB0F5803F07D11448406820F4F3
:101C50000030A168084311494860D4E908010843ED
:101C60000E49496821F4741108430C494860012069
:101C70000B490866FFF7CAFA054607E03DE0FFF7A3
:101C8000C5FA401B022801D903200FE6034800686B
:101C900000F000700028F2D02FE000000010024099
:101CA000000042428004424200700040002014497B
:101CB0000866FFF7ABFA054606E0FFF7A7FA401BF8
:101CC000022801D90320F1E50E48006800F00070F9
:101CD0000028F2D111E0E069012800D1E6E50948C9
:101CE000466806F48031206A814204D106F47011FE
:101CF000606A814201D00120D8E50020D6E50000CD
:101D0000000042420010024010B504460CB9012008
:101D100010BD606A38B96068B0F5827F00D105E017
:101D20000021E16102E00021216161610021A162E5
:101D300094F8510028B9002084F85000204600F0A3
:101D400043F8022084F851002068006820F0400029
:101D500021680860A08800F48270218901F40441A0
:101D60000843A18901F400610843217C01F00201CC
:101D70000843217D01F001010843218B01F400712A
:101D80000843217F01F0380108432021095D01F05B
:101D900080010843218D01F4005108432168086047
:101DA0000421A06901EA1040216848602068C069E8
:101DB00020F400602168C86100206065012084F87B
:101DC00051000020A4E7000010B586B004460020B2
:101DD00002900390049005901949206888422DD103
:101DE00000BF1848806940F4805016498861084651
:101DF000806900F48050019000BF00BF00BF08461A
:101E0000806940F0040088610846806900F00400A1
:101E1000019000BF00BFA020029002200390032089
:101E2000059002A90848FFF75BF8402002900020C7
:101E30000390049002A90448FFF752F806B010BDC1
:101E40000030014000100240000801402DE9F84F29
:101E50000446884616461D464FF0000A00BF94F817
:101E60005000012802D10220BDE8F88F012084F83B
:101E7000500000BFFFF7CAF90746B14694F8510079
:101E8000012802D04FF0020AB7E0B8F1000F00D0ED
:101E900016B94FF0010AB0E0032084F85100002089
:101EA0006065C4F83080A686E686A063A087E087D8
:101EB00060642064A068B0F5004F0BD12068006812
:101EC00020F04000216808602068006840F48040ED
:101ED000216808602068006800F04000402805D0B4
:101EE0002068006840F0400021680860E068B0F5B4
:101EF000006F32D1606810B1B9F1010F09D1206BC8
:101F000000882168C860206B801C2063E08E401E22
:101F1000E0861EE02068806800F0020002280AD1F6
:101F2000206B00882168C860206B801C2063E08ED5
:101F3000401EE0860DE0FFF769F9C01BA84201D3FF
:101F4000681C00B92DB94FF0030A012084F8510034
:101F500053E0E08E0028DDD131E0606810B1B9F1C6
:101F6000010F09D1206B007821680873206B401C99
:101F70002063E08E401EE0861EE02068806800F04E
:101F8000020002280AD1206B007821680873206BB8
:101F9000401C2063E08E401EE0860DE0FFF736F91E
:101FA000C01BA84201D3681C00B92DB94FF0030A29
:101FB000012084F8510020E0E08E0028DDD13A466F
:101FC0002946204600F02EFF08B120206065A06859
:101FD00050B900BF002000902068C06800902068C1
:101FE0008068009000BF00BF606D10B14FF0010A23
:101FF00002E0012084F8510000BF00BF002084F8F7
:10200000500000BF50462FE770B504462546681EB5
:10201000B0F1807F01D301200FE0681E4FF0E02176
:1020200048610F214FF0FF3001F004FA00204FF01B
:10203000E021886107200861002070BD704770476B
:10204000704710B5044620680069C0F34000D8B15D
:102050002068C068C0F34000B0B16FF00200216892
:102060000861012020772068806900F0030018B122
:102070002046FFF7E5FF05E0204600F0ADF82046DA
:1020800000F0ABF80020207720680069C0F38000E2
:10209000D8B12068C068C0F38000B0B16FF0040010
:1020A00021680861022020772068806900F4407070
:1020B00018B12046FFF7C4FF05E0204600F08CF879
:1020C000204600F08AF80020207720680069C0F3DD
:1020D000C000D8B12068C068C0F3C000B0B16FF0D4
:1020E000080021680861042020772068C06900F09A
:1020F000030018B12046FFF7A3FF05E0204600F0DB
:102100006BF8204600F069F800202077206800690D
:10211000C0F30010D8B12068C068C0F30010B0B19F
:102120006FF0100021680861082020772068C069DE
:1021300000F4407018B12046FFF782FF05E020460A
:1021400000F04AF8204600F048F800202077206888
:10215000006900F0010058B12068C06800F001007B
:1021600030B16FF0010021680861204600F036F8B8
:1021700020680069C0F3C01058B12068C068C0F37F
:10218000C01030B16FF08000216808612046FFF771
:1021900055FF20680069C0F3801058B12068C068FE
:1021A000C0F3801030B16FF0400021680861204614
:1021B00000F015F820680069C0F3401058B120689D
:1021C000C068C0F3401030B16FF020002168086192
:1021D0002046FFF734FF10BD7047704770477047C7
:1021E000704770472DE9F84F04462068056820685D
:1021F000C668206847694FF00009CA4605F00F0914
:10220000B9F1000F0AD105F0200038B106F0200026
:1022100020B1204600F052FFBDE8F88FB9F1000F61
:102220007BD007F0010018B906F49070002874D034
:1022300005F0010030B106F4807018B1606C40F018
:102240000100606405F0040030B107F0010018B12E
:10225000606C40F00200606405F0020030B107F0ED
:10226000010018B1606C40F00400606405F00800E3
:1022700048B106F0200010B907F0010018B1606CF9
:1022800040F008006064606C002845D005F0200034
:1022900028B106F0200010B1204600F00FFF2068A2
:1022A0004069C0F3801A606C00F0080010B9BAF100
:1022B000000F2CD0204600F0BBFE2068406900F0E3
:1022C000400000B300BF00BF2168143151E8001F77
:1022D00021F040002168143141E80002002AF3D1C6
:1022E00000BFE06B50B17748E16B4863E06BFEF7ED
:1022F0008BFD88B1E06B416B88470DE02046FFF70E
:1023000070FF09E009E02046FFF76BFF04E020467C
:10231000FFF767FF002060647EE7206B012877D11C
:1023200005F01000002873D006F010000028FAD045
:1023300000BF00200090206800680090206840687E
:10234000009000BF00BF2068406900F040000028F6
:102350005FD0E06B006840681FFA80F8B8F1000FAA
:1023600055D0A08D404552DDA4F82E80E06B8069E9
:10237000202843D000BF00BF21680C3151E8001F66
:1023800021F4807021680C3141E80002002AF3D169
:1023900000BF00BF00BF2168143151E8001F21F0C9
:1023A00001002168143141E80002002AF3D100BF86
:1023B00000BF00BF2168143151E8001F21F0400028
:1023C0002168143141E80002002AF3D100BF202027
:1023D00084F842000020206300BF00BF21680C3158
:1023E00051E8001F21F0100021680C3141E8000283
:1023F000002AF3D100BFE06BFEF7DAFC0220606335
:10240000A08DE28D801A81B22046FFF7E9FE03E736
:1024100042E0A08DE18D401A1FFA80F8E08DD0B324
:10242000B8F1000F37D000BF00BF21680C3151E870
:10243000001F21F4907021680C3141E80002002A4D
:10244000F3D100BF00BF00BF2168143151E8001F65
:1024500021F001002168143141E80002002AF3D183
:1024600000BF202084F842000020206300BF00BF8E
:1024700021680C3151E8001F21F0100021680C3157
:1024800041E80002002AF3D100BF02206063414608
:102490002046FFF7A5FEBFE605F0800030B106F04C
:1024A000800018B1204600F025FFB5E605F0400099
:1024B00030B106F0400018B1204600F0EFFDABE669
:1024C00000BFA9E61D30000810B504460CB9012074
:1024D00010BDA06900B100E000BF94F8410028B928
:1024E000002084F84000204600F02AF8242084F8D8
:1024F00041002068C06820F400502168C860204670
:1025000000F05AFE2068006920F4904021680861BC
:102510002068406920F02A00216848612068C0686E
:1025200040F400502168C86000206064202084F8D6
:10253000410084F842000020606300BFC8E700004B
:1025400010B586B0044600200290039004900590D8
:102550001E492068884236D100BF1D48806940F47A
:1025600080401B4988610846806900F480400190E2
:1025700000BF00BF00BF0846806940F004008861CA
:102580000846806900F00400019000BF00BF4815B4
:102590000290022003900320059002A90D48FEF747
:1025A0009FFC4FF48060029000200390049002A9E9
:1025B0000848FEF795FC002202212520FEF7FCFFCB
:1025C0002520FEF7E9FF06B010BD000000380140ED
:1025D000001002400008014070B504460D46164642
:1025E00094F8420020280BD105B10EB9012070BD2E
:1025F0000020206332462946204600F05BFEF6E7C5
:102600000220F4E710B504462049206888423BD1F7
:102610001F48008800F4004088BB1D48008800F473
:10262000804070B11B4800780A2806D118480088FD
:1026300040F400401649088021E000201449088039
:102640001DE0144800780D2806D11148008840F498
:1026500080400F49088012E00E4800780C49098834
:10266000C1F30D010C4A505409480088401C084928
:10267000088008460088C72801DD00200880012264
:1026800004490648FFF7A8FF10BD000000380140CC
:10269000020000200000002040010020A8040020CB
:1026A0002DE9F84F04460E46174699464FF0000AAA
:1026B00094F8410020284AD106B117B90120BDE89D
:1026C000F88F00206064212084F84100FEF79EFD11
:1026D0008246A784E784A068B0F5805F04D12069B2
:1026E00010B90025B04602E035464FF000081BE067
:1026F0005346002280212046CDF8009000F02AFEAB
:1027000008B10320DBE745B9B8F80000C0F30800C2
:102710002168486008F1020803E0287821684860D1
:102720006D1CE08C401EE084E08C0028E0D1534614
:10273000002240212046CDF8009000F00BFE08B1A9
:102740000320BCE7202084F841000020B7E70220E6
:10275000B5E7704700BFFEE72DE9F04104460D469E
:1027600016461F462A2000F0F3F9611C88B200F0DB
:10277000E0F9711C88B200F0DCF92B2000F0E8F9D8
:10278000A91C88B200F0D5F9B91C88B200F0D1F9C3
:102790002C2000F0DDF9BDE8F08170B504460D464F
:1027A00016462B46224629462046FFF7D5FF3046DF
:1027B00000F0BFF970BD2DE9F04706460F461446FC
:1027C0001D46DDF820A0681E83B2601E82B2394625
:1027D0003046FFF7C1FFB8460EE0B14606E050466E
:1027E00000F0A7F909F101001FFA80F9A145F6DB15
:1027F00008F101001FFA80F8A845EEDBBDE8F0877C
:1028000010B5002204217C48FEF7FAFC6420FEF794
:1028100053FB012204217848FEF7F2FC6420FEF706
:102820004BFB012202217448FEF7EAFC6420FEF70C
:1028300043FB112000F08CF97820FEF73DFBB1201E
:1028400000F086F9022000F07DF9352000F07AF9D9
:10285000362000F077F9B22000F07AF9022000F07B
:1028600071F9352000F06EF9362000F06BF9B320D5
:1028700000F06EF9022000F065F9352000F062F9F1
:10288000362000F05FF9022000F05CF9352000F0FE
:1028900059F9362000F056F9B42000F059F9032018
:1028A00000F050F9C02000F053F9A22000F04AF9DE
:1028B000022000F047F9842000F044F9C12000F024
:1028C00047F9C52000F03EF9C22000F041F90D2083
:1028D00000F038F9002000F035F9C32000F038F995
:1028E0008D2000F02FF92A2000F02CF9C42000F0F0
:1028F0002FF98D2000F026F9EE2000F023F9C520F5
:1029000000F026F90A2000F01DF9362000F020F929
:10291000782000F017F9E02000F01AF9122000F0FA
:1029200011F91C2000F00EF9102000F00BF918200E
:1029300000F008F9332000F005F92C2000F002F92E
:10294000252000F0FFF8282000F0FCF8282000F0F7
:10295000F9F8272000F0F6F82F2000F0F3F83C20DB
:1029600000F0F0F8002000F0EDF8032000F0EAF8A5
:10297000032000F0E7F8102000F0E4F8E12000F078
:10298000E7F8122000F0DEF81C2000F0DBF8102041
:1029900000F0D8F8182000F0D5F82D2000F0D2F87B
:1029A000282000F0CFF8232000F0CCF8282000F0F9
:1029B000C9F8282000F0C6F8262000F0C3F82F2020
:1029C00000F0C0F83B2000F0BDF8002000F0BAF89D
:1029D000032000F0B7F8032000F0B4F8102000F056
:1029E000B1F83A2000F0B4F8052000F0ABF8292047
:1029F00000F0AEF810BD0000000801402DE9FF4FC7
:102A000083B005468A461746119CAB46204604EB28
:102A1000D071C1F347063046F11706EB5171C9106A
:102A2000614389B20191A7F12000C7B20AEB04000B
:102A3000401E83B2A819401E82B251462846FFF7B5
:102A40008BFE4FF000094AE0102C06D1264800EB1F
:102A5000071010F8090002900BE0202C06D1234843
:102A600000EB871010F80900029002E007B0BDE803
:102A7000F08F4FF000082AE0129868B9012000FAA0
:102A800008F00299084018B1069800F052F81AE0D0
:102A9000109800F04EF816E0012000FA08F00299B4
:102AA000084020B151462846069AFFF776FE681C7A
:102AB00085B2A5EB0B00B04205D15D460AF10100DD
:102AC0001FFA80FA06E008F1010000F0FF08B8F1F3
:102AD000080FD1DB00BF09F101001FFA80F901984E
:102AE0008145B1DB00BFC1E75243000842490008FD
:102AF0002DE9FE4F06460F4614469846DDE90D5A6D
:102B0000DDF8309010E0CDE9015ACDF80090227840
:102B1000434639463046FFF771FF284605EBD07132
:102B200006EB61018EB2641C20780028EBD1BDE871
:102B3000FE8F10B50446201200F01CF8E0B200F041
:102B400019F810BD10B50446204600F013F810BD6A
:102B500010B50446002208210548FEF751FB204627
:102B600000F008F8012208210148FEF749FB10BDDA
:102B70000008014001B5002210210848FEF740FB83
:102B80004FF47A73012269460548FFF75FF9012285
:102B900010210248FEF734FB08BD00000008014088
:102BA0007803002000B585B00020019002900390CA
:102BB000049000BF4848806940F010004649886191
:102BC0000846806900F01000009000BF00BF00BF01
:102BD0000846806940F0200088610846806900F05E
:102BE0002000009000BF00BF00BF0846806940F091
:102BF000040088610846806900F00400009000BF6E
:102C000000BF00BF0846806940F0080088610846A0
:102C1000806900F00800009000BF00BF012251034E
:102C20002E48FEF7EDFA01221E212D48FEF7E8FAA4
:102C3000012203212B48FEF7E3FA00224FF44671EC
:102C40002848FEF7DDFA4FF4005001900120029071
:102C5000002003900220049001A92048FEF740F9CB
:102C60004FF440400190002002900220039001A9FF
:102C70001A48FEF735F940F6010001900020029055
:102C80000220039001A91648FEF72AF91E200190A0
:102C900001200290002003900320049001A9104815
:102CA000FEF71EF9032001900120029003900320FB
:102CB000049001A90B48FEF713F94FF446700190F8
:102CC00001200290002003900220049001A90548F1
:102CD000FEF706F905B000BD0010024000100140EB
:102CE00000080140000C014010B50B480B4908607A
:102CF0000B484860002109488160C1604FF4804161
:102D00000161002141618161C1610162FEF784FAC4
:102D100008B1FEF74CF810BD00540040D00200206E
:102D2000A086010000B585B00020019002900390BC
:102D3000049000BF1D48806940F004001B49886171
:102D40000846806900F00400009000BF00BF012227
:102D50001E211748FEF754FA1E2001900120029010
:102D6000002003900320049001A91148FEF7B8F851
:102D70001048114908604FF48270486000210E48E5
:102D80008160C160016141614FF40071816108217E
:102D9000C16100210162416281620A21C162FEF7C4
:102DA000B3FF08B1FEF703F805B000BD0010024004
:102DB00000080140003001407803002010B50B48A6
:102DC0000B4908604FF416504860002108488160A4
:102DD000C16001610C21416100218161C161FFF786
:102DE00073FB08B1FDF7E3FF10BD000000380140A0
:102DF000A804002000BFFEE77047704708B50849E7
:102E00000968C9084FF47A72B1FBF2F141430091AD
:102E100000BF00BF00994A1E00920029F9D108BDE9
:102E200010000020F8B504460D4616462B46002239
:102E300080212046009600F009F828B1606D40F02E
:102E4000200060650320F8BD0020FCE72DE9F84F65
:102E500004460D4690461E46DDF82890FEF7D6F94A
:102E6000A0EB0900371AFEF7D1F982462C4800681A
:102E7000C0F3CB307843009045E0701C002842D06E
:102E8000FEF7C4F9A0EB0A00B84200D2A7BB206845
:102E9000406820F0E000216848606068B0F5827FFB
:102EA0000DD1A068B0F5004F03D0A068B0F5806FD9
:102EB00005D12068006820F0400021680860A06A01
:102EC000B0F5005F0DD100BF2068006820F400500D
:102ED000216808602068006840F40050216808609C
:102EE00000BF012084F8510000BF002084F850008A
:102EF00000BF0320BDE8F88FFFE7009800B9002766
:102F00000098401E0090206880682840A84201D1A7
:102F1000012000E000204045AFD10020EAE700009A
:102F200010000020704710B5FEF7C6FA10BD00B5BE
:102F30008FB0282105A8FDF70EF914216846FDF78A
:102F40000AF9012005900004069000200790012056
:102F5000099002200C90C1030D914FF4E0110E91E5
:102F600005A8FEF79FFC08B1FDF721FF0F20009098
:102F700002200190002002904FF480600390002016
:102F8000049002216846FEF769FB08B1FDF70FFFC8
:102F90000FB000BD1148006840F001000F49086003
:102FA000084640680E4908400C49486008460068D9
:102FB0000C490840094908600846006820F4802050
:102FC00008600846406820F4FE0048604FF41F0087
:102FD0008860C80304490860704700000010024080
:102FE0000000FFF8FFFFF6FE08ED00E010B5024814
:102FF000FFF727F810BD0000D003002010B50248ED
:10300000FFF71FF810BD00001804002010B502489B
:10301000FFF717F810BD00006004002070B50546EA
:103020006C6A0020E085E0842046FFF7DAF870BD86
:1030300000BF00BF02680C3252E8002F22F49071EA
:1030400002680C3242E80013002BF3D100BF00BF2E
:1030500000BF0268143252E8002F22F0010102681A
:10306000143242E80013002BF3D100BF016B012999
:103070000ED100BF00BF02680C3252E8002F22F0D0
:10308000100102680C3242E80013002BF3D100BF9C
:10309000202180F8421000210163704710B50446DA
:1030A0002068C06820F040002168C860202084F8B3
:1030B00041002046FFF74DFB002010BDF8B5044647
:1030C00094F84200222875D1A068B0F5805F0CD139
:1030D000206950B90025A66A20684068C0F308003E
:1030E0003080A06A801CA06215E0A56A0026A06856
:1030F000B0F5805F03D0A06828B9206918B92068AE
:103100004068287004E02068406800F07F00287064
:10311000A06A401CA062E08D401E80B2E0850028BD
:1031200046D12068C06820F020002168C86020686F
:10313000C06820F480702168C8602068406920F071
:10314000010021684861202084F84200002060636B
:10315000206B012826D10020206300BF00BF21681A
:103160000C3151E8001F21F0100021680C3141E8BA
:103170000002002AF3D100BF2068006800F01000B0
:1031800010280AD100BF002000902068006800903D
:1031900020684068009000BF00BFA18D2046FFF767
:1031A0001FF802E02046FFF72DFA0020F8BD01E0ED
:1031B0000020FBE70220F9E770B5044621680969A1
:1031C00021F44051E2681143226811612269A1682B
:1031D0001143626941EA02052168C96841F20C6243
:1031E000914329432268D1602168496921F44071E3
:1031F000A2691143226851612D4A2168914202D18E
:10320000FEF708FB01E0FEF7F5FA00EBC00101EB69
:10321000001162689200B1FBF2F100EBC00202EB18
:10322000001263689B00B2FBF3F26423B2FBF3F27B
:1032300002EBC20303EB0212A1EB8201322202EB8A
:1032400001116422B1FBF2F101F0F00100EBC002C8
:1032500002EB001263689B00B2FBF3F26423B2FB43
:10326000F3F201EB021200EBC00101EB0011636805
:103270009B00B1FBF3F100EBC00303EB00136668A6
:10328000B600B3FBF6F36426B3FBF6F303EBC30619
:1032900006EB0313A1EB8301322303EB011164233B
:1032A000B1FBF3F101F00F0111442268916070BD90
:1032B0000038014010B5034699629A85DA850020EE
:1032C0005864222083F84200186928B11868C06841
:1032D00040F480701C68E0601868406940F00100AC
:1032E0001C6860611868C06840F020001C68E060DD
:1032F000002010BD014691F84100212828D188689E
:10330000B0F5805F0BD1086948B90A6A1088C0F32C
:1033100008000B685860086A801C086205E00B6AA8
:10332000581C086218780B685860C88C401E80B220
:10333000C88458B90868C06820F080000B68D8605D
:103340000868C06840F040000B68D86000207047F3
:103350000220FCE72DE9F04104460D461746984649
:10336000069E34E0701C88B32EB1FDF74FFFA0EB32
:103370000800B0422BD900BF00BF21680C3151E8D2
:10338000001F21F4D07021680C3141E80002002AAE
:10339000F3D100BF00BF00BF2168143151E8001F06
:1033A00021F001002168143141E80002002AF3D124
:1033B00000BF202084F8410084F8420000BF0020B4
:1033C00084F8400000BF0320BDE8F081FFE72068DB
:1033D00000682840A84201D1012000E00020B84246
:1033E000C0D00020F0E7000010B50248FEF7FAFE5A
:1033F00010BD0000A804002000BFFEE70FB4084B7A
:1034000010B504A902AA039800F0FAF8044602A92C
:10341000002000F078FC204610BC5DF814FB000092
:10342000073D000802480068C0F302207047000012
:103430000CED00E010B5002804DB0A07130E054A66
:10344000135406E00A07140E034A00F00F031B1F73
:10345000D45410BD00E400E018ED00E002E008C81C
:10346000121F08C1002AFAD170477047002001E0FE
:1034700001C1121F002AFBD1704700002DE9FF5F38
:1034800082B00021DDE90430020DDDF840B00343D5
:1034900018D044F61050A2F2FF324243151411988E
:1034A00001281FD0A5EB0B00401C5FEA000A4FF07B
:1034B00000064E4FDFF83891B046504615D5CAF198
:1034C000000413E0119801244AA3012801D16FEAF6
:1034D0000B010298119AC0E90031C0E9024206B01E
:1034E000BDE8F09FCBF10000DFE704460021404A31
:1034F000491842EB0450CDE9001012E0E00707D074
:1035000032463B4640464946FDF7C7F98046894664
:1035100032463B4610461946FDF7BFF906460F46B0
:103520006410002CEAD1DDE90401DDE90023BAF1E1
:10353000000F06DAFDF7B1F942464B46FDF7ADF94B
:1035400005E0FCF75BFF42464B46FCF757FF04469D
:103550000E460022284BFDF72BFA03D84FF0FF3020
:10356000014607E00022254B20463146FDF7EEF8E4
:10357000FDF705FA102409E0002C0ADB0A220023DB
:10358000FCF7DDFF039B30321A55641E50EA01023E
:10359000F2D1641C039AC4F111031444119A012A54
:1035A00003D0012208430DD10AE0084304D00020D3
:1035B0004FF0110B119072E7A3EB0B056D1E0DE0A0
:1035C0005B4504DD4FF0000205F1010504E003DA7C
:1035D0004FF00002A5F10105002AECD002981199E4
:1035E000C0E90231C0E9004579E70000000014405D
:1035F0000000F03F300000000000F0430000E03F1A
:103600002DE9FF4F95B09A46884606460025EEE123
:10361000252877D100242746F94A0121039400E0A8
:10362000044316F8013F203B01FA03F01042F7D1A2
:1036300030782A2811D06FF02F033078A0F13002B3
:10364000092A16D8039A44F0020402EB820203EB23
:1036500042021044761C0390EFE758F8042B0392C3
:10366000002A03DA504244F40054039044F0020468
:10367000761C30782E2816D116F8010F44F0040479
:103680002A280DD06FF02F023078A0F13003092BDB
:1036900009D807EB870302EB4303C718761CF3E74F
:1036A00058F8047B761C30786C280FD006DC4C2848
:1036B00017D068280DD06A2814D104E0742810D0DF
:1036C0007A280FD10DE044F400140AE044F4801489
:1036D00001E044F440147278824202D104F580146F
:1036E000761C761C307866280BD013DC582877D0EF
:1036F00009DC002875D04528F6D04628F4D04728A4
:103700001AD193E118E0632835D0642879D0652870
:1037100012D18BE1702873D008DC6728F1D06928BA
:103720006FD06E280DD06F2806D1ACE073282CD056
:10373000752874D0782853D05246179990476D1C3D
:1037400054E1C4F30250022809D003280DD0D8F860
:10375000001004280DD00D6008F1040846E1D8F8E7
:103760000010EA17C1E90052F6E7D8F800100D8002
:10377000F2E70D70F0E718F8041B8DF80010002038
:103780008DF80100EB46012003E058F804BB4FF030
:10379000FF3061074FF0000102D40DE009F1010193
:1037A0008946B9420FDA8145F8DB1BF80910002978
:1037B000F4D108E009F1010189468142FADB1BF8E6
:1037C00009100029F6D103985346A0EB09072146BA
:1037D0003846179A00F080FA284400EB090507E004
:1037E00044E008E10DE01BF8010B524617999047A1
:1037F000B9F10109F7D2534621463846179AF2E04B
:1038000039E00A21C4F302524FF0000B0091022A62
:1038100006D058F8040BC117032A09D00AE023E0A8
:1038200008F1070020F00702F2E80201904605E0E7
:1038300000B2C117042A01D140B2C117002906DA2B
:103840000A460021404261EB02012D2202E02205DE
:1038500004D52B228DF80420012203E0E20701D0D9
:103860002022F7E7914657E00A2100E010214FF0AF
:10387000000B00910BE010214FF0000B44F004040A
:103880000827009103E008204FF0000B0090C4F3DC
:103890000252022A05D058F8040B0021032A08D04E
:1038A00008E008F1070020F00702F2E80201904664
:1038B00003E080B2042A00D1C0B24FF00009220711
:1038C0002AD53278702A07D0DDF800C08CF0100CB1
:1038D0005CEA0B0C05D00EE040228DF8042001229A
:1038E00008E050EA010306D030238DF804308DF84B
:1038F000052002229146009B83F0080353EA0B0344
:103900000AD150EA010201D1620705D530228DF8B3
:1039100004204FF001097F1E3278582A04D039A2C2
:103920000C920CAA02920BE03BA2F9E75B46009ACC
:10393000FCF705FE0C9B9B5C029A521E02921370D0
:1039400050EA0102F2D1029804A9081A00F1200BF2
:10395000600702D524F4803400E001275F4502DDD2
:10396000A7EB0B0000E0002000EB0B010090039898
:103970004944401A0390E00306D453462146179A5F
:10398000039800F0A9F90544002706E001A8524673
:10399000C05D179990476D1C7F1C4F45F6DBE00317
:1039A0000CD553462146179A039800F095F9054423
:1039B00004E030205246179990476D1C0099481E2C
:1039C00000900029F5DC08E0029802995246007840
:1039D000491C0291179990476D1CBBF10001ABF196
:1039E000010BF1DC5BE100F065F90544761C3078F1
:1039F00000287FF40DAE19B02846BDE8F08F000016
:103A000009280100303132333435363738396162B4
:103A10006364656600000000303132333435363778
:103A2000383941424344454600000000600700D455
:103A3000062708F1070020F00700F0E8022380467F
:103A400003F0004C5FEA0C0001D097A009E02005CC
:103A500001D596A005E0E00701D095A001E0AFF206
:103A60004C001390307823F0004365280CD006DC1E
:103A7000452809D046281DD047287FD13BE066283D
:103A800018D067287AD136E00021112F01DB1120F0
:103A900000E0781CCDE9000104A90CA8FFF7EEFCBA
:103AA000DDE90D010C9A4FF0000B07F101091092AE
:103AB00000914EE04FF000400097CDE9011004A9BD
:103AC0000CA8FFF7DBFCDDE90D020C9B0F994FF012
:103AD000000B91461093009211B9791C00EB01097B
:103AE000B7EB090003D4C0F1FF3B07F10109A9EBD3
:103AF0000700019042E0012F00DA01270021112F79
:103B000001DD112000E03846CDE9000104A90CA830
:103B1000FFF7B4FCDDE90D010C9A00914FF0000BAA
:103B2000B946109221070FD4009A4A4503DA91460C
:103B300001E0A9F10109B9F1010F05DD109AA9F120
:103B40000101515C3029F4D0B84202DA10F1040FBF
:103B500003DA0121CDE9011010E0002803DC8344E1
:103B6000A9EB000102E0411C494500DD8946A0EBBC
:103B70000B00401C01904FF000400290200705D43C
:103B80000198484502DB4FF0FF30019000208DF88E
:103B90004B0002980DF14B07B0F1004F25D00220E9
:103BA0000C902B200D90029800280CDA40420290D5
:103BB0002D200D9007E00A210298FCF7AAFC303175
:103BC000029007F8011D0C99481E0C900029F2DCA8
:103BD00002980028EFD1791E0D980870307800F017
:103BE000200040F0450007F8020D11A8C01BC01DC1
:103BF00002901398007800B1012000EB09010198B0
:103C000001EBE071029801440398401A401E0390B2
:103C1000E00306D453462146179A039800F05CF857
:103C200005441398007818B15246179990476D1CB7
:103C3000E00323D553462146179A039800F04CF829
:103C400005441BE0BBF1000F07DB0098584504DD7D
:103C50001098179910F80B0001E017993020524680
:103C6000904701980BF1010B401E05F101050190F1
:103C700004D12E205246179990476D1CB9F10001CE
:103C8000A9F10109DEDC05E017F8010B524617998E
:103C900090476D1C0299481E02900029F4DC53469F
:103CA0002146179A03989EE62D0000002B00000085
:103CB000200000002DE9F041044600251E4617466D
:103CC000880404D405E039462020B0476D1C641EEA
:103CD000F9D52846BDE8F0812DE9F04104460025DC
:103CE0001E469046C80301D5302700E020278804EF
:103CF00004D505E041463846B0476D1C641EF9D531
:103D00002846BDE8F0810A68531C0B6010707047AC
:103D10000EB5FDF7DDFBFFF70AF9FEF743FFFEF7EF
:103D2000E3FFFFF74BF8FEF7FDFFFEF769FD4FF6E7
:103D3000FF7080231A46002100900846FEF73BFDE5
:103D4000012256495648FEF747FC56A15E48FFF748
:103D500055FB5D48FCF70AFA84B2322322465A49E1
:103D60004F48FEF79DFC59A15748FFF747FB5648BF
:103D7000FCF7FCF984B23223224653494848FEF747
:103D80008FFC5AA15048FFF739FB4F48FCF7EEF97A
:103D900084B2322322464C494148FEF781FC002080
:103DA00010214FF6FF721F23CDE9002102905BA284
:103DB0000A210846FEF79CFE002010214FF6FF72F4
:103DC0000346CDE90021029058A21E210A20FEF7E9
:103DD0008FFE62E05948008800F4004000285CD063
:103DE000002056490988C1F30D01554A5054082254
:103DF00054A15348FCF7C1F970B9334800F02AF9CF
:103E00003148FCF7B3F984B242F2107322462E49CE
:103E10002348FEF745FC39E005224DA14848FCF750
:103E2000ACF998B9C8214C48FCF795F94BA1264844
:103E3000FFF7E4FA2448FCF799F984B242F21073D0
:103E4000224621491648FEF72BFC1FE01E493C483C
:103E500000F0A4F858B91C48FCF788F984B242F283
:103E60001073224618490E48FEF71AFC0EE044A1D2
:103E70001548FFF7C3FA1448FCF778F984B242F208
:103E80001073224610490648FEF70AFC00202B4911
:103E90000880C8212A48FCF75EF99BE70000002053
:103EA000A80400203D3D3D20436F646520436F76AC
:103EB0006572616765205465737420537973746506
:103EC0006D203D3D3D0D0A0014000020436F6D6DD7
:103ED000616E64733A20544553542F434F564552F4
:103EE0004147452F52455345540D0A00466F726DA8
:103EF00061743A2054455354205B6D6F64655D20B6
:103F00005B74656D705D205B68756D69646974795B
:103F10005D205B74696D655D0D0A0000436F766519
:103F2000726167652054657374000000537973747F
:103F3000656D205265616479000000000200002078
:103F400040010020434F56455241474500000000C4
:103F50005245534554000000080200205B5245536F
:103F600045545D3A20436F76657261676520636FE3
:103F7000756E746572732072657365740D0A000046
:103F80004572726F723A20496E76616C6964206383
:103F90006F6D6D616E640D0A00000000F0B587B0B2
:103FA00005460C4603A804A905AB06AACDE90010F6
:103FB0000EA12846FCF7F0F80646042E07D010A103
:103FC0002046FFF71BFA4FF0FF3007B0F0BDDDE9E8
:103FD0000332DDE9051000F0F7F807463A4618A16C
:103FE0002046FFF70BFA0020EFE70000544553543A
:103FF000202564202564202564202564000000001D
:104000004572726F723A20466F726D6174207368E8
:104010006F756C642062652054455354205B6D6F4E
:1040200064655D205B74656D705D205B68756D69AE
:10403000646974795D205B74696D655D0D0A0000CB
:10404000526573756C743A20436F64653D25640D49
:104050000A0000002DE9F047064632240025002022
:1040600005E0374951F8201001B16D1C401CA042F9
:10407000F7DB2046FCF731FA80462846FCF72DFA9C
:1040800082464146FCF77CF907462E49FCF746F983
:1040900081462DA13046FFF7B1F93046FCF766F8AE
:1040A00087B24FF47A733A4631463048FEF7F8FA51
:1040B00022462FA13046FFF7A1F93046FCF756F80B
:1040C00087B24FF47A733A4631462848FEF7E8FA49
:1040D0002A462DA13046FFF791F93046FCF746F805
:1040E00087B24FF47A733A4631462048FEF7D8FA41
:1040F000621B2BA13046FFF781F93046FCF736F8FA
:1041000087B24FF47A733A4631461848FEF7C8FA38
:104110004846FCF7EBF907463A460B4624A13046E1
:10412000FFF76CF93046FCF721F887B24FF47A7349
:104130003A4631460D48FEF7B3FABDE8F087000075
:10414000080200200000C8420D0A3D3D3D20436F9B
:10415000646520436F766572616765205265706F94
:104160007274203D3D3D0D0A00000000A8040020AF
:10417000546F74616C204272616E636865733A209B
:1041800025640D0A00000000436F766572656420A7
:104190004272616E636865733A2025640D0A0000FF
:1041A000556E636F76657265643A2025640D0A006A
:1041B000436F76657261676520526174653A2025A8
:1041C0002E326625250D0A00F0B506461C464FF036
:1041D000000C00270023002511F1320F01DB962986
:1041E00002DD40F22D10F0BD002A01DB642A02DD61
:1041F0004FF49770F7E7002C02DB4A48844202DD57
:1042000040F22F10EFE745F26040844205DB4FF6A5
:104210002050844201DC012700E0002711F10A0F41
:1042200001DA03230CE00A2901DA012308E023293B
:1042300001DC002304E0322901DC022300E0032337
:104240001E2A01DA012504E0462A01DC002500E0EF
:104250000225012E06D0022E25D0032E30D0042EAA
:1042600054D140E04FF0640C032B02D140F2911C7A
:1042700008E0022B02D14FF0C90C03E0012B01D161
:104280004FF0CA0C43B9022D02D14FF0CB0C03E022
:10429000012D01D14FF0CC0C022B03DB022D01D1FB
:1042A0004FF4C97C35E04FF06E0C37B913B94FF0BD
:1042B0006F0C04E04FF0D30C01E04FF0D40C28E079
:1042C0004FF0780C0F290BDB1E2909DC282A04DBB0
:1042D0003C2A02DC4FF0790C04E04FF0DD0C01E0E9
:1042E0004FF0DE0C15E04FF0820C17290BDB1B2979
:1042F00009DC2D2A04DB372A02DC4FF0830C04E0B2
:104300004FF0E70C01E04FF0E80C02E04FF498703A
:1043100069E700BF1FB9032B01D140F2931C60462F
:1043200061E7000080510100020304050607080947
:104330000A0B0C0D0E0F101001020000000000000F
:104340000000010203040607080900000000010242
:104350000304000000000000000000000000000056
:1043600000000000000808080808080800001818E5
:10437000000000486C241200000000000000000053
:1043800000000000002424247F1212127F12121257
:1043900000000000081C2A2A0A0C1828282A2A1CB7
:1043A000080800000022251515152A5854545422D7
:1043B00000000000000C1212120A76252911916EDD
:1043C00000000006060403000000000000000000DA
:1043D00000000040201010080808080808101020ED
:1043E0004000000204080810101010101008080403
:1043F00002000000000008086B1C1C6B080800008D
:10440000000000000000080808087F0808080800ED
:104410000000000000000000000000000000060690
:1044200004030000000000000000FE000000000087
:104430000000000000000000000000000000060670
:1044400000000000804040202010100808040402F2
:104450000200000000182442424242424242241814
:104460000000000000080E08080808080808083EB8
:1044700000000000003C4242422020100804427E1E
:1044800000000000003C4242201820404042221C14
:104490000000000000203028242422227E202078E2
:1044A00000000000007E0202021A26404042221C48
:1044B0000000000000382402021A2642424224185A
:1044C00000000000007E22221010080808080808DA
:1044D00000000000003C4242422418244242423C78
:1044E0000000000000182442424264584040241C4E
:1044F000000000000000000018180000000018185C
:10450000000000000000000000080000000000089B
:104510000804000000402010080402040810204095
:1045200000000000000000007F0000007F0000008D
:1045300000000000000204081020402010080402BF
:1045400000000000003C42424640201010001818B5
:1045500000000000001C225A555555552D42221CC2
:1045600000000000000808181414243C224242E70E
:1045700000000000001F2222221E22424242221F6F
:1045800000000000007C4242010101010142221CA6
:1045900000000000001F2242424242424242221FCB
:1045A00000000000003F4212121E12120242423F5F
:1045B00000000000003F4212121E12120202020707
:1045C00000000000003C2222010101712122221C76
:1045D0000000000000E7424242427E42424242E77F
:1045E00000000000003E0808080808080808083E07
:1045F00000000000007C101010101010101010109F
:10460000110F0000007722120A0E0A1212222277DE
:104610000000000000070202020202020202427FC2
:10462000000000000077363636362A2A2A2A2A6BFE
:104630000000000000E346464A4A52525262624776
:1046400000000000001C2241414141414141221C27
:1046500000000000003F424242423E0202020207C6
:1046600000000000001C2241414141414D53321CD9
:1046700060000000003F4242423E1212222242C726
:1046800000000000007C4242020418204042423EEA
:1046900000000000007F4908080808080808081CF6
:1046A0000000000000E74242424242424242423C95
:1046B0000000000000E742422224241414180808D5
:1046C00000000000006B4949494955553622222215
:1046D0000000000000E7422424181818242442E7B0
:1046E0000000000000772222141408080808081CA3
:1046F00000000000007E2120101008040442423F08
:1047000000000078080808080808080808080808D1
:10471000780000000202040408080810102020207D
:104720004040001E1010101010101010101010102B
:104730001E000038440000000000000000000000DF
:104740000000000000000000000000000000000069
:1047500000FF00060800000000000000000000004C
:104760000000000000000000003C4278444242FC8F
:104770000000000000030202021A26424242261AEA
:10478000000000000000000000384402020244382B
:10479000000000000060404040784442424264D83B
:1047A0000000000000000000003C427E0202423C8B
:1047B0000000000000F08808087E08080808083E8D
:1047C0000000000000000000007C22221C023C428D
:1047D000423C000000030202023A4642424242E7E3
:1047E00000000000000C0C00000E08080808083E3D
:1047F0000000000000303000003820202020202061
:10480000221E0000000302020272120A1612227710
:1048100000000000000E0808080808080808083E04
:104820000000000000000000007F9292929292B778
:104830000000000000000000003B4642424242E708
:104840000000000000000000003C42424242423CA6
:104850000000000000000000001B26424242221E11
:104860000207000000000000007844424242447801
:1048700040E000000000000000774C040404041F26
:104880000000000000000000007C42023C40423E6C
:104890000000000000000008083E08080808083072
:1048A000000000000000000000634242424262DC5F
:1048B000000000000000000000E742242414080863
:1048C000000000000000000000EB4949555522227D
:1048D0000000000000000000007624181818246E64
:1048E000000000000000000000E742242414180823
:1048F0000807000000000000007E22100808447E27
:10490000000000C020202020201020202020202077
:10491000C0001010101010101010101010101010F7
:1049200010100006080808080810080808080808F9
:1049300006000C32C2000000000000000000000071
:104940000000000000000000000000000000000067
:104950000000000000000000000000000000000057
:104960000000000000000000000000000000000047
:104970000000000000000000000000000000000037
:10498000000000000000000000000000C001C001A5
:10499000C001C001C001C001C001800080008000D2
:1049A0008000800080008000000000000000000007
:1049B0008001C003C003800100000000000000006F
:1049C0000000000000000000E01CE01CF01E700E63
:1049D00038071803080184000000000000000000F0
:1049E00000000000000000000000000000000000C7
:1049F00000000000000000000000000000000000B7
:104A00000000000000000000000000000000201076
:104A10002010201020102010FE7FFE7F10081008AC
:104A200010081008100810081008FE7FFE7F080408
:104A30000804080408040804000000000000000046
:104A40000000000000000000000000010001C0079D
:104A50006019103118311839183938017001E00126
:104A6000C0038007000F001D003900311C311C31CC
:104A70000C310C11180DE0070001000100010000CD
:104A800000000000000000000000000000001C10FA
:104A900036186308630C63046304630263026301F2
:104AA000361D9C378022806340634063206320630F
:104AB000306310221836081C0000000000000000BF
:104AC0000000000000000000000000000000F000F6
:104AD00098018C018C018C018C018C00CC00780039
:104AE000183E1C083608320863046304C304C30379
:104AF000834306438E26781C00000000000000005F
:104B000000000000000000001C003C003C003000E1
:104B1000300010000C000600000000000000000043
:104B20000000000000000000000000000000000085
:104B30000000000000000000000000000000000075
:104B400000000000000000000040002000100008ED
:104B5000000C000400060003000300038001800134
:104B60008001800180018001800180010003000339
:104B7000000300060006000C0008001000200040A2
:104B80000000000000000000020004000800100007
:104B9000300020006000C000C000C0008001800123
:104BA000800180018001800180018001C000C0007F
:104BB000C000600060003000100008000400020027
:104BC00000000000000000000000000000000000E5
:104BD000000000018003800300011C713C79783DD6
:104BE000C0070001C007783D3C791C7100018003BB
:104BF00080038001000000000000000000000000B1
:104C000000000000000000000000000000000000A4
:104C1000000000000001000100010001000100018E
:104C20000001FC7F00010001000100010001000102
:104C30000001000000000000000000000000000073
:104C40000000000000000000000000000000000064
:104C50000000000000000000000000000000000054
:104C60000000000000000000000000000000000044
:104C700000001C003C003C003000300010000C0024
:104C8000060000000000000000000000000000001E
:104C90000000000000000000000000000000000014
:104CA0000000FE7F00000000000000000000000087
:104CB00000000000000000000000000000000000F4
:104CC00000000000000000000000000000000000E4
:104CD00000000000000000000000000000000000D4
:104CE00000000000000000000000000000000000C4
:104CF00018003C003C00180000000000000000000C
:104D000000000000000000000040006000200030B3
:104D1000001000180008000C000400060002000348
:104D2000000180018000C0004000600020003000D1
:104D30001000180008000C0004000600020000002B
:104D40000000000000000000000000000000C0079C
:104D5000600C30181830183018200C600C600C6093
:104D60000C600C600C600C600C600C60182018303B
:104D700018303018600CC007000000000000000070
:104D80000000000000000000000000000000000122
:104D90008001F80180018001800180018001800193
:104DA00080018001800180018001800180018001FB
:104DB00080018001C003F81F000000000000000017
:104DC0000000000000000000000000000000E007FC
:104DD000101C0818043004300C300C30003000185F
:104DE0000008000400020001800040002020102084
:104DF00008200430FC1FFC1F000000000000000021
:104E00000000000000000000000000000000E003BF
:104E1000180E0C0C0C180C180C180018000C0006BE
:104E2000C003000E00180010003000300C300C30B1
:104E30000C100C18180CE00300000000000000002B
:104E40000000000000000000000000000000000C56
:104E5000000E000E000F800E800E400E600E200E21
:104E6000100E100E080E040E040EFE7F000E000E33
:104E7000000E000E000E000EC07F000000000000BB
:104E80000000000000000000000000000000F03FF3
:104E9000F03F10001000100008000800C807280CA0
:104EA0001818081000300030003000300C300C3082
:104EB00004180418080CF0030000000000000000B3
:104EC0000000000000000000000000000000800F53
:104ED000C010203010301800180008000C008C0F93
:104EE0006C183C301C600C600C600C600C6018602E
:104EF000182030306018C0070000000000000000DB
:104F00000000000000000000000000000000F83F6A
:104F1000F83F1C100C0804080404000400020002FE
:104F2000000100010001800080008000C000C0007E
:104F3000C000C000C000C000000000000000000071
:104F40000000000000000000000000000000E0077A
:104F5000300C18180C300C300C301C30381870081D
:104F6000E007B007180E0C1C063806300630063075
:104F700006300C18180CE0030000000000000000D0
:104F80000000000000000000000000000000E0033E
:104F900018040C080C1806100630063006300630CF
:104FA00006380C3C1836F031003000180018001894
:104FB0000C0C0C060C03F0010000000000000000C7
:104FC00000000000000000000000000000000000E1
:104FD0000000000000000000000000008001C0038D
:104FE000C00380010000000000000000000000007D
:104FF0008001C003C0038001000000000000000029
:1050000000000000000000000000000000000000A0
:10501000000000000000000000000000C000C00010
:105020000000000000000000000000000000000080
:1050300000000000C000C000800080004000400070
:105040000000000000000000000000000020001030
:1050500000080004000600038001C000600030006A
:1050600018000C00180030006000C0008001000330
:1050700000060004000800100020000000000000EE
:105080000000000000000000000000000000000020
:10509000000000000000000000000000FE7F000093
:1050A0000000000000000000FE7F00000000000083
:1050B00000000000000000000000000000000000F0
:1050C00000000000000000000000000004000800D4
:1050D000100020006000C000800100030006000CEA
:1050E000001800300018000C000600038001C0000A
:1050F0006000200010000800040000000000000014
:10510000000000000000000000000000C007301890
:10511000083008600C601C601C601C600030001CC3
:105120000006000180008000800080000000000078
:105130008001C003C00380010000000000000000E7
:105140000000000000000000000000000000C00798
:105150006018103018200C2F8C4D864CC64CC64C55
:10516000664C66446644662666266615CC1C0C4072
:10517000082018303018C0070000000000000000B0
:105180000000000000000000000000000001C0015D
:10519000C001C0014001600320032003200330064A
:1051A000100610061006F80F080C080C080C0C0C62
:1051B0000418041806181F7C0000000000000000FE
:1051C0000000000000000000000000000000FE07DA
:1051D000181C183818301830183018301818180CD7
:1051E000F807181818301820186018601860186030
:1051F000186018301818FE0F0000000000000000B2
:105200000000000000000000000000000000C027B7
:105210006038103018200C400C40040006000600D6
:105220000600060006000600060006000C400C40C2
:105230000C2018303018C0070000000000000000EB
:105240000000000000000000000000000000FE035D
:10525000180E1818183018301830186018601860B8
:1052600018601860186018601860186018301830DE
:1052700018101818180EFE030000000000000000AF
:105280000000000000000000000000000000FE3FE1
:105290001830182018601840180018081808180C42
:1052A000F80F180C180818081800180018001840F3
:1052B000184018201830FE3F0000000000000000D9
:1052C0000000000000000000000000000000FE7F61
:1052D0001870184018C018801800181018101818E6
:1052E000F81F1818181018101800180018001800C7
:1052F0001800180018007E000000000000000000E8
:105300000000000000000000000000000000C013CA
:10531000701C101018100C200C2004000600060051
:1053200006000600060006FC063006300C300C3085
:10533000183018303008C0070000000000000000DE
:1053400000000000000000000000000000003F7EA0
:105350000C180C180C180C180C180C180C180C182D
:105360000C18FC1F0C180C180C180C180C180C1826
:105370000C180C180C183F7E000000000000000004
:105380000000000000000000000000000000F81F06
:105390008001800180018001800180018001800105
:1053A00080018001800180018001800180018001F5
:1053B000800180018001F81F000000000000000053
:1053C0000000000000000000000000000000E07F7E
:1053D000000600060006000600060006000600069D
:1053E000000600060006000600060006000600068D
:1053F000000600060006000600060E060E038E01DB
:10540000FC000000000000000000000000007E7CA6
:10541000181818081804180618021801980198019D
:10542000D801B803380318071806180E180C181CF2
:105430001818183018307EFC000000000000000032
:1054400000000000000000000000000000007E00DE
:10545000180018001800180018001800180018008C
:10546000180018001800180018001800180018403C
:10547000184018201830FE3F000000000000000017
:1054800000000000000000000000000000001FF805
:105490001C381C381C381C3C343434343434343616
:1054A00074326432643264326431C431C431C43120
:1054B000C430C43084309FFC0000000000000000B5
:1054C00000000000000000000000000000001F7C41
:1054D0001C103C103410341074106410E410C4100C
:1054E000C41184118413041304170416041E041C2D
:1054F000041C041C04181F18000000000000000019
:105500000000000000000000000000000000C003D8
:10551000300C181808100C300C300660066006605D
:105520000660066006600660066006600C200C30AF
:1055300008101818300CC003000000000000000024
:105540000000000000000000000000000000FE0F4E
:105550001818183018601860186018601860183033
:105560001818F80F18001800180018001800180074
:105570001800180018007E00000000000000000065
:105580000000000000000000000000000000C00358
:10559000300C18180C100C300C20066006600660E9
:1055A000066006600660066006600660E4612C33F3
:1055B0001C321816300EC007004C007C003800006A
:1055C0000000000000000000000000000000FE07D6
:1055D000181C183818301830183018301818180CD3
:1055E000F80798031803180718061806180E180C61
:1055F000180C181C18187E7800000000000000002D
:105600000000000000000000000000000000E02793
:10561000303818300C200C200C000C0018007800DA
:10562000E003800F001E003800700060046004601A
:10563000086018303818C80F000000000000000093
:105640000000000000000000000000000000FC3F1F
:105650008C2184618241824180018001800180012E
:105660008001800180018001800180018001800132
:10567000800180018001E0070000000000000000C0
:1056800000000000000000000000000000003F7C5F
:105690000C100C100C100C100C100C100C100C102A
:1056A0000C100C100C100C100C100C100C100C101A
:1056B0000C1008083804E00300000000000000009F
:1056C00000000000000000000000000000003EF8A4
:1056D00018201820182030103010301030106008BA
:1056E00060086008E00CC004C004C00480038003AC
:1056F00080038003000100010000000000000000A2
:105700000000000000000000000000000000DFF3C7
:105710008661862186218C210C218C238C138C138D
:105720008C134C1358125816580E380E380E380E6B
:10573000300C1004100410040000000000000000F1
:1057400000000000000000000000000000007E3E9D
:10575000180838083004300470026002E001C0010B
:10576000C001800180034003400720062006100C82
:10577000100C081808183E7C000000000000000013
:1057800000000000000000000000000000007E7C1F
:105790001C10181018083008300C700460046002E7
:1057A000C002C002C001800180018001800180012F
:1057B000800180018001E00700000000000000007F
:1057C0000000000000000000000000000000F83FA2
:1057D00018180818040C040E0006000700038003C4
:1057E0008001C001C000E00060007000300038207F
:1057F00018201C100C18FE1F000000000000000004
:105800000000000000000000C03F400040004000D9
:105810004000400040004000400040004000400088
:105820004000400040004000400040004000400078
:10583000400040004000400040004000C03F0000E9
:105840000000000000000000000000000800180038
:105850001800100030002000600060004000C00010
:1058600080008001800100010003000200060006A4
:105870000004000C00080018001800100030002080
:105880000000000000000000FC0300020002000213
:1058900000020002000200020002000200020002F8
:1058A00000020002000200020002000200020002E8
:1058B000000200020002000200020002FC030000DD
:1058C00000000000000000008007C0062008101043
:1058D00000000000000000000000000000000000C8
:1058E00000000000000000000000000000000000B8
:1058F00000000000000000000000000000000000A8
:105900000000000000000000000000000000000097
:105910000000000000000000000000000000000087
:105920000000000000000000000000000000000077
:105930000000000000000000000000000000000067
:10594000FFFF0000000000007800C0000001000020
:105950000000000000000000000000000000000047
:105960000000000000000000000000000000000037
:105970000000000000000000000000000000000027
:105980000000000000000000000000000000000017
:10599000000000000000000000000000F0031806F6
:1059A0000C0C0C0C000C800F700C1C0C0C0C060C5E
:1059B000060C064C0C4FF8380000000000000000F8
:1059C00000000000000000000000000010001E00A9
:1059D000180018001800180018001800180FD81820
:1059E00038303860186018601860186018601860E7
:1059F000182038307818C8070000000000000000A8
:105A00000000000000000000000000000000000096
:105A1000000000000000000000000000C007700C43
:105A2000181818180C180C000C000C000C000C2096
:105A3000182018103008C007000000000000000007
:105A40000000000000000000000000000010001E28
:105A5000001800180018001800180018E01B301C6F
:105A6000181818180C180C180C180C180C180C18FE
:105A70000818181C307AE00900000000000000003F
:105A80000000000000000000000000000000000016
:105A9000000000000000000000000000C007300C03
:105AA000181808100C300C30FC3F0C000C000C00D7
:105AB000182018107018C007000000000000000037
:105AC0000000000000000000000000000000003E98
:105AD00080C380C0C0C0C000C000C000FC1FC000A8
