:020000040800F2
:10000000980600200501000861280008BD210008AD
:100010005D28000811080008612E0008000000009B
:100020000000000000000000000000008D29000812
:100030001508000800000000632800088F29000848
:100040001F0100081F0100081F0100081F01000810
:100050001F0100081F0100081F0100081F01000800
:100060001F0100081F0100081F0100081F010008F0
:100070001F0100081F0100081F0100081F010008E0
:100080001F0100081F0100081F0100081F010008D0
:100090001F0100081F0100081F0100081F010008C0
:1000A0001F0100081F0100081F0100081F010008B0
:1000B000552A0008652A0008752A00081F01000853
:1000C0001F0100081F0100081F0100081F01000890
:1000D0001F010008512E00081F0100081F01000821
:1000E0001F0100081F0100081F010008DFF810D0E1
:1000F00000F0CAF90048004745300008AFF300801F
:10010000980600200648804706480047FEE7FEE7BD
:10011000FEE7FEE7FEE7FEE7FEE7FEE7FEE7FEE7B7
:10012000FD290008ED000008D2B201E000F8012B23
:10013000491EFBD270470022F6E710B513460A4667
:1001400004461946FFF7F0FF204610BD421E12F884
:10015000013F002BFBD111F8013B02F8013B002BC2
:10016000F9D17047421C10F8011B0029FBD1801AFD
:10017000704700000FB400B58DB010A909900B9026
:1001800000914FF0FF300A9000200C900548069037
:10019000054807906A4609A80F9900F047F90DB085
:1001A0005DF814FB49040008670400082DE9FF5FAF
:1001B0001D464FF0FF3BD5E9014691465F464FF0A3
:1001C0000008A9697F1C01988847296A82468847E8
:1001D0000028F6D1BAF1FF3F0CD024F4C064002E01
:1001E00019DD600614D5BAF12B0F09D0BAF12D0F25
:1001F0000ED103E0584604B0BDE8F09F44F480649B
:10020000A9697F1C01988847761E8246002E02DD70
:10021000BAF1300F03D0B9F1000F26D032E0A9694E
:10022000761E44F400747F1C019888478246002E95
:1002300005DDBAF1780F06D0BAF1580F03D0B9F145
:10024000000F10D01EE0B9F1000F02D0B9F1100F6D
:1002500018D1A969761E24F400747F1C0198884780
:100260008246102002E0082000E00A20814609E0D2
:1002700008FB0908A969761E44F400747F1C0198E4
:1002800088478246002E05DD4946504600F0BAF800
:100290000028EDDAE96901988847A00502D46FF0DB
:1002A0000100A8E7E00725D1600613D5600502D557
:1002B000C8F1000000E0404629680A1D2A6009686C
:1002C000220501D5087015E0220701D5088011E04C
:1002D00008600FE02868011D29600068210502D52B
:1002E00080F8008006E0210702D5A0F8008001E038
:1002F000C0F8008038467EE72DE9FF5FD2E901A70C
:100300004FF00008916999461446DDF838B046462A
:1003100001988847054659EA0B0005D009E0A16914
:10032000761C019888470546216A28468847002898
:10033000F5D1681C03D05FEACA7005D015E04FF014
:10034000FF3004B0BDE8F09F2068011D2160D0F8A7
:1003500000800AE05FEACA7001D108F8015BA16978
:10036000761C7F1E019888470546002F1ADD681C01
:1003700018D0B9F1000F0DD0E81705EBD06042118D
:1003800020F01F0059F822102A1A01209040014243
:10039000E0D107E0BBF1000FDCD1216A2846884795
:1003A0000028D7D0E16901988847BBF1000F07D139
:1003B000002E05DD5FEACA7002D1002188F8001026
:1003C000A068B84203DDBBF1000F03D017B16FF096
:1003D0000100B6E73046B4E730B50B4601460020D1
:1003E0002022012409E021FA02F59D4205D303FAF7
:1003F00002F5491B04FA02F52844151EA2F1010278
:10040000F1DC30BD3A2800D2303820F02002412AF9
:1004100001D3A2F13700884201D34FF0FF3070477B
:10042000026811441378016018467047D16004498E
:1004300051610449116200211161114600F03CB87C
:1004400021040008AD040008426842B1016811F8B7
:10045000013B23B1521EC0E900121846704701212A
:10046000C160881E704742685AB1C368016843B9C9
:1004700083688B4205D0491E521CC0E9001200203F
:1004800070474FF0FF307047064C074D06E0E068BC
:1004900040F0010394E8070098471034AC42F6D3CB
:1004A000FFF728FEAC540008CC540008C0B24FF44B
:1004B000F05100F099B900002DE9F34F8BB04FF0E7
:1004C000000801F10C000C464FF0010B46460DF1FF
:1004D000080A01906269012101989047051E2DD0FC
:1004E000252D2CD0216A8847C0B16269012101986D
:1004F0009047216A88470028F7D1411E6269019818
:10050000904700E0761CA1690B988847216A8847CC
:100510000028F7D1E1690B988847DBE7A1690B98C0
:1005200088470746A84201D1761CD3E7E1690B98BA
:1005300088477F1C02D1B8F1000F6FD047E1002738
:1005400062693D463946019890472A2804D162697C
:100550000121019890470125DFF888926269012105
:1005600001989047A0F130010A290AD24F45E5DCF5
:1005700007EB870100EB4107303FDFD445F0100562
:10058000ECE7E90601D46FF000476C280AD04C284C
:1005900014D0682815D06A280DD074281CD07A2869
:1005A0001AD01DE062690121019890476C2802D0A1
:1005B00045F0040514E045F002050DE045F0200586
:1005C0000AE06269012101989047682802D045F04D
:1005D000080505E045F4006562690121019890472E
:1005E000C4E9015765283DD019DC58287AD00CDCC5
:1005F000452837D004DC252826D0412831D131E0E8
:1006000046282FD047282CD12CE05B2877D06128B2
:1006100028D063287CD0642823D15AE0D1E06F2809
:1006200048D008DC66281DD067281BD0692821D057
:100630006E2816D127E0702845D0732868D0752819
:1006400047D078280DD14DE0A1690B988847054621
:1006500025283FF469AFE1690B9888476D1C3FF48A
:100660006AAFB4E023466A466FF001000B99AFF31E
:1006700000809FE045F040006060A80723464FF0EF
:10068000000236D43EE0E8077FF447AF2068011D42
:1006900021600068290501D506701BE7290701D5EF
:1006A000068017E7A90703D5F117C0E9006111E734
:1006B00006600FE745F040006060A80723464FF052
:1006C000080216D41EE040F60E0125EA0100606023
:1006D00016E045F040006060A80723464FF00A028C
:1006E00007D40FE045F040006060A80708D5234616
:1006F00010226FF001000B99AFF300805AE007E081
:10070000234610226FF001000B99FFF74FFD51E0D7
:100710004FF000094F464B46632802D05B2807D0B4
:1007200041E02079C00601D40120A06001273AE011
:1007300062690121019890475E2805D14FF00109B7
:100740006269494601989047216939B900210A46F2
:10075000534643F82120491C0829FADBB0B321692C
:1007600069B9C11700EBD16253110AEB830122F082
:100770001F02821A01200B68904003430B606269DC
:100780000121019890475D28E8D1B9F1000F09D007
:100790000020514651F82020D24341F82020401C2F
:1007A0000828F7DB02AB224600976FF001000B9997
:1007B000FFF7A2FD00280CDA401C08D1BBF1000FA6
:1007C00005D04FF0FF300DB0BDE8F08FFFE7404699
:1007D000F9E7E90701D108F1010806444FF0000BE1
:1007E00078E60000CCCCCC0C7F2801D9002208E0B0
:1007F000064A02EB5002C007127800D1120902F03B
:100800000F02012090400840704700006C5400081F
:1008100000BFFEE7704770470146002291F82100B3
:10082000022808D00420886300BF002081F820003F
:1008300000BF012070470868006820F00E000B68B8
:1008400018600868006820F001000B68186091F8D3
:10085000403001209840CB6B5860012081F8210086
:1008600000BF002081F8200000BF1046E2E7000032
:1008700070B50446002594F82100022803D0042016
:10088000A063012548E02068006820F00E00216880
:1008900008602068006820F00100216808601F4996
:1008A0002068884201D1012026E01C4914312068CB
:1008B000884201D110201FE0184928312068884261
:1008C00001D1801518E015493C312068884201D1DA
:1008D000801411E0114950312068884202D14FF450
:1008E000803009E00D4964312068884202D14FF41C
:1008F000801001E04FF080700849083948600120FD
:1009000084F8210000BF002084F8200000BF606B45
:1009100010B12046616B8847284670BD0800024030
:1009200070B5044600F0A6F906462546681C10B1CD
:1009300004480078054400BF00F09CF9801BA842E1
:10094000FAD370BD0C0000202DE9F84703460022C1
:1009500094466EE14FF0010808FA02F4D1F80080E5
:1009600008EA0400A0427DD1DFF8DCA2D1F80480BF
:10097000A8EB0A09D0453AD014DCB8F1030F50D0E7
:1009800009DCB8F1000F31D0B8F1010F1CD0B8F17B
:10099000020F49D120E0B8F1110F18D0B8F1120FB1
:1009A00042D11EE0B9F5881F25D006DCB9F5803F9D
:1009B00020D0B9F5801F37D11AE0B9F5001F18D043
:1009C000B9F5041F30D117E0D1F80CC02DE0D1F8F3
:1009D0000C8008F1040C28E0D1F80C8008F1080C18
:1009E00023E0D1F80C8008F10C0C1EE000BF00BF22
:1009F00000BF00BF00BF00BFD1F80880B8F1000FF2
:100A000002D14FF0040C0BE0D1F80880B8F1010FCF
:100A100003D14FF0080C1C6102E04FF0080C5C6140
:100A200003E04FF0000C00E000BF00BFFF2801D83A
:100A3000984601E003F104084646FF2802D84FEA31
:100A4000820803E0A2F108084FEA88084746D6F872
:100A500000804FF00F0909FA07F928EA09080CFA93
:100A600007F900E088E048EA0908C6F80080D1F8F4
:100A7000048008F08058B8F1805F7DD100BFDFF8B6
:100A8000CC81D8F8188048F00108DFF8C091C9F887
:100A90001880C846D8F8188008F00108CDF8008002
:100AA00000BF00BF4FEAB9384FEA920958F8295001
:100AB0004FEA82784FEA18794FF00F0808FA09F8E0
:100AC00025EA0805DFF88881434502D14FF0000888
:100AD00016E0DFF88081434502D14FF001080FE0B6
:100AE000DFF87481434502D14FF0020808E0DFF8D7
:100AF0006C81434502D14FF0030801E04FF0040838
:100B00004FEA82794FEA197908FA09F848EA0505A7
:100B1000DFF84C814FEA920948F82950D1F8048057
:100B200008F48018B8F5801F0AD1DFF83881D8F8AA
:100B3000008048EA0008DFF82C91C9F8008009E03D
:100B4000DFF82081D8F8008028EA0008DFF8149147
:100B5000C9F80080D1F8048008F40018B8F5001F27
:100B600010D1DFF8008108F10408D8F8008048EAC5
:100B70000008DFF8F09000E05AE009F10409C9F834
:100B800000800DE0DFF8DC8008F10408D8F8008070
:100B900028EA0008DFF8CC9009F10409C9F80080C0
:100BA000D1F8048008F40038B8F5003F0ED1DFF822
:100BB000B480A8F10408D8F8008048EA0008DFF8FB
:100BC000A490A9F10409C9F800800DE0DFF8948031
:100BD000A8F10408D8F8008028EA0008DFF884901B
:100BE000A9F10409C9F80080D1F8048008F480381C
:100BF000B8F5803F0ED1DFF86C80A8F10808D8F86E
:100C0000008048EA0008DFF85C90A9F10809C9F8FB
:100C100000800DE0DFF84C80A8F10808D8F80080CB
:100C200028EA0008DFF83C90A9F10809C9F800801B
:100C3000521CD1F8008028FA02F8B8F1000F7FF4B6
:100C400089AEBDE8F88700000000111000100240D6
:100C500000080140000C0140001001400014014058
:100C600008000140080401400AB1016101E00B04E1
:100C700003617047014800687047000004000020CD
:100C800070B504460CB9012070BD94F83D0028B938
:100C9000002084F83C00204600F0DAF8242084F894
:100CA0003D002068006820F001002168086020688D
:100CB000006840F40040216808602068006820F463
:100CC00000402168086000F0C9FA05465C49606888
:100CD000884206D85B48854201D2012007E0002007
:100CE00005E05948854201D2012000E0002001289A
:100CF00000D1C9E75548B5FBF0F62068406820F000
:100D00003F003043216848604D496068884201D8FF
:100D1000701C07E04FF4967070434FF47A71B0FB8B
:100D2000F1F0401C2168096A21F03F010843216865
:100D3000086243496068884214D8681E61684900A7
:100D4000B0FBF1F0401CC0F30B00042801D20420DA
:100D50003DE0681E61684900B0FBF1F0401CC0F343
:100D60000B0034E0A06838B9681E616801EB4101EE
:100D7000B0FBF1F0401C0AE0681E616801EBC102A3
:100D800002EB0111B0FBF1F0401C40F48040C0F3D5
:100D90000B0008B901201AE0A06848B9681E616814
:100DA00001EB4101B0FBF1F0401CC0F30B000CE083
:100DB000681E616801EBC10202EB0111B0FBF1F0AA
:100DC000401CC0F30B0040F4804040F40040216818
:100DD000C9694CF6FF72914308432168C861D4E9A0
:100DE000070108432168096821F0C0010843216810
:100DF0000860D4E9031008432168896848F2FF328B
:100E00009143084321688860D4E9050108432168BB
:100E1000C96821F0FF0108432168C86020680068A4
:100E200040F001002168086000202064202084F840
:100E30003D000020206384F83E0000BF24E700004E
:100E4000A086010080841E0000093D0040420F0082
:100E500010B586B0044600200290039004900590DF
:100E60002B492068884225D100BF2A48806940F07C
:100E70000800284988610846806900F00800019050
:100E800000BF00BFC02002901220039003200590F5
:100E900002A92148FFF758FD00BF1E48C06940F471
:100EA00000101C49C8610846C06900F40010019098
:100EB00000BF2AE019492068884226D100BF1548A2
:100EC000806940F00800134988610846806900F095
:100ED0000800019000BF00BF4FF440600290122054
:100EE00003900320059002A90B48FFF72DFD00BFDA
:100EF0000848C06940F480000649C8610846C069D6
:100F000000F48000019000BF00BF06B010BD0000DB
:100F10000054004000100240000C01400058004006
:100F2000034800680349097808440149086070478C
:100F3000040000200C00002010B50848006840F0B4
:100F4000100006490860032000F0A8F8002000F017
:100F500007F800F02BF8002010BD00000020024030
:100F600070B504460E4800784FF47A71B1FBF0F08A
:100F70000C490968B1FBF0F5284600F079FD08B18D
:100F8000012070BD102C07D200222146501E00F017
:100F900047F80548046001E00120F2E70020F0E78F
:100FA0000C000020100000200800002008B500BF41
:100FB0001148806940F001000F4988610846806946
:100FC00000F00100009000BF00BF00BF0846C069EC
:100FD00040F08050C8610846C06900F08050009021
:100FE00000BF00BF00BF0549486820F0E06040F046
:100FF0000070486000BF08BD0010024000000140C2
:1010000001460846002809DB00F01F0301229A4030
:1010100043099B0003F1E023C3F8002100BF7047A0
:101020002DE9F05F80460D461646002701F02EFFA1
:10103000074639462A46334601F00700C0F1070A41
:10104000BAF1040F02D94FF0040A01E0C0F1070A17
:10105000D14600F1040ABAF1070F02D24FF0000A9C
:1010600001E0A0F1030AD4464FF0010A0AFA09FA96
:10107000AAF1010A0AEA020A0AFA0CFA4FF0010B75
:101080000BFA0CFBABF1010B0BEA030B4AEA0B0466
:101090002146404601F002FFBDE8F09F00BF00F08E
:1010A0000702064B19684FF6FF031940044B0B4328
:1010B00043EA0221014B196000BF70470CED00E0CC
:1010C0000000FA0570B504460D460CB9012070BD4C
:1010D0005A48006800F00700A8420ED2574800683E
:1010E00020F007002843554908600846006800F0D2
:1010F0000700A84201D00120E9E7207800F00200B3
:1011000002281DD1207800F00400042805D14C48A5
:10111000406840F4E0604A494860207800F00800E8
:10112000082805D14648406840F46050444948606A
:101130004348406820F0F000A168084340494860F7
:10114000207800F0010078B36068012806D13C489F
:10115000006800F4003090B90120B8E76068022808
:1011600006D13748006800F0007040B90120AEE7B2
:101170003348006800F0020008B90120A7E73048B2
:10118000406820F00300616808432D494860FFF77C
:1011900071FD064609E0FFF76DFD801B41F28831C5
:1011A000884202D9032092E707E02548406800F012
:1011B0000C006168B0EB810FEDD12048006800F0B1
:1011C0000700A8420ED91D48006820F007002843F8
:1011D0001A4908600846006800F00700A84201D0DC
:1011E000012074E7207800F00400042807D1144897
:1011F000406820F4E060E1680843114948602078C5
:1012000000F00800082808D10D48406820F460501C
:10121000216940EAC1000A49486000F03FF80849E6
:101220004968C1F30311074A515CC8400649086088
:1012300006480068FFF794FE002048E700200240BF
:1012400000100240FE3100081000002008000020BD
:1012500001480068704700001000002000B5FFF74B
:10126000F7FF04494968C1F30221034A515CC840B1
:1012700000BD0000001002400E32000800B5FFF76C
:10128000E7FF04494968C1F3C221034A515CC840E1
:1012900000BD0000001002400E32000870B50021B1
:1012A0000022002400230020134D696801F00C0582
:1012B000F5B1042D02D0082D19D101E00F4819E035
:1012C0000F4DC1F38346AB5D01F4803555B10A4D36
:1012D0006D68C5F340450B4E725D084D5D43B5FB2F
:1012E000F2F402E0084D03FB05F4204602E000BFE3
:1012F000024800BF00BF70BD0010024000127A001B
:10130000EC310008FC31000800093D00F8B5044646
:101310000CB90120F8BD207800F00100002878D039
:10132000F848406800F00C0004280CD0F5484068EC
:1013300000F00C00082811D1F248406800F4803019
:10134000B0F5803F0AD1EF48006800F40030002873
:101350005FD0606800285CD10120DBE700BF6068D7
:10136000B0F5803F06D1E748006840F48030E54999
:10137000086028E0606858B9E248006820F48030CE
:10138000E04908600846006820F4802008601AE000
:101390006068B0F5A02F0BD1DA48006840F48020D7
:1013A000D84908600846006840F4803008600AE0C8
:1013B000D448006820F48030D249086008460068AC
:1013C00020F48020086000BF606888B1FFF752FCFD
:1013D000054606E0FFF74EFC401B642801D90320B8
:1013E00098E7C848006800F400300028F2D010E008
:1013F000FFF740FC054606E0FFF73CFC401B642875
:1014000001D9032086E7BF48006800F400300028B7
:10141000F2D1207800F00200022857D1B948406884
:1014200000F00C0050B1B748406800F00C000828EC
:1014300018D1B448406800F4803098B9B1480068C9
:1014400000F0020020B12069012801D0012061E7ED
:10145000AC48006820F0F800616940EAC100A94981
:10146000086033E02069E8B10120A7490860FFF770
:1014700001FC054606E0FFF7FDFB401B022801D9F1
:10148000032047E79F48006800F002000028F2D0E0
:101490009C48006820F0F800616940EAC100994961
:1014A000086013E0002098490860FFF7E3FB054659
:1014B00006E0FFF7DFFB401B022801D9032029E7E4
:1014C0009048006800F002000028F2D1207800F077
:1014D000080008282DD1A069B8B101208B49086007
:1014E000FFF7C8FB054606E0FFF7C4FB401B0228D8
:1014F00001D903200EE78348406A00F0020000286B
:10150000F2D0012001F0AEF913E000207F4908601D
:10151000FFF7B0FB054606E0FFF7ACFB401B0228D7
:1015200001D90320F6E67748406A00F0020000285F
:10153000F2D1207800F00400042873D1002771480C
:10154000C06900F0805070B900BF6E48C06940F0BB
:1015500080506C49C8610846C06900F08050009016
:1015600000BF00BF01276A48006800F48070B0B96E
:101570006748006840F4807065490860FFF77AFBAF
:10158000054606E0FFF776FB401B642801D90320DF
:10159000C0E65F48006800F480700028F2D000BF09
:1015A000E068012806D15748006A40F0010055491B
:1015B000086227E0E06858B95248006A20F001004C
:1015C000504908620846006A20F00400086219E0E9
:1015D000E06805280BD14B48006A40F004004949F7
:1015E00008620846006A40F0010008620AE04548C7
:1015F000006A20F00100434908620846006A20F0B2
:101600000400086200BFE068A0B1FFF733FB0546A5
:1016100009E0FFF72FFB401B41F28831884202D9D5
:10162000032077E622E03748006A00F00200002835
:10163000EFD012E0FFF71EFB054608E0FFF71AFBAC
:10164000401B41F28831884201D9032062E62D48CF
:10165000006A00F002000028F0D1012F05D12948CE
:10166000C06920F080502749C86100BFE069C8B355
:101670002448406800F00C00082860D0E069022887
:1016800048D1002020490866FFF7F4FA054606E035
:10169000FFF7F0FA401B022801D903203AE6194867
:1016A000006800F000700028F2D1206AB0F5803F99
:1016B00007D11448406820F40030A168084311495C
:1016C0004860D4E9080108430E49496821F47411BF
:1016D00008430C49486001200B490866FFF7CAFA25
:1016E000054607E03DE0FFF7C5FA401B022801D997
:1016F00003200FE60348006800F000700028F2D0D5
:101700002FE00000001002400000424280044242EC
:1017100000700040002014490866FFF7ABFA054648
:1017200006E0FFF7A7FA401B022801D90320F1E5E4
:101730000E48006800F000700028F2D111E0E06966
:10174000012800D1E6E50948466806F48031206AA0
:10175000814204D106F47011606A814201D00120F7
:10176000D8E50020D6E5000000004242001002400B
:1017700010B504460CB9012010BD606A38B9606824
:10178000B0F5827F00D105E00021E16102E0002197
:10179000216161610021A16294F8510028B9002003
:1017A00084F85000204600F043F8022084F85100ED
:1017B0002068006820F0400021680860A08800F4DC
:1017C0008270218901F404410843A18901F4006178
:1017D0000843217C01F002010843217D01F0010151
:1017E0000843218B01F400710843217F01F0380187
:1017F00008432021095D01F080010843218D01F497
:1018000000510843216808600421A06901EA1040E2
:10181000216848602068C06920F400602168C861C0
:1018200000206065012084F851000020A4E700003A
:1018300010B586B0044600200290039004900590F5
:101840001949206888422DD100BF1848806940F4AA
:101850008050164988610846806900F480500190E4
:1018600000BF00BF00BF0846806940F004008861E7
:101870000846806900F00400019000BF00BFA0206E
:101880000290022003900320059002A90848FFF768
:101890005BF84020029000200390049002A90448C5
:1018A000FFF752F806B010BD0030014000100240B2
:1018B000000801402DE9F84F0446884616461D46AB
:1018C0004FF0000A00BF94F85000012802D1022016
:1018D000BDE8F88F012084F8500000BFFFF7CAF977
:1018E0000746B14694F85100012802D04FF0020A91
:1018F000B7E0B8F1000F00D016B94FF0010AB0E020
:10190000032084F8510000206065C4F83080A6866A
:10191000E686A063A087E08760642064A068B0F5D5
:10192000004F0BD12068006820F04000216808605B
:101930002068006840F480402168086020680068E2
:1019400000F04000402805D02068006840F04000CA
:1019500021680860E068B0F5006F32D1606810B1AE
:10196000B9F1010F09D1206B00882168C860206B94
:10197000801C2063E08E401EE0861EE020688068A8
:1019800000F0020002280AD1206B00882168C8609C
:10199000206B801C2063E08E401EE0860DE0FFF788
:1019A00069F9C01BA84201D3681C00B92DB94FF0DA
:1019B000030A012084F8510053E0E08E0028DDD1B5
:1019C00031E0606810B1B9F1010F09D1206B0078E6
:1019D00021680873206B401C2063E08E401EE08667
:1019E0001EE02068806800F0020002280AD1206B07
:1019F000007821680873206B401C2063E08E401E35
:101A0000E0860DE0FFF736F9C01BA84201D3681C41
:101A100000B92DB94FF0030A012084F8510020E0ED
:101A2000E08E0028DDD13A462946204600F02EFF00
:101A300008B120206065A06850B900BF0020009068
:101A40002068C068009020688068009000BF00BFD8
:101A5000606D10B14FF0010A02E0012084F85100DE
:101A600000BF00BF002084F8500000BF50462FE7A1
:101A700070B504462546681EB0F1807F01D3012071
:101A80000FE0681E4FF0E02148610F214FF0FF305A
:101A900001F004FA00204FF0E0218861072008617E
:101AA000002070BD70477047704710B5044620682D
:101AB0000069C0F34000D8B12068C068C0F340009E
:101AC000B0B16FF002002168086101202077206822
:101AD000806900F0030018B12046FFF7E5FF05E03C
:101AE000204600F0ADF8204600F0ABF8002020774B
:101AF00020680069C0F38000D8B12068C068C0F3D6
:101B00008000B0B16FF004002168086102202077E6
:101B10002068806900F4407018B12046FFF7C4FFC8
:101B200005E0204600F08CF8204600F08AF80020FE
:101B3000207720680069C0F3C000D8B12068C06871
:101B4000C0F3C000B0B16FF0080021680861042044
:101B500020772068C06900F0030018B12046FFF725
:101B6000A3FF05E0204600F06BF8204600F069F87E
:101B70000020207720680069C0F30010D8B12068E9
:101B8000C068C0F30010B0B16FF0100021680861A8
:101B9000082020772068C06900F4407018B1204602
:101BA000FFF782FF05E0204600F04AF8204600F0EB
:101BB00048F8002020772068006900F0010058B143
:101BC0002068C06800F0010030B16FF001002168AA
:101BD0000861204600F036F820680069C0F3C010A4
:101BE00058B12068C068C0F3C01030B16FF08000F9
:101BF000216808612046FFF755FF20680069C0F39F
:101C0000801058B12068C068C0F3801030B16FF008
:101C1000400021680861204600F015F8206800693E
:101C2000C0F3401058B12068C068C0F3401030B114
:101C30006FF02000216808612046FFF734FF10BDD7
:101C40007047704770477047704770472DE9F84FED
:101C50000446206805682068C668206847694FF018
:101C60000009CA4605F00F09B9F1000F0AD105F0C5
:101C7000200038B106F0200020B1204600F052FFCD
:101C8000BDE8F88FB9F1000F7BD007F0010018B95B
:101C900006F49070002874D005F0010030B106F40D
:101CA000807018B1606C40F00100606405F00400C1
:101CB00030B107F0010018B1606C40F002006064C0
:101CC00005F0020030B107F0010018B1606C40F07F
:101CD0000400606405F0080048B106F0200010B967
:101CE00007F0010018B1606C40F008006064606C9F
:101CF000002845D005F0200028B106F0200010B1E2
:101D0000204600F00FFF20684069C0F3801A606C25
:101D100000F0080010B9BAF1000F2CD0204600F0F6
:101D2000BBFE2068406900F0400000B300BF00BF68
:101D30002168143151E8001F21F04000216814315E
:101D400041E80002002AF3D100BFE06B50B17748B0
:101D5000E16B4863E06BFEF78BFD88B1E06B416B94
:101D600088470DE02046FFF770FF09E009E02046B4
:101D7000FFF76BFF04E02046FFF767FF0020606479
:101D80007EE7206B012877D105F01000002873D082
:101D900006F010000028FAD000BF00200090206854
:101DA0000068009020684068009000BF00BF206875
:101DB000406900F0400000285FD0E06B0068406898
:101DC0001FFA80F8B8F1000F55D0A08D404552DDC4
:101DD000A4F82E80E06B8069202843D000BF00BFAC
:101DE00021680C3151E8001F21F4807021680C310A
:101DF00041E80002002AF3D100BF00BF00BF216804
:101E0000143151E8001F21F001002168143141E82C
:101E10000002002AF3D100BF00BF00BF21681431C7
:101E200051E8001F21F040002168143141E8000210
:101E3000002AF3D100BF202084F842000020206354
:101E400000BF00BF21680C3151E8001F21F01000D5
:101E500021680C3141E80002002AF3D100BFE06B99
:101E6000FEF7DAFC02206063A08DE28D801A81B259
:101E70002046FFF7E9FE03E742E0A08DE18D401A1E
:101E80001FFA80F8E08DD0B3B8F1000F37D000BF53
:101E900000BF21680C3151E8001F21F490702168C7
:101EA0000C3141E80002002AF3D100BF00BF00BF9F
:101EB0002168143151E8001F21F00100216814311C
:101EC00041E80002002AF3D100BF202084F842003C
:101ED0000020206300BF00BF21680C3151E8001FC3
:101EE00021F0100021680C3141E80002002AF3D1F2
:101EF00000BF0220606341462046FFF7A5FEBFE613
:101F000005F0800030B106F0800018B1204600F0E6
:101F100025FFB5E605F0400030B106F0400018B1ED
:101F2000204600F0EFFDABE600BFA9E6852A0008D9
:101F300010B504460CB9012010BDA06900B100E045
:101F400000BF94F8410028B9002084F840002046E2
:101F500000F02AF8242084F841002068C06820F4AA
:101F600000502168C860204600F05AFE20680069D1
:101F700020F49040216808612068406920F02A0020
:101F8000216848612068C06840F400502168C8603A
:101F900000206064202084F8410084F84200002082
:101FA000606300BFC8E7000010B586B0044600209B
:101FB00002900390049005901E492068884236D113
:101FC00000BF1D48806940F480401B498861084675
:101FD000806900F48040019000BF00BF00BF084648
:101FE000806940F0040088610846806900F00400C0
:101FF000019000BF00BF481502900220039003200B
:10200000059002A90D48FEF79FFC4FF480600290F6
:1020100000200390049002A90848FEF795FC0022D6
:1020200002212520FEF7FCFF2520FEF7E9FF06B080
:1020300010BD0000003801400010024000080140BF
:1020400070B504460D46164694F8420020280BD180
:1020500005B10EB9012070BD00202063324629462B
:10206000204600F05BFEF6E70220F4E710B50446D8
:102070002049206888423BD11F48008800F4004076
:1020800088BB1D48008800F4804070B11B48007870
:102090000A2806D11848008840F4004016490880F4
:1020A00021E00020144908801DE0144800780D2824
:1020B00006D11148008840F480400F49088012E0A2
:1020C0000E4800780C490988C1F30D010C4A5054A0
:1020D00009480088401C08490880084600883128C3
:1020E00001DD00200880012204490648FFF7A8FF0F
:1020F00010BD000000380140020000200000002058
:1021000046000020500200202DE9F84F04460E46FC
:10211000174699464FF0000A94F8410020284AD10A
:1021200006B117B90120BDE8F88F002060642120B6
:1021300084F84100FEF79EFD8246A784E784A068EC
:10214000B0F5805F04D1206910B90025B04602E0E7
:1021500035464FF000081BE0534600228021204600
:10216000CDF8009000F02AFE08B10320DBE745B966
:10217000B8F80000C0F308002168486008F10208C0
:1021800003E02878216848606D1CE08C401EE084E4
:10219000E08C0028E0D15346002240212046CDF8B3
:1021A000009000F00BFE08B10320BCE7202084F86B
:1021B00041000020B7E70220B5E7704700BFFEE707
:1021C0002DE9F04104460D4616461F462A2000F030
:1021D000F3F9611C88B200F0E0F9711C88B200F0DC
:1021E000DCF92B2000F0E8F9A91C88B200F0D5F941
:1021F000B91C88B200F0D1F92C2000F0DDF9BDE85F
:10220000F08170B504460D4616462B4622462946F7
:102210002046FFF7D5FF304600F0BFF970BD2DE92D
:10222000F04706460F4614461D46DDF820A0681EFE
:1022300083B2601E82B239463046FFF7C1FFB8460E
:102240000EE0B14606E0504600F0A7F909F10100A2
:102250001FFA80F9A145F6DB08F101001FFA80F8AA
:10226000A845EEDBBDE8F08710B5002204217C48CC
:10227000FEF7FAFC6420FEF753FB012204217848A4
:10228000FEF7F2FC6420FEF74BFB012202217448AA
:10229000FEF7EAFC6420FEF743FB112000F08CF906
:1022A0007820FEF73DFBB12000F086F9022000F017
:1022B0007DF9352000F07AF9362000F077F9B22068
:1022C00000F07AF9022000F071F9352000F06EF983
:1022D000362000F06BF9B32000F06EF9022000F018
:1022E00065F9352000F062F9362000F05FF9022030
:1022F00000F05CF9352000F059F9362000F056F96D
:10230000B42000F059F9032000F050F9C02000F08B
:1023100053F9A22000F04AF9022000F047F9842086
:1023200000F044F9C12000F047F9C52000F03EF963
:10233000C22000F041F90D2000F038F9002000F033
:1023400035F9C32000F038F98D2000F02FF92A204C
:1023500000F02CF9C42000F02FF98D2000F026F9B0
:10236000EE2000F023F9C52000F026F90A2000F045
:102370001DF9362000F020F9782000F017F9E02050
:1023800000F01AF9122000F011F91C2000F00EF9EB
:10239000102000F00BF9182000F008F9332000F0AD
:1023A00005F92C2000F002F9252000F0FFF8282084
:1023B00000F0FCF8282000F0F9F8272000F0F6F8EB
:1023C0002F2000F0F3F83C2000F0F0F8002000F09F
:1023D000EDF8032000F0EAF8032000F0E7F8102001
:1023E00000F0E4F8E12000F0E7F8122000F0DEF859
:1023F0001C2000F0DBF8102000F0D8F8182000F0C6
:10240000D5F82D2000F0D2F8282000F0CFF82320B6
:1024100000F0CCF8282000F0C9F8282000F0C6F819
:10242000262000F0C3F82F2000F0C0F83B2000F079
:10243000BDF8002000F0BAF8032000F0B7F8032040
:1024400000F0B4F8102000F0B1F83A2000F0B4F831
:10245000052000F0ABF8292000F0AEF810BD000018
:10246000000801402DE9FF4F83B005468A46174614
:10247000119CAB46204604EBD071C1F347063046B1
:10248000F11706EB5171C910614389B20191A7F1AF
:102490002000C7B20AEB0400401E83B2A819401EF8
:1024A00082B251462846FFF78BFE4FF000094AE002
:1024B000102C06D1264800EB071010F809000290F6
:1024C0000BE0202C06D1234800EB871010F8090000
:1024D000029002E007B0BDE8F08F4FF000082AE05C
:1024E000129868B9012000FA08F00299084018B162
:1024F000069800F052F81AE0109800F04EF816E036
:10250000012000FA08F00299084020B151462846FF
:10251000069AFFF776FE681C85B2A5EB0B00B04269
:1025200005D15D460AF101001FFA80FA06E008F1C4
:10253000010000F0FF08B8F1080FD1DB00BF09F17E
:1025400001001FFA80F901988145B1DB00BFC1E7A6
:1025500016320008063800082DE9FE4F06460F46E1
:1025600014469846DDE90D5ADDF8309010E0CDE9CB
:10257000015ACDF800902278434639463046FFF79D
:1025800071FF284605EBD07106EB61018EB2641C29
:1025900020780028EBD1BDE8FE8F10B5044620124C
:1025A00000F01CF8E0B200F019F810BD10B50446B8
:1025B000204600F013F810BD10B504460022082193
:1025C0000548FEF751FB204600F008F801220821DB
:1025D0000148FEF749FB10BD0008014001B500228B
:1025E00010210848FEF740FB4FF47A730122694638
:1025F0000548FFF75FF9012210210248FEF734FB7E
:1026000008BD0000000801402001002000B585B091
:102610000020019002900390049000BF4848806918
:1026200040F01000464988610846806900F01000BB
:10263000009000BF00BF00BF0846806940F0200046
:1026400088610846806900F02000009000BF00BF4C
:1026500000BF0846806940F0040088610846806930
:1026600000F00400009000BF00BF00BF0846806972
:1026700040F0080088610846806900F0080000907A
:1026800000BF00BF012251032E48FEF7EDFA0122E0
:102690001E212D48FEF7E8FA012203212B48FEF700
:1026A000E3FA00224FF446712848FEF7DDFA4FF4B2
:1026B000005001900120029000200390022004901D
:1026C00001A92048FEF740F94FF440400190002056
:1026D00002900220039001A91A48FEF735F940F64E
:1026E00001000190002002900220039001A91648E9
:1026F000FEF72AF91E20019001200290002003908D
:102700000320049001A91048FEF71EF90320019050
:102710000120029003900320049001A90B48FEF7CA
:1027200013F94FF4467001900120029000200390AD
:102730000220049001A90548FEF706F905B000BD86
:10274000001002400010014000080140000C014050
:1027500010B50B480B4908600B4848600021094838
:102760008160C1604FF4804101610021416181615C
:10277000C1610162FEF784FA08B1FEF74CF810BDA2
:102780000054004078000020A086010000B585B00C
:102790000020019002900390049000BF1D488069C2
:1027A00040F004001B4988610846806900F004007D
:1027B000009000BF00BF01221E211748FEF754FA07
:1027C0001E2001900120029000200390032004901D
:1027D00001A91148FEF7B8F81048114908604FF4F4
:1027E0008270486000210E488160C16001614161D2
:1027F0004FF4007181610821C161002101624162D1
:1028000081620A21C162FEF7B3FF08B1FEF703F847
:1028100005B000BD0010024000080140003001403A
:102820002001002010B50B480B4908604FF41650EA
:102830004860002108488160C16001610C2141614C
:1028400000218161C161FFF773FB08B1FDF7E3FF70
:1028500010BD0000003801405002002000BFFEE71C
:102860007047704708B508490968C9084FF47A727B
:10287000B1FBF2F14143009100BF00BF00994A1E35
:1028800000920029F9D108BD10000020F8B50446D7
:102890000D4616462B46002280212046009600F069
:1028A00009F828B1606D40F0200060650320F8BD94
:1028B0000020FCE72DE9F84F04460D4690461E46E1
:1028C000DDF82890FEF7D6F9A0EB0900371AFEF7DD
:1028D000D1F982462C480068C0F3CB307843009091
:1028E00045E0701C002842D0FEF7C4F9A0EB0A00B6
:1028F000B84200D2A7BB2068406820F0E000216801
:1029000048606068B0F5827F0DD1A068B0F5004FD7
:1029100003D0A068B0F5806F05D12068006820F072
:10292000400021680860A06AB0F5005F0DD100BFCB
:102930002068006820F40050216808602068006862
:1029400040F400502168086000BF012084F8510065
:1029500000BF002084F8500000BF0320BDE8F88FBE
:10296000FFE7009800B900270098401E00902068FB
:1029700080682840A84201D1012000E000204045A5
:10298000AFD10020EAE7000010000020704710B52A
:10299000FEF7C6FA10BD00B58FB0282105A8FDF7D7
:1029A000CAFB14216846FDF7C6FB01200590000410
:1029B0000690002007900120099002200C90C1038E
:1029C0000D914FF4E0110E9105A8FEF79FFC08B1A0
:1029D000FDF721FF0F2000900220019000200290BF
:1029E0004FF4806003900020049002216846FEF7B7
:1029F00069FB08B1FDF70FFF0FB000BD114800687B
:102A000040F001000F490860084640680E49084040
:102A10000C494860084600680C49084009490860AC
:102A20000846006820F4802008600846406820F4CA
:102A3000FE0048604FF41F008860C8030449086026
:102A400070470000001002400000FFF8FFFFF6FE94
:102A500008ED00E010B50248FFF727F810BD0000B0
:102A60007801002010B50248FFF71FF810BD0000E4
:102A7000C001002010B50248FFF717F810BD000094
:102A80000802002070B505466C6A0020E085E084ED
:102A90002046FFF7DAF870BD00BF00BF02680C32B5
:102AA00052E8002F22F4907102680C3242E80013C1
:102AB000002BF3D100BF00BF00BF0268143252E800
:102AC000002F22F001010268143242E80013002BAB
:102AD000F3D100BF016B01290ED100BF00BF026816
:102AE0000C3252E8002F22F0100102680C3242E84A
:102AF0000013002BF3D100BF202180F842100021E9
:102B00000163704710B504462068C06820F040009B
:102B10002168C860202084F841002046FFF74DFB63
:102B2000002010BDF8B5044694F84200222875D163
:102B3000A068B0F5805F0CD1206950B90025A66A65
:102B400020684068C0F308003080A06A801CA06242
:102B500015E0A56A0026A068B0F5805F03D0A068E4
:102B600028B9206918B920684068287004E02068F6
:102B7000406800F07F002870A06A401CA062E08DD1
:102B8000401E80B2E085002846D12068C06820F051
:102B900020002168C8602068C06820F48070216827
:102BA000C8602068406920F0010021684861202049
:102BB00084F8420000206063206B012826D10020A9
:102BC000206300BF00BF21680C3151E8001F21F0D5
:102BD000100021680C3141E80002002AF3D100BF47
:102BE0002068006800F0100010280AD100BF002003
:102BF000009020680068009020684068009000BF46
:102C000000BFA18D2046FFF71FF802E02046FFF726
:102C10002DFA0020F8BD01E00020FBE70220F9E7D3
:102C200070B504462168096921F44051E2681143F6
:102C3000226811612269A1681143626941EA0205B3
:102C40002168C96841F20C62914329432268D1602E
:102C50002168496921F44071A269114322685161D8
:102C60002D4A2168914202D1FEF708FB01E0FEF7F0
:102C7000F5FA00EBC00101EB001162689200B1FBB4
:102C8000F2F100EBC00202EB001263689B00B2FBA2
:102C9000F3F26423B2FBF3F202EBC20303EB021282
:102CA000A1EB8201322202EB01116422B1FBF2F1AD
:102CB00001F0F00100EBC00202EB001263689B0020
:102CC000B2FBF3F26423B2FBF3F201EB021200EB6E
:102CD000C00101EB001163689B00B1FBF3F100EB55
:102CE000C00303EB00136668B600B3FBF6F364267B
:102CF000B3FBF6F303EBC30606EB0313A1EB83016F
:102D0000322303EB01116423B1FBF3F101F00F0156
:102D100011442268916070BD0038014010B503462F
:102D200099629A85DA8500205864222083F842004F
:102D3000186928B11868C06840F480701C68E060A9
:102D40001868406940F001001C6860611868C0683C
:102D500040F020001C68E060002010BD014691F8A2
:102D60004100212828D18868B0F5805F0BD108691F
:102D700048B90A6A1088C0F308000B685860086AEE
:102D8000801C086205E00B6A581C086218780B6802
:102D90005860C88C401E80B2C88458B90868C068A2
:102DA00020F080000B68D8600868C06840F04000E0
:102DB0000B68D860002070470220FCE72DE9F04145
:102DC00004460D4617469846069E34E0701C88B3AC
:102DD0002EB1FDF74FFFA0EB0800B0422BD900BF8A
:102DE00000BF21680C3151E8001F21F4D070216828
:102DF0000C3141E80002002AF3D100BF00BF00BF40
:102E00002168143151E8001F21F0010021681431BC
:102E100041E80002002AF3D100BF202084F84100DD
:102E200084F8420000BF002084F8400000BF032067
:102E3000BDE8F081FFE7206800682840A84201D182
:102E4000012000E00020B842C0D00020F0E70000E0
:102E500010B50248FEF7FAFE10BD00005002002037
:102E600000BFFEE70FB4084B10B504A902AA0398EF
:102E700000F038F8044602A9002000F0DDF82046F2
:102E800010BC5DF814FB00003930000802480068EF
:102E9000C0F30220704700000CED00E010B50028E0
:102EA00004DB0A07130E054A135406E00A07140E42
:102EB000034A00F00F031B1FD45410BD00E400E0D0
:102EC00018ED00E002E008C8121F08C1002AFAD17C
:102ED00070477047002001E001C1121F002AFBD19A
:102EE000704700002DE9FF4F89B09B46044600253E
:102EF00006E025280BD05A460B999047641C6D1CA0
:102F000020780028F5D10DB02846BDE8F08F0027C5
:102F1000B8460122474900E0074314F8013F203B2F
:102F200002FA03F00842F7D120782E2819D114F8BC
:102F3000010F47F004072A280ED06FF02F022078E7
:102F4000A0F1300109290CD808EB880102EB4101FE
:102F500000EB0108641CF2E70A98641C50F8048B2B
:102F60000A9020780028CED0642808D0692806D09E
:102F700075281ED05A460B9990476D1C58E00A9947
:102F80004FF00A0901C90A91002802DA40422D21B6
:102F900002E0390504D52B218DF82010012103E032
:102FA000F90704D02021F7E78A4608AE0DE000219A
:102FB000FAE70A994FF00A0901C90A91F7E7494669
:102FC000FDF70AFA303106F8011D0028F7D1ADEB04
:102FD000060000F12009780701D44FF00108C84528
:102FE00002DDA8EB090000E000208046002706E093
:102FF00008A85A46C05D0B9990476D1C7F1C574529
:10300000F6DB04E030205A460B9990476D1CB8F16E
:103010000001A8F10108F5DC05E016F8010B5A469D
:103020000B9990476D1CB9F10001A9F10109F4DC7D
:10303000641C65E7092801000A68531C0B601070C6
:10304000704700000EB5FDF777FFFFF7A4FCFFF710
:10305000DDFAFFF77DFBFFF7E5FBFFF797FBFFF7D7
:1030600003F94FF6FF7080231A46002100900846AE
:10307000FFF7D5F801222E492E48FEF7E1FF2EA1D9
:103080003248FFF7EFFE3148FDF76CF884B2322387
:1030900022462E492748FFF737F82DA12B48FFF786
:1030A000E1FE002010214FF6FF724FF47843CDE986
:1030B00000210290254A0146FFF74EFA37E02948E1
:1030C000008800F40040002831D0002025490988FC
:1030D000C1F30D01244A50541C49104600F05AF81F
:1030E00078B922A11948FDF731F81848FDF73AF8E8
:1030F00084B242F21073224614490E48FFF704F8D6
:103100000EE01BA11148FFF7ADFE1048FDF72AF8AD
:1031100084B242F2107322460C490648FEF7F4FFCF
:1031200000201049088032210F48FDF704F8C6E757
:103130000000002050020020436F6E6E65637469CA
:103140006F6E204F4B210D0A00000000140000207C
:10315000456E746572206D2B6E2062795541525414
:103160002100000002000020460000200D0A00009F
:103170004572726F723A20506C6561736520696E9A
:10318000707574206C696B652027312B31270D0A0F
:10319000000000007FB505460C4602A801AB03AA5B
:1031A0000DA100902846FCF7E5FF032803D19DF808
:1031B00004002B2803D04FF0FF3004B070BDDDE9D0
:1031C000021008440B46009005A12046039AFFF721
:1031D00049FE0020F1E70000256425632564000016
:1031E00025642B25643D25640000000002030405CE
:1031F000060708090A0B0C0D0E0F10100102000043
:103200000000000000000102030406070809000096
:1032100000000102030400000000000000000000A4
:103220000000000000000000000808080808080866
:1032300000001818000000486C2412000000000074
:103240000000000000000000002424247F1212125D
:103250007F12121200000000081C2A2A0A0C1828EB
:10326000282A2A1C080800000022251515152A58AE
:103270005454542200000000000C1212120A762549
:103280002911916E000000060604030000000000F2
:103290000000000000000040201010080808080886
:1032A0000810102040000002040808101010101030
:1032B0001008080402000000000008086B1C1C6BCA
:1032C00008080000000000000000080808087F0847
:1032D00008080800000000000000000000000000D6
:1032E0000000060604030000000000000000FE00CD
:1032F00000000000000000000000000000000000CE
:103300000000060600000000804040202010100849
:103310000804040202000000001824424242424213
:10332000424224180000000000080E08080808089F
:103330000808083E00000000003C424242202010E5
:103340000804427E00000000003C42422018204059
:103350004042221C000000000020302824242222A9
:103360007E20207800000000007E0202021A264023
:103370004042221C0000000000382402021A2642AB
:103380004242241800000000007E2222101008088B
:103390000808080800000000003C424242241824AB
:1033A0004242423C0000000000182442424264585D
:1033B0004040241C0000000000000000181800001D
:1033C00000001818000000000000000000080000C5
:1033D0000000000808040000004020100804020457
:1033E0000810204000000000000000007F000000E6
:1033F0007F000000000000000002040810204020B0
:103400001008040200000000003C42424640201028
:103410001000181800000000001C225A5555555580
:103420002D42221C00000000000808181414243C3F
:10343000224242E700000000001F2222221E2242F8
:103440004242221F00000000007C424201010101B3
:103450000142221C00000000001F22424242424260
:103460004242221F00000000003F4212121E1212B0
:103470000242423F00000000003F4212121E1212A0
:103480000202020700000000003C2222010101713B
:103490002122221C0000000000E7424242427E42FC
:1034A000424242E700000000003E08080808080801
:1034B0000808083E00000000007C101010101010DA
:1034C00010101010110F0000007722120A0E0A12BD
:1034D000122222770000000000070202020202020C
:1034E0000202427F000000000077363636362A2A74
:1034F0002A2A2A6B0000000000E346464A4A52523C
:103500005262624700000000001C224141414141DB
:103510004141221C00000000003F424242423E0264
:103520000202020700000000001C2241414141410B
:103530004D53321C60000000003F4242423E1212D6
:10354000222242C700000000007C424202041820F0
:103550004042423E00000000007F49080808080879
:103560000808081C0000000000E7424242424242B4
:103570004242423C0000000000E742422224241460
:103580001418080800000000006B494949495555C6
:10359000362222220000000000E7422424181818D6
:1035A000242442E7000000000077222214140808B7
:1035B0000808081C00000000007E212010100804EC
:1035C0000442423F0000007808080808080808087C
:1035D000080808087800000002020404080808101F
:1035E000102020204040001E10101010101010104D
:1035F000101010101E0000384400000000000000F1
:1036000000000000000000000000000000000000BA
:103610000000000000FF000608000000000000009D
:10362000000000000000000000000000003C4278A4
:10363000444242FC0000000000030202021A26423B
:103640004242261A00000000000000000038440238
:1036500002024438000000000060404040784442CC
:10366000424264D80000000000000000003C427E9E
:103670000202423C0000000000F08808087E0808B2
:103680000808083E0000000000000000007C222224
:103690001C023C42423C000000030202023A464245
:1036A000424242E700000000000C0C00000E080837
:1036B0000808083E000000000030300000382020DC
:1036C00020202020221E0000000302020272120AA3
:1036D0001612227700000000000E080808080808EB
:1036E0000808083E0000000000000000007F9292E1
:1036F000929292B70000000000000000003B46429A
:10370000424242E70000000000000000003C42424C
:103710004242423C0000000000000000001B264224
:103720004242221E020700000000000000784442CE
:103730004242447840E000000000000000774C0462
:103740000404041F0000000000000000007C42028E
:103750003C40423E0000000000000008083E08080F
:10376000080808300000000000000000006342422A
:10377000424262DC000000000000000000E742243A
:1037800024140808000000000000000000EB494974
:103790005555222200000000000000000076241889
:1037A0001818246E000000000000000000E742240A
:1037B000241418080807000000000000007E2210F2
:1037C0000808447E000000C0202020202010202077
:1037D00020202020C0001010101010101010101009
:1037E000101010101010000608080808081008082B
:1037F0000808080806000C32C200000000000000A3
:1038000000000000000000000000000000000000B8
:1038100000000000000000000000000000000000A8
:103820000000000000000000000000000000000098
:103830000000000000000000000000000000000088
:103840000000000000000000000000000000000078
:10385000C001C001C001C001C001C001C0018000A1
:103860008000800080008000800080000000000058
:10387000000000008001C003C003800100000000C0
:10388000000000000000000000000000E01CE01C40
:10389000F01E700E380718030801840000000000B5
:1038A0000000000000000000000000000000000018
:1038B0000000000000000000000000000000000008
:1038C00000000000000000000000000000000000F8
:1038D000000020102010201020102010FE7FFE7FFE
:1038E0001008100810081008100810081008FE7FB3
:1038F000FE7F08040804080408040804000000000F
:1039000000000000000000000000000000000001B6
:103910000001C00760191031183118391839380101
:103920007001E001C0038007000F001D0039003165
:103930001C311C310C310C11180DE0070001000185
:103940000001000000000000000000000000000076
:1039500000001C1036186308630C630463046302E0
:1039600063026301361D9C3780228063406340639D
:1039700020632063306310221836081C000000000A
:103980000000000000000000000000000000000037
:103990000000F00098018C018C018C018C018C00DE
:1039A000CC007800183E1C08360832086304630413
:1039B000C304C303834306438E26781C0000000023
:1039C0000000000000000000000000001C003C009F
:1039D0003C003000300010000C0006000000000029
:1039E00000000000000000000000000000000000D7
:1039F00000000000000000000000000000000000C7
:103A00000000000000000000000000000040002056
:103A100000100008000C000400060003000300036F
:103A2000800180018001800180018001800180018E
:103A300000030003000300060006000C000800104D
:103A40000020004000000000000000000200040010
:103A500008001000300020006000C000C000C0005E
:103A6000800180018001800180018001800180014E
:103A7000C000C000C00060006000300010000800FE
:103A80000400020000000000000000000000000030
:103A900000000000000000018003800300011C7191
:103AA0003C79783DC0070001C007783D3C791C7126
:103AB000000180038003800100000000000000007E
:103AC00000000000000000000000000000000000F6
:103AD00000000000000000000001000100010001E2
:103AE000000100010001FC7F000100010001000154
:103AF00000010001000100000000000000000000C3
:103B000000000000000000000000000000000000B5
:103B100000000000000000000000000000000000A5
:103B20000000000000000000000000000000000095
:103B30000000000000001C003C003C003000300091
:103B400010000C0006000000000000000000000053
:103B50000000000000000000000000000000000065
:103B6000000000000000FE7F0000000000000000D8
:103B70000000000000000000000000000000000045
:103B80000000000000000000000000000000000035
:103B90000000000000000000000000000000000025
:103BA0000000000000000000000000000000000015
:103BB0000000000018003C003C001800000000005D
:103BC0000000000000000000000000000040006055
:103BD00000200030001000180008000C000400064F
:103BE00000020003000180018000C000400060006E
:103BF000200030001000180008000C00040006002F
:103C000002000000000000000000000000000000B2
:103C10000000C007600C30181830183018200C60F5
:103C20000C600C600C600C600C600C600C600C6034
:103C30001820183018303018600CC0070000000041
:103C40000000000000000000000000000000000074
:103C5000000000018001F8018001800180018001E5
:103C6000800180018001800180018001800180014C
:103C70008001800180018001C003F81F0000000066
:103C80000000000000000000000000000000000034
:103C90000000E007101C0818043004300C300C3011
:103CA00000300018000800040002000180004000FD
:103CB0002020102008200430FC1FFC1F0000000002
:103CC00000000000000000000000000000000000F4
:103CD0000000E003180E0C0C0C180C180C1800183F
:103CE000000C0006C003000E001800100030003069
:103CF0000C300C300C100C18180CE0030000000005
:103D000000000000000000000000000000000000B3
:103D10000000000C000E000E000F800E800E400E02
:103D2000600E200E100E100E080E040E040EFE7F04
:103D3000000E000E000E000E000E000EC07F0000F0
:103D40000000000000000000000000000000000073
:103D50000000F03FF03F10001000100008000800C5
:103D6000C807280C18180810003000300030003048
:103D70000C300C3004180418080CF003000000008C
:103D80000000000000000000000000000000000033
:103D90000000800FC01020301030180018000800FC
:103DA0000C008C0F6C183C301C600C600C600C60BC
:103DB0000C601860182030306018C0070000000048
:103DC00000000000000000000000000000000000F3
:103DD0000000F83FF83F1C100C080408040400041D
:103DE000000200020001000100018000800080004C
:103DF000C000C000C000C000C000C0000000000043
:103E000000000000000000000000000000000000B2
:103E10000000E007300C18180C300C300C301C304F
:103E200038187008E007B007180E0C1C063806306A
:103E30000630063006300C18180CE00300000000B5
:103E40000000000000000000000000000000000072
:103E50000000E00318040C080C18061006300630A9
:103E60000630063006380C3C1836F03100300018A9
:103E7000001800180C0C0C060C03F00100000000E8
:103E80000000000000000000000000000000000032
:103E90000000000000000000000000000000000022
:103EA0008001C003C003800100000000000000008A
:103EB000000000008001C003C0038001000000007A
:103EC00000000000000000000000000000000000F2
:103ED00000000000000000000000000000000000E2
:103EE000C000C00000000000000000000000000052
:103EF0000000000000000000C000C0008000800042
:103F00004000400000000000000000000000000031
:103F10000020001000080004000600038001C0001B
:103F20006000300018000C00180030006000C00075
:103F300080010003000600040008001000200000BB
:103F40000000000000000000000000000000000071
:103F50000000000000000000000000000000000061
:103F6000FE7F00000000000000000000FE7F000057
:103F70000000000000000000000000000000000041
:103F80000000000000000000000000000000000031
:103F900004000800100020006000C0008001000341
:103FA0000006000C001800300018000C000600038A
:103FB0008001C00060002000100008000400000024
:103FC00000000000000000000000000000000000F1
:103FD000C0073018083008600C601C601C601C6052
:103FE0000030001C0006000180008000800080007E
:103FF000000000008001C003C00380010000000039
:1040000000000000000000000000000000000000B0
:104010000000C0076018103018200C2F8C4D864C03
:10402000C64CC64C664C66446644662666266615D3
:10403000CC1C0C40082018303018C00700000000CD
:104040000000000000000000000000000000000070
:104050000001C001C001C001400160032003200332
:1040600020033006100610061006F80F080C080C86
:10407000080C0C0C0418041806181F7C0000000023
:104080000000000000000000000000000000000030
:104090000000FE07181C1838183018301830183077
:1040A0001818180CF807181818301820186018601D
:1040B00018601860186018301818FE0F0000000013
:1040C00000000000000000000000000000000000F0
:1040D0000000C0276038103018200C400C4004004D
:1040E00006000600060006000600060006000600A0
:1040F0000C400C400C2018303018C00700000000A5
:1041000000000000000000000000000000000000AF
:104110000000FE03180E18181830183018301860F8
:1041200018601860186018601860186018601860CF
:104130001830183018101818180EFE030000000070
:10414000000000000000000000000000000000006F
:104150000000FE3F1830182018601840180018089A
:104160001808180CF80F180C180818081800180070
:1041700018001840184018201830FE3F00000000BA
:10418000000000000000000000000000000000002F
:104190000000FE7F1870184018C018801800181012
:1041A00018101818F81F18181810181018001800F0
:1041B000180018001800180018007E000000000009
:1041C00000000000000000000000000000000000EF
:1041D0000000C013701C101018100C200C200400DC
:1041E0000600060006000600060006FC0630063043
:1041F0000C300C30183018303008C00700000000B8
:1042000000000000000000000000000000000000AE
:1042100000003F7E0C180C180C180C180C180C1809
:104220000C180C180C18FC1F0C180C180C180C1877
:104230000C180C180C180C180C183F7E000000000D
:10424000000000000000000000000000000000006E
:104250000000F81F80018001800180018001800141
:104260008001800180018001800180018001800146
:1042700080018001800180018001F81F00000000A2
:10428000000000000000000000000000000000002E
:104290000000E07F0006000600060006000600069B
:1042A00000060006000600060006000600060006DE
:1042B00000060006000600060006000600060E06C0
:1042C0000E038E01FC000000000000000000000052
:1042D00000007E7C18181808180418061802180127
:1042E00098019801D801B803380318071806180E6A
:1042F000180C181C1818183018307EFC000000002C
:1043000000000000000000000000000000000000AD
:1043100000007E001800180018001800180018008F
:1043200018001800180018001800180018001800CD
:1043300018001840184018201830FE3F00000000F8
:10434000000000000000000000000000000000006D
:1043500000001FF81C381C381C381C3C3434343422
:104360003434343674326432643264326431C43189
:10437000C431C431C430C43084309FFC000000001C
:10438000000000000000000000000000000000002D
:1043900000001F7C1C103C1034103410741064108A
:1043A000E410C410C41184118413041304170416F8
:1043B000041E041C041C041C04181F180000000028
:1043C00000000000000000000000000000000000ED
:1043D0000000C003300C181808100C300C300660B8
:1043E000066006600660066006600660066006609D
:1043F0000C200C3008101818300CC003000000000E
:1044000000000000000000000000000000000000AC
:104410000000FE0F18181830186018601860186037
:10442000186018301818F80F180018001800180035
:10443000180018001800180018007E000000000086
:10444000000000000000000000000000000000006C
:104450000000C003300C18180C100C300C20066043
:10446000066006600660066006600660066006601C
:10447000E4612C331C321816300EC007004C007C4F
:1044800000380000000000000000000000000000F4
:104490000000FE07181C1838183018301830183073
:1044A0001818180CF80798031803180718061806A8
:1044B000180E180C180C181C18187E780000000034
:1044C00000000000000000000000000000000000EC
:1044D0000000E027303818300C200C200C000C00B5
:1044E00018007800E003800F001E003800700060A4
:1044F00004600460086018303818C80F000000001D
:1045000000000000000000000000000000000000AB
:104510000000FC3F8C218461824182418001800146
:104520008001800180018001800180018001800183
:1045300080018001800180018001E007000000000F
:10454000000000000000000000000000000000006B
:1045500000003F7C0C100C100C100C100C100C10F8
:104560000C100C100C100C100C100C100C100C106B
:104570000C100C100C1008083804E00300000000B8
:10458000000000000000000000000000000000002B
:1045900000003EF81820182018203010301030107D
:1045A0003010600860086008E00CC004C004C0045B
:1045B00080038003800380030001000100000000ED
:1045C00000000000000000000000000000000000EB
:1045D0000000DFF38661862186218C210C218C234B
:1045E0008C138C138C134C1358125816580E380E0B
:1045F000380E380E300C10041004100400000000B7
:1046000000000000000000000000000000000000AA
:1046100000007E3E18083808300430047002600242
:10462000E001C001C0018001800340034007200673
:104630002006100C100C081808183E7C0000000022
:10464000000000000000000000000000000000006A
:1046500000007E7C1C10181018083008300C700404
:1046600060046002C002C002C001800180018001BC
:1046700080018001800180018001E00700000000CE
:10468000000000000000000000000000000000002A
:104690000000F83F18180818040C040E0006000764
:1046A000000380038001C001C000E00060007000D2
:1046B0003000382018201C100C18FE1F00000000CD
:1046C000000000000000000000000000C03F4000AB
:1046D00040004000400040004000400040004000DA
:1046E00040004000400040004000400040004000CA
:1046F00040004000400040004000400040004000BA
:10470000C03F0000000000000000000000000000AA
:104710000800180018001000300020006000600041
:104720004000C00080008001800100010003000201
:10473000000600060004000C000800180018001015
:10474000003000200000000000000000FC03000218
:104750000002000200020002000200020002000249
:104760000002000200020002000200020002000239
:104770000002000200020002000200020002000229
:10478000FC03000000000000000000008007C006DD
:1047900020081010000000000000000000000000D1
:1047A0000000000000000000000000000000000009
:1047B00000000000000000000000000000000000F9
:1047C00000000000000000000000000000000000E9
:1047D00000000000000000000000000000000000D9
:1047E00000000000000000000000000000000000C9
:1047F00000000000000000000000000000000000B9
:1048000000000000FFFF0000000000007800C00072
:104810000001000000000000000000000000000097
:104820000000000000000000000000000000000088
:104830000000000000000000000000000000000078
:104840000000000000000000000000000000000068
:104850000000000000000000000000000000000058
:10486000F00318060C0C0C0C000C800F700C1C0CC8
:104870000C0C060C060C064C0C4FF838000000001F
:104880000000000000000000000000000000000028
:1048900010001E001800180018001800180018005A
:1048A000180FD81838303860186018601860186011
:1048B00018601860182038307818C8070000000009
:1048C00000000000000000000000000000000000E8
:1048D00000000000000000000000000000000000D8
:1048E000C007700C181818180C180C000C000C00DD
:1048F0000C000C20182018103008C0070000000021
:1049000000000000000000000000000000000000A7
:104910000010001E001800180018001800180018D9
:10492000E01B301C181818180C180C180C180C1850
:104930000C180C180818181C307AE0090000000048
:104940000000000000000000000000000000000067
:104950000000000000000000000000000000000057
:10496000C007300C181808100C300C30FC3F0C003D
:104970000C000C00182018107018C0070000000070
:104980000000000000000000000000000000000027
:104990000000003E80C380C0C0C0C000C000C00096
:1049A000FC1FC000C000C000C000C000C000C000AC
:1049B000C000C000C000C000C000F80F0000000030
:1049C00000000000000000000000000000000000E7
:1049D00000000000000000000000000000000000D7
:1049E000C077306C10181818181818181018300CD8
:1049F000F00718001800F00FF03F08700C600C6012
:104A00000C603838E00F00000000000000000000DB
:104A100010001E00180018001800180018001800D8
:104A2000980FD8183830183018301830183018301F
:104A3000183018301830183018307EFC0000000094
:104A40000000000000000000000000000000000066
:104A500000008003800380030000000000000001CC
:104A6000F8018001800180018001800180018001C6
:104A700080018001800180018001F81F000000009A
:104A80000000000000000000000000000000000026
:104A9000000000380038003800000000000000105E
:104AA000801F0018001800180018001800180018BF
:104AB0000018001800180018001800180018001836
:104AC000180C1806F00300000000000000000000B1
:104AD00010001E0018001800180018001800180018
:104AE000183E180C1806180318019801D80138034D
:104AF00018071806180C181C18187E7C00000000F7
:104B000000000000000000000000000000000000A5
:104B10000001F80180018001800180018001800195
:104B2000800180018001800180018001800180017D
:104B300080018001800180018001F81F00000000D9
:104B40000000000000000000000000000000000065
:104B5000000000000000000000000000000008004D
:104B6000EE1C9C338C318C318C318C318C318C31FE
:104B70008C318C318C318C318C31DE7B000000002B
:104B80000000000000000000000000000000000025
:104B90000000000000000000000000000000100005
:104BA0001E0FD81838301830183018301830183018
:104BB000183018301830183018307EFC0000000013
:104BC00000000000000000000000000000000000E5
:104BD00000000000000000000000000000000000D5
:104BE000C007701C103018300C600C600C600C603A
:104BF0000C600C60183018303018C007000000003E
:104C000000000000000000000000000000000000A4
:104C10000000000000000000000000000000100084
:104C20009E0F5818383018201860186018601860E7
:104C30001860186018303830781898071800180075
:104C4000180018007E0000000000000000000000B6
:104C50000000000000000000000000000000000054
:104C6000C023303C183818300C300C300C300C306D
:104C70000C300C3008301838303CE0330030003055
:104C80000030003000FC00000000000000000000C8
:104C900000000000000000000000000000006000B4
:104CA0007E3C60666061E000E000600060006000E3
:104CB00060006000600060006000FE07000000000F
:104CC00000000000000000000000000000000000E4
:104CD00000000000000000000000000000000000D4
:104CE000E02730381830182018007000E003800FDB
:104CF000001C043004300C301C18EC0F00000000C5
:104D000000000000000000000000000000000000A3
:104D1000000000000000800080008000C000E00073
:104D2000FC1FC000C000C000C000C000C000C00028
:104D3000C000C000C020C0208011000F0000000093
:104D40000000000000000000000000000000000063
:104D50000000000000000000000000000000102023
:104D60001E3C1830183018301830183018301830F1
:104D7000183018301830183830F4E01300000000F4
:104D80000000000000000000000000000000000023
:104D90000000000000000000000000000000000013
:104DA0007E3C18181808380830043004700260027D
:104DB0006002E001C001C001C000800000000000EE
:104DC00000000000000000000000000000000000E3
:104DD00000000000000000000000000000000000D3
:104DE000DFF78E630C238C238C23981398135816AB
:104DF0005816700E700E700E200420040000000083
:104E000000000000000000000000000000000000A2
:104E10000000000000000000000000000000000092
:104E2000FC3E70087004E004C002C00180038003EF
:104E300040076006200C100C18183E7E0000000091
:104E40000000000000000000000000000000000062
:104E50000000000000000000000000000000000052
:104E60007E7C18181808300830083004600460048C
:104E7000C002C002C0028001800180018000800069
:104E800080004C003C00000000000000000000001A
:104E90000000000000000000000000000000000012
:104EA000FC1F0C0C040E0406000380038001C000EC
:104EB000E0007020302038301C18FC1F000000007B
:104EC00000000000000000000000000000300008AA
:104ED00000040004000400040004000400040004B2
:104EE0000004000400028001000200040004000429
:104EF0000004000400040004000400040004000492
:104F00000008003000000001000100010001000164
:104F10000001000100010001000100010001000189
:104F20000001000100010001000100010001000179
:104F30000001000100010001000100010001000169
:104F40000001000100010000000000000C00100042
:104F50002000200020002000200020002000200051
:104F600020002000400080014000200020002000A0
:104F70002000200020002000200020002000200031
:104F800010000C00000000003800C40086400261E0
:104F90000022001C000000000000000000000000D3
:104FA0000000000000000000000000000000000001
:104FB00000000000000000000000000000000000F1
:104FC000000000000000D6D080008000800080003B
:104FD000FC1F84108410841084108410FC1F841023
:104FE0008000800080008000BEB0F80F0808F80F35
:104FF0000808F80F8000FF7F0000F80F0808080875
:10500000F80F80008410A2204000D4B00000FE3FC2
:105010000220F22702200220FA2F2221222122211F
:10502000122912290A2E0220FE3F0220B5E7800035
:1050300080008000FC1F841084108410FC1F8410EA
:1050400084108410FC1F845080408040007FD7D3A0
:105050000000FE1F00080004000280018000FF7FA6
:10506000800080008000800080008000A000400060
:10507000D6D0000000000000001800000800000862
:1050800000000800080818F8FF1F1808181808186A
:10509000180818180818180818180818F8FF1F0812
:1050A00008080008000008000008000008000018B8
:1050B00000001800001800000000BEB00000000052
:1050C0000000400006C0FF07400006C0FF07400088
:1050D00006C0FF07400802003000FEFF3F0000004E
:1050E000C0FF07C00002C00002C00002C0FF038072
:1050F000100080110160100E3010180C1E30001CC2
:1051000000000000D4B0000000000000080030F8EB
:10511000FF1F08001008C010083F1008001008000A
:1051200010080013C8FF10082210082210082210CF
:1051300008221008211208211488601648C013287C
:105140000010080010F8FF1F080010000000B5E76D
:105150000000000000000018000008000008000027
:105160000800F0FF0F1008041008041008041008CD
:1051700004F0FF07100804100804100804100804C5
:10518000F0FF0710080000081000081000082000B9
:10519000183000F01F000000D7D30000000000000E
:1051A000000004F0FF0F00000600000100C0000036
:1051B0002800001800001800001830FEFF7F0018BB
:1051C0000000180000180000180000180000180067
:1051D000001800001800001800001F00000C00005C
:1051E0000000D6D000000000000000000080000099
:1051F00000800100008001000080010000800100AB
:10520000008001001080010CF0FFFF0F30800104CE
:1052100030800104308001043080010430800104BA
:10522000308001043080010430800104F0FFFF076A
:105230003080010430800104008001000080010002
:10524000008001000080010000800100008001005A
:10525000008001000080010000800100008000004B
:1052600000000000BEB000000000000000000000D0
:1052700000000001800100FFFF0100038001000326
:10528000800100FFFF01000380010003800100FF97
:10529000FF0100818100000003000000031CFCFFEF
:1052A000FF3F000040000003C00100FFFF010003BA
:1052B000C0000003C0000003C00000FFFF000001A9
:1052C000410000040100000E71000007810180010F
:1052D00001076000010E1898011C04E0011800C0CD
:1052E000000000000000D4B000000000000000003A
:1052F00000000008F0FFFF1F3000000C3000000C21
:105300003000100C30FE3F0C3004000C3000000C5C
:105310003000000C3000000C3000C00CF0FFFF0D1E
:105320003030060E3030060C3010060C3010060CF3
:105330003010060C3018860C3018860C3008060D1C
:10534000300C860D3006EE0F3002FC0D3001000CE3
:10535000F000000C3000000CF0FFFF0F3000000CDC
:105360001000000400000000B5E70000000000008D
:10537000000000C0000000C0010000C0000000C02C
:10538000000000C0000000C00000E0FFFF0360C09C
:10539000000360C0000360C0000360C0000360C081
:1053A000000360C00003E0FFFF0360C0000360C0B3
:1053B000000360C0000360C0000360C00003E0FFA2
:1053C000FF0360C0000160C0000000C0000800C012
:1053D000001000C0001000C0001800C0013800809C
:1053E000FF1F0000000000000000D7D300000000F5
:1053F000000000000000000000000003C0FFFF07E5
:10540000000080070000C0000000600000001800DD
:1054100000000C00008003000080030000800100F9
:10542000008001080080011CFCFFFF3F008001009C
:105430000080010000800100008001000080010068
:105440000080010000800100008001000080010058
:1054500000800100008001000080010000FC0100CC
:1054600000E000000040000000000000DDDDDDDDA8
:10547000DCBBBBDDDDDDDDDDDDDDDDDD98888888E5
:10548000888888887777777777888888855555568C
:1054900066666666666666666668888883333332E3
:1054A00022222222222222222228888DCC54000865
:1054B0000000002014000000C42E0008E054000882
:1054C0001400002084060000D42E00080000000014
:1054D0000000000010000000010000000024F400A3
:04000005080000ED02
:00000001FF
