:020000040800F2
:100000008807002005010008731D0008AB190008CF
:10001000711D0008A109000831200008000000003F
:10002000000000000000000000000000771D000834
:10003000A309000800000000751D0008791D0008D4
:100040001F0100081F0100081F0100081F01000810
:100050001F0100081F0100081F0100081F01000800
:100060001F0100081F0100081F0100081F010008F0
:100070001F0100081F0100081F0100081F010008E0
:100080001F0100081F0100081F0100081F010008D0
:100090001F0100081F0100081F0100081F010008C0
:1000A0001F0100081F0100081F0100081F010008B0
:1000B0001F0100081F0100081F0100081F010008A0
:1000C0001F0100081F0100081F0100081F01000890
:1000D0001F010008252000081F0100081F0100085B
:1000E0001F0100081F0100081F010008DFF810D0E1
:1000F00000F044FC00480047612C0008AFF300808A
:10010000880700200648804706480047FEE7FEE7CC
:10011000FEE7FEE7FEE7FEE7FEE7FEE7FEE7FEE7B7
:10012000CD1D0008ED000008202A04DB203A21FA4A
:1001300002F00021704721FA02F3D040C2F1200200
:1001400091400843194670472DE9FE4399461546EC
:100150008846074601AC022942D3002D40D000203A
:100160000290A8F101004FF0FF36009022E000FB62
:10017000057201FB057011464A469047002805DCD0
:1001800054F82600304444F8260013E060682A46FC
:1001900000FB057154F8040C00FB057007E00B78B8
:1001A00090F800C001F801CB00F8013B521E002A74
:1001B000F5D1764254F8040C61688842D7DC4B468E
:1001C0002A463846FFF7C0FF54F8040C4B46A8EB0C
:1001D0000001401C00FB05702A46491EFFF7B4FFD2
:1001E000BDE8FE8340EA01039B0703D009E008C98C
:1001F000121F08C0042AFAD203E011F8013B00F8EC
:10020000013B521EF9D27047D2B201E000F8012B37
:10021000491EFBD270470022F6E710B513460A4686
:1002200004461946FFF7F0FF204610BDF0B480EAFF
:100230000102D40F4200B2EB410F02D2024608463F
:1002400011464A0042D0C30DDDB2C1F3C752AD1A08
:10025000202D35DAC1F3160141F4000204B15242F7
:10026000C5F1200602FA06F12A411044B3EBD05F33
:1002700023D0C4B1012DA0EBC35009DCF0BC4FF07A
:10028000004202EAC352DBB200F5000000F04BBAB4
:10029000400000F1807000EBC350A0F1807040EA94
:1002A000D170490009E0490841EAC071A0EBC35090
:1002B00000F50000400800EBC350F0BC00F02ABA83
:1002C0006142012202EB4101001BF6E7F0BC7047DE
:1002D00081F00041AAE780F00040A7E730B480EA4F
:1002E000010202F0004530F0004221F0004013D03E
:1002F00090B1C30DD40DC2F31601C0F31600E41A79
:1003000041F4000140F400027D34914201D3641CA9
:1003100000E04900002C02DA30BC002070474FF4A6
:1003200000000023914201D3891A034340084FEA99
:100330004101F7D151B1914202D14FF0004105E0A6
:1003400002D24FF0010101E06FF0010103EBC45054
:10035000284430BC00F0DEB9420005D0C0F3C752DB
:100360005242914201DC0020704700EBC1507047BF
:100370002DE9FE4F804681EA0300C00F0C46009035
:1003800021F0004123F00045B8EB0200A94105D25D
:100390004046214690461C460B46024623F000404C
:1003A000104347D0270DC7F30A00C3F30A51029048
:1003B000401A019040286BDAC3F3130040F4801B0D
:1003C0000098924620B10023D2EB030A63EB0B0B9B
:1003D00001985946C0F14002504600F07AF90646AD
:1003E0000D4650465946019A00F082F910EB08007C
:1003F0006141002487EA115284EAE7731A4340D02E
:10040000009A62B3019A012A4FEA075215DC001BD9
:1004100061EB02014FF0004202EA0752CDE90042CF
:10042000001C41F5801132462B4600F0B9F903B0AB
:10043000BDE8F08F40462146F9E7001B61EB020161
:10044000001C41F5801300185B412018A2F500172D
:1004500047EB030140EAD570B6196D4111E06D0814
:100460004FEA360645EAC0754FEA0752001B61EBBA
:100470000201001C41F5801149084FEA30000019C3
:10048000514132462B4603B0BDE8F04F00F079B938
:100490000098012240000023D0EB020263EBE073DE
:1004A000009821464FEAE074B8EB000061EB0401CC
:1004B000E9E783F000435BE781F0004158E72DE96D
:1004C000FE4F81EA030404F0004421F0004100944F
:1004D0004FF0000B23F0004350EA01045ED052EAD3
:1004E00003045BD0C3F30A54C1F30A552C44A4F2AD
:1004F000F3340194A0FB0254C1F3130141F48011C1
:10050000C3F3130343F4801301FB024400FB034EC7
:10051000840A970A44EA815447EA8357A4FB076890
:1005200002958D0A05FB07854FEA932C04FB0C54BA
:100530002705029D4FEA065847EA1637B5EB08052E
:100540006EEB070C870E920E47EA811742EA831280
:10055000A7FB0201B6EB0B0164EB00042B0D43EA91
:100560000C335E1844EB1C50DA465146E7FB02019F
:10057000C5F313044FEA0B3343EA14534FEA043232
:10058000019C43EA0603A4F10C040294009CCDE90B
:1005900000B400F005F903B0BDE8F08F002001467B
:1005A000F9E7C10F80EAE0700844CA0796230021EA
:1005B00000F0B9B800F0004220F00040C10DC0F3D7
:1005C000160040F400007F2901DA002070479629C8
:1005D00003DCC1F19601C84001E096398840002A49
:1005E000F4D04042704700F0004230F000400AD0A2
:1005F000C10D01F56071C0F3160042EA0151C20855
:1006000040071143704700200146704701F0004346
:1006100030B421F0004150EA010206D00A0DA2F5E3
:100620006072C1F31301002A02DC30BC0020704765
:10063000440F44EAC104C100E01830BC00EBC250D2
:1006400000F068B830B50B46014600202022012496
:1006500009E021FA02F59D4205D303FA02F5491B90
:1006600004FA02F52844151EA2F10102F1DC30BDA6
:100670002DE9F05F0546002092469B4688460646D7
:10068000814640241BE02846414647462246FFF764
:100690004BFD53465A46C01A914110D31146184695
:1006A000224600F016F82D1A67EB01084F46224645
:1006B0000120002100F00DF817EB00094E41201E2B
:1006C000A4F10104DFDC484631462A464346BDE832
:1006D000F09F202A04DB203A00FA02F10020704744
:1006E0009140C2F1200320FA03F319439040704770
:1006F000202A06DBCB17203A41FA02F043EAE073E6
:1007000006E041FA02F3D040C2F1200291400843D2
:10071000194670470029A8BF7047401C490008BF10
:1007200020F00100704710B4B0FA80FC00FA0CF021
:1007300050EA010404BF10BC704749B1CCF1200459
:1007400021FA04F411FA0CF118BF012121430843E6
:10075000A3EB0C01CB1D4FEA00614FEA102042BF12
:10076000002010BC704700EBC35010440029A4BF08
:1007700010BC7047401C490008BF20F0010010BCAD
:10078000704710B5141E73F1000408DA401C41F1E3
:10079000000192185B411A4301D120F0010010BD05
:1007A0002DE9F04D92469B4611B1B1FA81F202E07B
:1007B000B0FA80F220329046FFF78BFF04460F46D6
:1007C00040EA0A0041EA0B0153465A46084313D057
:1007D000114653EA010019D0C8F140025046FFF714
:1007E000A3FC05460E46504659464246FFF771FFA8
:1007F000084305D0012004E020463946BDE8F08DCD
:100800000020054346EAE0762C4337430A98630507
:10081000E40AA0EB08000022FD0A44EA47540A302B
:1008200002D500200146E9E7010510196941DDE91B
:10083000084500196941BDE8F04DA2E72DE9F04DEA
:1008400081EA030404F0004B21F0004514464FF008
:10085000000A23F0004150EA050220D054EA0102C8
:100860001DD0C5F30A570246C5F31303C1F31300A5
:10087000C1F30A5640F4801543F48013A7EB060831
:10088000101BD64608F2FD3873EB050002D308F1C1
:10089000010801E092185B41B8F1000F03DA002073
:1008A0000146BDE8F08D00204FF4801106468446D5
:1008B0000EE0171B73EB050705D3121B63EB050353
:1008C00006434CEA010C49084FEA300092185B419C
:1008D00050EA0107EDD152EA030012D082EA040087
:1008E00083EA0501084305D0101BAB4106D2012263
:1008F000002306E000224FF0004302E06FF0010207
:1009000053101AEB06004CEB085110EB0A0041EBB8
:100910000B01BDE8F04DFFF734BFC1F30A52C1F33C
:10092000130140F2FF3341F480119A4202DA0020B1
:100930000146704740F233439A42A2F2334202DC4E
:100940005242FFF7F1BBFFF7C4BE000030B5041EF2
:1009500071F1000404DB4FF00044404264EB0101FC
:10096000141E73F1000405DB1C464FF00043524295
:1009700063EB0403994208BF904230BD064C074D1B
:1009800006E0E06840F0010394E80700984710345F
:10099000AC42F6D3FFF7AEFB2C2E00084C2E00081D
:1009A000FEE77047704710B590F821100022022929
:1009B00005D00421816380F82020012010BD01684A
:1009C0000B6823F00E030B6001680B6823F0010332
:1009D0000B6090F84030C46B012101FA03F36360AF
:1009E00080F8211080F82020104610BD10B590F836
:1009F00021100024022903D00421816301243DE059
:100A000001680A6822F00E020A6001680A6822F092
:100A100001020A601A4A0168914201D1012121E0D4
:100A2000174A1432914201D110211BE0144A283296
:100A3000914201D1891515E0114A3C32914201D110
:100A400089140FE00E4A5032914202D14FF48031A6
:100A500008E00B4A6432914202D14FF4801101E068
:100A60004FF08071064A083A5160012180F8211048
:100A7000002180F82010416B01B18847204610BD4D
:100A80000800024070B5044600F004F90546601CF9
:100A900002D004480078044400F0FCF8401BA04257
:100AA000FAD370BD080000202DE9F84FDFF8B891A7
:100AB0000024A9F1040B23460F2709F1040AABF126
:100AC000040EC9E00125A5402A40AA427DD1674E07
:100AD000D1F804C0ACEB0608B44532D014DCBCF14C
:100AE000030F3AD009DCBCF1000F2AD0BCF1010F92
:100AF0001CD0BCF1020F31D11DE0BCF1110F17D099
:100B0000BCF1120F2AD119E0B8F5881F19D006DC04
:100B1000B8F5803F15D0B8F5801F1FD111E0B8F5AA
:100B2000001F0ED0B8F5041F18D10AE0CB6815E0FD
:100B3000CB681B1D12E0CB6808330FE0CB680C3389
:100B40000CE08B682BB1012B4FF0080303D04561FB
:100B500004E0042302E0056100E00023FF2A01D83D
:100B6000064601E000F104064FEA840501D9A5F12B
:100B70002005D6F8008007FA05FC28EA0C0803FADD
:100B800005F548EA0508C6F800804D68ED0062D515
:100B9000374DAE6946F00106AE61AD6924F003063B
:100BA00005F001050095334D06EB050CDCF8085007
:100BB000A607360F07FA06F825EA0805DFF8B88019
:100BC000404503D14FF0000817E044E0DFF8AC8067
:100BD000404502D14FF001080FE0DFF8A480404506
:100BE00002D14FF0020808E0DFF89880404502D1BA
:100BF0004FF0030801E04FF0040808FA06F848EA4D
:100C00000508CCF808804D68D9F80060ED024D4623
:100C100001D5164300E096432E604D68DAF8006077
:100C2000AD02554601D5164300E096432E604D684F
:100C3000DBF80060AD035D4601D5164300E0964346
:100C40002E604D68DEF80060ED03754601D5164351
:100C500000E096432E60641C0D682A46E5407FF450
:100C600031AFBDE8F88F000008040140000011100A
:100C7000001002400000014000080140000C01404B
:100C800000100140001401400AB1016170470904DD
:100C9000FBE7000001488068704700000800002062
:100CA00070B5040025D094F83D00002520B984F8E3
:100CB0003C50204600F04EF9242084F83D00206886
:100CC000016821F0010101602068016841F40041E0
:100CD00001602068016821F40041016000F096FA8B
:100CE0004D4A6168914201D84C4900E04C49884224
:100CF00001D2012070BD4B492368B0FBF1F15E6861
:100D000026F03F060E435E606368934206D94FF4B7
:100D1000967359434FF47A73B1FBF3F12368491C7E
:100D20001E6A26F03F06314319626168914210D86D
:100D30004900401EB0FBF1F2521CC2F30B02042A20
:100D400001D2042022E0B0FBF1F0401CC0F30B0004
:100D50001CE0A268F2B301EBC10303EB0116431ED2
:100D6000B3FBF6F35B1C43F480431B0549D092B3FD
:100D700001EBC10202EB0111401EB0FBF1F0401C7F
:100D8000C0F30B0040F4804040F400402168CA6981
:100D90004CF6FF739A431043C861D4E9071001432E
:100DA0002068026822F0C00211430160D4E9030107
:100DB00001432068826848F2FF339A4311438160FF
:100DC000D4E9050108432168CA6822F0FF021043F4
:100DD000C86001E00EE016E02068016841F0010102
:100DE00001602564202084F83D00256384F83E508E
:100DF000002070BD01EB4106431EB3FBF6F35B1C04
:100E0000B3E70120C2E701EB4101401EB0FBF1F066
:100E1000401CC0F30B00B7E7A086010080841E00D1
:100E200000093D0040420F002DE9F84F1F46904653
:100E30008A460446DDF82890FFF72CFF054694F813
:100E40003D0020287FD119230122404920460095EA
:100E500000F03EFE002876D194F83C00012872D0C4
:100E6000012084F83C0020680168C90703D10168AB
:100E700041F0010101602068016821F40061016016
:100E8000212084F83D00102084F83E0000262664CE
:100E9000C4F824806785608D20852D48E0622B464C
:100EA0004A465146204600F099FD90B920684169B4
:100EB0008069009036E02A464946204600F0AEFEA2
:100EC00050B1206C042804D12068016841F40071FD
:100ED00001600120BDE8F88F606A21680078086130
:100EE000606A401C6062618D491E6185218D491ECA
:100EF00089B2218522685369DB435B070BD451B16A
:100F000000781061606A401C6062608D401E6085E0
:100F1000208D401E20852A464946204600F0ACFD23
:100F20000028CED1208D0028C5D154F83D0B016892
:100F300041F400710160202004F81E09E67766770D
:100F40000020C7E7FFE70220C4E70000020010000E
:100F50000000FFFF10B586B00021009101910291C1
:100F6000039100680F4988421AD10F4CA06940F0E4
:100F70000800A061A069694600F008000490C02044
:100F8000009012200190032003900848FFF78CFD89
:100F9000E06940F40010E061E06900F400100490A2
:100FA00006B010BD0054004000100240000C01408B
:100FB000024881680278114481607047080000206F
:100FC000074810B5016841F010010160032000F0EE
:100FD00075F8002000F006F800F024F8002010BD9D
:100FE0000020024070B50D4D04464FF47A71287808
:100FF000B1FBF0F00A490968B1FBF0F000F0DCFA4F
:1010000048B9102C07D200222146501E00F036F8B5
:1010100000206C6070BD012070BD00000800002041
:10102000140000200C4808B5816941F0010181617C
:10103000816901F001010091C16941F08051C161F4
:10104000C06900F0805000900448416821F0E061E0
:1010500041F00071416008BD0010024000000140F5
:10106000002809DB00F01F020121914040098000A7
:1010700000F1E020C0F8001170470000F0B40E4B02
:101080001B680C46C3F30223C3F10705042D00D9E6
:101090000425191D072901D2002300E0DB1E0126CB
:1010A00006FA05F1491E214099409E40761E1640E1
:1010B0003143F0BC00F0CEBF0CED00E0064900F07B
:1010C000070208684FF6FF03184040EA0220034A6F
:1010D00010430860704700000CED00E00000FA05C6
:1010E0002DE9F0470F46050061D0434E306800F00F
:1010F0000700B84209D2306820F00700384330605A
:10110000306800F00700B84251D128683B4C810795
:1011100012D5400703D5606840F4E060606028782D
:10112000000703D5606840F4605060606068A9689B
:1011300020F0F000084360602878C00728D0686875
:10114000012810D02168022810D0890700292EDA42
:10115000616821F0030101436160FFF79BFD804658
:1011600041F288390DE021688903EFE78901EDE755
:10117000FFF790FDA0EB0801494502D90320BDE827
:10118000F0876068696800F00C00B0EB810FEFD168
:10119000306800F00700B8420BD9306820F0070033
:1011A00038433060306800F00700B84201D00120B9
:1011B000E5E72878400705D56068E96820F4E06035
:1011C000084360602878000706D56068296920F424
:1011D000605040EAC100606000F038F86168084A79
:1011E000C1F30311515CC840064908600648006815
:1011F000FFF7F8FE0020C2E7002002400010024086
:10120000122E0008140000200C000020044805499C
:1012100000684968044AC1F30221515CC840704724
:101220001400002000100240222E00080448054946
:1012300000684968044AC1F3C221515CC840704744
:101240001400002000100240222E00080E4A5168AF
:101250000E4801F00C03042B11D0082B0FD10C48C1
:10126000C1F38343C903C05C0AD55168084AC1F37E
:101270004041921E515C054A5043B0FBF1F070476B
:1012800004494843704700000010024000127A00F1
:10129000022E000800093D002DE9F84F040070D02F
:1012A0002078C04DC00749D06868C0F3810001288C
:1012B00007D06868C0F38100022809D16868C003BC
:1012C00006D52868800339D560680028E7D035E066
:1012D0006068B0F5803F0BD010B1B0F5A02F11D0F1
:1012E000286820F480302860286820F4802002E0FC
:1012F000286840F480302860606890B1FFF7CAFC2D
:1013000006460AE0286840F480202860F0E700BF25
:10131000FFF7C0FC801B642873D828688003F7D5CA
:101320000CE0FFF7B7FC064605E000BFFFF7B2FC94
:10133000801B6428F0D828688003F7D420789A4E60
:1013400080074FF001094FF0000839D5686810F0A8
:101350000C0F07D06868C0F38100022809D16868C3
:10136000C00306D42868800714D52069012808D155
:1013700010E02069B0B1C6F80090FFF78BFC07467B
:1013800005E00AE1FFF786FCC01B0228C4D82868E4
:101390008007F7D52868616920F0F80040EAC100AD
:1013A00028600DE0C6F80080FFF774FC074604E0F3
:1013B000FFF770FCC01B022823D828688007F7D4E9
:1013C000207800072CD57948A169D9B1C0F80090E0
:1013D000FFF760FC074604E0FFF75CFCC01B022837
:1013E0000FD8686A8007F7D571484FF4FA51006842
:1013F000B0FBF1F0009000BF0098411E0091FAD2BE
:101400000EE080E0C0F80080FFF744FC074604E0EF
:10141000FFF740FCC01B022875D8686A8007F7D424
:101420002078400760D5E8690027C00008D4E86943
:1014300040F08050E861E869012700F0805000909A
:101440005C480168C90513D40168834641F4807182
:101450000160FFF71FFC824606E000BFFFF71AFCA1
:10146000A0EB0A0064284ED8DBF80000C005F5D5D3
:10147000E06801280AD008B1052813D0286A20F0B6
:1014800001002862286A20F0040002E0286A40F087
:1014900001002862E06841F2883B98B1FFF7FAFB4F
:1014A00082460BE0286A40F004002862EEE700BFA5
:1014B000FFF7F0FBA0EB0A0159455AD8286A8007CC
:1014C000F6D50CE0FFF7E6FB824605E0FFF7E2FB0E
:1014D000A0EB0A0159454CD8286A8007F6D41FB101
:1014E000E86920F08050E861E06988B36968C1F379
:1014F0008101022944D00228C6F8608004D0FFF799
:10150000C9FB044638E034E0FFF7C4FB074604E0BB
:10151000FFF7C0FBC01B02282BD828688001F7D436
:10152000206AB0F5803F05D16868A16820F40030DA
:1015300008436860D4E908010843696821F474111C
:1015400008436860C6F86090FFF7A4FB044606E015
:1015500025E000BFFFF79EFB001B022809D8286882
:101560008001F7D51BE000BFFFF794FB001B0228AA
:1015700002D90320BDE8F88F28688001F4D40EE07A
:101580000128F7D06868226A00F48031914204D1C2
:10159000616A00F47010884201D00120EAE700205F
:1015A000E8E700000010024000004242800442428E
:1015B000140000200070004010B5401EB0F1807F84
:1015C00001D3012010BD4FF0E02460610F216017AE
:1015D00000F040FD0020A06107202061002010BD28
:1015E00070477047F8B5016804460868CA684B69D7
:1015F00010F00F0F4FF0000559D003F0010602F470
:101600009077374365D0C10705D0D10503D5616C0C
:1016100041F001016164410705D5D90703D0616C30
:1016200041F002016164810705D5D90703D0616CDF
:1016300041F004016164010707D502F02001314344
:1016400003D0616C41F008016164616C00293AD0FB
:10165000800604D5900602D5204600F00AFC2068DA
:101660004069616CC0F38010090700D460B3204664
:1016700000F0D8FB20684069400621D5206814306E
:1016800050E8001F21F0400140E80012002AF5D187
:10169000E06BA8B16D494163E06BFFF7A7F9002843
:1016A00011D0E06B416B01B0BDE8F0400847830604
:1016B0000FD593060DD52046BDE8F84000F0D9BB04
:1016C0002046FFF78EFFF8BD2046FFF78AFF6564CE
:1016D000F8BD266B2023012E7CD1C6067AD5D6060E
:1016E00078D508684868009048694FF002064006BF
:1016F00040D5E16B086840680004000CE8D0A28D7A
:101700008242E5D9E085886920282DD020680C30F8
:1017100050E8001F21F4807140E80012002AF5D142
:101720002068143050E8001F21F0010140E8001249
:10173000002AF5D12068143050E8001F21F0400144
:1017400040E80012002AF5D184F842302563206871
:101750000C3050E8001F21F0100140E80012002A70
:10176000F5D1E06BFFF71FF96663A08DE18D401A9C
:1017700081B22AE0A08DE18D401A81B2E08D00286F
:10178000A6D00029A4D022680C3252E8000F20F421
:10179000907042E80007002FF5D12068143050E81F
:1017A000002F22F0010240E80027002FF5D184F835
:1017B0004230256320680C3050E8002F22F01002E0
:1017C00040E80023002BF5D166632046FFF708FFB1
:1017D000F8BDFFE705062BD5150629D594F841007D
:1017E0002128F5D1A068B0F5805F01D12069B0B1A2
:1017F000206A411C2162216800784860E08C401E0C
:101800000004000CE084E3D12068C16821F080016D
:10181000C1602068C16841F04001C160D8E7206A1A
:101820000088C0F308004860206A801C2062E5E759
:101830004006CDD55006CBD5CA68204622F04002DE
:10184000CA6084F8413000F0AFF8C1E7151E000807
:1018500070B5040004D094F84100002510B106E0F2
:10186000012070BD84F84050204600F023F8242069
:1018700084F841002068C16821F40051C16020460D
:1018800000F058FB2068016921F490410161206853
:10189000416921F02A0141612068C16841F4005189
:1018A000C1606564202084F8410084F842006563CB
:1018B000002070BD30B585B00024009401940294DE
:1018C00003940068184988422CD11848816941F472
:1018D00080418161816901F480410491816941F015
:1018E000040181618069124D00F0040004904FF4FE
:1018F0000070009002200190032003906946284662
:10190000FFF7D2F82815CDE900046946284602946D
:10191000FFF7CAF8002201212520FFF7AFFB2520A1
:10192000FFF79EFB05B030BD0038014000100240BB
:101930000008014090F84230202B01D0022070476F
:1019400021B11AB10023036300F050BB012070479E
:10195000124830B441880A0416D402464C04127866
:101960004FF0000304D50A2A0DD141F4004113E0E1
:101970000D2A0FD0C1F30D04094D491C89B22A5517
:101980004180C72900D9438030BC01220349054862
:10199000FFF7D0BF41F480414180F5E7000000200F
:1019A000200000203C0100207047FEE701684A69E2
:1019B000D24352050FD46FF480624A61002140F88F
:1019C000301F202242738173026942F004020261D7
:1019D000017301207047002070470000F8B50446ED
:1019E000C06A1E460D461746082807D0012805D0B4
:1019F00010F5803F02D0206B122804D120680168C6
:101A000041F480710160134600224FF0011120461D
:101A1000009600F05DF840B120680068C00502D56E
:101A20004FF4007020640320F8BD2069B0F5804FAA
:101A30000ED00620216800EAD51040F0F0000861C1
:101A400033463A460B49204600F08AF878B902E05E
:101A500005F0FE0000E0E8B2216808610549334660
:101A60003A46891F204600F07BF80028DCD0012090
:101A7000F8BD00000800010070B516460D4604468A
:101A80001EE02046FFF792FF08B1012070BD681CE0
:101A900016D0FFF7FFF8801BA84200D885B9206850
:101AA0004069C04340070BD5002044F8300F202187
:101AB0006173A073216941F0200121612073E4E783
:101AC00020684069C0434007DBD4002070BD00009F
:101AD0002DE9F047984617460D460446C1F30746E0
:101AE000DDF820902AE000BFB8F1FF3F26D0FFF7D5
:101AF000D1F8A0EB0901414502D8B8F1000F1DD182
:101B00002068012E16D0806925EA00000004000C30
:101B100012D00020B84211D1002044F8300F20210B
:101B20006173A073216941F02001216120730120BC
:101B3000BDE8F0874069E7E70120EBE72068012E68
:101B40000AD0806925EA00000004000C06D00020BD
:101B5000B842C9D00020EBE74069F3E70120F7E77E
:101B60002DE9F047984616460D4604464FF0000909
:101B70004FF0200AC1F3074723E020684069C043C3
:101B8000400515D42068016841F4007101602168A6
:101B90006FF480604861C4F8309084F83DA084F808
:101BA0003E90216C41F00401216484F83C9021E0D6
:101BB000701C06D0FFF76EF8A0EB0800B04203D807
:101BC00016B1012F1FD021E02068012F15D08069A8
:101BD00025EA00000004000C18D000BF44F8309F34
:101BE00084F80DA084F80E90216941F02001216154
:101BF00084F80C900120BDE8F087406925EA0000D8
:101C00000004000CEAD12068406901E02068806986
:101C100025EA00000004000CAFD1ECE770B51646D1
:101C20000D4604461EE02046FFF7C0FE08B1012025
:101C300070BD681C16D0FFF72DF8801BA84200D895
:101C400085B920684069C04300060BD5002044F8E0
:101C5000300F20216173A073216941F020012161BF
:101C60002073E4E720684069C0430006DBD400200D
:101C700070BD0000F0B585B000241C4800940194AC
:101C800002940394816941F020018161816901F02E
:101C900020010491816941F004018161816901F0B1
:101CA00004010491816941F0080181618069104F4C
:101CB00000F008004FF44676049000223146384682
:101CC000FEF7E2FFF02002258DE831006946094861
:101CD000FEF7EAFE01AA0120009682E8310069467B
:101CE0003846FEF7E1FE05B0F0BD000000100240EE
:101CF000000C0140000801400D4810B50B4901607F
:101D00000C49416000214FF480428160C0E9031218
:101D100041618161C1610162FEF7C2FF002803D009
:101D2000BDE81040FEF73EBE10BD0000005400406C
:101D3000E8000020A08601000C4810B50A490160A7
:101D40004FF416514160002181600C22C160C0E94E
:101D500004128161C161FFF77BFD002803D0BDE85B
:101D60001040FEF71FBE10BD003801403C010020AE
:101D7000FEE7704770477047FFF71AB930B58FB06C
:101D800028216846FEF747FA14210AA8FEF743FA0D
:101D900001210804CDE900100024029402250491D9
:101DA000CDE907504FF4E01009906846FFF774FA48
:101DB0000F20CDE90A056802CDE90C4002210AA8EE
:101DC0000E94FFF78DF90FB030BD00000D4801688B
:101DD00041F00101016041680B4A11404160016816
:101DE0000A4A11400160016821F4802101604168C4
:101DF00021F4FE0141604FF41F0181600449C003DA
:101E000008607047001002400000FFF8FFFFF6FE78
:101E100008ED00E010B5406A0021C185C184FFF7DC
:101E2000E0FB10BD01680C3151E8002F22F49072E4
:101E300041E80023002BF5D10168143151E8002F4F
:101E400022F0010241E80023002BF5D1016B0129AA
:101E500009D101680C3151E8002F22F0100241E84D
:101E60000023002BF5D1202180F8421000210163CE
:101E7000704708B590F84210222901D0022008BD11
:101E800082684FF480539A4201D1016921B1816A7D
:101E90009A421BD04AB10AE00268816A5268C2F3D2
:101EA00008020A80816A891C08E0026972B102682E
:101EB000526802F07F020A70816A491C8162C18DFA
:101EC000491E0904090CC18503D01BE00268526851
:101ED000F1E70168CA6822F02002CA600168CA6896
:101EE00022F48072CA6001684A6922F001024A61E4
:101EF000202180F8421000214163026B012A03D0A7
:101F0000FFF726FD002008BD016301680C3151E890
:101F1000002F22F0100241E80023002BF5D10168C8
:101F20000A68D20602D50A6849680091818DFFF7D8
:101F300057FBE7E770B5044600680169E26821F4E1
:101F40004051114301612169A06808436169084358
:101F50002168CA6841F20C639A430243CA60206850
:101F60004169A26921F44071114341611E49206811
:101F7000884202D1FFF75AF901E0FFF747F900EB79
:101F8000C00101EB0012606864218000B2FBF0F335
:101F9000B3FBF1F36FF018067343B2FBF0F5B2FB3D
:101FA000F0F605EB8305322303EB0515B5FBF1F5E0
:101FB000B6FBF1F605F0F00505EB0615B2FBF0F601
:101FC000B2FBF0F0B0FBF1F06FF01802504306EBFB
:101FD000800003EB0010B0FBF1F0216800F00F006F
:101FE0002844886070BD000000380140816282850D
:101FF000C28500214164222180F84210016921B18B
:102000000168CA6842F48072CA6001684A6942F095
:1020100001024A610068C16841F02001C1600020EE
:10202000704700000148FFF7DDBA00003C010020C6
:10203000FEE700000FB4054B10B503A9044A02984F
:1020400000F0EAF810BC5DF814FB0000E92A000873
:10205000040000200907090E002804DB00F1E0203D
:1020600080F80014704700F00F0000F1E02080F8C5
:10207000141D704702E008C8121F08C1002AFAD1D7
:1020800070477047002001E001C1121F002AFBD1F8
:10209000704700002DE9FF5F82B00021DDE90430C8
:1020A000020DDDF840B0034318D044F61050A2F200
:1020B000FF3242431514119801281FD0A5EB0B00E5
:1020C000401C5FEA000A4FF000064E4FDFF83891DF
:1020D000B046504615D5CAF1000413E0119801240A
:1020E0004AA3012801D16FEA0B010298119AC0E9B5
:1020F0000031C0E9024206B0BDE8F09FCBF100001C
:10210000DFE704460021404A491842EB0450CDE97C
:10211000001012E0E00707D032463B4640464946F1
:10212000FEF7CDF98046894632463B4610461946B1
:10213000FEF7C5F906460F466410002CEAD1DDE92A
:102140000401DDE90023BAF1000F06DAFEF7B7F962
:1021500042464B46FEF7B3F905E0FEF76FFB4246F9
:102160004B46FEF76BFB04460E460022284BFEF75B
:10217000EDFB03D84FF0FF30014607E00022254B6E
:1021800020463146FEF7F4F8FEF7C7FB102409E0BD
:10219000002C0ADB0A220023FEF76AFA039B303286
:1021A0001A55641E50EA0102F2D1641C039AC4F16C
:1021B00011031444119A012A03D0012208430DD1BE
:1021C0000AE0084304D000204FF0110B119072E791
:1021D000A3EB0B056D1E0DE05B4504DD4FF0000227
:1021E00005F1010504E003DA4FF00002A5F1010555
:1021F000002AECD002981199C0E90231C0E90045EB
:1022000079E70000000014400000F03F30000000BB
:102210000000F0430000E03F2DE9FF4F95B09A46E3
:10222000884606460025EEE1252877D1002427467A
:10223000F94A0121039400E0044316F8013F203BD2
:1022400001FA03F01042F7D130782A2811D06FF04C
:102250002F033078A0F13002092A16D8039A44F0EF
:10226000020402EB820203EB42021044761C03904C
:10227000EFE758F8042B0392002A03DA504244F4A3
:102280000054039044F00204761C30782E2816D1B6
:1022900016F8010F44F004042A280DD06FF02F0225
:1022A0003078A0F13003092B09D807EB870302EB44
:1022B0004303C718761CF3E758F8047B761C307884
:1022C0006C280FD006DC4C2817D068280DD06A285F
:1022D00014D104E0742810D07A280FD10DE044F412
:1022E00000140AE044F4801401E044F440147278CD
:1022F000824202D104F58014761C761C3078662860
:102300000BD013DC582877D009DC002875D045287D
:10231000F6D04628F4D047281AD193E118E0632874
:1023200035D0642879D0652812D18BE1702873D01C
:1023300008DC6728F1D069286FD06E280DD06F288F
:1023400006D1ACE073282CD0752874D0782853D0EF
:102350005246179990476D1C54E1C4F3025002286D
:1023600009D003280DD0D8F8001004280DD00D6036
:1023700008F1040846E1D8F80010EA17C1E9005254
:10238000F6E7D8F800100D80F2E70D70F0E718F8C6
:10239000041B8DF8001000208DF80100EB46012091
:1023A00003E058F804BB4FF0FF3061074FF0000125
:1023B00002D40DE009F101018946B9420FDA8145E5
:1023C000F8DB1BF809100029F4D108E009F101013C
:1023D00089468142FADB1BF809100029F6D10398DF
:1023E0005346A0EB090721463846179A00F080FAB9
:1023F000284400EB090507E044E008E10DE01BF884
:10240000010B524617999047B9F10109F7D253468B
:1024100021463846179AF2E039E00A21C4F3025205
:102420004FF0000B0091022A06D058F8040BC11798
:10243000032A09D00AE023E008F1070020F0070290
:10244000F2E80201904605E000B2C117042A01D16A
:1024500040B2C117002906DA0A460021404261EB6A
:1024600002012D2202E0220504D52B228DF8042042
:10247000012203E0E20701D02022F7E7914657E06E
:102480000A2100E010214FF0000B00910BE0102119
:102490004FF0000B44F004040827009103E00820EB
:1024A0004FF0000B0090C4F30252022A05D058F8F6
:1024B000040B0021032A08D008E008F1070020F0EF
:1024C0000702F2E80201904603E080B2042A00D13C
:1024D000C0B24FF0000922072AD53278702A07D0FF
:1024E000DDF800C08CF0100C5CEA0B0C05D00EE09F
:1024F00040228DF80420012208E050EA010306D0B2
:1025000030238DF804308DF8052002229146009B7F
:1025100083F0080353EA0B030AD150EA010201D108
:10252000620705D530228DF804204FF001097F1E87
:102530003278582A04D039A20C920CAA02920BE0ED
:102540003BA2F9E75B46009AFEF792F80C9B9B5C76
:10255000029A521E0292137050EA0102F2D10298BE
:1025600004A9081A00F1200B600702D524F4803476
:1025700000E001275F4502DDA7EB0B0000E0002033
:1025800000EB0B01009003984944401A0390E003CC
:1025900006D453462146179A039800F0A9F905443A
:1025A000002706E001A85246C05D179990476D1CB0
:1025B0007F1C4F45F6DBE0030CD553462146179AA6
:1025C000039800F095F9054404E03020524617992D
:1025D00090476D1C0099481E00900029F5DC08E02A
:1025E0000298029952460078491C02911799904727
:1025F0006D1CBBF10001ABF1010BF1DC5BE100F004
:1026000065F90544761C307800287FF40DAE19B0CA
:102610002846BDE8F08F0000092801003031323330
:10262000343536373839616263646566000000000E
:1026300030313233343536373839414243444546F8
:1026400000000000600700D4062708F1070020F012
:102650000700F0E80223804603F0004C5FEA0C001C
:1026600001D097A009E0200501D596A005E0E0077C
:1026700001D095A001E0AFF24C001390307823F028
:10268000004365280CD006DC452809D046281DD01B
:1026900047287FD13BE0662818D067287AD136E0FA
:1026A0000021112F01DB112000E0781CCDE9000191
:1026B00004A90CA8FFF7EEFCDDE90D010C9A4FF020
:1026C000000B07F10109109200914EE04FF000401D
:1026D0000097CDE9011004A90CA8FFF7DBFCDDE9A8
:1026E0000D020C9B0F994FF0000B91461093009236
:1026F00011B9791C00EB0109B7EB090003D4C0F153
:10270000FF3B07F10109A9EB0700019042E0012F0F
:1027100000DA01270021112F01DD112000E03846E9
:10272000CDE9000104A90CA8FFF7B4FCDDE90D0117
:102730000C9A00914FF0000BB946109221070FD46C
:10274000009A4A4503DA914601E0A9F10109B9F17D
:10275000010F05DD109AA9F10101515C3029F4D077
:10276000B84202DA10F1040F03DA0121CDE90110B9
:1027700010E0002803DC8344A9EB000102E0411CC7
:10278000494500DD8946A0EB0B00401C01904FF04D
:1027900000400290200705D40198484502DB4FF025
:1027A000FF30019000208DF84B0002980DF14B078F
:1027B000B0F1004F25D002200C902B200D900298F4
:1027C00000280CDA404202902D200D9007E00A21EB
:1027D0000298FDF737FF3031029007F8011D0C9980
:1027E000481E0C900029F2DC02980028EFD1791ED7
:1027F0000D980870307800F0200040F0450007F890
:10280000020D11A8C01BC01D02901398007800B1E2
:10281000012000EB0901019801EBE07102980144ED
:102820000398401A401E0390E00306D45346214605
:10283000179A039800F05CF805441398007818B1D3
:102840005246179990476D1CE00323D55346214605
:10285000179A039800F04CF805441BE0BBF1000FF9
:1028600007DB0098584504DD1098179910F80B0005
:1028700001E0179930205246904701980BF1010B67
:10288000401E05F10105019004D12E2052461799F2
:1028900090476D1CB9F10001A9F10109DEDC05E0EA
:1028A00017F8010B5246179990476D1C0299481E64
:1028B00002900029F4DC53462146179A03989EE6BD
:1028C0002D0000002B000000200000002DE9F04149
:1028D000044600251E461746880404D405E0394600
:1028E0002020B0476D1C641EF9D52846BDE8F08154
:1028F0002DE9F041044600251E469046C80301D547
:10290000302700E02027880404D505E041463846FA
:10291000B0476D1C641EF9D52846BDE8F081000063
:102920002DE9F04F95B0502254496846FDF75AFC06
:1029300014254FF00508502000F0BCF982465020C5
:1029400000F0B8F90746502000F0B4F9064600241C
:10295000A8F10109EB464C4504DA5BF824104AF86B
:10296000241009E0A4EB08010BEB81004146001D97
:1029700000F004FA4AF82400641CAC42EBDB009837
:1029800001243860FDF72FFE4FF066323C4BFDF717
:1029900096FD834614915DF82400FDF724FE4FF068
:1029A0003332384BFDF78BFD5A46149BFDF7E0FCA4
:1029B000FDF72CFE47F82400641CAC42E2DB002447
:1029C000EB4601E04C4504DA5BF8241046F824108D
:1029D00009E0A4EB08010BEB81004146001D00F06B
:1029E0009FF946F82400641CAC42EBDB26A0FFF7FD
:1029F00021FB00245AF82400FDF7F5FD02460B46A2
:102A000026A0FFF717FB641CAC42F3DB25A0FFF701
:102A100011FB25A0FFF70EFB5FF0000457F8240020
:102A2000FDF7E1FD02460B461CA0FFF703FB641C0B
:102A3000AC42F3DB1BA0FFF7FDFA22A0FFF7FAFA86
:102A40005FF0000456F82400FDF7CDFD02460B466A
:102A500012A0FFF7EFFA641CAC42F3DB11A0FFF702
:102A6000E9FA304600F04CF8384600F049F8504694
:102A700000F046F815B0BDE8F08F0000B02D00085A
:102A80006666E63F3333D33FD2C6B6AFC6BDBEF9A6
:102A9000C2CBB2A8BDE1B9FB3A0A0000252E3266CE
:102AA000200000000A000000D6B8CAFDBCD3C8A8A8
:102AB000D2C6B6AFC6BDBEF9C2CBB2A8BDE1B9FBA6
:102AC0003A0A0000D6D0D6B5C2CBB2A8BDE1B9FB58
:102AD0003A0A000010B509680068FDF7F9FBBDE887
:102AE0001040FDF767BD000004490A685206FCD596
:102AF000024AC1B2121D1160704700000038014047
:102B000010B5002821D0114B0022001F196803E0E6
:102B1000814203D80A4649680029F9D152B11368A5
:102B2000841A9C4204D1006818441060104602E0E8
:102B3000506000E0186039B102680B1A934203D16B
:102B40000B681A4402604968416010BD18000020FB
:102B500010B5802000F044F80024202000F060F838
:102B6000641C462CF9DB10BD10B53220FDF78AFF3E
:102B7000302000F035F80520FDF784FF302000F00C
:102B80002FF80120FDF77EFF302000F029F80A2001
:102B9000FDF778FF202000F023F80A20FDF772FFF0
:102BA000282000F01DF80120FDF76CFF082000F040
:102BB00017F80120FDF766FF012000F011F8012051
:102BC000FDF760FF0120FDF75DFF062000F008F82B
:102BD0000120FDF757FFBDE810400C20AFF3008047
:102BE0001CB500F0F00141F00C028DF8042041F01A
:102BF000080100018DF8051040F00C018DF8061059
:102C000040F008008DF8070064200090042301AA1A
:102C10004E210248FEF708F91CBD0000E800002024
:102C20001CB500F0F00141F00D028DF8042041F0D8
:102C3000090100018DF8051040F00D018DF8061016
:102C400040F009008DF8070064200090042301AAD9
:102C50004E210248FEF7E8F81CBD0000E800002005
:102C6000FEF7AEF9FFF78AF8FFF704F8FFF744F82C
:102C7000FFF762F8FEF70EF8012209490948FEF74E
:102C800059FE09A0FFF7D6F9FFF76EFFFFF760FFC7
:102C90004FF4FA70FDF7F6FEFFF742FEFEE7000084
:102CA000000000203C010020C1ACBDD3B3C9B9A6CF
:102CB000A3A10A00F0B50B30154D20F00701002448
:102CC000144A0FE003688B420BD38B4205D95E1A7E
:102CD00043184768C3E9006700E04368136002C017
:102CE00004E0021D10680028ECD12046002802D123
:102CF000286808B10020F0BD064A07481060074A5E
:102D0000121A22F00702C0E9002401202860D7E748
:102D10001C000020180000208C01002088030020E7
:102D200010B586B00C460022694604E050F8223007
:102D300041F82230521CA242F8DB0F4B04222146FC
:102D40006846FDF701FA04EBD4704FEA60006A466A
:102D5000E10702EB800002D0006806B010BD0168F8
:102D600050F8040CFDF762FA06B04FF0FF31BDE8F1
:102D70001040FDF7F1BA0000D52A00082DE9F04116
:102D800000250E4607462C4607E000BF57F82410E2
:102D90002846FDF74BFA0546641CB442F6DB304684
:102DA000FDF7FFFB01462846BDE8F041FDF796BA66
:102DB0000000803FCDCC8C3F9A99993F6666A63F34
:102DC0003333B33F000020410000C03FCDCCCC3FA7
:102DD0009A99D93F6666E63F000000406666064065
:102DE0000000A0C1CDCC0C40333313409A99194058
:102DF0000000204066662640CDCC2C403333334063
:102E0000010202030405060708090A0B0C0D0E0F48
:102E1000101000000000000000000102030406077B
:102E20000809000000000102030400004C2E000805
:102E30000000002020000000742000086C2E000814
:102E40002000002068070000842000080000000027
:102E50000000000001000000100000000000000061
:0C2E60000024F40000000000000000004E
:04000005080000ED02
:00000001FF
